{
	"contracts/airdrop.sol": {
		"Airdrop": {
			"abi": [
				{
					"inputs": [
						{
							"internalType": "address",
							"name": "_tokenAddress",
							"type": "address"
						}
					],
					"stateMutability": "nonpayable",
					"type": "constructor"
				},
				{
					"anonymous": false,
					"inputs": [
						{
							"indexed": true,
							"internalType": "address",
							"name": "recipient",
							"type": "address"
						},
						{
							"indexed": false,
							"internalType": "uint256",
							"name": "amount",
							"type": "uint256"
						}
					],
					"name": "AirdropBNB",
					"type": "event"
				},
				{
					"anonymous": false,
					"inputs": [
						{
							"indexed": true,
							"internalType": "address",
							"name": "recipient",
							"type": "address"
						},
						{
							"indexed": false,
							"internalType": "uint256",
							"name": "amount",
							"type": "uint256"
						}
					],
					"name": "AirdropERC20",
					"type": "event"
				},
				{
					"inputs": [
						{
							"internalType": "address[]",
							"name": "recipients",
							"type": "address[]"
						},
						{
							"internalType": "uint256[]",
							"name": "amounts",
							"type": "uint256[]"
						}
					],
					"name": "airdropBNB",
					"outputs": [],
					"stateMutability": "payable",
					"type": "function"
				},
				{
					"inputs": [
						{
							"internalType": "address[]",
							"name": "recipients",
							"type": "address[]"
						},
						{
							"internalType": "uint256[]",
							"name": "amounts",
							"type": "uint256[]"
						}
					],
					"name": "airdropERC20",
					"outputs": [],
					"stateMutability": "nonpayable",
					"type": "function"
				},
				{
					"inputs": [],
					"name": "gov",
					"outputs": [
						{
							"internalType": "address",
							"name": "",
							"type": "address"
						}
					],
					"stateMutability": "view",
					"type": "function"
				},
				{
					"inputs": [
						{
							"internalType": "address",
							"name": "_newGov",
							"type": "address"
						}
					],
					"name": "setGov",
					"outputs": [],
					"stateMutability": "nonpayable",
					"type": "function"
				},
				{
					"inputs": [],
					"name": "token",
					"outputs": [
						{
							"internalType": "contract IERC20",
							"name": "",
							"type": "address"
						}
					],
					"stateMutability": "view",
					"type": "function"
				},
				{
					"stateMutability": "payable",
					"type": "receive"
				}
			],
			"devdoc": {
				"kind": "dev",
				"methods": {},
				"version": 1
			},
			"evm": {
				"assembly": "    /* \"contracts/airdrop.sol\":88:3549  contract Airdrop{... */\n  mstore(0x40, 0x80)\n    /* \"contracts/airdrop.sol\":661:860  constructor(address _tokenAddress) {... */\n  callvalue\n  dup1\n  iszero\n  tag_1\n  jumpi\n  revert(0x00, 0x00)\ntag_1:\n  pop\n  mload(0x40)\n  sub(codesize, bytecodeSize)\n  dup1\n  bytecodeSize\n  dup4\n  codecopy\n  dup2\n  dup2\n  add\n  0x40\n  mstore\n  dup2\n  add\n  swap1\n  tag_2\n  swap2\n  swap1\n  tag_3\n  jump\t// in\ntag_2:\n    /* \"contracts/airdrop.sol\":713:723  msg.sender */\n  caller\n    /* \"contracts/airdrop.sol\":707:710  gov */\n  0x00\n  0x00\n    /* \"contracts/airdrop.sol\":707:723  gov = msg.sender */\n  0x0100\n  exp\n  dup2\n  sload\n  dup2\n  0xffffffffffffffffffffffffffffffffffffffff\n  mul\n  not\n  and\n  swap1\n  dup4\n  0xffffffffffffffffffffffffffffffffffffffff\n  and\n  mul\n  or\n  swap1\n  sstore\n  pop\n    /* \"contracts/airdrop.sol\":780:793  _tokenAddress */\n  dup1\n    /* \"contracts/airdrop.sol\":765:770  token */\n  0x01\n  0x00\n    /* \"contracts/airdrop.sol\":765:794  token = IERC20(_tokenAddress) */\n  0x0100\n  exp\n  dup2\n  sload\n  dup2\n  0xffffffffffffffffffffffffffffffffffffffff\n  mul\n  not\n  and\n  swap1\n  dup4\n  0xffffffffffffffffffffffffffffffffffffffff\n  and\n  mul\n  or\n  swap1\n  sstore\n  pop\n    /* \"contracts/airdrop.sol\":661:860  constructor(address _tokenAddress) {... */\n  pop\n    /* \"contracts/airdrop.sol\":88:3549  contract Airdrop{... */\n  jump(tag_6)\n    /* \"#utility.yul\":88:205   */\ntag_8:\n    /* \"#utility.yul\":197:198   */\n  0x00\n    /* \"#utility.yul\":194:195   */\n  0x00\n    /* \"#utility.yul\":187:199   */\n  revert\n    /* \"#utility.yul\":334:460   */\ntag_10:\n    /* \"#utility.yul\":371:378   */\n  0x00\n    /* \"#utility.yul\":411:453   */\n  0xffffffffffffffffffffffffffffffffffffffff\n    /* \"#utility.yul\":404:409   */\n  dup3\n    /* \"#utility.yul\":400:454   */\n  and\n    /* \"#utility.yul\":389:454   */\n  swap1\n  pop\n    /* \"#utility.yul\":334:460   */\n  swap2\n  swap1\n  pop\n  jump\t// out\n    /* \"#utility.yul\":466:562   */\ntag_11:\n    /* \"#utility.yul\":503:510   */\n  0x00\n    /* \"#utility.yul\":532:556   */\n  tag_20\n    /* \"#utility.yul\":550:555   */\n  dup3\n    /* \"#utility.yul\":532:556   */\n  tag_10\n  jump\t// in\ntag_20:\n    /* \"#utility.yul\":521:556   */\n  swap1\n  pop\n    /* \"#utility.yul\":466:562   */\n  swap2\n  swap1\n  pop\n  jump\t// out\n    /* \"#utility.yul\":568:690   */\ntag_12:\n    /* \"#utility.yul\":641:665   */\n  tag_22\n    /* \"#utility.yul\":659:664   */\n  dup2\n    /* \"#utility.yul\":641:665   */\n  tag_11\n  jump\t// in\ntag_22:\n    /* \"#utility.yul\":634:639   */\n  dup2\n    /* \"#utility.yul\":631:666   */\n  eq\n    /* \"#utility.yul\":621:684   */\n  tag_23\n  jumpi\n    /* \"#utility.yul\":680:681   */\n  0x00\n    /* \"#utility.yul\":677:678   */\n  0x00\n    /* \"#utility.yul\":670:682   */\n  revert\n    /* \"#utility.yul\":621:684   */\ntag_23:\n    /* \"#utility.yul\":568:690   */\n  pop\n  jump\t// out\n    /* \"#utility.yul\":696:839   */\ntag_13:\n    /* \"#utility.yul\":753:758   */\n  0x00\n    /* \"#utility.yul\":784:790   */\n  dup2\n    /* \"#utility.yul\":778:791   */\n  mload\n    /* \"#utility.yul\":769:791   */\n  swap1\n  pop\n    /* \"#utility.yul\":800:833   */\n  tag_25\n    /* \"#utility.yul\":827:832   */\n  dup2\n    /* \"#utility.yul\":800:833   */\n  tag_12\n  jump\t// in\ntag_25:\n    /* \"#utility.yul\":696:839   */\n  swap3\n  swap2\n  pop\n  pop\n  jump\t// out\n    /* \"#utility.yul\":845:1196   */\ntag_3:\n    /* \"#utility.yul\":915:921   */\n  0x00\n    /* \"#utility.yul\":964:966   */\n  0x20\n    /* \"#utility.yul\":952:961   */\n  dup3\n    /* \"#utility.yul\":943:950   */\n  dup5\n    /* \"#utility.yul\":939:962   */\n  sub\n    /* \"#utility.yul\":935:967   */\n  slt\n    /* \"#utility.yul\":932:1051   */\n  iszero\n  tag_27\n  jumpi\n    /* \"#utility.yul\":970:1049   */\n  tag_28\n  tag_8\n  jump\t// in\ntag_28:\n    /* \"#utility.yul\":932:1051   */\ntag_27:\n    /* \"#utility.yul\":1090:1091   */\n  0x00\n    /* \"#utility.yul\":1115:1179   */\n  tag_29\n    /* \"#utility.yul\":1171:1178   */\n  dup5\n    /* \"#utility.yul\":1162:1168   */\n  dup3\n    /* \"#utility.yul\":1151:1160   */\n  dup6\n    /* \"#utility.yul\":1147:1169   */\n  add\n    /* \"#utility.yul\":1115:1179   */\n  tag_13\n  jump\t// in\ntag_29:\n    /* \"#utility.yul\":1105:1179   */\n  swap2\n  pop\n    /* \"#utility.yul\":1061:1189   */\n  pop\n    /* \"#utility.yul\":845:1196   */\n  swap3\n  swap2\n  pop\n  pop\n  jump\t// out\n    /* \"contracts/airdrop.sol\":88:3549  contract Airdrop{... */\ntag_6:\n  dataSize(sub_0)\n  dup1\n  dataOffset(sub_0)\n  0x00\n  codecopy\n  0x00\n  return\nstop\n\nsub_0: assembly {\n        /* \"contracts/airdrop.sol\":88:3549  contract Airdrop{... */\n      mstore(0x40, 0x80)\n      jumpi(tag_1, lt(calldatasize, 0x04))\n      shr(0xe0, calldataload(0x00))\n      dup1\n      0x12d43a51\n      eq\n      tag_3\n      jumpi\n      dup1\n      0x677e88c3\n      eq\n      tag_4\n      jumpi\n      dup1\n      0xa3b86230\n      eq\n      tag_5\n      jumpi\n      dup1\n      0xcfad57a2\n      eq\n      tag_6\n      jumpi\n      dup1\n      0xfc0c546a\n      eq\n      tag_7\n      jumpi\n      jump(tag_2)\n    tag_1:\n      jumpi(tag_2, calldatasize)\n      stop\n    tag_2:\n      revert(0x00, 0x00)\n        /* \"contracts/airdrop.sol\":111:129  address public gov */\n    tag_3:\n      callvalue\n      dup1\n      iszero\n      tag_10\n      jumpi\n      revert(0x00, 0x00)\n    tag_10:\n      pop\n      tag_11\n      tag_12\n      jump\t// in\n    tag_11:\n      mload(0x40)\n      tag_13\n      swap2\n      swap1\n      tag_14\n      jump\t// in\n    tag_13:\n      mload(0x40)\n      dup1\n      swap2\n      sub\n      swap1\n      return\n        /* \"contracts/airdrop.sol\":2250:3434  function airdropBNB(address[] memory recipients, uint256[] memory amounts) external payable onlyGov {... */\n    tag_4:\n      tag_15\n      0x04\n      dup1\n      calldatasize\n      sub\n      dup2\n      add\n      swap1\n      tag_16\n      swap2\n      swap1\n      tag_17\n      jump\t// in\n    tag_16:\n      tag_18\n      jump\t// in\n    tag_15:\n      stop\n        /* \"contracts/airdrop.sol\":1067:2220  function airdropERC20(address[] memory recipients, uint256[] memory amounts) external onlyGov {... */\n    tag_5:\n      callvalue\n      dup1\n      iszero\n      tag_19\n      jumpi\n      revert(0x00, 0x00)\n    tag_19:\n      pop\n      tag_20\n      0x04\n      dup1\n      calldatasize\n      sub\n      dup2\n      add\n      swap1\n      tag_21\n      swap2\n      swap1\n      tag_17\n      jump\t// in\n    tag_21:\n      tag_22\n      jump\t// in\n    tag_20:\n      stop\n        /* \"contracts/airdrop.sol\":866:1033  function setGov(address _newGov)public  onlyGov{... */\n    tag_6:\n      callvalue\n      dup1\n      iszero\n      tag_23\n      jumpi\n      revert(0x00, 0x00)\n    tag_23:\n      pop\n      tag_24\n      0x04\n      dup1\n      calldatasize\n      sub\n      dup2\n      add\n      swap1\n      tag_25\n      swap2\n      swap1\n      tag_26\n      jump\t// in\n    tag_25:\n      tag_27\n      jump\t// in\n    tag_24:\n      stop\n        /* \"contracts/airdrop.sol\":183:202  IERC20 public token */\n    tag_7:\n      callvalue\n      dup1\n      iszero\n      tag_28\n      jumpi\n      revert(0x00, 0x00)\n    tag_28:\n      pop\n      tag_29\n      tag_30\n      jump\t// in\n    tag_29:\n      mload(0x40)\n      tag_31\n      swap2\n      swap1\n      tag_32\n      jump\t// in\n    tag_31:\n      mload(0x40)\n      dup1\n      swap2\n      sub\n      swap1\n      return\n        /* \"contracts/airdrop.sol\":111:129  address public gov */\n    tag_12:\n      0x00\n      0x00\n      swap1\n      sload\n      swap1\n      0x0100\n      exp\n      swap1\n      div\n      0xffffffffffffffffffffffffffffffffffffffff\n      and\n      dup2\n      jump\t// out\n        /* \"contracts/airdrop.sol\":2250:3434  function airdropBNB(address[] memory recipients, uint256[] memory amounts) external payable onlyGov {... */\n    tag_18:\n        /* \"contracts/airdrop.sol\":531:534  gov */\n      0x00\n      0x00\n      swap1\n      sload\n      swap1\n      0x0100\n      exp\n      swap1\n      div\n      0xffffffffffffffffffffffffffffffffffffffff\n      and\n        /* \"contracts/airdrop.sol\":517:534  msg.sender == gov */\n      0xffffffffffffffffffffffffffffffffffffffff\n      and\n        /* \"contracts/airdrop.sol\":517:527  msg.sender */\n      caller\n        /* \"contracts/airdrop.sol\":517:534  msg.sender == gov */\n      0xffffffffffffffffffffffffffffffffffffffff\n      and\n      eq\n        /* \"contracts/airdrop.sol\":509:570  require(msg.sender == gov, \"Airdrop: caller is not governor\") */\n      tag_34\n      jumpi\n      mload(0x40)\n      0x08c379a000000000000000000000000000000000000000000000000000000000\n      dup2\n      mstore\n      0x04\n      add\n      tag_35\n      swap1\n      tag_36\n      jump\t// in\n    tag_35:\n      mload(0x40)\n      dup1\n      swap2\n      sub\n      swap1\n      revert\n    tag_34:\n        /* \"contracts/airdrop.sol\":2513:2520  amounts */\n      dup1\n        /* \"contracts/airdrop.sol\":2513:2527  amounts.length */\n      mload\n        /* \"contracts/airdrop.sol\":2494:2504  recipients */\n      dup3\n        /* \"contracts/airdrop.sol\":2494:2511  recipients.length */\n      mload\n        /* \"contracts/airdrop.sol\":2494:2527  recipients.length==amounts.length */\n      eq\n        /* \"contracts/airdrop.sol\":2486:2568  require(recipients.length==amounts.length,unicode\"BNB两个数组长度不相等\") */\n      tag_38\n      jumpi\n      mload(0x40)\n      0x08c379a000000000000000000000000000000000000000000000000000000000\n      dup2\n      mstore\n      0x04\n      add\n      tag_39\n      swap1\n      tag_40\n      jump\t// in\n    tag_39:\n      mload(0x40)\n      dup1\n      swap2\n      sub\n      swap1\n      revert\n    tag_38:\n        /* \"contracts/airdrop.sol\":2579:2597  uint256 toalAmount */\n      0x00\n        /* \"contracts/airdrop.sol\":2612:2621  uint256 i */\n      0x00\n        /* \"contracts/airdrop.sol\":2622:2623  0 */\n      0x00\n        /* \"contracts/airdrop.sol\":2612:2623  uint256 i=0 */\n      swap1\n      pop\n        /* \"contracts/airdrop.sol\":2608:2918  for(uint256 i=0;i<recipients.length;i++){... */\n    tag_41:\n        /* \"contracts/airdrop.sol\":2626:2636  recipients */\n      dup4\n        /* \"contracts/airdrop.sol\":2626:2643  recipients.length */\n      mload\n        /* \"contracts/airdrop.sol\":2624:2625  i */\n      dup2\n        /* \"contracts/airdrop.sol\":2624:2643  i<recipients.length */\n      lt\n        /* \"contracts/airdrop.sol\":2608:2918  for(uint256 i=0;i<recipients.length;i++){... */\n      iszero\n      tag_42\n      jumpi\n        /* \"contracts/airdrop.sol\":2663:2680  address recipient */\n      0x00\n        /* \"contracts/airdrop.sol\":2681:2691  recipients */\n      dup5\n        /* \"contracts/airdrop.sol\":2692:2693  i */\n      dup3\n        /* \"contracts/airdrop.sol\":2681:2694  recipients[i] */\n      dup2\n      mload\n      dup2\n      lt\n      tag_44\n      jumpi\n      tag_45\n      tag_46\n      jump\t// in\n    tag_45:\n    tag_44:\n      0x20\n      mul\n      0x20\n      add\n      add\n      mload\n        /* \"contracts/airdrop.sol\":2663:2694  address recipient=recipients[i] */\n      swap1\n      pop\n        /* \"contracts/airdrop.sol\":2709:2723  uint256 amount */\n      0x00\n        /* \"contracts/airdrop.sol\":2724:2731  amounts */\n      dup5\n        /* \"contracts/airdrop.sol\":2732:2733  i */\n      dup4\n        /* \"contracts/airdrop.sol\":2724:2734  amounts[i] */\n      dup2\n      mload\n      dup2\n      lt\n      tag_47\n      jumpi\n      tag_48\n      tag_46\n      jump\t// in\n    tag_48:\n    tag_47:\n      0x20\n      mul\n      0x20\n      add\n      add\n      mload\n        /* \"contracts/airdrop.sol\":2709:2734  uint256 amount=amounts[i] */\n      swap1\n      pop\n        /* \"contracts/airdrop.sol\":2776:2777  0 */\n      0x00\n        /* \"contracts/airdrop.sol\":2757:2778  recipient!=address(0) */\n      0xffffffffffffffffffffffffffffffffffffffff\n      and\n        /* \"contracts/airdrop.sol\":2757:2766  recipient */\n      dup3\n        /* \"contracts/airdrop.sol\":2757:2778  recipient!=address(0) */\n      0xffffffffffffffffffffffffffffffffffffffff\n      and\n      sub\n        /* \"contracts/airdrop.sol\":2749:2813  require(recipient!=address(0),unicode\"BNB转账地址不为空\") */\n      tag_49\n      jumpi\n      mload(0x40)\n      0x08c379a000000000000000000000000000000000000000000000000000000000\n      dup2\n      mstore\n      0x04\n      add\n      tag_50\n      swap1\n      tag_51\n      jump\t// in\n    tag_50:\n      mload(0x40)\n      dup1\n      swap2\n      sub\n      swap1\n      revert\n    tag_49:\n        /* \"contracts/airdrop.sol\":2843:2844  0 */\n      0x00\n        /* \"contracts/airdrop.sol\":2836:2842  amount */\n      dup2\n        /* \"contracts/airdrop.sol\":2836:2844  amount>0 */\n      gt\n        /* \"contracts/airdrop.sol\":2828:2871  require(amount>0,unicode\"BNB转账不为0\") */\n      tag_52\n      jumpi\n      mload(0x40)\n      0x08c379a000000000000000000000000000000000000000000000000000000000\n      dup2\n      mstore\n      0x04\n      add\n      tag_53\n      swap1\n      tag_54\n      jump\t// in\n    tag_53:\n      mload(0x40)\n      dup1\n      swap2\n      sub\n      swap1\n      revert\n    tag_52:\n        /* \"contracts/airdrop.sol\":2898:2904  amount */\n      dup1\n        /* \"contracts/airdrop.sol\":2886:2904  toalAmount+=amount */\n      dup5\n      tag_55\n      swap2\n      swap1\n      tag_56\n      jump\t// in\n    tag_55:\n      swap4\n      pop\n        /* \"contracts/airdrop.sol\":2648:2918  {... */\n      pop\n      pop\n        /* \"contracts/airdrop.sol\":2644:2647  i++ */\n      dup1\n      dup1\n      0x01\n      add\n      swap2\n      pop\n      pop\n        /* \"contracts/airdrop.sol\":2608:2918  for(uint256 i=0;i<recipients.length;i++){... */\n      jump(tag_41)\n    tag_42:\n      pop\n        /* \"contracts/airdrop.sol\":2947:2957  toalAmount */\n      dup1\n        /* \"contracts/airdrop.sol\":2936:2945  msg.value */\n      callvalue\n        /* \"contracts/airdrop.sol\":2936:2957  msg.value==toalAmount */\n      eq\n        /* \"contracts/airdrop.sol\":2928:3000  require(msg.value==toalAmount,unicode\"BNB msg.value 不等于总金额\") */\n      tag_57\n      jumpi\n      mload(0x40)\n      0x08c379a000000000000000000000000000000000000000000000000000000000\n      dup2\n      mstore\n      0x04\n      add\n      tag_58\n      swap1\n      tag_59\n      jump\t// in\n    tag_58:\n      mload(0x40)\n      dup1\n      swap2\n      sub\n      swap1\n      revert\n    tag_57:\n        /* \"contracts/airdrop.sol\":3050:3059  uint256 i */\n      0x00\n        /* \"contracts/airdrop.sol\":3060:3061  0 */\n      0x00\n        /* \"contracts/airdrop.sol\":3050:3061  uint256 i=0 */\n      swap1\n      pop\n        /* \"contracts/airdrop.sol\":3045:3426  for (uint256 i=0;i<recipients.length;i++){... */\n    tag_60:\n        /* \"contracts/airdrop.sol\":3064:3074  recipients */\n      dup4\n        /* \"contracts/airdrop.sol\":3064:3081  recipients.length */\n      mload\n        /* \"contracts/airdrop.sol\":3062:3063  i */\n      dup2\n        /* \"contracts/airdrop.sol\":3062:3081  i<recipients.length */\n      lt\n        /* \"contracts/airdrop.sol\":3045:3426  for (uint256 i=0;i<recipients.length;i++){... */\n      iszero\n      tag_61\n      jumpi\n        /* \"contracts/airdrop.sol\":3101:3118  address recipient */\n      0x00\n        /* \"contracts/airdrop.sol\":3119:3129  recipients */\n      dup5\n        /* \"contracts/airdrop.sol\":3130:3131  i */\n      dup3\n        /* \"contracts/airdrop.sol\":3119:3132  recipients[i] */\n      dup2\n      mload\n      dup2\n      lt\n      tag_63\n      jumpi\n      tag_64\n      tag_46\n      jump\t// in\n    tag_64:\n    tag_63:\n      0x20\n      mul\n      0x20\n      add\n      add\n      mload\n        /* \"contracts/airdrop.sol\":3101:3132  address recipient=recipients[i] */\n      swap1\n      pop\n        /* \"contracts/airdrop.sol\":3147:3161  uint256 amount */\n      0x00\n        /* \"contracts/airdrop.sol\":3162:3169  amounts */\n      dup5\n        /* \"contracts/airdrop.sol\":3170:3171  i */\n      dup4\n        /* \"contracts/airdrop.sol\":3162:3172  amounts[i] */\n      dup2\n      mload\n      dup2\n      lt\n      tag_65\n      jumpi\n      tag_66\n      tag_46\n      jump\t// in\n    tag_66:\n    tag_65:\n      0x20\n      mul\n      0x20\n      add\n      add\n      mload\n        /* \"contracts/airdrop.sol\":3147:3172  uint256 amount=amounts[i] */\n      swap1\n      pop\n        /* \"contracts/airdrop.sol\":3263:3275  bool success */\n      0x00\n        /* \"contracts/airdrop.sol\":3278:3287  recipient */\n      dup3\n        /* \"contracts/airdrop.sol\":3278:3292  recipient.call */\n      0xffffffffffffffffffffffffffffffffffffffff\n      and\n        /* \"contracts/airdrop.sol\":3299:3305  amount */\n      dup3\n        /* \"contracts/airdrop.sol\":3278:3310  recipient.call{value:amount}(\"\") */\n      mload(0x40)\n      tag_67\n      swap1\n      tag_68\n      jump\t// in\n    tag_67:\n      0x00\n      mload(0x40)\n      dup1\n      dup4\n      sub\n      dup2\n      dup6\n      dup8\n      gas\n      call\n      swap3\n      pop\n      pop\n      pop\n      returndatasize\n      dup1\n      0x00\n      dup2\n      eq\n      tag_71\n      jumpi\n      mload(0x40)\n      swap2\n      pop\n      and(add(returndatasize, 0x3f), not(0x1f))\n      dup3\n      add\n      0x40\n      mstore\n      returndatasize\n      dup3\n      mstore\n      returndatasize\n      0x00\n      0x20\n      dup5\n      add\n      returndatacopy\n      jump(tag_70)\n    tag_71:\n      0x60\n      swap2\n      pop\n    tag_70:\n      pop\n        /* \"contracts/airdrop.sol\":3262:3310  (bool success,)=recipient.call{value:amount}(\"\") */\n      pop\n      swap1\n      pop\n        /* \"contracts/airdrop.sol\":3333:3340  success */\n      dup1\n        /* \"contracts/airdrop.sol\":3325:3366  require(success,unicode\"BNB转账失败\") */\n      tag_72\n      jumpi\n      mload(0x40)\n      0x08c379a000000000000000000000000000000000000000000000000000000000\n      dup2\n      mstore\n      0x04\n      add\n      tag_73\n      swap1\n      tag_74\n      jump\t// in\n    tag_73:\n      mload(0x40)\n      dup1\n      swap2\n      sub\n      swap1\n      revert\n    tag_72:\n        /* \"contracts/airdrop.sol\":3397:3406  recipient */\n      dup3\n        /* \"contracts/airdrop.sol\":3386:3414  AirdropBNB(recipient,amount) */\n      0xffffffffffffffffffffffffffffffffffffffff\n      and\n      0xad69676d22bff286c2c75292a594cdb796eb0183314fb9892ab1c9182823a348\n        /* \"contracts/airdrop.sol\":3407:3413  amount */\n      dup4\n        /* \"contracts/airdrop.sol\":3386:3414  AirdropBNB(recipient,amount) */\n      mload(0x40)\n      tag_75\n      swap2\n      swap1\n      tag_76\n      jump\t// in\n    tag_75:\n      mload(0x40)\n      dup1\n      swap2\n      sub\n      swap1\n      log2\n        /* \"contracts/airdrop.sol\":3086:3426  {... */\n      pop\n      pop\n      pop\n        /* \"contracts/airdrop.sol\":3082:3085  i++ */\n      dup1\n      dup1\n      0x01\n      add\n      swap2\n      pop\n      pop\n        /* \"contracts/airdrop.sol\":3045:3426  for (uint256 i=0;i<recipients.length;i++){... */\n      jump(tag_60)\n    tag_61:\n      pop\n        /* \"contracts/airdrop.sol\":2350:3434  {... */\n      pop\n        /* \"contracts/airdrop.sol\":2250:3434  function airdropBNB(address[] memory recipients, uint256[] memory amounts) external payable onlyGov {... */\n      pop\n      pop\n      jump\t// out\n        /* \"contracts/airdrop.sol\":1067:2220  function airdropERC20(address[] memory recipients, uint256[] memory amounts) external onlyGov {... */\n    tag_22:\n        /* \"contracts/airdrop.sol\":531:534  gov */\n      0x00\n      0x00\n      swap1\n      sload\n      swap1\n      0x0100\n      exp\n      swap1\n      div\n      0xffffffffffffffffffffffffffffffffffffffff\n      and\n        /* \"contracts/airdrop.sol\":517:534  msg.sender == gov */\n      0xffffffffffffffffffffffffffffffffffffffff\n      and\n        /* \"contracts/airdrop.sol\":517:527  msg.sender */\n      caller\n        /* \"contracts/airdrop.sol\":517:534  msg.sender == gov */\n      0xffffffffffffffffffffffffffffffffffffffff\n      and\n      eq\n        /* \"contracts/airdrop.sol\":509:570  require(msg.sender == gov, \"Airdrop: caller is not governor\") */\n      tag_78\n      jumpi\n      mload(0x40)\n      0x08c379a000000000000000000000000000000000000000000000000000000000\n      dup2\n      mstore\n      0x04\n      add\n      tag_79\n      swap1\n      tag_36\n      jump\t// in\n    tag_79:\n      mload(0x40)\n      dup1\n      swap2\n      sub\n      swap1\n      revert\n    tag_78:\n        /* \"contracts/airdrop.sol\":1255:1262  amounts */\n      dup1\n        /* \"contracts/airdrop.sol\":1255:1269  amounts.length */\n      mload\n        /* \"contracts/airdrop.sol\":1236:1246  recipients */\n      dup3\n        /* \"contracts/airdrop.sol\":1236:1253  recipients.length */\n      mload\n        /* \"contracts/airdrop.sol\":1236:1269  recipients.length==amounts.length */\n      eq\n        /* \"contracts/airdrop.sol\":1228:1302  require(recipients.length==amounts.length, unicode\"两个长度不相等\") */\n      tag_81\n      jumpi\n      mload(0x40)\n      0x08c379a000000000000000000000000000000000000000000000000000000000\n      dup2\n      mstore\n      0x04\n      add\n      tag_82\n      swap1\n      tag_83\n      jump\t// in\n    tag_82:\n      mload(0x40)\n      dup1\n      swap2\n      sub\n      swap1\n      revert\n    tag_81:\n        /* \"contracts/airdrop.sol\":1309:1328  uint256 totalAmount */\n      0x00\n        /* \"contracts/airdrop.sol\":1395:1404  uint256 i */\n      0x00\n        /* \"contracts/airdrop.sol\":1405:1406  0 */\n      0x00\n        /* \"contracts/airdrop.sol\":1395:1406  uint256 i=0 */\n      swap1\n      pop\n        /* \"contracts/airdrop.sol\":1390:1668  for (uint256 i=0;i<recipients.length;i++){... */\n    tag_84:\n        /* \"contracts/airdrop.sol\":1409:1419  recipients */\n      dup4\n        /* \"contracts/airdrop.sol\":1409:1426  recipients.length */\n      mload\n        /* \"contracts/airdrop.sol\":1407:1408  i */\n      dup2\n        /* \"contracts/airdrop.sol\":1407:1426  i<recipients.length */\n      lt\n        /* \"contracts/airdrop.sol\":1390:1668  for (uint256 i=0;i<recipients.length;i++){... */\n      iszero\n      tag_85\n      jumpi\n        /* \"contracts/airdrop.sol\":1442:1459  address recipient */\n      0x00\n        /* \"contracts/airdrop.sol\":1460:1470  recipients */\n      dup5\n        /* \"contracts/airdrop.sol\":1471:1472  i */\n      dup3\n        /* \"contracts/airdrop.sol\":1460:1473  recipients[i] */\n      dup2\n      mload\n      dup2\n      lt\n      tag_87\n      jumpi\n      tag_88\n      tag_46\n      jump\t// in\n    tag_88:\n    tag_87:\n      0x20\n      mul\n      0x20\n      add\n      add\n      mload\n        /* \"contracts/airdrop.sol\":1442:1473  address recipient=recipients[i] */\n      swap1\n      pop\n        /* \"contracts/airdrop.sol\":1484:1498  uint256 amount */\n      0x00\n        /* \"contracts/airdrop.sol\":1499:1506  amounts */\n      dup5\n        /* \"contracts/airdrop.sol\":1507:1508  i */\n      dup4\n        /* \"contracts/airdrop.sol\":1499:1509  amounts[i] */\n      dup2\n      mload\n      dup2\n      lt\n      tag_89\n      jumpi\n      tag_90\n      tag_46\n      jump\t// in\n    tag_90:\n    tag_89:\n      0x20\n      mul\n      0x20\n      add\n      add\n      mload\n        /* \"contracts/airdrop.sol\":1484:1509  uint256 amount=amounts[i] */\n      swap1\n      pop\n        /* \"contracts/airdrop.sol\":1547:1548  0 */\n      0x00\n        /* \"contracts/airdrop.sol\":1528:1549  recipient!=address(0) */\n      0xffffffffffffffffffffffffffffffffffffffff\n      and\n        /* \"contracts/airdrop.sol\":1528:1537  recipient */\n      dup3\n        /* \"contracts/airdrop.sol\":1528:1549  recipient!=address(0) */\n      0xffffffffffffffffffffffffffffffffffffffff\n      and\n      sub\n        /* \"contracts/airdrop.sol\":1520:1581  require(recipient!=address(0),unicode\"接收地址不存在\") */\n      tag_91\n      jumpi\n      mload(0x40)\n      0x08c379a000000000000000000000000000000000000000000000000000000000\n      dup2\n      mstore\n      0x04\n      add\n      tag_92\n      swap1\n      tag_93\n      jump\t// in\n    tag_92:\n      mload(0x40)\n      dup1\n      swap2\n      sub\n      swap1\n      revert\n    tag_91:\n        /* \"contracts/airdrop.sol\":1607:1608  0 */\n      0x00\n        /* \"contracts/airdrop.sol\":1600:1606  amount */\n      dup2\n        /* \"contracts/airdrop.sol\":1600:1608  amount>0 */\n      gt\n        /* \"contracts/airdrop.sol\":1592:1629  require(amount>0,unicode\"amount为0\") */\n      tag_94\n      jumpi\n      mload(0x40)\n      0x08c379a000000000000000000000000000000000000000000000000000000000\n      dup2\n      mstore\n      0x04\n      add\n      tag_95\n      swap1\n      tag_96\n      jump\t// in\n    tag_95:\n      mload(0x40)\n      dup1\n      swap2\n      sub\n      swap1\n      revert\n    tag_94:\n        /* \"contracts/airdrop.sol\":1654:1660  amount */\n      dup1\n        /* \"contracts/airdrop.sol\":1640:1660  totalAmount +=amount */\n      dup5\n      tag_97\n      swap2\n      swap1\n      tag_56\n      jump\t// in\n    tag_97:\n      swap4\n      pop\n        /* \"contracts/airdrop.sol\":1431:1668  {... */\n      pop\n      pop\n        /* \"contracts/airdrop.sol\":1427:1430  i++ */\n      dup1\n      dup1\n      0x01\n      add\n      swap2\n      pop\n      pop\n        /* \"contracts/airdrop.sol\":1390:1668  for (uint256 i=0;i<recipients.length;i++){... */\n      jump(tag_84)\n    tag_85:\n      pop\n        /* \"contracts/airdrop.sol\":1765:1776  totalAmount */\n      dup1\n        /* \"contracts/airdrop.sol\":1729:1734  token */\n      0x01\n      0x00\n      swap1\n      sload\n      swap1\n      0x0100\n      exp\n      swap1\n      div\n      0xffffffffffffffffffffffffffffffffffffffff\n      and\n        /* \"contracts/airdrop.sol\":1729:1744  token.allowance */\n      0xffffffffffffffffffffffffffffffffffffffff\n      and\n      0xdd62ed3e\n        /* \"contracts/airdrop.sol\":1745:1748  gov */\n      0x00\n      0x00\n      swap1\n      sload\n      swap1\n      0x0100\n      exp\n      swap1\n      div\n      0xffffffffffffffffffffffffffffffffffffffff\n      and\n        /* \"contracts/airdrop.sol\":1757:1761  this */\n      address\n        /* \"contracts/airdrop.sol\":1729:1763  token.allowance(gov,address(this)) */\n      mload(0x40)\n      dup4\n      0xffffffff\n      and\n      0xe0\n      shl\n      dup2\n      mstore\n      0x04\n      add\n      tag_98\n      swap3\n      swap2\n      swap1\n      tag_99\n      jump\t// in\n    tag_98:\n      0x20\n      mload(0x40)\n      dup1\n      dup4\n      sub\n      dup2\n      dup7\n      gas\n      staticcall\n      iszero\n      dup1\n      iszero\n      tag_101\n      jumpi\n      returndatacopy(0x00, 0x00, returndatasize)\n      revert(0x00, returndatasize)\n    tag_101:\n      pop\n      pop\n      pop\n      pop\n      mload(0x40)\n      returndatasize\n      not(0x1f)\n      0x1f\n      dup3\n      add\n      and\n      dup3\n      add\n      dup1\n      0x40\n      mstore\n      pop\n      dup2\n      add\n      swap1\n      tag_102\n      swap2\n      swap1\n      tag_103\n      jump\t// in\n    tag_102:\n        /* \"contracts/airdrop.sol\":1729:1776  token.allowance(gov,address(this))>=totalAmount */\n      lt\n      iszero\n        /* \"contracts/airdrop.sol\":1721:1805  require(token.allowance(gov,address(this))>=totalAmount,unicode\"授权余额不足\") */\n      tag_104\n      jumpi\n      mload(0x40)\n      0x08c379a000000000000000000000000000000000000000000000000000000000\n      dup2\n      mstore\n      0x04\n      add\n      tag_105\n      swap1\n      tag_106\n      jump\t// in\n    tag_105:\n      mload(0x40)\n      dup1\n      swap2\n      sub\n      swap1\n      revert\n    tag_104:\n        /* \"contracts/airdrop.sol\":1846:1855  uint256 i */\n      0x00\n        /* \"contracts/airdrop.sol\":1856:1857  0 */\n      0x00\n        /* \"contracts/airdrop.sol\":1846:1857  uint256 i=0 */\n      swap1\n      pop\n        /* \"contracts/airdrop.sol\":1842:2207  for(uint256 i=0;i<recipients.length;i++){... */\n    tag_107:\n        /* \"contracts/airdrop.sol\":1860:1870  recipients */\n      dup4\n        /* \"contracts/airdrop.sol\":1860:1877  recipients.length */\n      mload\n        /* \"contracts/airdrop.sol\":1858:1859  i */\n      dup2\n        /* \"contracts/airdrop.sol\":1858:1877  i<recipients.length */\n      lt\n        /* \"contracts/airdrop.sol\":1842:2207  for(uint256 i=0;i<recipients.length;i++){... */\n      iszero\n      tag_108\n      jumpi\n        /* \"contracts/airdrop.sol\":1893:1910  address recipient */\n      0x00\n        /* \"contracts/airdrop.sol\":1911:1921  recipients */\n      dup5\n        /* \"contracts/airdrop.sol\":1922:1923  i */\n      dup3\n        /* \"contracts/airdrop.sol\":1911:1924  recipients[i] */\n      dup2\n      mload\n      dup2\n      lt\n      tag_110\n      jumpi\n      tag_111\n      tag_46\n      jump\t// in\n    tag_111:\n    tag_110:\n      0x20\n      mul\n      0x20\n      add\n      add\n      mload\n        /* \"contracts/airdrop.sol\":1893:1924  address recipient=recipients[i] */\n      swap1\n      pop\n        /* \"contracts/airdrop.sol\":1935:1949  uint256 amount */\n      0x00\n        /* \"contracts/airdrop.sol\":1950:1957  amounts */\n      dup5\n        /* \"contracts/airdrop.sol\":1958:1959  i */\n      dup4\n        /* \"contracts/airdrop.sol\":1950:1960  amounts[i] */\n      dup2\n      mload\n      dup2\n      lt\n      tag_112\n      jumpi\n      tag_113\n      tag_46\n      jump\t// in\n    tag_113:\n    tag_112:\n      0x20\n      mul\n      0x20\n      add\n      add\n      mload\n        /* \"contracts/airdrop.sol\":1935:1960  uint256 amount=amounts[i] */\n      swap1\n      pop\n        /* \"contracts/airdrop.sol\":1971:1983  bool success */\n      0x00\n        /* \"contracts/airdrop.sol\":1984:1989  token */\n      0x01\n      0x00\n      swap1\n      sload\n      swap1\n      0x0100\n      exp\n      swap1\n      div\n      0xffffffffffffffffffffffffffffffffffffffff\n      and\n        /* \"contracts/airdrop.sol\":1984:2002  token.transferFrom */\n      0xffffffffffffffffffffffffffffffffffffffff\n      and\n      0x23b872dd\n        /* \"contracts/airdrop.sol\":2003:2006  gov */\n      0x00\n      0x00\n      swap1\n      sload\n      swap1\n      0x0100\n      exp\n      swap1\n      div\n      0xffffffffffffffffffffffffffffffffffffffff\n      and\n        /* \"contracts/airdrop.sol\":2008:2017  recipient */\n      dup6\n        /* \"contracts/airdrop.sol\":2019:2025  amount */\n      dup6\n        /* \"contracts/airdrop.sol\":1984:2026  token.transferFrom(gov, recipient, amount) */\n      mload(0x40)\n      dup5\n      0xffffffff\n      and\n      0xe0\n      shl\n      dup2\n      mstore\n      0x04\n      add\n      tag_114\n      swap4\n      swap3\n      swap2\n      swap1\n      tag_115\n      jump\t// in\n    tag_114:\n      0x20\n      mload(0x40)\n      dup1\n      dup4\n      sub\n      dup2\n      0x00\n      dup8\n      gas\n      call\n      iszero\n      dup1\n      iszero\n      tag_117\n      jumpi\n      returndatacopy(0x00, 0x00, returndatasize)\n      revert(0x00, returndatasize)\n    tag_117:\n      pop\n      pop\n      pop\n      pop\n      mload(0x40)\n      returndatasize\n      not(0x1f)\n      0x1f\n      dup3\n      add\n      and\n      dup3\n      add\n      dup1\n      0x40\n      mstore\n      pop\n      dup2\n      add\n      swap1\n      tag_118\n      swap2\n      swap1\n      tag_119\n      jump\t// in\n    tag_118:\n        /* \"contracts/airdrop.sol\":1971:2026  bool success=token.transferFrom(gov, recipient, amount) */\n      swap1\n      pop\n        /* \"contracts/airdrop.sol\":2116:2123  success */\n      dup1\n        /* \"contracts/airdrop.sol\":2108:2152  require(success,unicode\"转账空投失败\") */\n      tag_120\n      jumpi\n      mload(0x40)\n      0x08c379a000000000000000000000000000000000000000000000000000000000\n      dup2\n      mstore\n      0x04\n      add\n      tag_121\n      swap1\n      tag_122\n      jump\t// in\n    tag_121:\n      mload(0x40)\n      dup1\n      swap2\n      sub\n      swap1\n      revert\n    tag_120:\n        /* \"contracts/airdrop.sol\":2181:2190  recipient */\n      dup3\n        /* \"contracts/airdrop.sol\":2168:2199  AirdropERC20(recipient, amount) */\n      0xffffffffffffffffffffffffffffffffffffffff\n      and\n      0x9df1485392d28cf778b2fa04dcf0a936cb7703bea0ed28dbe1d0b17f728fa5de\n        /* \"contracts/airdrop.sol\":2192:2198  amount */\n      dup4\n        /* \"contracts/airdrop.sol\":2168:2199  AirdropERC20(recipient, amount) */\n      mload(0x40)\n      tag_123\n      swap2\n      swap1\n      tag_76\n      jump\t// in\n    tag_123:\n      mload(0x40)\n      dup1\n      swap2\n      sub\n      swap1\n      log2\n        /* \"contracts/airdrop.sol\":1882:2207  {... */\n      pop\n      pop\n      pop\n        /* \"contracts/airdrop.sol\":1878:1881  i++ */\n      dup1\n      dup1\n      0x01\n      add\n      swap2\n      pop\n      pop\n        /* \"contracts/airdrop.sol\":1842:2207  for(uint256 i=0;i<recipients.length;i++){... */\n      jump(tag_107)\n    tag_108:\n      pop\n        /* \"contracts/airdrop.sol\":1161:2220  {... */\n      pop\n        /* \"contracts/airdrop.sol\":1067:2220  function airdropERC20(address[] memory recipients, uint256[] memory amounts) external onlyGov {... */\n      pop\n      pop\n      jump\t// out\n        /* \"contracts/airdrop.sol\":866:1033  function setGov(address _newGov)public  onlyGov{... */\n    tag_27:\n        /* \"contracts/airdrop.sol\":531:534  gov */\n      0x00\n      0x00\n      swap1\n      sload\n      swap1\n      0x0100\n      exp\n      swap1\n      div\n      0xffffffffffffffffffffffffffffffffffffffff\n      and\n        /* \"contracts/airdrop.sol\":517:534  msg.sender == gov */\n      0xffffffffffffffffffffffffffffffffffffffff\n      and\n        /* \"contracts/airdrop.sol\":517:527  msg.sender */\n      caller\n        /* \"contracts/airdrop.sol\":517:534  msg.sender == gov */\n      0xffffffffffffffffffffffffffffffffffffffff\n      and\n      eq\n        /* \"contracts/airdrop.sol\":509:570  require(msg.sender == gov, \"Airdrop: caller is not governor\") */\n      tag_125\n      jumpi\n      mload(0x40)\n      0x08c379a000000000000000000000000000000000000000000000000000000000\n      dup2\n      mstore\n      0x04\n      add\n      tag_126\n      swap1\n      tag_36\n      jump\t// in\n    tag_126:\n      mload(0x40)\n      dup1\n      swap2\n      sub\n      swap1\n      revert\n    tag_125:\n        /* \"contracts/airdrop.sol\":952:953  0 */\n      0x00\n        /* \"contracts/airdrop.sol\":933:954  _newGov != address(0) */\n      0xffffffffffffffffffffffffffffffffffffffff\n      and\n        /* \"contracts/airdrop.sol\":933:940  _newGov */\n      dup2\n        /* \"contracts/airdrop.sol\":933:954  _newGov != address(0) */\n      0xffffffffffffffffffffffffffffffffffffffff\n      and\n      sub\n        /* \"contracts/airdrop.sol\":925:991  require(_newGov != address(0), \"Airdrop: new gov is zero address\") */\n      tag_128\n      jumpi\n      mload(0x40)\n      0x08c379a000000000000000000000000000000000000000000000000000000000\n      dup2\n      mstore\n      0x04\n      add\n      tag_129\n      swap1\n      tag_130\n      jump\t// in\n    tag_129:\n      mload(0x40)\n      dup1\n      swap2\n      sub\n      swap1\n      revert\n    tag_128:\n        /* \"contracts/airdrop.sol\":1008:1015  _newGov */\n      dup1\n        /* \"contracts/airdrop.sol\":1002:1005  gov */\n      0x00\n      0x00\n        /* \"contracts/airdrop.sol\":1002:1015  gov = _newGov */\n      0x0100\n      exp\n      dup2\n      sload\n      dup2\n      0xffffffffffffffffffffffffffffffffffffffff\n      mul\n      not\n      and\n      swap1\n      dup4\n      0xffffffffffffffffffffffffffffffffffffffff\n      and\n      mul\n      or\n      swap1\n      sstore\n      pop\n        /* \"contracts/airdrop.sol\":866:1033  function setGov(address _newGov)public  onlyGov{... */\n      pop\n      jump\t// out\n        /* \"contracts/airdrop.sol\":183:202  IERC20 public token */\n    tag_30:\n      0x01\n      0x00\n      swap1\n      sload\n      swap1\n      0x0100\n      exp\n      swap1\n      div\n      0xffffffffffffffffffffffffffffffffffffffff\n      and\n      dup2\n      jump\t// out\n        /* \"#utility.yul\":7:133   */\n    tag_131:\n        /* \"#utility.yul\":44:51   */\n      0x00\n        /* \"#utility.yul\":84:126   */\n      0xffffffffffffffffffffffffffffffffffffffff\n        /* \"#utility.yul\":77:82   */\n      dup3\n        /* \"#utility.yul\":73:127   */\n      and\n        /* \"#utility.yul\":62:127   */\n      swap1\n      pop\n        /* \"#utility.yul\":7:133   */\n      swap2\n      swap1\n      pop\n      jump\t// out\n        /* \"#utility.yul\":139:235   */\n    tag_132:\n        /* \"#utility.yul\":176:183   */\n      0x00\n        /* \"#utility.yul\":205:229   */\n      tag_196\n        /* \"#utility.yul\":223:228   */\n      dup3\n        /* \"#utility.yul\":205:229   */\n      tag_131\n      jump\t// in\n    tag_196:\n        /* \"#utility.yul\":194:229   */\n      swap1\n      pop\n        /* \"#utility.yul\":139:235   */\n      swap2\n      swap1\n      pop\n      jump\t// out\n        /* \"#utility.yul\":241:359   */\n    tag_133:\n        /* \"#utility.yul\":328:352   */\n      tag_198\n        /* \"#utility.yul\":346:351   */\n      dup2\n        /* \"#utility.yul\":328:352   */\n      tag_132\n      jump\t// in\n    tag_198:\n        /* \"#utility.yul\":323:326   */\n      dup3\n        /* \"#utility.yul\":316:353   */\n      mstore\n        /* \"#utility.yul\":241:359   */\n      pop\n      pop\n      jump\t// out\n        /* \"#utility.yul\":365:587   */\n    tag_14:\n        /* \"#utility.yul\":458:462   */\n      0x00\n        /* \"#utility.yul\":496:498   */\n      0x20\n        /* \"#utility.yul\":485:494   */\n      dup3\n        /* \"#utility.yul\":481:499   */\n      add\n        /* \"#utility.yul\":473:499   */\n      swap1\n      pop\n        /* \"#utility.yul\":509:580   */\n      tag_200\n        /* \"#utility.yul\":577:578   */\n      0x00\n        /* \"#utility.yul\":566:575   */\n      dup4\n        /* \"#utility.yul\":562:579   */\n      add\n        /* \"#utility.yul\":553:559   */\n      dup5\n        /* \"#utility.yul\":509:580   */\n      tag_133\n      jump\t// in\n    tag_200:\n        /* \"#utility.yul\":365:587   */\n      swap3\n      swap2\n      pop\n      pop\n      jump\t// out\n        /* \"#utility.yul\":593:668   */\n    tag_134:\n        /* \"#utility.yul\":626:632   */\n      0x00\n        /* \"#utility.yul\":659:661   */\n      0x40\n        /* \"#utility.yul\":653:662   */\n      mload\n        /* \"#utility.yul\":643:662   */\n      swap1\n      pop\n        /* \"#utility.yul\":593:668   */\n      swap1\n      jump\t// out\n        /* \"#utility.yul\":674:791   */\n    tag_135:\n        /* \"#utility.yul\":783:784   */\n      0x00\n        /* \"#utility.yul\":780:781   */\n      0x00\n        /* \"#utility.yul\":773:785   */\n      revert\n        /* \"#utility.yul\":797:914   */\n    tag_136:\n        /* \"#utility.yul\":906:907   */\n      0x00\n        /* \"#utility.yul\":903:904   */\n      0x00\n        /* \"#utility.yul\":896:908   */\n      revert\n        /* \"#utility.yul\":920:1037   */\n    tag_137:\n        /* \"#utility.yul\":1029:1030   */\n      0x00\n        /* \"#utility.yul\":1026:1027   */\n      0x00\n        /* \"#utility.yul\":1019:1031   */\n      revert\n        /* \"#utility.yul\":1043:1145   */\n    tag_138:\n        /* \"#utility.yul\":1084:1090   */\n      0x00\n        /* \"#utility.yul\":1135:1137   */\n      0x1f\n        /* \"#utility.yul\":1131:1138   */\n      not\n        /* \"#utility.yul\":1126:1128   */\n      0x1f\n        /* \"#utility.yul\":1119:1124   */\n      dup4\n        /* \"#utility.yul\":1115:1129   */\n      add\n        /* \"#utility.yul\":1111:1139   */\n      and\n        /* \"#utility.yul\":1101:1139   */\n      swap1\n      pop\n        /* \"#utility.yul\":1043:1145   */\n      swap2\n      swap1\n      pop\n      jump\t// out\n        /* \"#utility.yul\":1151:1331   */\n    tag_139:\n        /* \"#utility.yul\":1199:1276   */\n      0x4e487b7100000000000000000000000000000000000000000000000000000000\n        /* \"#utility.yul\":1196:1197   */\n      0x00\n        /* \"#utility.yul\":1189:1277   */\n      mstore\n        /* \"#utility.yul\":1296:1300   */\n      0x41\n        /* \"#utility.yul\":1293:1294   */\n      0x04\n        /* \"#utility.yul\":1286:1301   */\n      mstore\n        /* \"#utility.yul\":1320:1324   */\n      0x24\n        /* \"#utility.yul\":1317:1318   */\n      0x00\n        /* \"#utility.yul\":1310:1325   */\n      revert\n        /* \"#utility.yul\":1337:1618   */\n    tag_140:\n        /* \"#utility.yul\":1420:1447   */\n      tag_208\n        /* \"#utility.yul\":1442:1446   */\n      dup3\n        /* \"#utility.yul\":1420:1447   */\n      tag_138\n      jump\t// in\n    tag_208:\n        /* \"#utility.yul\":1412:1418   */\n      dup2\n        /* \"#utility.yul\":1408:1448   */\n      add\n        /* \"#utility.yul\":1550:1556   */\n      dup2\n        /* \"#utility.yul\":1538:1548   */\n      dup2\n        /* \"#utility.yul\":1535:1557   */\n      lt\n        /* \"#utility.yul\":1514:1532   */\n      0xffffffffffffffff\n        /* \"#utility.yul\":1502:1512   */\n      dup3\n        /* \"#utility.yul\":1499:1533   */\n      gt\n        /* \"#utility.yul\":1496:1558   */\n      or\n        /* \"#utility.yul\":1493:1581   */\n      iszero\n      tag_209\n      jumpi\n        /* \"#utility.yul\":1561:1579   */\n      tag_210\n      tag_139\n      jump\t// in\n    tag_210:\n        /* \"#utility.yul\":1493:1581   */\n    tag_209:\n        /* \"#utility.yul\":1601:1611   */\n      dup1\n        /* \"#utility.yul\":1597:1599   */\n      0x40\n        /* \"#utility.yul\":1590:1612   */\n      mstore\n        /* \"#utility.yul\":1380:1618   */\n      pop\n        /* \"#utility.yul\":1337:1618   */\n      pop\n      pop\n      jump\t// out\n        /* \"#utility.yul\":1624:1753   */\n    tag_141:\n        /* \"#utility.yul\":1658:1664   */\n      0x00\n        /* \"#utility.yul\":1685:1705   */\n      tag_212\n      tag_134\n      jump\t// in\n    tag_212:\n        /* \"#utility.yul\":1675:1705   */\n      swap1\n      pop\n        /* \"#utility.yul\":1714:1747   */\n      tag_213\n        /* \"#utility.yul\":1742:1746   */\n      dup3\n        /* \"#utility.yul\":1734:1740   */\n      dup3\n        /* \"#utility.yul\":1714:1747   */\n      tag_140\n      jump\t// in\n    tag_213:\n        /* \"#utility.yul\":1624:1753   */\n      swap2\n      swap1\n      pop\n      jump\t// out\n        /* \"#utility.yul\":1759:2070   */\n    tag_142:\n        /* \"#utility.yul\":1836:1840   */\n      0x00\n        /* \"#utility.yul\":1926:1944   */\n      0xffffffffffffffff\n        /* \"#utility.yul\":1918:1924   */\n      dup3\n        /* \"#utility.yul\":1915:1945   */\n      gt\n        /* \"#utility.yul\":1912:1968   */\n      iszero\n      tag_215\n      jumpi\n        /* \"#utility.yul\":1948:1966   */\n      tag_216\n      tag_139\n      jump\t// in\n    tag_216:\n        /* \"#utility.yul\":1912:1968   */\n    tag_215:\n        /* \"#utility.yul\":1998:2002   */\n      0x20\n        /* \"#utility.yul\":1990:1996   */\n      dup3\n        /* \"#utility.yul\":1986:2003   */\n      mul\n        /* \"#utility.yul\":1978:2003   */\n      swap1\n      pop\n        /* \"#utility.yul\":2058:2062   */\n      0x20\n        /* \"#utility.yul\":2052:2056   */\n      dup2\n        /* \"#utility.yul\":2048:2063   */\n      add\n        /* \"#utility.yul\":2040:2063   */\n      swap1\n      pop\n        /* \"#utility.yul\":1759:2070   */\n      swap2\n      swap1\n      pop\n      jump\t// out\n        /* \"#utility.yul\":2076:2193   */\n    tag_143:\n        /* \"#utility.yul\":2185:2186   */\n      0x00\n        /* \"#utility.yul\":2182:2183   */\n      0x00\n        /* \"#utility.yul\":2175:2187   */\n      revert\n        /* \"#utility.yul\":2199:2321   */\n    tag_144:\n        /* \"#utility.yul\":2272:2296   */\n      tag_219\n        /* \"#utility.yul\":2290:2295   */\n      dup2\n        /* \"#utility.yul\":2272:2296   */\n      tag_132\n      jump\t// in\n    tag_219:\n        /* \"#utility.yul\":2265:2270   */\n      dup2\n        /* \"#utility.yul\":2262:2297   */\n      eq\n        /* \"#utility.yul\":2252:2315   */\n      tag_220\n      jumpi\n        /* \"#utility.yul\":2311:2312   */\n      0x00\n        /* \"#utility.yul\":2308:2309   */\n      0x00\n        /* \"#utility.yul\":2301:2313   */\n      revert\n        /* \"#utility.yul\":2252:2315   */\n    tag_220:\n        /* \"#utility.yul\":2199:2321   */\n      pop\n      jump\t// out\n        /* \"#utility.yul\":2327:2466   */\n    tag_145:\n        /* \"#utility.yul\":2373:2378   */\n      0x00\n        /* \"#utility.yul\":2411:2417   */\n      dup2\n        /* \"#utility.yul\":2398:2418   */\n      calldataload\n        /* \"#utility.yul\":2389:2418   */\n      swap1\n      pop\n        /* \"#utility.yul\":2427:2460   */\n      tag_222\n        /* \"#utility.yul\":2454:2459   */\n      dup2\n        /* \"#utility.yul\":2427:2460   */\n      tag_144\n      jump\t// in\n    tag_222:\n        /* \"#utility.yul\":2327:2466   */\n      swap3\n      swap2\n      pop\n      pop\n      jump\t// out\n        /* \"#utility.yul\":2489:3199   */\n    tag_146:\n        /* \"#utility.yul\":2585:2590   */\n      0x00\n        /* \"#utility.yul\":2610:2691   */\n      tag_224\n        /* \"#utility.yul\":2626:2690   */\n      tag_225\n        /* \"#utility.yul\":2683:2689   */\n      dup5\n        /* \"#utility.yul\":2626:2690   */\n      tag_142\n      jump\t// in\n    tag_225:\n        /* \"#utility.yul\":2610:2691   */\n      tag_141\n      jump\t// in\n    tag_224:\n        /* \"#utility.yul\":2601:2691   */\n      swap1\n      pop\n        /* \"#utility.yul\":2711:2716   */\n      dup1\n        /* \"#utility.yul\":2740:2746   */\n      dup4\n        /* \"#utility.yul\":2733:2738   */\n      dup3\n        /* \"#utility.yul\":2726:2747   */\n      mstore\n        /* \"#utility.yul\":2774:2778   */\n      0x20\n        /* \"#utility.yul\":2767:2772   */\n      dup3\n        /* \"#utility.yul\":2763:2779   */\n      add\n        /* \"#utility.yul\":2756:2779   */\n      swap1\n      pop\n        /* \"#utility.yul\":2827:2831   */\n      0x20\n        /* \"#utility.yul\":2819:2825   */\n      dup5\n        /* \"#utility.yul\":2815:2832   */\n      mul\n        /* \"#utility.yul\":2807:2813   */\n      dup4\n        /* \"#utility.yul\":2803:2833   */\n      add\n        /* \"#utility.yul\":2856:2859   */\n      dup6\n        /* \"#utility.yul\":2848:2854   */\n      dup2\n        /* \"#utility.yul\":2845:2860   */\n      gt\n        /* \"#utility.yul\":2842:2964   */\n      iszero\n      tag_226\n      jumpi\n        /* \"#utility.yul\":2875:2954   */\n      tag_227\n      tag_143\n      jump\t// in\n    tag_227:\n        /* \"#utility.yul\":2842:2964   */\n    tag_226:\n        /* \"#utility.yul\":2990:2996   */\n      dup4\n        /* \"#utility.yul\":2973:3193   */\n    tag_228:\n        /* \"#utility.yul\":3007:3013   */\n      dup2\n        /* \"#utility.yul\":3002:3005   */\n      dup2\n        /* \"#utility.yul\":2999:3014   */\n      lt\n        /* \"#utility.yul\":2973:3193   */\n      iszero\n      tag_230\n      jumpi\n        /* \"#utility.yul\":3082:3085   */\n      dup1\n        /* \"#utility.yul\":3111:3148   */\n      tag_231\n        /* \"#utility.yul\":3144:3147   */\n      dup9\n        /* \"#utility.yul\":3132:3142   */\n      dup3\n        /* \"#utility.yul\":3111:3148   */\n      tag_145\n      jump\t// in\n    tag_231:\n        /* \"#utility.yul\":3106:3109   */\n      dup5\n        /* \"#utility.yul\":3099:3149   */\n      mstore\n        /* \"#utility.yul\":3178:3182   */\n      0x20\n        /* \"#utility.yul\":3173:3176   */\n      dup5\n        /* \"#utility.yul\":3169:3183   */\n      add\n        /* \"#utility.yul\":3162:3183   */\n      swap4\n      pop\n        /* \"#utility.yul\":3049:3193   */\n      pop\n        /* \"#utility.yul\":3033:3037   */\n      0x20\n        /* \"#utility.yul\":3028:3031   */\n      dup2\n        /* \"#utility.yul\":3024:3038   */\n      add\n        /* \"#utility.yul\":3017:3038   */\n      swap1\n      pop\n        /* \"#utility.yul\":2973:3193   */\n      jump(tag_228)\n    tag_230:\n        /* \"#utility.yul\":2977:2998   */\n      pop\n        /* \"#utility.yul\":2591:3199   */\n      pop\n      pop\n        /* \"#utility.yul\":2489:3199   */\n      swap4\n      swap3\n      pop\n      pop\n      pop\n      jump\t// out\n        /* \"#utility.yul\":3222:3592   */\n    tag_147:\n        /* \"#utility.yul\":3293:3298   */\n      0x00\n        /* \"#utility.yul\":3342:3345   */\n      dup3\n        /* \"#utility.yul\":3335:3339   */\n      0x1f\n        /* \"#utility.yul\":3327:3333   */\n      dup4\n        /* \"#utility.yul\":3323:3340   */\n      add\n        /* \"#utility.yul\":3319:3346   */\n      slt\n        /* \"#utility.yul\":3309:3431   */\n      tag_233\n      jumpi\n        /* \"#utility.yul\":3350:3429   */\n      tag_234\n      tag_137\n      jump\t// in\n    tag_234:\n        /* \"#utility.yul\":3309:3431   */\n    tag_233:\n        /* \"#utility.yul\":3467:3473   */\n      dup2\n        /* \"#utility.yul\":3454:3474   */\n      calldataload\n        /* \"#utility.yul\":3492:3586   */\n      tag_235\n        /* \"#utility.yul\":3582:3585   */\n      dup5\n        /* \"#utility.yul\":3574:3580   */\n      dup3\n        /* \"#utility.yul\":3567:3571   */\n      0x20\n        /* \"#utility.yul\":3559:3565   */\n      dup7\n        /* \"#utility.yul\":3555:3572   */\n      add\n        /* \"#utility.yul\":3492:3586   */\n      tag_146\n      jump\t// in\n    tag_235:\n        /* \"#utility.yul\":3483:3586   */\n      swap2\n      pop\n        /* \"#utility.yul\":3299:3592   */\n      pop\n        /* \"#utility.yul\":3222:3592   */\n      swap3\n      swap2\n      pop\n      pop\n      jump\t// out\n        /* \"#utility.yul\":3598:3909   */\n    tag_148:\n        /* \"#utility.yul\":3675:3679   */\n      0x00\n        /* \"#utility.yul\":3765:3783   */\n      0xffffffffffffffff\n        /* \"#utility.yul\":3757:3763   */\n      dup3\n        /* \"#utility.yul\":3754:3784   */\n      gt\n        /* \"#utility.yul\":3751:3807   */\n      iszero\n      tag_237\n      jumpi\n        /* \"#utility.yul\":3787:3805   */\n      tag_238\n      tag_139\n      jump\t// in\n    tag_238:\n        /* \"#utility.yul\":3751:3807   */\n    tag_237:\n        /* \"#utility.yul\":3837:3841   */\n      0x20\n        /* \"#utility.yul\":3829:3835   */\n      dup3\n        /* \"#utility.yul\":3825:3842   */\n      mul\n        /* \"#utility.yul\":3817:3842   */\n      swap1\n      pop\n        /* \"#utility.yul\":3897:3901   */\n      0x20\n        /* \"#utility.yul\":3891:3895   */\n      dup2\n        /* \"#utility.yul\":3887:3902   */\n      add\n        /* \"#utility.yul\":3879:3902   */\n      swap1\n      pop\n        /* \"#utility.yul\":3598:3909   */\n      swap2\n      swap1\n      pop\n      jump\t// out\n        /* \"#utility.yul\":3915:3992   */\n    tag_149:\n        /* \"#utility.yul\":3952:3959   */\n      0x00\n        /* \"#utility.yul\":3981:3986   */\n      dup2\n        /* \"#utility.yul\":3970:3986   */\n      swap1\n      pop\n        /* \"#utility.yul\":3915:3992   */\n      swap2\n      swap1\n      pop\n      jump\t// out\n        /* \"#utility.yul\":3998:4120   */\n    tag_150:\n        /* \"#utility.yul\":4071:4095   */\n      tag_241\n        /* \"#utility.yul\":4089:4094   */\n      dup2\n        /* \"#utility.yul\":4071:4095   */\n      tag_149\n      jump\t// in\n    tag_241:\n        /* \"#utility.yul\":4064:4069   */\n      dup2\n        /* \"#utility.yul\":4061:4096   */\n      eq\n        /* \"#utility.yul\":4051:4114   */\n      tag_242\n      jumpi\n        /* \"#utility.yul\":4110:4111   */\n      0x00\n        /* \"#utility.yul\":4107:4108   */\n      0x00\n        /* \"#utility.yul\":4100:4112   */\n      revert\n        /* \"#utility.yul\":4051:4114   */\n    tag_242:\n        /* \"#utility.yul\":3998:4120   */\n      pop\n      jump\t// out\n        /* \"#utility.yul\":4126:4265   */\n    tag_151:\n        /* \"#utility.yul\":4172:4177   */\n      0x00\n        /* \"#utility.yul\":4210:4216   */\n      dup2\n        /* \"#utility.yul\":4197:4217   */\n      calldataload\n        /* \"#utility.yul\":4188:4217   */\n      swap1\n      pop\n        /* \"#utility.yul\":4226:4259   */\n      tag_244\n        /* \"#utility.yul\":4253:4258   */\n      dup2\n        /* \"#utility.yul\":4226:4259   */\n      tag_150\n      jump\t// in\n    tag_244:\n        /* \"#utility.yul\":4126:4265   */\n      swap3\n      swap2\n      pop\n      pop\n      jump\t// out\n        /* \"#utility.yul\":4288:4998   */\n    tag_152:\n        /* \"#utility.yul\":4384:4389   */\n      0x00\n        /* \"#utility.yul\":4409:4490   */\n      tag_246\n        /* \"#utility.yul\":4425:4489   */\n      tag_247\n        /* \"#utility.yul\":4482:4488   */\n      dup5\n        /* \"#utility.yul\":4425:4489   */\n      tag_148\n      jump\t// in\n    tag_247:\n        /* \"#utility.yul\":4409:4490   */\n      tag_141\n      jump\t// in\n    tag_246:\n        /* \"#utility.yul\":4400:4490   */\n      swap1\n      pop\n        /* \"#utility.yul\":4510:4515   */\n      dup1\n        /* \"#utility.yul\":4539:4545   */\n      dup4\n        /* \"#utility.yul\":4532:4537   */\n      dup3\n        /* \"#utility.yul\":4525:4546   */\n      mstore\n        /* \"#utility.yul\":4573:4577   */\n      0x20\n        /* \"#utility.yul\":4566:4571   */\n      dup3\n        /* \"#utility.yul\":4562:4578   */\n      add\n        /* \"#utility.yul\":4555:4578   */\n      swap1\n      pop\n        /* \"#utility.yul\":4626:4630   */\n      0x20\n        /* \"#utility.yul\":4618:4624   */\n      dup5\n        /* \"#utility.yul\":4614:4631   */\n      mul\n        /* \"#utility.yul\":4606:4612   */\n      dup4\n        /* \"#utility.yul\":4602:4632   */\n      add\n        /* \"#utility.yul\":4655:4658   */\n      dup6\n        /* \"#utility.yul\":4647:4653   */\n      dup2\n        /* \"#utility.yul\":4644:4659   */\n      gt\n        /* \"#utility.yul\":4641:4763   */\n      iszero\n      tag_248\n      jumpi\n        /* \"#utility.yul\":4674:4753   */\n      tag_249\n      tag_143\n      jump\t// in\n    tag_249:\n        /* \"#utility.yul\":4641:4763   */\n    tag_248:\n        /* \"#utility.yul\":4789:4795   */\n      dup4\n        /* \"#utility.yul\":4772:4992   */\n    tag_250:\n        /* \"#utility.yul\":4806:4812   */\n      dup2\n        /* \"#utility.yul\":4801:4804   */\n      dup2\n        /* \"#utility.yul\":4798:4813   */\n      lt\n        /* \"#utility.yul\":4772:4992   */\n      iszero\n      tag_252\n      jumpi\n        /* \"#utility.yul\":4881:4884   */\n      dup1\n        /* \"#utility.yul\":4910:4947   */\n      tag_253\n        /* \"#utility.yul\":4943:4946   */\n      dup9\n        /* \"#utility.yul\":4931:4941   */\n      dup3\n        /* \"#utility.yul\":4910:4947   */\n      tag_151\n      jump\t// in\n    tag_253:\n        /* \"#utility.yul\":4905:4908   */\n      dup5\n        /* \"#utility.yul\":4898:4948   */\n      mstore\n        /* \"#utility.yul\":4977:4981   */\n      0x20\n        /* \"#utility.yul\":4972:4975   */\n      dup5\n        /* \"#utility.yul\":4968:4982   */\n      add\n        /* \"#utility.yul\":4961:4982   */\n      swap4\n      pop\n        /* \"#utility.yul\":4848:4992   */\n      pop\n        /* \"#utility.yul\":4832:4836   */\n      0x20\n        /* \"#utility.yul\":4827:4830   */\n      dup2\n        /* \"#utility.yul\":4823:4837   */\n      add\n        /* \"#utility.yul\":4816:4837   */\n      swap1\n      pop\n        /* \"#utility.yul\":4772:4992   */\n      jump(tag_250)\n    tag_252:\n        /* \"#utility.yul\":4776:4797   */\n      pop\n        /* \"#utility.yul\":4390:4998   */\n      pop\n      pop\n        /* \"#utility.yul\":4288:4998   */\n      swap4\n      swap3\n      pop\n      pop\n      pop\n      jump\t// out\n        /* \"#utility.yul\":5021:5391   */\n    tag_153:\n        /* \"#utility.yul\":5092:5097   */\n      0x00\n        /* \"#utility.yul\":5141:5144   */\n      dup3\n        /* \"#utility.yul\":5134:5138   */\n      0x1f\n        /* \"#utility.yul\":5126:5132   */\n      dup4\n        /* \"#utility.yul\":5122:5139   */\n      add\n        /* \"#utility.yul\":5118:5145   */\n      slt\n        /* \"#utility.yul\":5108:5230   */\n      tag_255\n      jumpi\n        /* \"#utility.yul\":5149:5228   */\n      tag_256\n      tag_137\n      jump\t// in\n    tag_256:\n        /* \"#utility.yul\":5108:5230   */\n    tag_255:\n        /* \"#utility.yul\":5266:5272   */\n      dup2\n        /* \"#utility.yul\":5253:5273   */\n      calldataload\n        /* \"#utility.yul\":5291:5385   */\n      tag_257\n        /* \"#utility.yul\":5381:5384   */\n      dup5\n        /* \"#utility.yul\":5373:5379   */\n      dup3\n        /* \"#utility.yul\":5366:5370   */\n      0x20\n        /* \"#utility.yul\":5358:5364   */\n      dup7\n        /* \"#utility.yul\":5354:5371   */\n      add\n        /* \"#utility.yul\":5291:5385   */\n      tag_152\n      jump\t// in\n    tag_257:\n        /* \"#utility.yul\":5282:5385   */\n      swap2\n      pop\n        /* \"#utility.yul\":5098:5391   */\n      pop\n        /* \"#utility.yul\":5021:5391   */\n      swap3\n      swap2\n      pop\n      pop\n      jump\t// out\n        /* \"#utility.yul\":5397:6291   */\n    tag_17:\n        /* \"#utility.yul\":5515:5521   */\n      0x00\n        /* \"#utility.yul\":5523:5529   */\n      0x00\n        /* \"#utility.yul\":5572:5574   */\n      0x40\n        /* \"#utility.yul\":5560:5569   */\n      dup4\n        /* \"#utility.yul\":5551:5558   */\n      dup6\n        /* \"#utility.yul\":5547:5570   */\n      sub\n        /* \"#utility.yul\":5543:5575   */\n      slt\n        /* \"#utility.yul\":5540:5659   */\n      iszero\n      tag_259\n      jumpi\n        /* \"#utility.yul\":5578:5657   */\n      tag_260\n      tag_135\n      jump\t// in\n    tag_260:\n        /* \"#utility.yul\":5540:5659   */\n    tag_259:\n        /* \"#utility.yul\":5726:5727   */\n      0x00\n        /* \"#utility.yul\":5715:5724   */\n      dup4\n        /* \"#utility.yul\":5711:5728   */\n      add\n        /* \"#utility.yul\":5698:5729   */\n      calldataload\n        /* \"#utility.yul\":5756:5774   */\n      0xffffffffffffffff\n        /* \"#utility.yul\":5748:5754   */\n      dup2\n        /* \"#utility.yul\":5745:5775   */\n      gt\n        /* \"#utility.yul\":5742:5859   */\n      iszero\n      tag_261\n      jumpi\n        /* \"#utility.yul\":5778:5857   */\n      tag_262\n      tag_136\n      jump\t// in\n    tag_262:\n        /* \"#utility.yul\":5742:5859   */\n    tag_261:\n        /* \"#utility.yul\":5883:5961   */\n      tag_263\n        /* \"#utility.yul\":5953:5960   */\n      dup6\n        /* \"#utility.yul\":5944:5950   */\n      dup3\n        /* \"#utility.yul\":5933:5942   */\n      dup7\n        /* \"#utility.yul\":5929:5951   */\n      add\n        /* \"#utility.yul\":5883:5961   */\n      tag_147\n      jump\t// in\n    tag_263:\n        /* \"#utility.yul\":5873:5961   */\n      swap3\n      pop\n        /* \"#utility.yul\":5669:5971   */\n      pop\n        /* \"#utility.yul\":6038:6040   */\n      0x20\n        /* \"#utility.yul\":6027:6036   */\n      dup4\n        /* \"#utility.yul\":6023:6041   */\n      add\n        /* \"#utility.yul\":6010:6042   */\n      calldataload\n        /* \"#utility.yul\":6069:6087   */\n      0xffffffffffffffff\n        /* \"#utility.yul\":6061:6067   */\n      dup2\n        /* \"#utility.yul\":6058:6088   */\n      gt\n        /* \"#utility.yul\":6055:6172   */\n      iszero\n      tag_264\n      jumpi\n        /* \"#utility.yul\":6091:6170   */\n      tag_265\n      tag_136\n      jump\t// in\n    tag_265:\n        /* \"#utility.yul\":6055:6172   */\n    tag_264:\n        /* \"#utility.yul\":6196:6274   */\n      tag_266\n        /* \"#utility.yul\":6266:6273   */\n      dup6\n        /* \"#utility.yul\":6257:6263   */\n      dup3\n        /* \"#utility.yul\":6246:6255   */\n      dup7\n        /* \"#utility.yul\":6242:6264   */\n      add\n        /* \"#utility.yul\":6196:6274   */\n      tag_153\n      jump\t// in\n    tag_266:\n        /* \"#utility.yul\":6186:6274   */\n      swap2\n      pop\n        /* \"#utility.yul\":5981:6284   */\n      pop\n        /* \"#utility.yul\":5397:6291   */\n      swap3\n      pop\n      swap3\n      swap1\n      pop\n      jump\t// out\n        /* \"#utility.yul\":6297:6626   */\n    tag_26:\n        /* \"#utility.yul\":6356:6362   */\n      0x00\n        /* \"#utility.yul\":6405:6407   */\n      0x20\n        /* \"#utility.yul\":6393:6402   */\n      dup3\n        /* \"#utility.yul\":6384:6391   */\n      dup5\n        /* \"#utility.yul\":6380:6403   */\n      sub\n        /* \"#utility.yul\":6376:6408   */\n      slt\n        /* \"#utility.yul\":6373:6492   */\n      iszero\n      tag_268\n      jumpi\n        /* \"#utility.yul\":6411:6490   */\n      tag_269\n      tag_135\n      jump\t// in\n    tag_269:\n        /* \"#utility.yul\":6373:6492   */\n    tag_268:\n        /* \"#utility.yul\":6531:6532   */\n      0x00\n        /* \"#utility.yul\":6556:6609   */\n      tag_270\n        /* \"#utility.yul\":6601:6608   */\n      dup5\n        /* \"#utility.yul\":6592:6598   */\n      dup3\n        /* \"#utility.yul\":6581:6590   */\n      dup6\n        /* \"#utility.yul\":6577:6599   */\n      add\n        /* \"#utility.yul\":6556:6609   */\n      tag_145\n      jump\t// in\n    tag_270:\n        /* \"#utility.yul\":6546:6609   */\n      swap2\n      pop\n        /* \"#utility.yul\":6502:6619   */\n      pop\n        /* \"#utility.yul\":6297:6626   */\n      swap3\n      swap2\n      pop\n      pop\n      jump\t// out\n        /* \"#utility.yul\":6632:6692   */\n    tag_154:\n        /* \"#utility.yul\":6660:6663   */\n      0x00\n        /* \"#utility.yul\":6681:6686   */\n      dup2\n        /* \"#utility.yul\":6674:6686   */\n      swap1\n      pop\n        /* \"#utility.yul\":6632:6692   */\n      swap2\n      swap1\n      pop\n      jump\t// out\n        /* \"#utility.yul\":6698:6840   */\n    tag_155:\n        /* \"#utility.yul\":6748:6757   */\n      0x00\n        /* \"#utility.yul\":6781:6834   */\n      tag_273\n        /* \"#utility.yul\":6799:6833   */\n      tag_274\n        /* \"#utility.yul\":6808:6832   */\n      tag_275\n        /* \"#utility.yul\":6826:6831   */\n      dup5\n        /* \"#utility.yul\":6808:6832   */\n      tag_131\n      jump\t// in\n    tag_275:\n        /* \"#utility.yul\":6799:6833   */\n      tag_154\n      jump\t// in\n    tag_274:\n        /* \"#utility.yul\":6781:6834   */\n      tag_131\n      jump\t// in\n    tag_273:\n        /* \"#utility.yul\":6768:6834   */\n      swap1\n      pop\n        /* \"#utility.yul\":6698:6840   */\n      swap2\n      swap1\n      pop\n      jump\t// out\n        /* \"#utility.yul\":6846:6972   */\n    tag_156:\n        /* \"#utility.yul\":6896:6905   */\n      0x00\n        /* \"#utility.yul\":6929:6966   */\n      tag_277\n        /* \"#utility.yul\":6960:6965   */\n      dup3\n        /* \"#utility.yul\":6929:6966   */\n      tag_155\n      jump\t// in\n    tag_277:\n        /* \"#utility.yul\":6916:6966   */\n      swap1\n      pop\n        /* \"#utility.yul\":6846:6972   */\n      swap2\n      swap1\n      pop\n      jump\t// out\n        /* \"#utility.yul\":6978:7118   */\n    tag_157:\n        /* \"#utility.yul\":7042:7051   */\n      0x00\n        /* \"#utility.yul\":7075:7112   */\n      tag_279\n        /* \"#utility.yul\":7106:7111   */\n      dup3\n        /* \"#utility.yul\":7075:7112   */\n      tag_156\n      jump\t// in\n    tag_279:\n        /* \"#utility.yul\":7062:7112   */\n      swap1\n      pop\n        /* \"#utility.yul\":6978:7118   */\n      swap2\n      swap1\n      pop\n      jump\t// out\n        /* \"#utility.yul\":7124:7283   */\n    tag_158:\n        /* \"#utility.yul\":7225:7276   */\n      tag_281\n        /* \"#utility.yul\":7270:7275   */\n      dup2\n        /* \"#utility.yul\":7225:7276   */\n      tag_157\n      jump\t// in\n    tag_281:\n        /* \"#utility.yul\":7220:7223   */\n      dup3\n        /* \"#utility.yul\":7213:7277   */\n      mstore\n        /* \"#utility.yul\":7124:7283   */\n      pop\n      pop\n      jump\t// out\n        /* \"#utility.yul\":7289:7539   */\n    tag_32:\n        /* \"#utility.yul\":7396:7400   */\n      0x00\n        /* \"#utility.yul\":7434:7436   */\n      0x20\n        /* \"#utility.yul\":7423:7432   */\n      dup3\n        /* \"#utility.yul\":7419:7437   */\n      add\n        /* \"#utility.yul\":7411:7437   */\n      swap1\n      pop\n        /* \"#utility.yul\":7447:7532   */\n      tag_283\n        /* \"#utility.yul\":7529:7530   */\n      0x00\n        /* \"#utility.yul\":7518:7527   */\n      dup4\n        /* \"#utility.yul\":7514:7531   */\n      add\n        /* \"#utility.yul\":7505:7511   */\n      dup5\n        /* \"#utility.yul\":7447:7532   */\n      tag_158\n      jump\t// in\n    tag_283:\n        /* \"#utility.yul\":7289:7539   */\n      swap3\n      swap2\n      pop\n      pop\n      jump\t// out\n        /* \"#utility.yul\":7545:7714   */\n    tag_159:\n        /* \"#utility.yul\":7629:7640   */\n      0x00\n        /* \"#utility.yul\":7663:7669   */\n      dup3\n        /* \"#utility.yul\":7658:7661   */\n      dup3\n        /* \"#utility.yul\":7651:7670   */\n      mstore\n        /* \"#utility.yul\":7703:7707   */\n      0x20\n        /* \"#utility.yul\":7698:7701   */\n      dup3\n        /* \"#utility.yul\":7694:7708   */\n      add\n        /* \"#utility.yul\":7679:7708   */\n      swap1\n      pop\n        /* \"#utility.yul\":7545:7714   */\n      swap3\n      swap2\n      pop\n      pop\n      jump\t// out\n        /* \"#utility.yul\":7720:7901   */\n    tag_160:\n        /* \"#utility.yul\":7860:7893   */\n      0x41697264726f703a2063616c6c6572206973206e6f7420676f7665726e6f7200\n        /* \"#utility.yul\":7856:7857   */\n      0x00\n        /* \"#utility.yul\":7848:7854   */\n      dup3\n        /* \"#utility.yul\":7844:7858   */\n      add\n        /* \"#utility.yul\":7837:7894   */\n      mstore\n        /* \"#utility.yul\":7720:7901   */\n      pop\n      jump\t// out\n        /* \"#utility.yul\":7907:8273   */\n    tag_161:\n        /* \"#utility.yul\":8049:8052   */\n      0x00\n        /* \"#utility.yul\":8070:8137   */\n      tag_287\n        /* \"#utility.yul\":8134:8136   */\n      0x1f\n        /* \"#utility.yul\":8129:8132   */\n      dup4\n        /* \"#utility.yul\":8070:8137   */\n      tag_159\n      jump\t// in\n    tag_287:\n        /* \"#utility.yul\":8063:8137   */\n      swap2\n      pop\n        /* \"#utility.yul\":8146:8239   */\n      tag_288\n        /* \"#utility.yul\":8235:8238   */\n      dup3\n        /* \"#utility.yul\":8146:8239   */\n      tag_160\n      jump\t// in\n    tag_288:\n        /* \"#utility.yul\":8264:8266   */\n      0x20\n        /* \"#utility.yul\":8259:8262   */\n      dup3\n        /* \"#utility.yul\":8255:8267   */\n      add\n        /* \"#utility.yul\":8248:8267   */\n      swap1\n      pop\n        /* \"#utility.yul\":7907:8273   */\n      swap2\n      swap1\n      pop\n      jump\t// out\n        /* \"#utility.yul\":8279:8698   */\n    tag_36:\n        /* \"#utility.yul\":8445:8449   */\n      0x00\n        /* \"#utility.yul\":8483:8485   */\n      0x20\n        /* \"#utility.yul\":8472:8481   */\n      dup3\n        /* \"#utility.yul\":8468:8486   */\n      add\n        /* \"#utility.yul\":8460:8486   */\n      swap1\n      pop\n        /* \"#utility.yul\":8532:8541   */\n      dup2\n        /* \"#utility.yul\":8526:8530   */\n      dup2\n        /* \"#utility.yul\":8522:8542   */\n      sub\n        /* \"#utility.yul\":8518:8519   */\n      0x00\n        /* \"#utility.yul\":8507:8516   */\n      dup4\n        /* \"#utility.yul\":8503:8520   */\n      add\n        /* \"#utility.yul\":8496:8543   */\n      mstore\n        /* \"#utility.yul\":8560:8691   */\n      tag_290\n        /* \"#utility.yul\":8686:8690   */\n      dup2\n        /* \"#utility.yul\":8560:8691   */\n      tag_161\n      jump\t// in\n    tag_290:\n        /* \"#utility.yul\":8552:8691   */\n      swap1\n      pop\n        /* \"#utility.yul\":8279:8698   */\n      swap2\n      swap1\n      pop\n      jump\t// out\n        /* \"#utility.yul\":8704:8918   */\n    tag_162:\n        /* \"#utility.yul\":8844:8910   */\n      0x424e42e4b8a4e4b8aae695b0e7bb84e995bfe5baa6e4b88de79bb8e7ad890000\n        /* \"#utility.yul\":8840:8841   */\n      0x00\n        /* \"#utility.yul\":8832:8838   */\n      dup3\n        /* \"#utility.yul\":8828:8842   */\n      add\n        /* \"#utility.yul\":8821:8911   */\n      mstore\n        /* \"#utility.yul\":8704:8918   */\n      pop\n      jump\t// out\n        /* \"#utility.yul\":8924:9290   */\n    tag_163:\n        /* \"#utility.yul\":9066:9069   */\n      0x00\n        /* \"#utility.yul\":9087:9154   */\n      tag_293\n        /* \"#utility.yul\":9151:9153   */\n      0x1e\n        /* \"#utility.yul\":9146:9149   */\n      dup4\n        /* \"#utility.yul\":9087:9154   */\n      tag_159\n      jump\t// in\n    tag_293:\n        /* \"#utility.yul\":9080:9154   */\n      swap2\n      pop\n        /* \"#utility.yul\":9163:9256   */\n      tag_294\n        /* \"#utility.yul\":9252:9255   */\n      dup3\n        /* \"#utility.yul\":9163:9256   */\n      tag_162\n      jump\t// in\n    tag_294:\n        /* \"#utility.yul\":9281:9283   */\n      0x20\n        /* \"#utility.yul\":9276:9279   */\n      dup3\n        /* \"#utility.yul\":9272:9284   */\n      add\n        /* \"#utility.yul\":9265:9284   */\n      swap1\n      pop\n        /* \"#utility.yul\":8924:9290   */\n      swap2\n      swap1\n      pop\n      jump\t// out\n        /* \"#utility.yul\":9296:9715   */\n    tag_40:\n        /* \"#utility.yul\":9462:9466   */\n      0x00\n        /* \"#utility.yul\":9500:9502   */\n      0x20\n        /* \"#utility.yul\":9489:9498   */\n      dup3\n        /* \"#utility.yul\":9485:9503   */\n      add\n        /* \"#utility.yul\":9477:9503   */\n      swap1\n      pop\n        /* \"#utility.yul\":9549:9558   */\n      dup2\n        /* \"#utility.yul\":9543:9547   */\n      dup2\n        /* \"#utility.yul\":9539:9559   */\n      sub\n        /* \"#utility.yul\":9535:9536   */\n      0x00\n        /* \"#utility.yul\":9524:9533   */\n      dup4\n        /* \"#utility.yul\":9520:9537   */\n      add\n        /* \"#utility.yul\":9513:9560   */\n      mstore\n        /* \"#utility.yul\":9577:9708   */\n      tag_296\n        /* \"#utility.yul\":9703:9707   */\n      dup2\n        /* \"#utility.yul\":9577:9708   */\n      tag_163\n      jump\t// in\n    tag_296:\n        /* \"#utility.yul\":9569:9708   */\n      swap1\n      pop\n        /* \"#utility.yul\":9296:9715   */\n      swap2\n      swap1\n      pop\n      jump\t// out\n        /* \"#utility.yul\":9721:9901   */\n    tag_46:\n        /* \"#utility.yul\":9769:9846   */\n      0x4e487b7100000000000000000000000000000000000000000000000000000000\n        /* \"#utility.yul\":9766:9767   */\n      0x00\n        /* \"#utility.yul\":9759:9847   */\n      mstore\n        /* \"#utility.yul\":9866:9870   */\n      0x32\n        /* \"#utility.yul\":9863:9864   */\n      0x04\n        /* \"#utility.yul\":9856:9871   */\n      mstore\n        /* \"#utility.yul\":9890:9894   */\n      0x24\n        /* \"#utility.yul\":9887:9888   */\n      0x00\n        /* \"#utility.yul\":9880:9895   */\n      revert\n        /* \"#utility.yul\":9907:10121   */\n    tag_164:\n        /* \"#utility.yul\":10047:10113   */\n      0x424e42e8bdace8b4a6e59cb0e59d80e4b88de4b8bae7a9ba0000000000000000\n        /* \"#utility.yul\":10043:10044   */\n      0x00\n        /* \"#utility.yul\":10035:10041   */\n      dup3\n        /* \"#utility.yul\":10031:10045   */\n      add\n        /* \"#utility.yul\":10024:10114   */\n      mstore\n        /* \"#utility.yul\":9907:10121   */\n      pop\n      jump\t// out\n        /* \"#utility.yul\":10127:10493   */\n    tag_165:\n        /* \"#utility.yul\":10269:10272   */\n      0x00\n        /* \"#utility.yul\":10290:10357   */\n      tag_300\n        /* \"#utility.yul\":10354:10356   */\n      0x18\n        /* \"#utility.yul\":10349:10352   */\n      dup4\n        /* \"#utility.yul\":10290:10357   */\n      tag_159\n      jump\t// in\n    tag_300:\n        /* \"#utility.yul\":10283:10357   */\n      swap2\n      pop\n        /* \"#utility.yul\":10366:10459   */\n      tag_301\n        /* \"#utility.yul\":10455:10458   */\n      dup3\n        /* \"#utility.yul\":10366:10459   */\n      tag_164\n      jump\t// in\n    tag_301:\n        /* \"#utility.yul\":10484:10486   */\n      0x20\n        /* \"#utility.yul\":10479:10482   */\n      dup3\n        /* \"#utility.yul\":10475:10487   */\n      add\n        /* \"#utility.yul\":10468:10487   */\n      swap1\n      pop\n        /* \"#utility.yul\":10127:10493   */\n      swap2\n      swap1\n      pop\n      jump\t// out\n        /* \"#utility.yul\":10499:10918   */\n    tag_51:\n        /* \"#utility.yul\":10665:10669   */\n      0x00\n        /* \"#utility.yul\":10703:10705   */\n      0x20\n        /* \"#utility.yul\":10692:10701   */\n      dup3\n        /* \"#utility.yul\":10688:10706   */\n      add\n        /* \"#utility.yul\":10680:10706   */\n      swap1\n      pop\n        /* \"#utility.yul\":10752:10761   */\n      dup2\n        /* \"#utility.yul\":10746:10750   */\n      dup2\n        /* \"#utility.yul\":10742:10762   */\n      sub\n        /* \"#utility.yul\":10738:10739   */\n      0x00\n        /* \"#utility.yul\":10727:10736   */\n      dup4\n        /* \"#utility.yul\":10723:10740   */\n      add\n        /* \"#utility.yul\":10716:10763   */\n      mstore\n        /* \"#utility.yul\":10780:10911   */\n      tag_303\n        /* \"#utility.yul\":10906:10910   */\n      dup2\n        /* \"#utility.yul\":10780:10911   */\n      tag_165\n      jump\t// in\n    tag_303:\n        /* \"#utility.yul\":10772:10911   */\n      swap1\n      pop\n        /* \"#utility.yul\":10499:10918   */\n      swap2\n      swap1\n      pop\n      jump\t// out\n        /* \"#utility.yul\":10924:11138   */\n    tag_166:\n        /* \"#utility.yul\":11064:11130   */\n      0x424e42e8bdace8b4a6e4b88de4b8ba3000000000000000000000000000000000\n        /* \"#utility.yul\":11060:11061   */\n      0x00\n        /* \"#utility.yul\":11052:11058   */\n      dup3\n        /* \"#utility.yul\":11048:11062   */\n      add\n        /* \"#utility.yul\":11041:11131   */\n      mstore\n        /* \"#utility.yul\":10924:11138   */\n      pop\n      jump\t// out\n        /* \"#utility.yul\":11144:11510   */\n    tag_167:\n        /* \"#utility.yul\":11286:11289   */\n      0x00\n        /* \"#utility.yul\":11307:11374   */\n      tag_306\n        /* \"#utility.yul\":11371:11373   */\n      0x10\n        /* \"#utility.yul\":11366:11369   */\n      dup4\n        /* \"#utility.yul\":11307:11374   */\n      tag_159\n      jump\t// in\n    tag_306:\n        /* \"#utility.yul\":11300:11374   */\n      swap2\n      pop\n        /* \"#utility.yul\":11383:11476   */\n      tag_307\n        /* \"#utility.yul\":11472:11475   */\n      dup3\n        /* \"#utility.yul\":11383:11476   */\n      tag_166\n      jump\t// in\n    tag_307:\n        /* \"#utility.yul\":11501:11503   */\n      0x20\n        /* \"#utility.yul\":11496:11499   */\n      dup3\n        /* \"#utility.yul\":11492:11504   */\n      add\n        /* \"#utility.yul\":11485:11504   */\n      swap1\n      pop\n        /* \"#utility.yul\":11144:11510   */\n      swap2\n      swap1\n      pop\n      jump\t// out\n        /* \"#utility.yul\":11516:11935   */\n    tag_54:\n        /* \"#utility.yul\":11682:11686   */\n      0x00\n        /* \"#utility.yul\":11720:11722   */\n      0x20\n        /* \"#utility.yul\":11709:11718   */\n      dup3\n        /* \"#utility.yul\":11705:11723   */\n      add\n        /* \"#utility.yul\":11697:11723   */\n      swap1\n      pop\n        /* \"#utility.yul\":11769:11778   */\n      dup2\n        /* \"#utility.yul\":11763:11767   */\n      dup2\n        /* \"#utility.yul\":11759:11779   */\n      sub\n        /* \"#utility.yul\":11755:11756   */\n      0x00\n        /* \"#utility.yul\":11744:11753   */\n      dup4\n        /* \"#utility.yul\":11740:11757   */\n      add\n        /* \"#utility.yul\":11733:11780   */\n      mstore\n        /* \"#utility.yul\":11797:11928   */\n      tag_309\n        /* \"#utility.yul\":11923:11927   */\n      dup2\n        /* \"#utility.yul\":11797:11928   */\n      tag_167\n      jump\t// in\n    tag_309:\n        /* \"#utility.yul\":11789:11928   */\n      swap1\n      pop\n        /* \"#utility.yul\":11516:11935   */\n      swap2\n      swap1\n      pop\n      jump\t// out\n        /* \"#utility.yul\":11941:12121   */\n    tag_168:\n        /* \"#utility.yul\":11989:12066   */\n      0x4e487b7100000000000000000000000000000000000000000000000000000000\n        /* \"#utility.yul\":11986:11987   */\n      0x00\n        /* \"#utility.yul\":11979:12067   */\n      mstore\n        /* \"#utility.yul\":12086:12090   */\n      0x11\n        /* \"#utility.yul\":12083:12084   */\n      0x04\n        /* \"#utility.yul\":12076:12091   */\n      mstore\n        /* \"#utility.yul\":12110:12114   */\n      0x24\n        /* \"#utility.yul\":12107:12108   */\n      0x00\n        /* \"#utility.yul\":12100:12115   */\n      revert\n        /* \"#utility.yul\":12127:12318   */\n    tag_56:\n        /* \"#utility.yul\":12167:12170   */\n      0x00\n        /* \"#utility.yul\":12186:12206   */\n      tag_312\n        /* \"#utility.yul\":12204:12205   */\n      dup3\n        /* \"#utility.yul\":12186:12206   */\n      tag_149\n      jump\t// in\n    tag_312:\n        /* \"#utility.yul\":12181:12206   */\n      swap2\n      pop\n        /* \"#utility.yul\":12220:12240   */\n      tag_313\n        /* \"#utility.yul\":12238:12239   */\n      dup4\n        /* \"#utility.yul\":12220:12240   */\n      tag_149\n      jump\t// in\n    tag_313:\n        /* \"#utility.yul\":12215:12240   */\n      swap3\n      pop\n        /* \"#utility.yul\":12263:12264   */\n      dup3\n        /* \"#utility.yul\":12260:12261   */\n      dup3\n        /* \"#utility.yul\":12256:12265   */\n      add\n        /* \"#utility.yul\":12249:12265   */\n      swap1\n      pop\n        /* \"#utility.yul\":12284:12287   */\n      dup1\n        /* \"#utility.yul\":12281:12282   */\n      dup3\n        /* \"#utility.yul\":12278:12288   */\n      gt\n        /* \"#utility.yul\":12275:12311   */\n      iszero\n      tag_314\n      jumpi\n        /* \"#utility.yul\":12291:12309   */\n      tag_315\n      tag_168\n      jump\t// in\n    tag_315:\n        /* \"#utility.yul\":12275:12311   */\n    tag_314:\n        /* \"#utility.yul\":12127:12318   */\n      swap3\n      swap2\n      pop\n      pop\n      jump\t// out\n        /* \"#utility.yul\":12324:12538   */\n    tag_169:\n        /* \"#utility.yul\":12464:12530   */\n      0x424e42206d73672e76616c756520e4b88de7ad89e4ba8ee680bbe98791e9a29d\n        /* \"#utility.yul\":12460:12461   */\n      0x00\n        /* \"#utility.yul\":12452:12458   */\n      dup3\n        /* \"#utility.yul\":12448:12462   */\n      add\n        /* \"#utility.yul\":12441:12531   */\n      mstore\n        /* \"#utility.yul\":12324:12538   */\n      pop\n      jump\t// out\n        /* \"#utility.yul\":12544:12910   */\n    tag_170:\n        /* \"#utility.yul\":12686:12689   */\n      0x00\n        /* \"#utility.yul\":12707:12774   */\n      tag_318\n        /* \"#utility.yul\":12771:12773   */\n      0x20\n        /* \"#utility.yul\":12766:12769   */\n      dup4\n        /* \"#utility.yul\":12707:12774   */\n      tag_159\n      jump\t// in\n    tag_318:\n        /* \"#utility.yul\":12700:12774   */\n      swap2\n      pop\n        /* \"#utility.yul\":12783:12876   */\n      tag_319\n        /* \"#utility.yul\":12872:12875   */\n      dup3\n        /* \"#utility.yul\":12783:12876   */\n      tag_169\n      jump\t// in\n    tag_319:\n        /* \"#utility.yul\":12901:12903   */\n      0x20\n        /* \"#utility.yul\":12896:12899   */\n      dup3\n        /* \"#utility.yul\":12892:12904   */\n      add\n        /* \"#utility.yul\":12885:12904   */\n      swap1\n      pop\n        /* \"#utility.yul\":12544:12910   */\n      swap2\n      swap1\n      pop\n      jump\t// out\n        /* \"#utility.yul\":12916:13335   */\n    tag_59:\n        /* \"#utility.yul\":13082:13086   */\n      0x00\n        /* \"#utility.yul\":13120:13122   */\n      0x20\n        /* \"#utility.yul\":13109:13118   */\n      dup3\n        /* \"#utility.yul\":13105:13123   */\n      add\n        /* \"#utility.yul\":13097:13123   */\n      swap1\n      pop\n        /* \"#utility.yul\":13169:13178   */\n      dup2\n        /* \"#utility.yul\":13163:13167   */\n      dup2\n        /* \"#utility.yul\":13159:13179   */\n      sub\n        /* \"#utility.yul\":13155:13156   */\n      0x00\n        /* \"#utility.yul\":13144:13153   */\n      dup4\n        /* \"#utility.yul\":13140:13157   */\n      add\n        /* \"#utility.yul\":13133:13180   */\n      mstore\n        /* \"#utility.yul\":13197:13328   */\n      tag_321\n        /* \"#utility.yul\":13323:13327   */\n      dup2\n        /* \"#utility.yul\":13197:13328   */\n      tag_170\n      jump\t// in\n    tag_321:\n        /* \"#utility.yul\":13189:13328   */\n      swap1\n      pop\n        /* \"#utility.yul\":12916:13335   */\n      swap2\n      swap1\n      pop\n      jump\t// out\n        /* \"#utility.yul\":13341:13488   */\n    tag_171:\n        /* \"#utility.yul\":13442:13453   */\n      0x00\n        /* \"#utility.yul\":13479:13482   */\n      dup2\n        /* \"#utility.yul\":13464:13482   */\n      swap1\n      pop\n        /* \"#utility.yul\":13341:13488   */\n      swap3\n      swap2\n      pop\n      pop\n      jump\t// out\n        /* \"#utility.yul\":13494:13608   */\n    tag_172:\n      pop\n      jump\t// out\n        /* \"#utility.yul\":13614:14012   */\n    tag_173:\n        /* \"#utility.yul\":13773:13776   */\n      0x00\n        /* \"#utility.yul\":13794:13877   */\n      tag_325\n        /* \"#utility.yul\":13875:13876   */\n      0x00\n        /* \"#utility.yul\":13870:13873   */\n      dup4\n        /* \"#utility.yul\":13794:13877   */\n      tag_171\n      jump\t// in\n    tag_325:\n        /* \"#utility.yul\":13787:13877   */\n      swap2\n      pop\n        /* \"#utility.yul\":13886:13979   */\n      tag_326\n        /* \"#utility.yul\":13975:13978   */\n      dup3\n        /* \"#utility.yul\":13886:13979   */\n      tag_172\n      jump\t// in\n    tag_326:\n        /* \"#utility.yul\":14004:14005   */\n      0x00\n        /* \"#utility.yul\":13999:14002   */\n      dup3\n        /* \"#utility.yul\":13995:14006   */\n      add\n        /* \"#utility.yul\":13988:14006   */\n      swap1\n      pop\n        /* \"#utility.yul\":13614:14012   */\n      swap2\n      swap1\n      pop\n      jump\t// out\n        /* \"#utility.yul\":14018:14397   */\n    tag_68:\n        /* \"#utility.yul\":14202:14205   */\n      0x00\n        /* \"#utility.yul\":14224:14371   */\n      tag_328\n        /* \"#utility.yul\":14367:14370   */\n      dup3\n        /* \"#utility.yul\":14224:14371   */\n      tag_173\n      jump\t// in\n    tag_328:\n        /* \"#utility.yul\":14217:14371   */\n      swap2\n      pop\n        /* \"#utility.yul\":14388:14391   */\n      dup2\n        /* \"#utility.yul\":14381:14391   */\n      swap1\n      pop\n        /* \"#utility.yul\":14018:14397   */\n      swap2\n      swap1\n      pop\n      jump\t// out\n        /* \"#utility.yul\":14403:14617   */\n    tag_174:\n        /* \"#utility.yul\":14543:14609   */\n      0x424e42e8bdace8b4a6e5a4b1e8b4a50000000000000000000000000000000000\n        /* \"#utility.yul\":14539:14540   */\n      0x00\n        /* \"#utility.yul\":14531:14537   */\n      dup3\n        /* \"#utility.yul\":14527:14541   */\n      add\n        /* \"#utility.yul\":14520:14610   */\n      mstore\n        /* \"#utility.yul\":14403:14617   */\n      pop\n      jump\t// out\n        /* \"#utility.yul\":14623:14989   */\n    tag_175:\n        /* \"#utility.yul\":14765:14768   */\n      0x00\n        /* \"#utility.yul\":14786:14853   */\n      tag_331\n        /* \"#utility.yul\":14850:14852   */\n      0x0f\n        /* \"#utility.yul\":14845:14848   */\n      dup4\n        /* \"#utility.yul\":14786:14853   */\n      tag_159\n      jump\t// in\n    tag_331:\n        /* \"#utility.yul\":14779:14853   */\n      swap2\n      pop\n        /* \"#utility.yul\":14862:14955   */\n      tag_332\n        /* \"#utility.yul\":14951:14954   */\n      dup3\n        /* \"#utility.yul\":14862:14955   */\n      tag_174\n      jump\t// in\n    tag_332:\n        /* \"#utility.yul\":14980:14982   */\n      0x20\n        /* \"#utility.yul\":14975:14978   */\n      dup3\n        /* \"#utility.yul\":14971:14983   */\n      add\n        /* \"#utility.yul\":14964:14983   */\n      swap1\n      pop\n        /* \"#utility.yul\":14623:14989   */\n      swap2\n      swap1\n      pop\n      jump\t// out\n        /* \"#utility.yul\":14995:15414   */\n    tag_74:\n        /* \"#utility.yul\":15161:15165   */\n      0x00\n        /* \"#utility.yul\":15199:15201   */\n      0x20\n        /* \"#utility.yul\":15188:15197   */\n      dup3\n        /* \"#utility.yul\":15184:15202   */\n      add\n        /* \"#utility.yul\":15176:15202   */\n      swap1\n      pop\n        /* \"#utility.yul\":15248:15257   */\n      dup2\n        /* \"#utility.yul\":15242:15246   */\n      dup2\n        /* \"#utility.yul\":15238:15258   */\n      sub\n        /* \"#utility.yul\":15234:15235   */\n      0x00\n        /* \"#utility.yul\":15223:15232   */\n      dup4\n        /* \"#utility.yul\":15219:15236   */\n      add\n        /* \"#utility.yul\":15212:15259   */\n      mstore\n        /* \"#utility.yul\":15276:15407   */\n      tag_334\n        /* \"#utility.yul\":15402:15406   */\n      dup2\n        /* \"#utility.yul\":15276:15407   */\n      tag_175\n      jump\t// in\n    tag_334:\n        /* \"#utility.yul\":15268:15407   */\n      swap1\n      pop\n        /* \"#utility.yul\":14995:15414   */\n      swap2\n      swap1\n      pop\n      jump\t// out\n        /* \"#utility.yul\":15420:15538   */\n    tag_176:\n        /* \"#utility.yul\":15507:15531   */\n      tag_336\n        /* \"#utility.yul\":15525:15530   */\n      dup2\n        /* \"#utility.yul\":15507:15531   */\n      tag_149\n      jump\t// in\n    tag_336:\n        /* \"#utility.yul\":15502:15505   */\n      dup3\n        /* \"#utility.yul\":15495:15532   */\n      mstore\n        /* \"#utility.yul\":15420:15538   */\n      pop\n      pop\n      jump\t// out\n        /* \"#utility.yul\":15544:15766   */\n    tag_76:\n        /* \"#utility.yul\":15637:15641   */\n      0x00\n        /* \"#utility.yul\":15675:15677   */\n      0x20\n        /* \"#utility.yul\":15664:15673   */\n      dup3\n        /* \"#utility.yul\":15660:15678   */\n      add\n        /* \"#utility.yul\":15652:15678   */\n      swap1\n      pop\n        /* \"#utility.yul\":15688:15759   */\n      tag_338\n        /* \"#utility.yul\":15756:15757   */\n      0x00\n        /* \"#utility.yul\":15745:15754   */\n      dup4\n        /* \"#utility.yul\":15741:15758   */\n      add\n        /* \"#utility.yul\":15732:15738   */\n      dup5\n        /* \"#utility.yul\":15688:15759   */\n      tag_176\n      jump\t// in\n    tag_338:\n        /* \"#utility.yul\":15544:15766   */\n      swap3\n      swap2\n      pop\n      pop\n      jump\t// out\n        /* \"#utility.yul\":15772:15986   */\n    tag_177:\n        /* \"#utility.yul\":15912:15978   */\n      0xe4b8a4e4b8aae995bfe5baa6e4b88de79bb8e7ad890000000000000000000000\n        /* \"#utility.yul\":15908:15909   */\n      0x00\n        /* \"#utility.yul\":15900:15906   */\n      dup3\n        /* \"#utility.yul\":15896:15910   */\n      add\n        /* \"#utility.yul\":15889:15979   */\n      mstore\n        /* \"#utility.yul\":15772:15986   */\n      pop\n      jump\t// out\n        /* \"#utility.yul\":15992:16358   */\n    tag_178:\n        /* \"#utility.yul\":16134:16137   */\n      0x00\n        /* \"#utility.yul\":16155:16222   */\n      tag_341\n        /* \"#utility.yul\":16219:16221   */\n      0x15\n        /* \"#utility.yul\":16214:16217   */\n      dup4\n        /* \"#utility.yul\":16155:16222   */\n      tag_159\n      jump\t// in\n    tag_341:\n        /* \"#utility.yul\":16148:16222   */\n      swap2\n      pop\n        /* \"#utility.yul\":16231:16324   */\n      tag_342\n        /* \"#utility.yul\":16320:16323   */\n      dup3\n        /* \"#utility.yul\":16231:16324   */\n      tag_177\n      jump\t// in\n    tag_342:\n        /* \"#utility.yul\":16349:16351   */\n      0x20\n        /* \"#utility.yul\":16344:16347   */\n      dup3\n        /* \"#utility.yul\":16340:16352   */\n      add\n        /* \"#utility.yul\":16333:16352   */\n      swap1\n      pop\n        /* \"#utility.yul\":15992:16358   */\n      swap2\n      swap1\n      pop\n      jump\t// out\n        /* \"#utility.yul\":16364:16783   */\n    tag_83:\n        /* \"#utility.yul\":16530:16534   */\n      0x00\n        /* \"#utility.yul\":16568:16570   */\n      0x20\n        /* \"#utility.yul\":16557:16566   */\n      dup3\n        /* \"#utility.yul\":16553:16571   */\n      add\n        /* \"#utility.yul\":16545:16571   */\n      swap1\n      pop\n        /* \"#utility.yul\":16617:16626   */\n      dup2\n        /* \"#utility.yul\":16611:16615   */\n      dup2\n        /* \"#utility.yul\":16607:16627   */\n      sub\n        /* \"#utility.yul\":16603:16604   */\n      0x00\n        /* \"#utility.yul\":16592:16601   */\n      dup4\n        /* \"#utility.yul\":16588:16605   */\n      add\n        /* \"#utility.yul\":16581:16628   */\n      mstore\n        /* \"#utility.yul\":16645:16776   */\n      tag_344\n        /* \"#utility.yul\":16771:16775   */\n      dup2\n        /* \"#utility.yul\":16645:16776   */\n      tag_178\n      jump\t// in\n    tag_344:\n        /* \"#utility.yul\":16637:16776   */\n      swap1\n      pop\n        /* \"#utility.yul\":16364:16783   */\n      swap2\n      swap1\n      pop\n      jump\t// out\n        /* \"#utility.yul\":16789:17003   */\n    tag_179:\n        /* \"#utility.yul\":16929:16995   */\n      0xe68ea5e694b6e59cb0e59d80e4b88de5ad98e59ca80000000000000000000000\n        /* \"#utility.yul\":16925:16926   */\n      0x00\n        /* \"#utility.yul\":16917:16923   */\n      dup3\n        /* \"#utility.yul\":16913:16927   */\n      add\n        /* \"#utility.yul\":16906:16996   */\n      mstore\n        /* \"#utility.yul\":16789:17003   */\n      pop\n      jump\t// out\n        /* \"#utility.yul\":17009:17375   */\n    tag_180:\n        /* \"#utility.yul\":17151:17154   */\n      0x00\n        /* \"#utility.yul\":17172:17239   */\n      tag_347\n        /* \"#utility.yul\":17236:17238   */\n      0x15\n        /* \"#utility.yul\":17231:17234   */\n      dup4\n        /* \"#utility.yul\":17172:17239   */\n      tag_159\n      jump\t// in\n    tag_347:\n        /* \"#utility.yul\":17165:17239   */\n      swap2\n      pop\n        /* \"#utility.yul\":17248:17341   */\n      tag_348\n        /* \"#utility.yul\":17337:17340   */\n      dup3\n        /* \"#utility.yul\":17248:17341   */\n      tag_179\n      jump\t// in\n    tag_348:\n        /* \"#utility.yul\":17366:17368   */\n      0x20\n        /* \"#utility.yul\":17361:17364   */\n      dup3\n        /* \"#utility.yul\":17357:17369   */\n      add\n        /* \"#utility.yul\":17350:17369   */\n      swap1\n      pop\n        /* \"#utility.yul\":17009:17375   */\n      swap2\n      swap1\n      pop\n      jump\t// out\n        /* \"#utility.yul\":17381:17800   */\n    tag_93:\n        /* \"#utility.yul\":17547:17551   */\n      0x00\n        /* \"#utility.yul\":17585:17587   */\n      0x20\n        /* \"#utility.yul\":17574:17583   */\n      dup3\n        /* \"#utility.yul\":17570:17588   */\n      add\n        /* \"#utility.yul\":17562:17588   */\n      swap1\n      pop\n        /* \"#utility.yul\":17634:17643   */\n      dup2\n        /* \"#utility.yul\":17628:17632   */\n      dup2\n        /* \"#utility.yul\":17624:17644   */\n      sub\n        /* \"#utility.yul\":17620:17621   */\n      0x00\n        /* \"#utility.yul\":17609:17618   */\n      dup4\n        /* \"#utility.yul\":17605:17622   */\n      add\n        /* \"#utility.yul\":17598:17645   */\n      mstore\n        /* \"#utility.yul\":17662:17793   */\n      tag_350\n        /* \"#utility.yul\":17788:17792   */\n      dup2\n        /* \"#utility.yul\":17662:17793   */\n      tag_180\n      jump\t// in\n    tag_350:\n        /* \"#utility.yul\":17654:17793   */\n      swap1\n      pop\n        /* \"#utility.yul\":17381:17800   */\n      swap2\n      swap1\n      pop\n      jump\t// out\n        /* \"#utility.yul\":17806:18020   */\n    tag_181:\n        /* \"#utility.yul\":17946:18012   */\n      0x616d6f756e74e4b8ba3000000000000000000000000000000000000000000000\n        /* \"#utility.yul\":17942:17943   */\n      0x00\n        /* \"#utility.yul\":17934:17940   */\n      dup3\n        /* \"#utility.yul\":17930:17944   */\n      add\n        /* \"#utility.yul\":17923:18013   */\n      mstore\n        /* \"#utility.yul\":17806:18020   */\n      pop\n      jump\t// out\n        /* \"#utility.yul\":18026:18392   */\n    tag_182:\n        /* \"#utility.yul\":18168:18171   */\n      0x00\n        /* \"#utility.yul\":18189:18256   */\n      tag_353\n        /* \"#utility.yul\":18253:18255   */\n      0x0a\n        /* \"#utility.yul\":18248:18251   */\n      dup4\n        /* \"#utility.yul\":18189:18256   */\n      tag_159\n      jump\t// in\n    tag_353:\n        /* \"#utility.yul\":18182:18256   */\n      swap2\n      pop\n        /* \"#utility.yul\":18265:18358   */\n      tag_354\n        /* \"#utility.yul\":18354:18357   */\n      dup3\n        /* \"#utility.yul\":18265:18358   */\n      tag_181\n      jump\t// in\n    tag_354:\n        /* \"#utility.yul\":18383:18385   */\n      0x20\n        /* \"#utility.yul\":18378:18381   */\n      dup3\n        /* \"#utility.yul\":18374:18386   */\n      add\n        /* \"#utility.yul\":18367:18386   */\n      swap1\n      pop\n        /* \"#utility.yul\":18026:18392   */\n      swap2\n      swap1\n      pop\n      jump\t// out\n        /* \"#utility.yul\":18398:18817   */\n    tag_96:\n        /* \"#utility.yul\":18564:18568   */\n      0x00\n        /* \"#utility.yul\":18602:18604   */\n      0x20\n        /* \"#utility.yul\":18591:18600   */\n      dup3\n        /* \"#utility.yul\":18587:18605   */\n      add\n        /* \"#utility.yul\":18579:18605   */\n      swap1\n      pop\n        /* \"#utility.yul\":18651:18660   */\n      dup2\n        /* \"#utility.yul\":18645:18649   */\n      dup2\n        /* \"#utility.yul\":18641:18661   */\n      sub\n        /* \"#utility.yul\":18637:18638   */\n      0x00\n        /* \"#utility.yul\":18626:18635   */\n      dup4\n        /* \"#utility.yul\":18622:18639   */\n      add\n        /* \"#utility.yul\":18615:18662   */\n      mstore\n        /* \"#utility.yul\":18679:18810   */\n      tag_356\n        /* \"#utility.yul\":18805:18809   */\n      dup2\n        /* \"#utility.yul\":18679:18810   */\n      tag_182\n      jump\t// in\n    tag_356:\n        /* \"#utility.yul\":18671:18810   */\n      swap1\n      pop\n        /* \"#utility.yul\":18398:18817   */\n      swap2\n      swap1\n      pop\n      jump\t// out\n        /* \"#utility.yul\":18823:19155   */\n    tag_99:\n        /* \"#utility.yul\":18944:18948   */\n      0x00\n        /* \"#utility.yul\":18982:18984   */\n      0x40\n        /* \"#utility.yul\":18971:18980   */\n      dup3\n        /* \"#utility.yul\":18967:18985   */\n      add\n        /* \"#utility.yul\":18959:18985   */\n      swap1\n      pop\n        /* \"#utility.yul\":18995:19066   */\n      tag_358\n        /* \"#utility.yul\":19063:19064   */\n      0x00\n        /* \"#utility.yul\":19052:19061   */\n      dup4\n        /* \"#utility.yul\":19048:19065   */\n      add\n        /* \"#utility.yul\":19039:19045   */\n      dup6\n        /* \"#utility.yul\":18995:19066   */\n      tag_133\n      jump\t// in\n    tag_358:\n        /* \"#utility.yul\":19076:19148   */\n      tag_359\n        /* \"#utility.yul\":19144:19146   */\n      0x20\n        /* \"#utility.yul\":19133:19142   */\n      dup4\n        /* \"#utility.yul\":19129:19147   */\n      add\n        /* \"#utility.yul\":19120:19126   */\n      dup5\n        /* \"#utility.yul\":19076:19148   */\n      tag_133\n      jump\t// in\n    tag_359:\n        /* \"#utility.yul\":18823:19155   */\n      swap4\n      swap3\n      pop\n      pop\n      pop\n      jump\t// out\n        /* \"#utility.yul\":19161:19304   */\n    tag_183:\n        /* \"#utility.yul\":19218:19223   */\n      0x00\n        /* \"#utility.yul\":19249:19255   */\n      dup2\n        /* \"#utility.yul\":19243:19256   */\n      mload\n        /* \"#utility.yul\":19234:19256   */\n      swap1\n      pop\n        /* \"#utility.yul\":19265:19298   */\n      tag_361\n        /* \"#utility.yul\":19292:19297   */\n      dup2\n        /* \"#utility.yul\":19265:19298   */\n      tag_150\n      jump\t// in\n    tag_361:\n        /* \"#utility.yul\":19161:19304   */\n      swap3\n      swap2\n      pop\n      pop\n      jump\t// out\n        /* \"#utility.yul\":19310:19661   */\n    tag_103:\n        /* \"#utility.yul\":19380:19386   */\n      0x00\n        /* \"#utility.yul\":19429:19431   */\n      0x20\n        /* \"#utility.yul\":19417:19426   */\n      dup3\n        /* \"#utility.yul\":19408:19415   */\n      dup5\n        /* \"#utility.yul\":19404:19427   */\n      sub\n        /* \"#utility.yul\":19400:19432   */\n      slt\n        /* \"#utility.yul\":19397:19516   */\n      iszero\n      tag_363\n      jumpi\n        /* \"#utility.yul\":19435:19514   */\n      tag_364\n      tag_135\n      jump\t// in\n    tag_364:\n        /* \"#utility.yul\":19397:19516   */\n    tag_363:\n        /* \"#utility.yul\":19555:19556   */\n      0x00\n        /* \"#utility.yul\":19580:19644   */\n      tag_365\n        /* \"#utility.yul\":19636:19643   */\n      dup5\n        /* \"#utility.yul\":19627:19633   */\n      dup3\n        /* \"#utility.yul\":19616:19625   */\n      dup6\n        /* \"#utility.yul\":19612:19634   */\n      add\n        /* \"#utility.yul\":19580:19644   */\n      tag_183\n      jump\t// in\n    tag_365:\n        /* \"#utility.yul\":19570:19644   */\n      swap2\n      pop\n        /* \"#utility.yul\":19526:19654   */\n      pop\n        /* \"#utility.yul\":19310:19661   */\n      swap3\n      swap2\n      pop\n      pop\n      jump\t// out\n        /* \"#utility.yul\":19667:19881   */\n    tag_184:\n        /* \"#utility.yul\":19807:19873   */\n      0xe68e88e69d83e4bd99e9a29de4b88de8b6b30000000000000000000000000000\n        /* \"#utility.yul\":19803:19804   */\n      0x00\n        /* \"#utility.yul\":19795:19801   */\n      dup3\n        /* \"#utility.yul\":19791:19805   */\n      add\n        /* \"#utility.yul\":19784:19874   */\n      mstore\n        /* \"#utility.yul\":19667:19881   */\n      pop\n      jump\t// out\n        /* \"#utility.yul\":19887:20253   */\n    tag_185:\n        /* \"#utility.yul\":20029:20032   */\n      0x00\n        /* \"#utility.yul\":20050:20117   */\n      tag_368\n        /* \"#utility.yul\":20114:20116   */\n      0x12\n        /* \"#utility.yul\":20109:20112   */\n      dup4\n        /* \"#utility.yul\":20050:20117   */\n      tag_159\n      jump\t// in\n    tag_368:\n        /* \"#utility.yul\":20043:20117   */\n      swap2\n      pop\n        /* \"#utility.yul\":20126:20219   */\n      tag_369\n        /* \"#utility.yul\":20215:20218   */\n      dup3\n        /* \"#utility.yul\":20126:20219   */\n      tag_184\n      jump\t// in\n    tag_369:\n        /* \"#utility.yul\":20244:20246   */\n      0x20\n        /* \"#utility.yul\":20239:20242   */\n      dup3\n        /* \"#utility.yul\":20235:20247   */\n      add\n        /* \"#utility.yul\":20228:20247   */\n      swap1\n      pop\n        /* \"#utility.yul\":19887:20253   */\n      swap2\n      swap1\n      pop\n      jump\t// out\n        /* \"#utility.yul\":20259:20678   */\n    tag_106:\n        /* \"#utility.yul\":20425:20429   */\n      0x00\n        /* \"#utility.yul\":20463:20465   */\n      0x20\n        /* \"#utility.yul\":20452:20461   */\n      dup3\n        /* \"#utility.yul\":20448:20466   */\n      add\n        /* \"#utility.yul\":20440:20466   */\n      swap1\n      pop\n        /* \"#utility.yul\":20512:20521   */\n      dup2\n        /* \"#utility.yul\":20506:20510   */\n      dup2\n        /* \"#utility.yul\":20502:20522   */\n      sub\n        /* \"#utility.yul\":20498:20499   */\n      0x00\n        /* \"#utility.yul\":20487:20496   */\n      dup4\n        /* \"#utility.yul\":20483:20500   */\n      add\n        /* \"#utility.yul\":20476:20523   */\n      mstore\n        /* \"#utility.yul\":20540:20671   */\n      tag_371\n        /* \"#utility.yul\":20666:20670   */\n      dup2\n        /* \"#utility.yul\":20540:20671   */\n      tag_185\n      jump\t// in\n    tag_371:\n        /* \"#utility.yul\":20532:20671   */\n      swap1\n      pop\n        /* \"#utility.yul\":20259:20678   */\n      swap2\n      swap1\n      pop\n      jump\t// out\n        /* \"#utility.yul\":20684:21126   */\n    tag_115:\n        /* \"#utility.yul\":20833:20837   */\n      0x00\n        /* \"#utility.yul\":20871:20873   */\n      0x60\n        /* \"#utility.yul\":20860:20869   */\n      dup3\n        /* \"#utility.yul\":20856:20874   */\n      add\n        /* \"#utility.yul\":20848:20874   */\n      swap1\n      pop\n        /* \"#utility.yul\":20884:20955   */\n      tag_373\n        /* \"#utility.yul\":20952:20953   */\n      0x00\n        /* \"#utility.yul\":20941:20950   */\n      dup4\n        /* \"#utility.yul\":20937:20954   */\n      add\n        /* \"#utility.yul\":20928:20934   */\n      dup7\n        /* \"#utility.yul\":20884:20955   */\n      tag_133\n      jump\t// in\n    tag_373:\n        /* \"#utility.yul\":20965:21037   */\n      tag_374\n        /* \"#utility.yul\":21033:21035   */\n      0x20\n        /* \"#utility.yul\":21022:21031   */\n      dup4\n        /* \"#utility.yul\":21018:21036   */\n      add\n        /* \"#utility.yul\":21009:21015   */\n      dup6\n        /* \"#utility.yul\":20965:21037   */\n      tag_133\n      jump\t// in\n    tag_374:\n        /* \"#utility.yul\":21047:21119   */\n      tag_375\n        /* \"#utility.yul\":21115:21117   */\n      0x40\n        /* \"#utility.yul\":21104:21113   */\n      dup4\n        /* \"#utility.yul\":21100:21118   */\n      add\n        /* \"#utility.yul\":21091:21097   */\n      dup5\n        /* \"#utility.yul\":21047:21119   */\n      tag_176\n      jump\t// in\n    tag_375:\n        /* \"#utility.yul\":20684:21126   */\n      swap5\n      swap4\n      pop\n      pop\n      pop\n      pop\n      jump\t// out\n        /* \"#utility.yul\":21132:21222   */\n    tag_186:\n        /* \"#utility.yul\":21166:21173   */\n      0x00\n        /* \"#utility.yul\":21209:21214   */\n      dup2\n        /* \"#utility.yul\":21202:21215   */\n      iszero\n        /* \"#utility.yul\":21195:21216   */\n      iszero\n        /* \"#utility.yul\":21184:21216   */\n      swap1\n      pop\n        /* \"#utility.yul\":21132:21222   */\n      swap2\n      swap1\n      pop\n      jump\t// out\n        /* \"#utility.yul\":21228:21344   */\n    tag_187:\n        /* \"#utility.yul\":21298:21319   */\n      tag_378\n        /* \"#utility.yul\":21313:21318   */\n      dup2\n        /* \"#utility.yul\":21298:21319   */\n      tag_186\n      jump\t// in\n    tag_378:\n        /* \"#utility.yul\":21291:21296   */\n      dup2\n        /* \"#utility.yul\":21288:21320   */\n      eq\n        /* \"#utility.yul\":21278:21338   */\n      tag_379\n      jumpi\n        /* \"#utility.yul\":21334:21335   */\n      0x00\n        /* \"#utility.yul\":21331:21332   */\n      0x00\n        /* \"#utility.yul\":21324:21336   */\n      revert\n        /* \"#utility.yul\":21278:21338   */\n    tag_379:\n        /* \"#utility.yul\":21228:21344   */\n      pop\n      jump\t// out\n        /* \"#utility.yul\":21350:21487   */\n    tag_188:\n        /* \"#utility.yul\":21404:21409   */\n      0x00\n        /* \"#utility.yul\":21435:21441   */\n      dup2\n        /* \"#utility.yul\":21429:21442   */\n      mload\n        /* \"#utility.yul\":21420:21442   */\n      swap1\n      pop\n        /* \"#utility.yul\":21451:21481   */\n      tag_381\n        /* \"#utility.yul\":21475:21480   */\n      dup2\n        /* \"#utility.yul\":21451:21481   */\n      tag_187\n      jump\t// in\n    tag_381:\n        /* \"#utility.yul\":21350:21487   */\n      swap3\n      swap2\n      pop\n      pop\n      jump\t// out\n        /* \"#utility.yul\":21493:21838   */\n    tag_119:\n        /* \"#utility.yul\":21560:21566   */\n      0x00\n        /* \"#utility.yul\":21609:21611   */\n      0x20\n        /* \"#utility.yul\":21597:21606   */\n      dup3\n        /* \"#utility.yul\":21588:21595   */\n      dup5\n        /* \"#utility.yul\":21584:21607   */\n      sub\n        /* \"#utility.yul\":21580:21612   */\n      slt\n        /* \"#utility.yul\":21577:21696   */\n      iszero\n      tag_383\n      jumpi\n        /* \"#utility.yul\":21615:21694   */\n      tag_384\n      tag_135\n      jump\t// in\n    tag_384:\n        /* \"#utility.yul\":21577:21696   */\n    tag_383:\n        /* \"#utility.yul\":21735:21736   */\n      0x00\n        /* \"#utility.yul\":21760:21821   */\n      tag_385\n        /* \"#utility.yul\":21813:21820   */\n      dup5\n        /* \"#utility.yul\":21804:21810   */\n      dup3\n        /* \"#utility.yul\":21793:21802   */\n      dup6\n        /* \"#utility.yul\":21789:21811   */\n      add\n        /* \"#utility.yul\":21760:21821   */\n      tag_188\n      jump\t// in\n    tag_385:\n        /* \"#utility.yul\":21750:21821   */\n      swap2\n      pop\n        /* \"#utility.yul\":21706:21831   */\n      pop\n        /* \"#utility.yul\":21493:21838   */\n      swap3\n      swap2\n      pop\n      pop\n      jump\t// out\n        /* \"#utility.yul\":21844:22058   */\n    tag_189:\n        /* \"#utility.yul\":21984:22050   */\n      0xe8bdace8b4a6e7a9bae68a95e5a4b1e8b4a50000000000000000000000000000\n        /* \"#utility.yul\":21980:21981   */\n      0x00\n        /* \"#utility.yul\":21972:21978   */\n      dup3\n        /* \"#utility.yul\":21968:21982   */\n      add\n        /* \"#utility.yul\":21961:22051   */\n      mstore\n        /* \"#utility.yul\":21844:22058   */\n      pop\n      jump\t// out\n        /* \"#utility.yul\":22064:22430   */\n    tag_190:\n        /* \"#utility.yul\":22206:22209   */\n      0x00\n        /* \"#utility.yul\":22227:22294   */\n      tag_388\n        /* \"#utility.yul\":22291:22293   */\n      0x12\n        /* \"#utility.yul\":22286:22289   */\n      dup4\n        /* \"#utility.yul\":22227:22294   */\n      tag_159\n      jump\t// in\n    tag_388:\n        /* \"#utility.yul\":22220:22294   */\n      swap2\n      pop\n        /* \"#utility.yul\":22303:22396   */\n      tag_389\n        /* \"#utility.yul\":22392:22395   */\n      dup3\n        /* \"#utility.yul\":22303:22396   */\n      tag_189\n      jump\t// in\n    tag_389:\n        /* \"#utility.yul\":22421:22423   */\n      0x20\n        /* \"#utility.yul\":22416:22419   */\n      dup3\n        /* \"#utility.yul\":22412:22424   */\n      add\n        /* \"#utility.yul\":22405:22424   */\n      swap1\n      pop\n        /* \"#utility.yul\":22064:22430   */\n      swap2\n      swap1\n      pop\n      jump\t// out\n        /* \"#utility.yul\":22436:22855   */\n    tag_122:\n        /* \"#utility.yul\":22602:22606   */\n      0x00\n        /* \"#utility.yul\":22640:22642   */\n      0x20\n        /* \"#utility.yul\":22629:22638   */\n      dup3\n        /* \"#utility.yul\":22625:22643   */\n      add\n        /* \"#utility.yul\":22617:22643   */\n      swap1\n      pop\n        /* \"#utility.yul\":22689:22698   */\n      dup2\n        /* \"#utility.yul\":22683:22687   */\n      dup2\n        /* \"#utility.yul\":22679:22699   */\n      sub\n        /* \"#utility.yul\":22675:22676   */\n      0x00\n        /* \"#utility.yul\":22664:22673   */\n      dup4\n        /* \"#utility.yul\":22660:22677   */\n      add\n        /* \"#utility.yul\":22653:22700   */\n      mstore\n        /* \"#utility.yul\":22717:22848   */\n      tag_391\n        /* \"#utility.yul\":22843:22847   */\n      dup2\n        /* \"#utility.yul\":22717:22848   */\n      tag_190\n      jump\t// in\n    tag_391:\n        /* \"#utility.yul\":22709:22848   */\n      swap1\n      pop\n        /* \"#utility.yul\":22436:22855   */\n      swap2\n      swap1\n      pop\n      jump\t// out\n        /* \"#utility.yul\":22861:23043   */\n    tag_191:\n        /* \"#utility.yul\":23001:23035   */\n      0x41697264726f703a206e657720676f76206973207a65726f2061646472657373\n        /* \"#utility.yul\":22997:22998   */\n      0x00\n        /* \"#utility.yul\":22989:22995   */\n      dup3\n        /* \"#utility.yul\":22985:22999   */\n      add\n        /* \"#utility.yul\":22978:23036   */\n      mstore\n        /* \"#utility.yul\":22861:23043   */\n      pop\n      jump\t// out\n        /* \"#utility.yul\":23049:23415   */\n    tag_192:\n        /* \"#utility.yul\":23191:23194   */\n      0x00\n        /* \"#utility.yul\":23212:23279   */\n      tag_394\n        /* \"#utility.yul\":23276:23278   */\n      0x20\n        /* \"#utility.yul\":23271:23274   */\n      dup4\n        /* \"#utility.yul\":23212:23279   */\n      tag_159\n      jump\t// in\n    tag_394:\n        /* \"#utility.yul\":23205:23279   */\n      swap2\n      pop\n        /* \"#utility.yul\":23288:23381   */\n      tag_395\n        /* \"#utility.yul\":23377:23380   */\n      dup3\n        /* \"#utility.yul\":23288:23381   */\n      tag_191\n      jump\t// in\n    tag_395:\n        /* \"#utility.yul\":23406:23408   */\n      0x20\n        /* \"#utility.yul\":23401:23404   */\n      dup3\n        /* \"#utility.yul\":23397:23409   */\n      add\n        /* \"#utility.yul\":23390:23409   */\n      swap1\n      pop\n        /* \"#utility.yul\":23049:23415   */\n      swap2\n      swap1\n      pop\n      jump\t// out\n        /* \"#utility.yul\":23421:23840   */\n    tag_130:\n        /* \"#utility.yul\":23587:23591   */\n      0x00\n        /* \"#utility.yul\":23625:23627   */\n      0x20\n        /* \"#utility.yul\":23614:23623   */\n      dup3\n        /* \"#utility.yul\":23610:23628   */\n      add\n        /* \"#utility.yul\":23602:23628   */\n      swap1\n      pop\n        /* \"#utility.yul\":23674:23683   */\n      dup2\n        /* \"#utility.yul\":23668:23672   */\n      dup2\n        /* \"#utility.yul\":23664:23684   */\n      sub\n        /* \"#utility.yul\":23660:23661   */\n      0x00\n        /* \"#utility.yul\":23649:23658   */\n      dup4\n        /* \"#utility.yul\":23645:23662   */\n      add\n        /* \"#utility.yul\":23638:23685   */\n      mstore\n        /* \"#utility.yul\":23702:23833   */\n      tag_397\n        /* \"#utility.yul\":23828:23832   */\n      dup2\n        /* \"#utility.yul\":23702:23833   */\n      tag_192\n      jump\t// in\n    tag_397:\n        /* \"#utility.yul\":23694:23833   */\n      swap1\n      pop\n        /* \"#utility.yul\":23421:23840   */\n      swap2\n      swap1\n      pop\n      jump\t// out\n\n    auxdata: 0xa2646970667358221220c8b7659c4d8a44fcf28746fe5387c0ee66d15b951870df6f1e38b50e3309131e64736f6c634300081e0033\n}\n",
				"bytecode": {
					"linkReferences": {},
					"object": "608060405234801561000f575f5ffd5b5060405161170738038061170783398181016040528101906100319190610114565b335f5f6101000a81548173ffffffffffffffffffffffffffffffffffffffff021916908373ffffffffffffffffffffffffffffffffffffffff1602179055508060015f6101000a81548173ffffffffffffffffffffffffffffffffffffffff021916908373ffffffffffffffffffffffffffffffffffffffff1602179055505061013f565b5f5ffd5b5f73ffffffffffffffffffffffffffffffffffffffff82169050919050565b5f6100e3826100ba565b9050919050565b6100f3816100d9565b81146100fd575f5ffd5b50565b5f8151905061010e816100ea565b92915050565b5f60208284031215610129576101286100b6565b5b5f61013684828501610100565b91505092915050565b6115bb8061014c5f395ff3fe60806040526004361061004d575f3560e01c806312d43a5114610058578063677e88c314610082578063a3b862301461009e578063cfad57a2146100c6578063fc0c546a146100ee57610054565b3661005457005b5f5ffd5b348015610063575f5ffd5b5061006c610118565b6040516100799190610af8565b60405180910390f35b61009c60048036038101906100979190610d8f565b61013c565b005b3480156100a9575f5ffd5b506100c460048036038101906100bf9190610d8f565b6104bf565b005b3480156100d1575f5ffd5b506100ec60048036038101906100e79190610e05565b610956565b005b3480156100f9575f5ffd5b50610102610a94565b60405161010f9190610e8b565b60405180910390f35b5f5f9054906101000a900473ffffffffffffffffffffffffffffffffffffffff1681565b5f5f9054906101000a900473ffffffffffffffffffffffffffffffffffffffff1673ffffffffffffffffffffffffffffffffffffffff163373ffffffffffffffffffffffffffffffffffffffff16146101ca576040517f08c379a00000000000000000000000000000000000000000000000000000000081526004016101c190610efe565b60405180910390fd5b805182511461020e576040517f08c379a000000000000000000000000000000000000000000000000000000000815260040161020590610f66565b60405180910390fd5b5f5f5f90505b8351811015610326575f84828151811061023157610230610f84565b5b602002602001015190505f84838151811061024f5761024e610f84565b5b602002602001015190505f73ffffffffffffffffffffffffffffffffffffffff168273ffffffffffffffffffffffffffffffffffffffff16036102c7576040517f08c379a00000000000000000000000000000000000000000000000000000000081526004016102be90610ffb565b60405180910390fd5b5f8111610309576040517f08c379a000000000000000000000000000000000000000000000000000000000815260040161030090611063565b60405180910390fd5b808461031591906110ae565b935050508080600101915050610214565b50803414610369576040517f08c379a00000000000000000000000000000000000000000000000000000000081526004016103609061112b565b60405180910390fd5b5f5f90505b83518110156104b9575f84828151811061038b5761038a610f84565b5b602002602001015190505f8483815181106103a9576103a8610f84565b5b602002602001015190505f8273ffffffffffffffffffffffffffffffffffffffff16826040516103d890611176565b5f6040518083038185875af1925050503d805f8114610412576040519150601f19603f3d011682016040523d82523d5f602084013e610417565b606091505b505090508061045b576040517f08c379a0000000000000000000000000000000000000000000000000000000008152600401610452906111d4565b60405180910390fd5b8273ffffffffffffffffffffffffffffffffffffffff167fad69676d22bff286c2c75292a594cdb796eb0183314fb9892ab1c9182823a348836040516104a19190611201565b60405180910390a2505050808060010191505061036e565b50505050565b5f5f9054906101000a900473ffffffffffffffffffffffffffffffffffffffff1673ffffffffffffffffffffffffffffffffffffffff163373ffffffffffffffffffffffffffffffffffffffff161461054d576040517f08c379a000000000000000000000000000000000000000000000000000000000815260040161054490610efe565b60405180910390fd5b8051825114610591576040517f08c379a000000000000000000000000000000000000000000000000000000000815260040161058890611264565b60405180910390fd5b5f5f5f90505b83518110156106a9575f8482815181106105b4576105b3610f84565b5b602002602001015190505f8483815181106105d2576105d1610f84565b5b602002602001015190505f73ffffffffffffffffffffffffffffffffffffffff168273ffffffffffffffffffffffffffffffffffffffff160361064a576040517f08c379a0000000000000000000000000000000000000000000000000000000008152600401610641906112cc565b60405180910390fd5b5f811161068c576040517f08c379a000000000000000000000000000000000000000000000000000000000815260040161068390611334565b60405180910390fd5b808461069891906110ae565b935050508080600101915050610597565b508060015f9054906101000a900473ffffffffffffffffffffffffffffffffffffffff1673ffffffffffffffffffffffffffffffffffffffff1663dd62ed3e5f5f9054906101000a900473ffffffffffffffffffffffffffffffffffffffff16306040518363ffffffff1660e01b8152600401610727929190611352565b602060405180830381865afa158015610742573d5f5f3e3d5ffd5b505050506040513d601f19601f82011682018060405250810190610766919061138d565b10156107a7576040517f08c379a000000000000000000000000000000000000000000000000000000000815260040161079e90611402565b60405180910390fd5b5f5f90505b8351811015610950575f8482815181106107c9576107c8610f84565b5b602002602001015190505f8483815181106107e7576107e6610f84565b5b602002602001015190505f60015f9054906101000a900473ffffffffffffffffffffffffffffffffffffffff1673ffffffffffffffffffffffffffffffffffffffff166323b872dd5f5f9054906101000a900473ffffffffffffffffffffffffffffffffffffffff1685856040518463ffffffff1660e01b815260040161087093929190611420565b6020604051808303815f875af115801561088c573d5f5f3e3d5ffd5b505050506040513d601f19601f820116820180604052508101906108b0919061148a565b9050806108f2576040517f08c379a00000000000000000000000000000000000000000000000000000000081526004016108e9906114ff565b60405180910390fd5b8273ffffffffffffffffffffffffffffffffffffffff167f9df1485392d28cf778b2fa04dcf0a936cb7703bea0ed28dbe1d0b17f728fa5de836040516109389190611201565b60405180910390a250505080806001019150506107ac565b50505050565b5f5f9054906101000a900473ffffffffffffffffffffffffffffffffffffffff1673ffffffffffffffffffffffffffffffffffffffff163373ffffffffffffffffffffffffffffffffffffffff16146109e4576040517f08c379a00000000000000000000000000000000000000000000000000000000081526004016109db90610efe565b60405180910390fd5b5f73ffffffffffffffffffffffffffffffffffffffff168173ffffffffffffffffffffffffffffffffffffffff1603610a52576040517f08c379a0000000000000000000000000000000000000000000000000000000008152600401610a4990611567565b60405180910390fd5b805f5f6101000a81548173ffffffffffffffffffffffffffffffffffffffff021916908373ffffffffffffffffffffffffffffffffffffffff16021790555050565b60015f9054906101000a900473ffffffffffffffffffffffffffffffffffffffff1681565b5f73ffffffffffffffffffffffffffffffffffffffff82169050919050565b5f610ae282610ab9565b9050919050565b610af281610ad8565b82525050565b5f602082019050610b0b5f830184610ae9565b92915050565b5f604051905090565b5f5ffd5b5f5ffd5b5f5ffd5b5f601f19601f8301169050919050565b7f4e487b71000000000000000000000000000000000000000000000000000000005f52604160045260245ffd5b610b6c82610b26565b810181811067ffffffffffffffff82111715610b8b57610b8a610b36565b5b80604052505050565b5f610b9d610b11565b9050610ba98282610b63565b919050565b5f67ffffffffffffffff821115610bc857610bc7610b36565b5b602082029050602081019050919050565b5f5ffd5b610be681610ad8565b8114610bf0575f5ffd5b50565b5f81359050610c0181610bdd565b92915050565b5f610c19610c1484610bae565b610b94565b90508083825260208201905060208402830185811115610c3c57610c3b610bd9565b5b835b81811015610c655780610c518882610bf3565b845260208401935050602081019050610c3e565b5050509392505050565b5f82601f830112610c8357610c82610b22565b5b8135610c93848260208601610c07565b91505092915050565b5f67ffffffffffffffff821115610cb657610cb5610b36565b5b602082029050602081019050919050565b5f819050919050565b610cd981610cc7565b8114610ce3575f5ffd5b50565b5f81359050610cf481610cd0565b92915050565b5f610d0c610d0784610c9c565b610b94565b90508083825260208201905060208402830185811115610d2f57610d2e610bd9565b5b835b81811015610d585780610d448882610ce6565b845260208401935050602081019050610d31565b5050509392505050565b5f82601f830112610d7657610d75610b22565b5b8135610d86848260208601610cfa565b91505092915050565b5f5f60408385031215610da557610da4610b1a565b5b5f83013567ffffffffffffffff811115610dc257610dc1610b1e565b5b610dce85828601610c6f565b925050602083013567ffffffffffffffff811115610def57610dee610b1e565b5b610dfb85828601610d62565b9150509250929050565b5f60208284031215610e1a57610e19610b1a565b5b5f610e2784828501610bf3565b91505092915050565b5f819050919050565b5f610e53610e4e610e4984610ab9565b610e30565b610ab9565b9050919050565b5f610e6482610e39565b9050919050565b5f610e7582610e5a565b9050919050565b610e8581610e6b565b82525050565b5f602082019050610e9e5f830184610e7c565b92915050565b5f82825260208201905092915050565b7f41697264726f703a2063616c6c6572206973206e6f7420676f7665726e6f72005f82015250565b5f610ee8601f83610ea4565b9150610ef382610eb4565b602082019050919050565b5f6020820190508181035f830152610f1581610edc565b9050919050565b7f424e42e4b8a4e4b8aae695b0e7bb84e995bfe5baa6e4b88de79bb8e7ad8900005f82015250565b5f610f50601e83610ea4565b9150610f5b82610f1c565b602082019050919050565b5f6020820190508181035f830152610f7d81610f44565b9050919050565b7f4e487b71000000000000000000000000000000000000000000000000000000005f52603260045260245ffd5b7f424e42e8bdace8b4a6e59cb0e59d80e4b88de4b8bae7a9ba00000000000000005f82015250565b5f610fe5601883610ea4565b9150610ff082610fb1565b602082019050919050565b5f6020820190508181035f83015261101281610fd9565b9050919050565b7f424e42e8bdace8b4a6e4b88de4b8ba30000000000000000000000000000000005f82015250565b5f61104d601083610ea4565b915061105882611019565b602082019050919050565b5f6020820190508181035f83015261107a81611041565b9050919050565b7f4e487b71000000000000000000000000000000000000000000000000000000005f52601160045260245ffd5b5f6110b882610cc7565b91506110c383610cc7565b92508282019050808211156110db576110da611081565b5b92915050565b7f424e42206d73672e76616c756520e4b88de7ad89e4ba8ee680bbe98791e9a29d5f82015250565b5f611115602083610ea4565b9150611120826110e1565b602082019050919050565b5f6020820190508181035f83015261114281611109565b9050919050565b5f81905092915050565b50565b5f6111615f83611149565b915061116c82611153565b5f82019050919050565b5f61118082611156565b9150819050919050565b7f424e42e8bdace8b4a6e5a4b1e8b4a500000000000000000000000000000000005f82015250565b5f6111be600f83610ea4565b91506111c98261118a565b602082019050919050565b5f6020820190508181035f8301526111eb816111b2565b9050919050565b6111fb81610cc7565b82525050565b5f6020820190506112145f8301846111f2565b92915050565b7fe4b8a4e4b8aae995bfe5baa6e4b88de79bb8e7ad8900000000000000000000005f82015250565b5f61124e601583610ea4565b91506112598261121a565b602082019050919050565b5f6020820190508181035f83015261127b81611242565b9050919050565b7fe68ea5e694b6e59cb0e59d80e4b88de5ad98e59ca800000000000000000000005f82015250565b5f6112b6601583610ea4565b91506112c182611282565b602082019050919050565b5f6020820190508181035f8301526112e3816112aa565b9050919050565b7f616d6f756e74e4b8ba30000000000000000000000000000000000000000000005f82015250565b5f61131e600a83610ea4565b9150611329826112ea565b602082019050919050565b5f6020820190508181035f83015261134b81611312565b9050919050565b5f6040820190506113655f830185610ae9565b6113726020830184610ae9565b9392505050565b5f8151905061138781610cd0565b92915050565b5f602082840312156113a2576113a1610b1a565b5b5f6113af84828501611379565b91505092915050565b7fe68e88e69d83e4bd99e9a29de4b88de8b6b300000000000000000000000000005f82015250565b5f6113ec601283610ea4565b91506113f7826113b8565b602082019050919050565b5f6020820190508181035f830152611419816113e0565b9050919050565b5f6060820190506114335f830186610ae9565b6114406020830185610ae9565b61144d60408301846111f2565b949350505050565b5f8115159050919050565b61146981611455565b8114611473575f5ffd5b50565b5f8151905061148481611460565b92915050565b5f6020828403121561149f5761149e610b1a565b5b5f6114ac84828501611476565b91505092915050565b7fe8bdace8b4a6e7a9bae68a95e5a4b1e8b4a500000000000000000000000000005f82015250565b5f6114e9601283610ea4565b91506114f4826114b5565b602082019050919050565b5f6020820190508181035f830152611516816114dd565b9050919050565b7f41697264726f703a206e657720676f76206973207a65726f20616464726573735f82015250565b5f611551602083610ea4565b915061155c8261151d565b602082019050919050565b5f6020820190508181035f83015261157e81611545565b905091905056fea2646970667358221220c8b7659c4d8a44fcf28746fe5387c0ee66d15b951870df6f1e38b50e3309131e64736f6c634300081e0033",
					"opcodes": "PUSH1 0x80 PUSH1 0x40 MSTORE CALLVALUE DUP1 ISZERO PUSH2 0xF JUMPI PUSH0 PUSH0 REVERT JUMPDEST POP PUSH1 0x40 MLOAD PUSH2 0x1707 CODESIZE SUB DUP1 PUSH2 0x1707 DUP4 CODECOPY DUP2 DUP2 ADD PUSH1 0x40 MSTORE DUP2 ADD SWAP1 PUSH2 0x31 SWAP2 SWAP1 PUSH2 0x114 JUMP JUMPDEST CALLER PUSH0 PUSH0 PUSH2 0x100 EXP DUP2 SLOAD DUP2 PUSH20 0xFFFFFFFFFFFFFFFFFFFFFFFFFFFFFFFFFFFFFFFF MUL NOT AND SWAP1 DUP4 PUSH20 0xFFFFFFFFFFFFFFFFFFFFFFFFFFFFFFFFFFFFFFFF AND MUL OR SWAP1 SSTORE POP DUP1 PUSH1 0x1 PUSH0 PUSH2 0x100 EXP DUP2 SLOAD DUP2 PUSH20 0xFFFFFFFFFFFFFFFFFFFFFFFFFFFFFFFFFFFFFFFF MUL NOT AND SWAP1 DUP4 PUSH20 0xFFFFFFFFFFFFFFFFFFFFFFFFFFFFFFFFFFFFFFFF AND MUL OR SWAP1 SSTORE POP POP PUSH2 0x13F JUMP JUMPDEST PUSH0 PUSH0 REVERT JUMPDEST PUSH0 PUSH20 0xFFFFFFFFFFFFFFFFFFFFFFFFFFFFFFFFFFFFFFFF DUP3 AND SWAP1 POP SWAP2 SWAP1 POP JUMP JUMPDEST PUSH0 PUSH2 0xE3 DUP3 PUSH2 0xBA JUMP JUMPDEST SWAP1 POP SWAP2 SWAP1 POP JUMP JUMPDEST PUSH2 0xF3 DUP2 PUSH2 0xD9 JUMP JUMPDEST DUP2 EQ PUSH2 0xFD JUMPI PUSH0 PUSH0 REVERT JUMPDEST POP JUMP JUMPDEST PUSH0 DUP2 MLOAD SWAP1 POP PUSH2 0x10E DUP2 PUSH2 0xEA JUMP JUMPDEST SWAP3 SWAP2 POP POP JUMP JUMPDEST PUSH0 PUSH1 0x20 DUP3 DUP5 SUB SLT ISZERO PUSH2 0x129 JUMPI PUSH2 0x128 PUSH2 0xB6 JUMP JUMPDEST JUMPDEST PUSH0 PUSH2 0x136 DUP5 DUP3 DUP6 ADD PUSH2 0x100 JUMP JUMPDEST SWAP2 POP POP SWAP3 SWAP2 POP POP JUMP JUMPDEST PUSH2 0x15BB DUP1 PUSH2 0x14C PUSH0 CODECOPY PUSH0 RETURN INVALID PUSH1 0x80 PUSH1 0x40 MSTORE PUSH1 0x4 CALLDATASIZE LT PUSH2 0x4D JUMPI PUSH0 CALLDATALOAD PUSH1 0xE0 SHR DUP1 PUSH4 0x12D43A51 EQ PUSH2 0x58 JUMPI DUP1 PUSH4 0x677E88C3 EQ PUSH2 0x82 JUMPI DUP1 PUSH4 0xA3B86230 EQ PUSH2 0x9E JUMPI DUP1 PUSH4 0xCFAD57A2 EQ PUSH2 0xC6 JUMPI DUP1 PUSH4 0xFC0C546A EQ PUSH2 0xEE JUMPI PUSH2 0x54 JUMP JUMPDEST CALLDATASIZE PUSH2 0x54 JUMPI STOP JUMPDEST PUSH0 PUSH0 REVERT JUMPDEST CALLVALUE DUP1 ISZERO PUSH2 0x63 JUMPI PUSH0 PUSH0 REVERT JUMPDEST POP PUSH2 0x6C PUSH2 0x118 JUMP JUMPDEST PUSH1 0x40 MLOAD PUSH2 0x79 SWAP2 SWAP1 PUSH2 0xAF8 JUMP JUMPDEST PUSH1 0x40 MLOAD DUP1 SWAP2 SUB SWAP1 RETURN JUMPDEST PUSH2 0x9C PUSH1 0x4 DUP1 CALLDATASIZE SUB DUP2 ADD SWAP1 PUSH2 0x97 SWAP2 SWAP1 PUSH2 0xD8F JUMP JUMPDEST PUSH2 0x13C JUMP JUMPDEST STOP JUMPDEST CALLVALUE DUP1 ISZERO PUSH2 0xA9 JUMPI PUSH0 PUSH0 REVERT JUMPDEST POP PUSH2 0xC4 PUSH1 0x4 DUP1 CALLDATASIZE SUB DUP2 ADD SWAP1 PUSH2 0xBF SWAP2 SWAP1 PUSH2 0xD8F JUMP JUMPDEST PUSH2 0x4BF JUMP JUMPDEST STOP JUMPDEST CALLVALUE DUP1 ISZERO PUSH2 0xD1 JUMPI PUSH0 PUSH0 REVERT JUMPDEST POP PUSH2 0xEC PUSH1 0x4 DUP1 CALLDATASIZE SUB DUP2 ADD SWAP1 PUSH2 0xE7 SWAP2 SWAP1 PUSH2 0xE05 JUMP JUMPDEST PUSH2 0x956 JUMP JUMPDEST STOP JUMPDEST CALLVALUE DUP1 ISZERO PUSH2 0xF9 JUMPI PUSH0 PUSH0 REVERT JUMPDEST POP PUSH2 0x102 PUSH2 0xA94 JUMP JUMPDEST PUSH1 0x40 MLOAD PUSH2 0x10F SWAP2 SWAP1 PUSH2 0xE8B JUMP JUMPDEST PUSH1 0x40 MLOAD DUP1 SWAP2 SUB SWAP1 RETURN JUMPDEST PUSH0 PUSH0 SWAP1 SLOAD SWAP1 PUSH2 0x100 EXP SWAP1 DIV PUSH20 0xFFFFFFFFFFFFFFFFFFFFFFFFFFFFFFFFFFFFFFFF AND DUP2 JUMP JUMPDEST PUSH0 PUSH0 SWAP1 SLOAD SWAP1 PUSH2 0x100 EXP SWAP1 DIV PUSH20 0xFFFFFFFFFFFFFFFFFFFFFFFFFFFFFFFFFFFFFFFF AND PUSH20 0xFFFFFFFFFFFFFFFFFFFFFFFFFFFFFFFFFFFFFFFF AND CALLER PUSH20 0xFFFFFFFFFFFFFFFFFFFFFFFFFFFFFFFFFFFFFFFF AND EQ PUSH2 0x1CA JUMPI PUSH1 0x40 MLOAD PUSH32 0x8C379A000000000000000000000000000000000000000000000000000000000 DUP2 MSTORE PUSH1 0x4 ADD PUSH2 0x1C1 SWAP1 PUSH2 0xEFE JUMP JUMPDEST PUSH1 0x40 MLOAD DUP1 SWAP2 SUB SWAP1 REVERT JUMPDEST DUP1 MLOAD DUP3 MLOAD EQ PUSH2 0x20E JUMPI PUSH1 0x40 MLOAD PUSH32 0x8C379A000000000000000000000000000000000000000000000000000000000 DUP2 MSTORE PUSH1 0x4 ADD PUSH2 0x205 SWAP1 PUSH2 0xF66 JUMP JUMPDEST PUSH1 0x40 MLOAD DUP1 SWAP2 SUB SWAP1 REVERT JUMPDEST PUSH0 PUSH0 PUSH0 SWAP1 POP JUMPDEST DUP4 MLOAD DUP2 LT ISZERO PUSH2 0x326 JUMPI PUSH0 DUP5 DUP3 DUP2 MLOAD DUP2 LT PUSH2 0x231 JUMPI PUSH2 0x230 PUSH2 0xF84 JUMP JUMPDEST JUMPDEST PUSH1 0x20 MUL PUSH1 0x20 ADD ADD MLOAD SWAP1 POP PUSH0 DUP5 DUP4 DUP2 MLOAD DUP2 LT PUSH2 0x24F JUMPI PUSH2 0x24E PUSH2 0xF84 JUMP JUMPDEST JUMPDEST PUSH1 0x20 MUL PUSH1 0x20 ADD ADD MLOAD SWAP1 POP PUSH0 PUSH20 0xFFFFFFFFFFFFFFFFFFFFFFFFFFFFFFFFFFFFFFFF AND DUP3 PUSH20 0xFFFFFFFFFFFFFFFFFFFFFFFFFFFFFFFFFFFFFFFF AND SUB PUSH2 0x2C7 JUMPI PUSH1 0x40 MLOAD PUSH32 0x8C379A000000000000000000000000000000000000000000000000000000000 DUP2 MSTORE PUSH1 0x4 ADD PUSH2 0x2BE SWAP1 PUSH2 0xFFB JUMP JUMPDEST PUSH1 0x40 MLOAD DUP1 SWAP2 SUB SWAP1 REVERT JUMPDEST PUSH0 DUP2 GT PUSH2 0x309 JUMPI PUSH1 0x40 MLOAD PUSH32 0x8C379A000000000000000000000000000000000000000000000000000000000 DUP2 MSTORE PUSH1 0x4 ADD PUSH2 0x300 SWAP1 PUSH2 0x1063 JUMP JUMPDEST PUSH1 0x40 MLOAD DUP1 SWAP2 SUB SWAP1 REVERT JUMPDEST DUP1 DUP5 PUSH2 0x315 SWAP2 SWAP1 PUSH2 0x10AE JUMP JUMPDEST SWAP4 POP POP POP DUP1 DUP1 PUSH1 0x1 ADD SWAP2 POP POP PUSH2 0x214 JUMP JUMPDEST POP DUP1 CALLVALUE EQ PUSH2 0x369 JUMPI PUSH1 0x40 MLOAD PUSH32 0x8C379A000000000000000000000000000000000000000000000000000000000 DUP2 MSTORE PUSH1 0x4 ADD PUSH2 0x360 SWAP1 PUSH2 0x112B JUMP JUMPDEST PUSH1 0x40 MLOAD DUP1 SWAP2 SUB SWAP1 REVERT JUMPDEST PUSH0 PUSH0 SWAP1 POP JUMPDEST DUP4 MLOAD DUP2 LT ISZERO PUSH2 0x4B9 JUMPI PUSH0 DUP5 DUP3 DUP2 MLOAD DUP2 LT PUSH2 0x38B JUMPI PUSH2 0x38A PUSH2 0xF84 JUMP JUMPDEST JUMPDEST PUSH1 0x20 MUL PUSH1 0x20 ADD ADD MLOAD SWAP1 POP PUSH0 DUP5 DUP4 DUP2 MLOAD DUP2 LT PUSH2 0x3A9 JUMPI PUSH2 0x3A8 PUSH2 0xF84 JUMP JUMPDEST JUMPDEST PUSH1 0x20 MUL PUSH1 0x20 ADD ADD MLOAD SWAP1 POP PUSH0 DUP3 PUSH20 0xFFFFFFFFFFFFFFFFFFFFFFFFFFFFFFFFFFFFFFFF AND DUP3 PUSH1 0x40 MLOAD PUSH2 0x3D8 SWAP1 PUSH2 0x1176 JUMP JUMPDEST PUSH0 PUSH1 0x40 MLOAD DUP1 DUP4 SUB DUP2 DUP6 DUP8 GAS CALL SWAP3 POP POP POP RETURNDATASIZE DUP1 PUSH0 DUP2 EQ PUSH2 0x412 JUMPI PUSH1 0x40 MLOAD SWAP2 POP PUSH1 0x1F NOT PUSH1 0x3F RETURNDATASIZE ADD AND DUP3 ADD PUSH1 0x40 MSTORE RETURNDATASIZE DUP3 MSTORE RETURNDATASIZE PUSH0 PUSH1 0x20 DUP5 ADD RETURNDATACOPY PUSH2 0x417 JUMP JUMPDEST PUSH1 0x60 SWAP2 POP JUMPDEST POP POP SWAP1 POP DUP1 PUSH2 0x45B JUMPI PUSH1 0x40 MLOAD PUSH32 0x8C379A000000000000000000000000000000000000000000000000000000000 DUP2 MSTORE PUSH1 0x4 ADD PUSH2 0x452 SWAP1 PUSH2 0x11D4 JUMP JUMPDEST PUSH1 0x40 MLOAD DUP1 SWAP2 SUB SWAP1 REVERT JUMPDEST DUP3 PUSH20 0xFFFFFFFFFFFFFFFFFFFFFFFFFFFFFFFFFFFFFFFF AND PUSH32 0xAD69676D22BFF286C2C75292A594CDB796EB0183314FB9892AB1C9182823A348 DUP4 PUSH1 0x40 MLOAD PUSH2 0x4A1 SWAP2 SWAP1 PUSH2 0x1201 JUMP JUMPDEST PUSH1 0x40 MLOAD DUP1 SWAP2 SUB SWAP1 LOG2 POP POP POP DUP1 DUP1 PUSH1 0x1 ADD SWAP2 POP POP PUSH2 0x36E JUMP JUMPDEST POP POP POP POP JUMP JUMPDEST PUSH0 PUSH0 SWAP1 SLOAD SWAP1 PUSH2 0x100 EXP SWAP1 DIV PUSH20 0xFFFFFFFFFFFFFFFFFFFFFFFFFFFFFFFFFFFFFFFF AND PUSH20 0xFFFFFFFFFFFFFFFFFFFFFFFFFFFFFFFFFFFFFFFF AND CALLER PUSH20 0xFFFFFFFFFFFFFFFFFFFFFFFFFFFFFFFFFFFFFFFF AND EQ PUSH2 0x54D JUMPI PUSH1 0x40 MLOAD PUSH32 0x8C379A000000000000000000000000000000000000000000000000000000000 DUP2 MSTORE PUSH1 0x4 ADD PUSH2 0x544 SWAP1 PUSH2 0xEFE JUMP JUMPDEST PUSH1 0x40 MLOAD DUP1 SWAP2 SUB SWAP1 REVERT JUMPDEST DUP1 MLOAD DUP3 MLOAD EQ PUSH2 0x591 JUMPI PUSH1 0x40 MLOAD PUSH32 0x8C379A000000000000000000000000000000000000000000000000000000000 DUP2 MSTORE PUSH1 0x4 ADD PUSH2 0x588 SWAP1 PUSH2 0x1264 JUMP JUMPDEST PUSH1 0x40 MLOAD DUP1 SWAP2 SUB SWAP1 REVERT JUMPDEST PUSH0 PUSH0 PUSH0 SWAP1 POP JUMPDEST DUP4 MLOAD DUP2 LT ISZERO PUSH2 0x6A9 JUMPI PUSH0 DUP5 DUP3 DUP2 MLOAD DUP2 LT PUSH2 0x5B4 JUMPI PUSH2 0x5B3 PUSH2 0xF84 JUMP JUMPDEST JUMPDEST PUSH1 0x20 MUL PUSH1 0x20 ADD ADD MLOAD SWAP1 POP PUSH0 DUP5 DUP4 DUP2 MLOAD DUP2 LT PUSH2 0x5D2 JUMPI PUSH2 0x5D1 PUSH2 0xF84 JUMP JUMPDEST JUMPDEST PUSH1 0x20 MUL PUSH1 0x20 ADD ADD MLOAD SWAP1 POP PUSH0 PUSH20 0xFFFFFFFFFFFFFFFFFFFFFFFFFFFFFFFFFFFFFFFF AND DUP3 PUSH20 0xFFFFFFFFFFFFFFFFFFFFFFFFFFFFFFFFFFFFFFFF AND SUB PUSH2 0x64A JUMPI PUSH1 0x40 MLOAD PUSH32 0x8C379A000000000000000000000000000000000000000000000000000000000 DUP2 MSTORE PUSH1 0x4 ADD PUSH2 0x641 SWAP1 PUSH2 0x12CC JUMP JUMPDEST PUSH1 0x40 MLOAD DUP1 SWAP2 SUB SWAP1 REVERT JUMPDEST PUSH0 DUP2 GT PUSH2 0x68C JUMPI PUSH1 0x40 MLOAD PUSH32 0x8C379A000000000000000000000000000000000000000000000000000000000 DUP2 MSTORE PUSH1 0x4 ADD PUSH2 0x683 SWAP1 PUSH2 0x1334 JUMP JUMPDEST PUSH1 0x40 MLOAD DUP1 SWAP2 SUB SWAP1 REVERT JUMPDEST DUP1 DUP5 PUSH2 0x698 SWAP2 SWAP1 PUSH2 0x10AE JUMP JUMPDEST SWAP4 POP POP POP DUP1 DUP1 PUSH1 0x1 ADD SWAP2 POP POP PUSH2 0x597 JUMP JUMPDEST POP DUP1 PUSH1 0x1 PUSH0 SWAP1 SLOAD SWAP1 PUSH2 0x100 EXP SWAP1 DIV PUSH20 0xFFFFFFFFFFFFFFFFFFFFFFFFFFFFFFFFFFFFFFFF AND PUSH20 0xFFFFFFFFFFFFFFFFFFFFFFFFFFFFFFFFFFFFFFFF AND PUSH4 0xDD62ED3E PUSH0 PUSH0 SWAP1 SLOAD SWAP1 PUSH2 0x100 EXP SWAP1 DIV PUSH20 0xFFFFFFFFFFFFFFFFFFFFFFFFFFFFFFFFFFFFFFFF AND ADDRESS PUSH1 0x40 MLOAD DUP4 PUSH4 0xFFFFFFFF AND PUSH1 0xE0 SHL DUP2 MSTORE PUSH1 0x4 ADD PUSH2 0x727 SWAP3 SWAP2 SWAP1 PUSH2 0x1352 JUMP JUMPDEST PUSH1 0x20 PUSH1 0x40 MLOAD DUP1 DUP4 SUB DUP2 DUP7 GAS STATICCALL ISZERO DUP1 ISZERO PUSH2 0x742 JUMPI RETURNDATASIZE PUSH0 PUSH0 RETURNDATACOPY RETURNDATASIZE PUSH0 REVERT JUMPDEST POP POP POP POP PUSH1 0x40 MLOAD RETURNDATASIZE PUSH1 0x1F NOT PUSH1 0x1F DUP3 ADD AND DUP3 ADD DUP1 PUSH1 0x40 MSTORE POP DUP2 ADD SWAP1 PUSH2 0x766 SWAP2 SWAP1 PUSH2 0x138D JUMP JUMPDEST LT ISZERO PUSH2 0x7A7 JUMPI PUSH1 0x40 MLOAD PUSH32 0x8C379A000000000000000000000000000000000000000000000000000000000 DUP2 MSTORE PUSH1 0x4 ADD PUSH2 0x79E SWAP1 PUSH2 0x1402 JUMP JUMPDEST PUSH1 0x40 MLOAD DUP1 SWAP2 SUB SWAP1 REVERT JUMPDEST PUSH0 PUSH0 SWAP1 POP JUMPDEST DUP4 MLOAD DUP2 LT ISZERO PUSH2 0x950 JUMPI PUSH0 DUP5 DUP3 DUP2 MLOAD DUP2 LT PUSH2 0x7C9 JUMPI PUSH2 0x7C8 PUSH2 0xF84 JUMP JUMPDEST JUMPDEST PUSH1 0x20 MUL PUSH1 0x20 ADD ADD MLOAD SWAP1 POP PUSH0 DUP5 DUP4 DUP2 MLOAD DUP2 LT PUSH2 0x7E7 JUMPI PUSH2 0x7E6 PUSH2 0xF84 JUMP JUMPDEST JUMPDEST PUSH1 0x20 MUL PUSH1 0x20 ADD ADD MLOAD SWAP1 POP PUSH0 PUSH1 0x1 PUSH0 SWAP1 SLOAD SWAP1 PUSH2 0x100 EXP SWAP1 DIV PUSH20 0xFFFFFFFFFFFFFFFFFFFFFFFFFFFFFFFFFFFFFFFF AND PUSH20 0xFFFFFFFFFFFFFFFFFFFFFFFFFFFFFFFFFFFFFFFF AND PUSH4 0x23B872DD PUSH0 PUSH0 SWAP1 SLOAD SWAP1 PUSH2 0x100 EXP SWAP1 DIV PUSH20 0xFFFFFFFFFFFFFFFFFFFFFFFFFFFFFFFFFFFFFFFF AND DUP6 DUP6 PUSH1 0x40 MLOAD DUP5 PUSH4 0xFFFFFFFF AND PUSH1 0xE0 SHL DUP2 MSTORE PUSH1 0x4 ADD PUSH2 0x870 SWAP4 SWAP3 SWAP2 SWAP1 PUSH2 0x1420 JUMP JUMPDEST PUSH1 0x20 PUSH1 0x40 MLOAD DUP1 DUP4 SUB DUP2 PUSH0 DUP8 GAS CALL ISZERO DUP1 ISZERO PUSH2 0x88C JUMPI RETURNDATASIZE PUSH0 PUSH0 RETURNDATACOPY RETURNDATASIZE PUSH0 REVERT JUMPDEST POP POP POP POP PUSH1 0x40 MLOAD RETURNDATASIZE PUSH1 0x1F NOT PUSH1 0x1F DUP3 ADD AND DUP3 ADD DUP1 PUSH1 0x40 MSTORE POP DUP2 ADD SWAP1 PUSH2 0x8B0 SWAP2 SWAP1 PUSH2 0x148A JUMP JUMPDEST SWAP1 POP DUP1 PUSH2 0x8F2 JUMPI PUSH1 0x40 MLOAD PUSH32 0x8C379A000000000000000000000000000000000000000000000000000000000 DUP2 MSTORE PUSH1 0x4 ADD PUSH2 0x8E9 SWAP1 PUSH2 0x14FF JUMP JUMPDEST PUSH1 0x40 MLOAD DUP1 SWAP2 SUB SWAP1 REVERT JUMPDEST DUP3 PUSH20 0xFFFFFFFFFFFFFFFFFFFFFFFFFFFFFFFFFFFFFFFF AND PUSH32 0x9DF1485392D28CF778B2FA04DCF0A936CB7703BEA0ED28DBE1D0B17F728FA5DE DUP4 PUSH1 0x40 MLOAD PUSH2 0x938 SWAP2 SWAP1 PUSH2 0x1201 JUMP JUMPDEST PUSH1 0x40 MLOAD DUP1 SWAP2 SUB SWAP1 LOG2 POP POP POP DUP1 DUP1 PUSH1 0x1 ADD SWAP2 POP POP PUSH2 0x7AC JUMP JUMPDEST POP POP POP POP JUMP JUMPDEST PUSH0 PUSH0 SWAP1 SLOAD SWAP1 PUSH2 0x100 EXP SWAP1 DIV PUSH20 0xFFFFFFFFFFFFFFFFFFFFFFFFFFFFFFFFFFFFFFFF AND PUSH20 0xFFFFFFFFFFFFFFFFFFFFFFFFFFFFFFFFFFFFFFFF AND CALLER PUSH20 0xFFFFFFFFFFFFFFFFFFFFFFFFFFFFFFFFFFFFFFFF AND EQ PUSH2 0x9E4 JUMPI PUSH1 0x40 MLOAD PUSH32 0x8C379A000000000000000000000000000000000000000000000000000000000 DUP2 MSTORE PUSH1 0x4 ADD PUSH2 0x9DB SWAP1 PUSH2 0xEFE JUMP JUMPDEST PUSH1 0x40 MLOAD DUP1 SWAP2 SUB SWAP1 REVERT JUMPDEST PUSH0 PUSH20 0xFFFFFFFFFFFFFFFFFFFFFFFFFFFFFFFFFFFFFFFF AND DUP2 PUSH20 0xFFFFFFFFFFFFFFFFFFFFFFFFFFFFFFFFFFFFFFFF AND SUB PUSH2 0xA52 JUMPI PUSH1 0x40 MLOAD PUSH32 0x8C379A000000000000000000000000000000000000000000000000000000000 DUP2 MSTORE PUSH1 0x4 ADD PUSH2 0xA49 SWAP1 PUSH2 0x1567 JUMP JUMPDEST PUSH1 0x40 MLOAD DUP1 SWAP2 SUB SWAP1 REVERT JUMPDEST DUP1 PUSH0 PUSH0 PUSH2 0x100 EXP DUP2 SLOAD DUP2 PUSH20 0xFFFFFFFFFFFFFFFFFFFFFFFFFFFFFFFFFFFFFFFF MUL NOT AND SWAP1 DUP4 PUSH20 0xFFFFFFFFFFFFFFFFFFFFFFFFFFFFFFFFFFFFFFFF AND MUL OR SWAP1 SSTORE POP POP JUMP JUMPDEST PUSH1 0x1 PUSH0 SWAP1 SLOAD SWAP1 PUSH2 0x100 EXP SWAP1 DIV PUSH20 0xFFFFFFFFFFFFFFFFFFFFFFFFFFFFFFFFFFFFFFFF AND DUP2 JUMP JUMPDEST PUSH0 PUSH20 0xFFFFFFFFFFFFFFFFFFFFFFFFFFFFFFFFFFFFFFFF DUP3 AND SWAP1 POP SWAP2 SWAP1 POP JUMP JUMPDEST PUSH0 PUSH2 0xAE2 DUP3 PUSH2 0xAB9 JUMP JUMPDEST SWAP1 POP SWAP2 SWAP1 POP JUMP JUMPDEST PUSH2 0xAF2 DUP2 PUSH2 0xAD8 JUMP JUMPDEST DUP3 MSTORE POP POP JUMP JUMPDEST PUSH0 PUSH1 0x20 DUP3 ADD SWAP1 POP PUSH2 0xB0B PUSH0 DUP4 ADD DUP5 PUSH2 0xAE9 JUMP JUMPDEST SWAP3 SWAP2 POP POP JUMP JUMPDEST PUSH0 PUSH1 0x40 MLOAD SWAP1 POP SWAP1 JUMP JUMPDEST PUSH0 PUSH0 REVERT JUMPDEST PUSH0 PUSH0 REVERT JUMPDEST PUSH0 PUSH0 REVERT JUMPDEST PUSH0 PUSH1 0x1F NOT PUSH1 0x1F DUP4 ADD AND SWAP1 POP SWAP2 SWAP1 POP JUMP JUMPDEST PUSH32 0x4E487B7100000000000000000000000000000000000000000000000000000000 PUSH0 MSTORE PUSH1 0x41 PUSH1 0x4 MSTORE PUSH1 0x24 PUSH0 REVERT JUMPDEST PUSH2 0xB6C DUP3 PUSH2 0xB26 JUMP JUMPDEST DUP2 ADD DUP2 DUP2 LT PUSH8 0xFFFFFFFFFFFFFFFF DUP3 GT OR ISZERO PUSH2 0xB8B JUMPI PUSH2 0xB8A PUSH2 0xB36 JUMP JUMPDEST JUMPDEST DUP1 PUSH1 0x40 MSTORE POP POP POP JUMP JUMPDEST PUSH0 PUSH2 0xB9D PUSH2 0xB11 JUMP JUMPDEST SWAP1 POP PUSH2 0xBA9 DUP3 DUP3 PUSH2 0xB63 JUMP JUMPDEST SWAP2 SWAP1 POP JUMP JUMPDEST PUSH0 PUSH8 0xFFFFFFFFFFFFFFFF DUP3 GT ISZERO PUSH2 0xBC8 JUMPI PUSH2 0xBC7 PUSH2 0xB36 JUMP JUMPDEST JUMPDEST PUSH1 0x20 DUP3 MUL SWAP1 POP PUSH1 0x20 DUP2 ADD SWAP1 POP SWAP2 SWAP1 POP JUMP JUMPDEST PUSH0 PUSH0 REVERT JUMPDEST PUSH2 0xBE6 DUP2 PUSH2 0xAD8 JUMP JUMPDEST DUP2 EQ PUSH2 0xBF0 JUMPI PUSH0 PUSH0 REVERT JUMPDEST POP JUMP JUMPDEST PUSH0 DUP2 CALLDATALOAD SWAP1 POP PUSH2 0xC01 DUP2 PUSH2 0xBDD JUMP JUMPDEST SWAP3 SWAP2 POP POP JUMP JUMPDEST PUSH0 PUSH2 0xC19 PUSH2 0xC14 DUP5 PUSH2 0xBAE JUMP JUMPDEST PUSH2 0xB94 JUMP JUMPDEST SWAP1 POP DUP1 DUP4 DUP3 MSTORE PUSH1 0x20 DUP3 ADD SWAP1 POP PUSH1 0x20 DUP5 MUL DUP4 ADD DUP6 DUP2 GT ISZERO PUSH2 0xC3C JUMPI PUSH2 0xC3B PUSH2 0xBD9 JUMP JUMPDEST JUMPDEST DUP4 JUMPDEST DUP2 DUP2 LT ISZERO PUSH2 0xC65 JUMPI DUP1 PUSH2 0xC51 DUP9 DUP3 PUSH2 0xBF3 JUMP JUMPDEST DUP5 MSTORE PUSH1 0x20 DUP5 ADD SWAP4 POP POP PUSH1 0x20 DUP2 ADD SWAP1 POP PUSH2 0xC3E JUMP JUMPDEST POP POP POP SWAP4 SWAP3 POP POP POP JUMP JUMPDEST PUSH0 DUP3 PUSH1 0x1F DUP4 ADD SLT PUSH2 0xC83 JUMPI PUSH2 0xC82 PUSH2 0xB22 JUMP JUMPDEST JUMPDEST DUP2 CALLDATALOAD PUSH2 0xC93 DUP5 DUP3 PUSH1 0x20 DUP7 ADD PUSH2 0xC07 JUMP JUMPDEST SWAP2 POP POP SWAP3 SWAP2 POP POP JUMP JUMPDEST PUSH0 PUSH8 0xFFFFFFFFFFFFFFFF DUP3 GT ISZERO PUSH2 0xCB6 JUMPI PUSH2 0xCB5 PUSH2 0xB36 JUMP JUMPDEST JUMPDEST PUSH1 0x20 DUP3 MUL SWAP1 POP PUSH1 0x20 DUP2 ADD SWAP1 POP SWAP2 SWAP1 POP JUMP JUMPDEST PUSH0 DUP2 SWAP1 POP SWAP2 SWAP1 POP JUMP JUMPDEST PUSH2 0xCD9 DUP2 PUSH2 0xCC7 JUMP JUMPDEST DUP2 EQ PUSH2 0xCE3 JUMPI PUSH0 PUSH0 REVERT JUMPDEST POP JUMP JUMPDEST PUSH0 DUP2 CALLDATALOAD SWAP1 POP PUSH2 0xCF4 DUP2 PUSH2 0xCD0 JUMP JUMPDEST SWAP3 SWAP2 POP POP JUMP JUMPDEST PUSH0 PUSH2 0xD0C PUSH2 0xD07 DUP5 PUSH2 0xC9C JUMP JUMPDEST PUSH2 0xB94 JUMP JUMPDEST SWAP1 POP DUP1 DUP4 DUP3 MSTORE PUSH1 0x20 DUP3 ADD SWAP1 POP PUSH1 0x20 DUP5 MUL DUP4 ADD DUP6 DUP2 GT ISZERO PUSH2 0xD2F JUMPI PUSH2 0xD2E PUSH2 0xBD9 JUMP JUMPDEST JUMPDEST DUP4 JUMPDEST DUP2 DUP2 LT ISZERO PUSH2 0xD58 JUMPI DUP1 PUSH2 0xD44 DUP9 DUP3 PUSH2 0xCE6 JUMP JUMPDEST DUP5 MSTORE PUSH1 0x20 DUP5 ADD SWAP4 POP POP PUSH1 0x20 DUP2 ADD SWAP1 POP PUSH2 0xD31 JUMP JUMPDEST POP POP POP SWAP4 SWAP3 POP POP POP JUMP JUMPDEST PUSH0 DUP3 PUSH1 0x1F DUP4 ADD SLT PUSH2 0xD76 JUMPI PUSH2 0xD75 PUSH2 0xB22 JUMP JUMPDEST JUMPDEST DUP2 CALLDATALOAD PUSH2 0xD86 DUP5 DUP3 PUSH1 0x20 DUP7 ADD PUSH2 0xCFA JUMP JUMPDEST SWAP2 POP POP SWAP3 SWAP2 POP POP JUMP JUMPDEST PUSH0 PUSH0 PUSH1 0x40 DUP4 DUP6 SUB SLT ISZERO PUSH2 0xDA5 JUMPI PUSH2 0xDA4 PUSH2 0xB1A JUMP JUMPDEST JUMPDEST PUSH0 DUP4 ADD CALLDATALOAD PUSH8 0xFFFFFFFFFFFFFFFF DUP2 GT ISZERO PUSH2 0xDC2 JUMPI PUSH2 0xDC1 PUSH2 0xB1E JUMP JUMPDEST JUMPDEST PUSH2 0xDCE DUP6 DUP3 DUP7 ADD PUSH2 0xC6F JUMP JUMPDEST SWAP3 POP POP PUSH1 0x20 DUP4 ADD CALLDATALOAD PUSH8 0xFFFFFFFFFFFFFFFF DUP2 GT ISZERO PUSH2 0xDEF JUMPI PUSH2 0xDEE PUSH2 0xB1E JUMP JUMPDEST JUMPDEST PUSH2 0xDFB DUP6 DUP3 DUP7 ADD PUSH2 0xD62 JUMP JUMPDEST SWAP2 POP POP SWAP3 POP SWAP3 SWAP1 POP JUMP JUMPDEST PUSH0 PUSH1 0x20 DUP3 DUP5 SUB SLT ISZERO PUSH2 0xE1A JUMPI PUSH2 0xE19 PUSH2 0xB1A JUMP JUMPDEST JUMPDEST PUSH0 PUSH2 0xE27 DUP5 DUP3 DUP6 ADD PUSH2 0xBF3 JUMP JUMPDEST SWAP2 POP POP SWAP3 SWAP2 POP POP JUMP JUMPDEST PUSH0 DUP2 SWAP1 POP SWAP2 SWAP1 POP JUMP JUMPDEST PUSH0 PUSH2 0xE53 PUSH2 0xE4E PUSH2 0xE49 DUP5 PUSH2 0xAB9 JUMP JUMPDEST PUSH2 0xE30 JUMP JUMPDEST PUSH2 0xAB9 JUMP JUMPDEST SWAP1 POP SWAP2 SWAP1 POP JUMP JUMPDEST PUSH0 PUSH2 0xE64 DUP3 PUSH2 0xE39 JUMP JUMPDEST SWAP1 POP SWAP2 SWAP1 POP JUMP JUMPDEST PUSH0 PUSH2 0xE75 DUP3 PUSH2 0xE5A JUMP JUMPDEST SWAP1 POP SWAP2 SWAP1 POP JUMP JUMPDEST PUSH2 0xE85 DUP2 PUSH2 0xE6B JUMP JUMPDEST DUP3 MSTORE POP POP JUMP JUMPDEST PUSH0 PUSH1 0x20 DUP3 ADD SWAP1 POP PUSH2 0xE9E PUSH0 DUP4 ADD DUP5 PUSH2 0xE7C JUMP JUMPDEST SWAP3 SWAP2 POP POP JUMP JUMPDEST PUSH0 DUP3 DUP3 MSTORE PUSH1 0x20 DUP3 ADD SWAP1 POP SWAP3 SWAP2 POP POP JUMP JUMPDEST PUSH32 0x41697264726F703A2063616C6C6572206973206E6F7420676F7665726E6F7200 PUSH0 DUP3 ADD MSTORE POP JUMP JUMPDEST PUSH0 PUSH2 0xEE8 PUSH1 0x1F DUP4 PUSH2 0xEA4 JUMP JUMPDEST SWAP2 POP PUSH2 0xEF3 DUP3 PUSH2 0xEB4 JUMP JUMPDEST PUSH1 0x20 DUP3 ADD SWAP1 POP SWAP2 SWAP1 POP JUMP JUMPDEST PUSH0 PUSH1 0x20 DUP3 ADD SWAP1 POP DUP2 DUP2 SUB PUSH0 DUP4 ADD MSTORE PUSH2 0xF15 DUP2 PUSH2 0xEDC JUMP JUMPDEST SWAP1 POP SWAP2 SWAP1 POP JUMP JUMPDEST PUSH32 0x424E42E4B8A4E4B8AAE695B0E7BB84E995BFE5BAA6E4B88DE79BB8E7AD890000 PUSH0 DUP3 ADD MSTORE POP JUMP JUMPDEST PUSH0 PUSH2 0xF50 PUSH1 0x1E DUP4 PUSH2 0xEA4 JUMP JUMPDEST SWAP2 POP PUSH2 0xF5B DUP3 PUSH2 0xF1C JUMP JUMPDEST PUSH1 0x20 DUP3 ADD SWAP1 POP SWAP2 SWAP1 POP JUMP JUMPDEST PUSH0 PUSH1 0x20 DUP3 ADD SWAP1 POP DUP2 DUP2 SUB PUSH0 DUP4 ADD MSTORE PUSH2 0xF7D DUP2 PUSH2 0xF44 JUMP JUMPDEST SWAP1 POP SWAP2 SWAP1 POP JUMP JUMPDEST PUSH32 0x4E487B7100000000000000000000000000000000000000000000000000000000 PUSH0 MSTORE PUSH1 0x32 PUSH1 0x4 MSTORE PUSH1 0x24 PUSH0 REVERT JUMPDEST PUSH32 0x424E42E8BDACE8B4A6E59CB0E59D80E4B88DE4B8BAE7A9BA0000000000000000 PUSH0 DUP3 ADD MSTORE POP JUMP JUMPDEST PUSH0 PUSH2 0xFE5 PUSH1 0x18 DUP4 PUSH2 0xEA4 JUMP JUMPDEST SWAP2 POP PUSH2 0xFF0 DUP3 PUSH2 0xFB1 JUMP JUMPDEST PUSH1 0x20 DUP3 ADD SWAP1 POP SWAP2 SWAP1 POP JUMP JUMPDEST PUSH0 PUSH1 0x20 DUP3 ADD SWAP1 POP DUP2 DUP2 SUB PUSH0 DUP4 ADD MSTORE PUSH2 0x1012 DUP2 PUSH2 0xFD9 JUMP JUMPDEST SWAP1 POP SWAP2 SWAP1 POP JUMP JUMPDEST PUSH32 0x424E42E8BDACE8B4A6E4B88DE4B8BA3000000000000000000000000000000000 PUSH0 DUP3 ADD MSTORE POP JUMP JUMPDEST PUSH0 PUSH2 0x104D PUSH1 0x10 DUP4 PUSH2 0xEA4 JUMP JUMPDEST SWAP2 POP PUSH2 0x1058 DUP3 PUSH2 0x1019 JUMP JUMPDEST PUSH1 0x20 DUP3 ADD SWAP1 POP SWAP2 SWAP1 POP JUMP JUMPDEST PUSH0 PUSH1 0x20 DUP3 ADD SWAP1 POP DUP2 DUP2 SUB PUSH0 DUP4 ADD MSTORE PUSH2 0x107A DUP2 PUSH2 0x1041 JUMP JUMPDEST SWAP1 POP SWAP2 SWAP1 POP JUMP JUMPDEST PUSH32 0x4E487B7100000000000000000000000000000000000000000000000000000000 PUSH0 MSTORE PUSH1 0x11 PUSH1 0x4 MSTORE PUSH1 0x24 PUSH0 REVERT JUMPDEST PUSH0 PUSH2 0x10B8 DUP3 PUSH2 0xCC7 JUMP JUMPDEST SWAP2 POP PUSH2 0x10C3 DUP4 PUSH2 0xCC7 JUMP JUMPDEST SWAP3 POP DUP3 DUP3 ADD SWAP1 POP DUP1 DUP3 GT ISZERO PUSH2 0x10DB JUMPI PUSH2 0x10DA PUSH2 0x1081 JUMP JUMPDEST JUMPDEST SWAP3 SWAP2 POP POP JUMP JUMPDEST PUSH32 0x424E42206D73672E76616C756520E4B88DE7AD89E4BA8EE680BBE98791E9A29D PUSH0 DUP3 ADD MSTORE POP JUMP JUMPDEST PUSH0 PUSH2 0x1115 PUSH1 0x20 DUP4 PUSH2 0xEA4 JUMP JUMPDEST SWAP2 POP PUSH2 0x1120 DUP3 PUSH2 0x10E1 JUMP JUMPDEST PUSH1 0x20 DUP3 ADD SWAP1 POP SWAP2 SWAP1 POP JUMP JUMPDEST PUSH0 PUSH1 0x20 DUP3 ADD SWAP1 POP DUP2 DUP2 SUB PUSH0 DUP4 ADD MSTORE PUSH2 0x1142 DUP2 PUSH2 0x1109 JUMP JUMPDEST SWAP1 POP SWAP2 SWAP1 POP JUMP JUMPDEST PUSH0 DUP2 SWAP1 POP SWAP3 SWAP2 POP POP JUMP JUMPDEST POP JUMP JUMPDEST PUSH0 PUSH2 0x1161 PUSH0 DUP4 PUSH2 0x1149 JUMP JUMPDEST SWAP2 POP PUSH2 0x116C DUP3 PUSH2 0x1153 JUMP JUMPDEST PUSH0 DUP3 ADD SWAP1 POP SWAP2 SWAP1 POP JUMP JUMPDEST PUSH0 PUSH2 0x1180 DUP3 PUSH2 0x1156 JUMP JUMPDEST SWAP2 POP DUP2 SWAP1 POP SWAP2 SWAP1 POP JUMP JUMPDEST PUSH32 0x424E42E8BDACE8B4A6E5A4B1E8B4A50000000000000000000000000000000000 PUSH0 DUP3 ADD MSTORE POP JUMP JUMPDEST PUSH0 PUSH2 0x11BE PUSH1 0xF DUP4 PUSH2 0xEA4 JUMP JUMPDEST SWAP2 POP PUSH2 0x11C9 DUP3 PUSH2 0x118A JUMP JUMPDEST PUSH1 0x20 DUP3 ADD SWAP1 POP SWAP2 SWAP1 POP JUMP JUMPDEST PUSH0 PUSH1 0x20 DUP3 ADD SWAP1 POP DUP2 DUP2 SUB PUSH0 DUP4 ADD MSTORE PUSH2 0x11EB DUP2 PUSH2 0x11B2 JUMP JUMPDEST SWAP1 POP SWAP2 SWAP1 POP JUMP JUMPDEST PUSH2 0x11FB DUP2 PUSH2 0xCC7 JUMP JUMPDEST DUP3 MSTORE POP POP JUMP JUMPDEST PUSH0 PUSH1 0x20 DUP3 ADD SWAP1 POP PUSH2 0x1214 PUSH0 DUP4 ADD DUP5 PUSH2 0x11F2 JUMP JUMPDEST SWAP3 SWAP2 POP POP JUMP JUMPDEST PUSH32 0xE4B8A4E4B8AAE995BFE5BAA6E4B88DE79BB8E7AD890000000000000000000000 PUSH0 DUP3 ADD MSTORE POP JUMP JUMPDEST PUSH0 PUSH2 0x124E PUSH1 0x15 DUP4 PUSH2 0xEA4 JUMP JUMPDEST SWAP2 POP PUSH2 0x1259 DUP3 PUSH2 0x121A JUMP JUMPDEST PUSH1 0x20 DUP3 ADD SWAP1 POP SWAP2 SWAP1 POP JUMP JUMPDEST PUSH0 PUSH1 0x20 DUP3 ADD SWAP1 POP DUP2 DUP2 SUB PUSH0 DUP4 ADD MSTORE PUSH2 0x127B DUP2 PUSH2 0x1242 JUMP JUMPDEST SWAP1 POP SWAP2 SWAP1 POP JUMP JUMPDEST PUSH32 0xE68EA5E694B6E59CB0E59D80E4B88DE5AD98E59CA80000000000000000000000 PUSH0 DUP3 ADD MSTORE POP JUMP JUMPDEST PUSH0 PUSH2 0x12B6 PUSH1 0x15 DUP4 PUSH2 0xEA4 JUMP JUMPDEST SWAP2 POP PUSH2 0x12C1 DUP3 PUSH2 0x1282 JUMP JUMPDEST PUSH1 0x20 DUP3 ADD SWAP1 POP SWAP2 SWAP1 POP JUMP JUMPDEST PUSH0 PUSH1 0x20 DUP3 ADD SWAP1 POP DUP2 DUP2 SUB PUSH0 DUP4 ADD MSTORE PUSH2 0x12E3 DUP2 PUSH2 0x12AA JUMP JUMPDEST SWAP1 POP SWAP2 SWAP1 POP JUMP JUMPDEST PUSH32 0x616D6F756E74E4B8BA3000000000000000000000000000000000000000000000 PUSH0 DUP3 ADD MSTORE POP JUMP JUMPDEST PUSH0 PUSH2 0x131E PUSH1 0xA DUP4 PUSH2 0xEA4 JUMP JUMPDEST SWAP2 POP PUSH2 0x1329 DUP3 PUSH2 0x12EA JUMP JUMPDEST PUSH1 0x20 DUP3 ADD SWAP1 POP SWAP2 SWAP1 POP JUMP JUMPDEST PUSH0 PUSH1 0x20 DUP3 ADD SWAP1 POP DUP2 DUP2 SUB PUSH0 DUP4 ADD MSTORE PUSH2 0x134B DUP2 PUSH2 0x1312 JUMP JUMPDEST SWAP1 POP SWAP2 SWAP1 POP JUMP JUMPDEST PUSH0 PUSH1 0x40 DUP3 ADD SWAP1 POP PUSH2 0x1365 PUSH0 DUP4 ADD DUP6 PUSH2 0xAE9 JUMP JUMPDEST PUSH2 0x1372 PUSH1 0x20 DUP4 ADD DUP5 PUSH2 0xAE9 JUMP JUMPDEST SWAP4 SWAP3 POP POP POP JUMP JUMPDEST PUSH0 DUP2 MLOAD SWAP1 POP PUSH2 0x1387 DUP2 PUSH2 0xCD0 JUMP JUMPDEST SWAP3 SWAP2 POP POP JUMP JUMPDEST PUSH0 PUSH1 0x20 DUP3 DUP5 SUB SLT ISZERO PUSH2 0x13A2 JUMPI PUSH2 0x13A1 PUSH2 0xB1A JUMP JUMPDEST JUMPDEST PUSH0 PUSH2 0x13AF DUP5 DUP3 DUP6 ADD PUSH2 0x1379 JUMP JUMPDEST SWAP2 POP POP SWAP3 SWAP2 POP POP JUMP JUMPDEST PUSH32 0xE68E88E69D83E4BD99E9A29DE4B88DE8B6B30000000000000000000000000000 PUSH0 DUP3 ADD MSTORE POP JUMP JUMPDEST PUSH0 PUSH2 0x13EC PUSH1 0x12 DUP4 PUSH2 0xEA4 JUMP JUMPDEST SWAP2 POP PUSH2 0x13F7 DUP3 PUSH2 0x13B8 JUMP JUMPDEST PUSH1 0x20 DUP3 ADD SWAP1 POP SWAP2 SWAP1 POP JUMP JUMPDEST PUSH0 PUSH1 0x20 DUP3 ADD SWAP1 POP DUP2 DUP2 SUB PUSH0 DUP4 ADD MSTORE PUSH2 0x1419 DUP2 PUSH2 0x13E0 JUMP JUMPDEST SWAP1 POP SWAP2 SWAP1 POP JUMP JUMPDEST PUSH0 PUSH1 0x60 DUP3 ADD SWAP1 POP PUSH2 0x1433 PUSH0 DUP4 ADD DUP7 PUSH2 0xAE9 JUMP JUMPDEST PUSH2 0x1440 PUSH1 0x20 DUP4 ADD DUP6 PUSH2 0xAE9 JUMP JUMPDEST PUSH2 0x144D PUSH1 0x40 DUP4 ADD DUP5 PUSH2 0x11F2 JUMP JUMPDEST SWAP5 SWAP4 POP POP POP POP JUMP JUMPDEST PUSH0 DUP2 ISZERO ISZERO SWAP1 POP SWAP2 SWAP1 POP JUMP JUMPDEST PUSH2 0x1469 DUP2 PUSH2 0x1455 JUMP JUMPDEST DUP2 EQ PUSH2 0x1473 JUMPI PUSH0 PUSH0 REVERT JUMPDEST POP JUMP JUMPDEST PUSH0 DUP2 MLOAD SWAP1 POP PUSH2 0x1484 DUP2 PUSH2 0x1460 JUMP JUMPDEST SWAP3 SWAP2 POP POP JUMP JUMPDEST PUSH0 PUSH1 0x20 DUP3 DUP5 SUB SLT ISZERO PUSH2 0x149F JUMPI PUSH2 0x149E PUSH2 0xB1A JUMP JUMPDEST JUMPDEST PUSH0 PUSH2 0x14AC DUP5 DUP3 DUP6 ADD PUSH2 0x1476 JUMP JUMPDEST SWAP2 POP POP SWAP3 SWAP2 POP POP JUMP JUMPDEST PUSH32 0xE8BDACE8B4A6E7A9BAE68A95E5A4B1E8B4A50000000000000000000000000000 PUSH0 DUP3 ADD MSTORE POP JUMP JUMPDEST PUSH0 PUSH2 0x14E9 PUSH1 0x12 DUP4 PUSH2 0xEA4 JUMP JUMPDEST SWAP2 POP PUSH2 0x14F4 DUP3 PUSH2 0x14B5 JUMP JUMPDEST PUSH1 0x20 DUP3 ADD SWAP1 POP SWAP2 SWAP1 POP JUMP JUMPDEST PUSH0 PUSH1 0x20 DUP3 ADD SWAP1 POP DUP2 DUP2 SUB PUSH0 DUP4 ADD MSTORE PUSH2 0x1516 DUP2 PUSH2 0x14DD JUMP JUMPDEST SWAP1 POP SWAP2 SWAP1 POP JUMP JUMPDEST PUSH32 0x41697264726F703A206E657720676F76206973207A65726F2061646472657373 PUSH0 DUP3 ADD MSTORE POP JUMP JUMPDEST PUSH0 PUSH2 0x1551 PUSH1 0x20 DUP4 PUSH2 0xEA4 JUMP JUMPDEST SWAP2 POP PUSH2 0x155C DUP3 PUSH2 0x151D JUMP JUMPDEST PUSH1 0x20 DUP3 ADD SWAP1 POP SWAP2 SWAP1 POP JUMP JUMPDEST PUSH0 PUSH1 0x20 DUP3 ADD SWAP1 POP DUP2 DUP2 SUB PUSH0 DUP4 ADD MSTORE PUSH2 0x157E DUP2 PUSH2 0x1545 JUMP JUMPDEST SWAP1 POP SWAP2 SWAP1 POP JUMP INVALID LOG2 PUSH5 0x6970667358 0x22 SLT KECCAK256 0xC8 0xB7 PUSH6 0x9C4D8A44FCF2 DUP8 CHAINID INVALID MSTORE8 DUP8 0xC0 RETURNCONTRACT 0x66 DATALOADN 0x5B95 XOR PUSH17 0xDF6F1E38B50E3309131E64736F6C634300 ADDMOD 0x1E STOP CALLER "
				},
				"gasEstimates": {
					"creation": {
						"codeDepositCost": "1112600",
						"executionCost": "infinite",
						"totalCost": "infinite"
					},
					"external": {
						"airdropBNB(address[],uint256[])": "infinite",
						"airdropERC20(address[],uint256[])": "infinite",
						"gov()": "2485",
						"setGov(address)": "26960",
						"token()": "infinite"
					}
				},
				"methodIdentifiers": {
					"airdropBNB(address[],uint256[])": "677e88c3",
					"airdropERC20(address[],uint256[])": "a3b86230",
					"gov()": "12d43a51",
					"setGov(address)": "cfad57a2",
					"token()": "fc0c546a"
				}
			},
			"storageLayout": {
				"storage": [
					{
						"astId": 210,
						"contract": "contracts/airdrop.sol:Airdrop",
						"label": "gov",
						"offset": 0,
						"slot": "0",
						"type": "t_address"
					},
					{
						"astId": 213,
						"contract": "contracts/airdrop.sol:Airdrop",
						"label": "token",
						"offset": 0,
						"slot": "1",
						"type": "t_contract(IERC20)205"
					}
				],
				"types": {
					"t_address": {
						"encoding": "inplace",
						"label": "address",
						"numberOfBytes": "20"
					},
					"t_contract(IERC20)205": {
						"encoding": "inplace",
						"label": "contract IERC20",
						"numberOfBytes": "20"
					}
				}
			},
			"userdoc": {
				"kind": "user",
				"methods": {},
				"version": 1
			}
		}
	}
}