{
	"demo/basic-proxy.sol": {
		"Proxy": {
			"abi": [
				{
					"inputs": [
						{
							"internalType": "address",
							"name": "_logic",
							"type": "address"
						}
					],
					"stateMutability": "nonpayable",
					"type": "constructor"
				},
				{
					"stateMutability": "nonpayable",
					"type": "fallback"
				},
				{
					"inputs": [],
					"name": "count",
					"outputs": [
						{
							"internalType": "uint256",
							"name": "",
							"type": "uint256"
						}
					],
					"stateMutability": "view",
					"type": "function"
				},
				{
					"inputs": [],
					"name": "logic",
					"outputs": [
						{
							"internalType": "address",
							"name": "",
							"type": "address"
						}
					],
					"stateMutability": "view",
					"type": "function"
				}
			],
			"devdoc": {
				"kind": "dev",
				"methods": {},
				"version": 1
			},
			"evm": {
				"assembly": "    /* \"demo/basic-proxy.sol\":197:483  contract Proxy{\r... */\n  mstore(0x40, 0x80)\n    /* \"demo/basic-proxy.sol\":272:330  constructor(address _logic){\r... */\n  callvalue\n  dup1\n  iszero\n  tag_1\n  jumpi\n  0x00\n  dup1\n  revert\ntag_1:\n  pop\n  mload(0x40)\n  sub(codesize, bytecodeSize)\n  dup1\n  bytecodeSize\n  dup4\n  codecopy\n  dup2\n  dup2\n  add\n  0x40\n  mstore\n  dup2\n  add\n  swap1\n  tag_2\n  swap2\n  swap1\n  tag_3\n  jump\t// in\ntag_2:\n    /* \"demo/basic-proxy.sol\":316:322  _logic */\n  dup1\n    /* \"demo/basic-proxy.sol\":310:315  logic */\n  0x00\n  dup1\n    /* \"demo/basic-proxy.sol\":310:322  logic=_logic */\n  0x0100\n  exp\n  dup2\n  sload\n  dup2\n  0xffffffffffffffffffffffffffffffffffffffff\n  mul\n  not\n  and\n  swap1\n  dup4\n  0xffffffffffffffffffffffffffffffffffffffff\n  and\n  mul\n  or\n  swap1\n  sstore\n  pop\n    /* \"demo/basic-proxy.sol\":272:330  constructor(address _logic){\r... */\n  pop\n    /* \"demo/basic-proxy.sol\":197:483  contract Proxy{\r... */\n  jump(tag_6)\n    /* \"#utility.yul\":7:150   */\ntag_8:\n    /* \"#utility.yul\":64:69   */\n  0x00\n    /* \"#utility.yul\":95:101   */\n  dup2\n    /* \"#utility.yul\":89:102   */\n  mload\n    /* \"#utility.yul\":80:102   */\n  swap1\n  pop\n    /* \"#utility.yul\":111:144   */\n  tag_10\n    /* \"#utility.yul\":138:143   */\n  dup2\n    /* \"#utility.yul\":111:144   */\n  tag_11\n  jump\t// in\ntag_10:\n    /* \"#utility.yul\":7:150   */\n  swap3\n  swap2\n  pop\n  pop\n  jump\t// out\n    /* \"#utility.yul\":156:507   */\ntag_3:\n    /* \"#utility.yul\":226:232   */\n  0x00\n    /* \"#utility.yul\":275:277   */\n  0x20\n    /* \"#utility.yul\":263:272   */\n  dup3\n    /* \"#utility.yul\":254:261   */\n  dup5\n    /* \"#utility.yul\":250:273   */\n  sub\n    /* \"#utility.yul\":246:278   */\n  slt\n    /* \"#utility.yul\":243:362   */\n  iszero\n  tag_13\n  jumpi\n    /* \"#utility.yul\":281:360   */\n  tag_14\n  tag_15\n  jump\t// in\ntag_14:\n    /* \"#utility.yul\":243:362   */\ntag_13:\n    /* \"#utility.yul\":401:402   */\n  0x00\n    /* \"#utility.yul\":426:490   */\n  tag_16\n    /* \"#utility.yul\":482:489   */\n  dup5\n    /* \"#utility.yul\":473:479   */\n  dup3\n    /* \"#utility.yul\":462:471   */\n  dup6\n    /* \"#utility.yul\":458:480   */\n  add\n    /* \"#utility.yul\":426:490   */\n  tag_8\n  jump\t// in\ntag_16:\n    /* \"#utility.yul\":416:490   */\n  swap2\n  pop\n    /* \"#utility.yul\":372:500   */\n  pop\n    /* \"#utility.yul\":156:507   */\n  swap3\n  swap2\n  pop\n  pop\n  jump\t// out\n    /* \"#utility.yul\":594:690   */\ntag_19:\n    /* \"#utility.yul\":631:638   */\n  0x00\n    /* \"#utility.yul\":660:684   */\n  tag_21\n    /* \"#utility.yul\":678:683   */\n  dup3\n    /* \"#utility.yul\":660:684   */\n  tag_22\n  jump\t// in\ntag_21:\n    /* \"#utility.yul\":649:684   */\n  swap1\n  pop\n    /* \"#utility.yul\":594:690   */\n  swap2\n  swap1\n  pop\n  jump\t// out\n    /* \"#utility.yul\":696:822   */\ntag_22:\n    /* \"#utility.yul\":733:740   */\n  0x00\n    /* \"#utility.yul\":773:815   */\n  0xffffffffffffffffffffffffffffffffffffffff\n    /* \"#utility.yul\":766:771   */\n  dup3\n    /* \"#utility.yul\":762:816   */\n  and\n    /* \"#utility.yul\":751:816   */\n  swap1\n  pop\n    /* \"#utility.yul\":696:822   */\n  swap2\n  swap1\n  pop\n  jump\t// out\n    /* \"#utility.yul\":951:1068   */\ntag_15:\n    /* \"#utility.yul\":1060:1061   */\n  0x00\n    /* \"#utility.yul\":1057:1058   */\n  dup1\n    /* \"#utility.yul\":1050:1062   */\n  revert\n    /* \"#utility.yul\":1074:1196   */\ntag_11:\n    /* \"#utility.yul\":1147:1171   */\n  tag_28\n    /* \"#utility.yul\":1165:1170   */\n  dup2\n    /* \"#utility.yul\":1147:1171   */\n  tag_19\n  jump\t// in\ntag_28:\n    /* \"#utility.yul\":1140:1145   */\n  dup2\n    /* \"#utility.yul\":1137:1172   */\n  eq\n    /* \"#utility.yul\":1127:1190   */\n  tag_29\n  jumpi\n    /* \"#utility.yul\":1186:1187   */\n  0x00\n    /* \"#utility.yul\":1183:1184   */\n  dup1\n    /* \"#utility.yul\":1176:1188   */\n  revert\n    /* \"#utility.yul\":1127:1190   */\ntag_29:\n    /* \"#utility.yul\":1074:1196   */\n  pop\n  jump\t// out\n    /* \"demo/basic-proxy.sol\":197:483  contract Proxy{\r... */\ntag_6:\n  dataSize(sub_0)\n  dup1\n  dataOffset(sub_0)\n  0x00\n  codecopy\n  0x00\n  return\nstop\n\nsub_0: assembly {\n        /* \"demo/basic-proxy.sol\":197:483  contract Proxy{\r... */\n      mstore(0x40, 0x80)\n      callvalue\n      dup1\n      iszero\n      tag_1\n      jumpi\n      0x00\n      dup1\n      revert\n    tag_1:\n      pop\n      jumpi(tag_2, lt(calldatasize, 0x04))\n      shr(0xe0, calldataload(0x00))\n      dup1\n      0x06661abd\n      eq\n      tag_4\n      jumpi\n      dup1\n      0xd7dfa0dd\n      eq\n      tag_5\n      jumpi\n      jump(tag_3)\n    tag_2:\n    tag_3:\n        /* \"demo/basic-proxy.sol\":374:381  bool ok */\n      0x00\n        /* \"demo/basic-proxy.sol\":382:398  bytes memory res */\n      dup1\n        /* \"demo/basic-proxy.sol\":402:407  logic */\n      0x00\n      dup1\n      sload\n      swap1\n      0x0100\n      exp\n      swap1\n      div\n      0xffffffffffffffffffffffffffffffffffffffff\n      and\n        /* \"demo/basic-proxy.sol\":402:420  logic.delegatecall */\n      0xffffffffffffffffffffffffffffffffffffffff\n      and\n        /* \"demo/basic-proxy.sol\":421:429  msg.data */\n      0x00\n      calldatasize\n        /* \"demo/basic-proxy.sol\":402:430  logic.delegatecall(msg.data) */\n      mload(0x40)\n      tag_8\n      swap3\n      swap2\n      swap1\n      tag_9\n      jump\t// in\n    tag_8:\n      0x00\n      mload(0x40)\n      dup1\n      dup4\n      sub\n      dup2\n      dup6\n      gas\n      delegatecall\n      swap2\n      pop\n      pop\n      returndatasize\n      dup1\n      0x00\n      dup2\n      eq\n      tag_12\n      jumpi\n      mload(0x40)\n      swap2\n      pop\n      and(add(returndatasize, 0x3f), not(0x1f))\n      dup3\n      add\n      0x40\n      mstore\n      returndatasize\n      dup3\n      mstore\n      returndatasize\n      0x00\n      0x20\n      dup5\n      add\n      returndatacopy\n      jump(tag_11)\n    tag_12:\n      0x60\n      swap2\n      pop\n    tag_11:\n      pop\n        /* \"demo/basic-proxy.sol\":373:430  (bool ok,bytes memory res)=  logic.delegatecall(msg.data) */\n      swap2\n      pop\n      swap2\n      pop\n        /* \"demo/basic-proxy.sol\":447:449  ok */\n      dup2\n        /* \"demo/basic-proxy.sol\":439:472  require(ok,\"delegatecall failed\") */\n      tag_13\n      jumpi\n      mload(0x40)\n      0x08c379a000000000000000000000000000000000000000000000000000000000\n      dup2\n      mstore\n      0x04\n      add\n      tag_14\n      swap1\n      tag_15\n      jump\t// in\n    tag_14:\n      mload(0x40)\n      dup1\n      swap2\n      sub\n      swap1\n      revert\n    tag_13:\n        /* \"demo/basic-proxy.sol\":363:480  { \r... */\n      pop\n      pop\n        /* \"demo/basic-proxy.sol\":197:483  contract Proxy{\r... */\n      stop\n        /* \"demo/basic-proxy.sol\":245:265  uint256 public count */\n    tag_4:\n      tag_16\n      tag_17\n      jump\t// in\n    tag_16:\n      mload(0x40)\n      tag_18\n      swap2\n      swap1\n      tag_19\n      jump\t// in\n    tag_18:\n      mload(0x40)\n      dup1\n      swap2\n      sub\n      swap1\n      return\n        /* \"demo/basic-proxy.sol\":218:238  address public logic */\n    tag_5:\n      tag_20\n      tag_21\n      jump\t// in\n    tag_20:\n      mload(0x40)\n      tag_22\n      swap2\n      swap1\n      tag_23\n      jump\t// in\n    tag_22:\n      mload(0x40)\n      dup1\n      swap2\n      sub\n      swap1\n      return\n        /* \"demo/basic-proxy.sol\":245:265  uint256 public count */\n    tag_17:\n      sload(0x01)\n      dup2\n      jump\t// out\n        /* \"demo/basic-proxy.sol\":218:238  address public logic */\n    tag_21:\n      0x00\n      dup1\n      sload\n      swap1\n      0x0100\n      exp\n      swap1\n      div\n      0xffffffffffffffffffffffffffffffffffffffff\n      and\n      dup2\n      jump\t// out\n        /* \"#utility.yul\":7:125   */\n    tag_25:\n        /* \"#utility.yul\":94:118   */\n      tag_27\n        /* \"#utility.yul\":112:117   */\n      dup2\n        /* \"#utility.yul\":94:118   */\n      tag_28\n      jump\t// in\n    tag_27:\n        /* \"#utility.yul\":89:92   */\n      dup3\n        /* \"#utility.yul\":82:119   */\n      mstore\n        /* \"#utility.yul\":7:125   */\n      pop\n      pop\n      jump\t// out\n        /* \"#utility.yul\":153:467   */\n    tag_29:\n        /* \"#utility.yul\":267:270   */\n      0x00\n        /* \"#utility.yul\":288:376   */\n      tag_31\n        /* \"#utility.yul\":369:375   */\n      dup4\n        /* \"#utility.yul\":364:367   */\n      dup6\n        /* \"#utility.yul\":288:376   */\n      tag_32\n      jump\t// in\n    tag_31:\n        /* \"#utility.yul\":281:376   */\n      swap4\n      pop\n        /* \"#utility.yul\":386:429   */\n      tag_33\n        /* \"#utility.yul\":422:428   */\n      dup4\n        /* \"#utility.yul\":417:420   */\n      dup6\n        /* \"#utility.yul\":410:415   */\n      dup5\n        /* \"#utility.yul\":386:429   */\n      tag_34\n      jump\t// in\n    tag_33:\n        /* \"#utility.yul\":454:460   */\n      dup3\n        /* \"#utility.yul\":449:452   */\n      dup5\n        /* \"#utility.yul\":445:461   */\n      add\n        /* \"#utility.yul\":438:461   */\n      swap1\n      pop\n        /* \"#utility.yul\":153:467   */\n      swap4\n      swap3\n      pop\n      pop\n      pop\n      jump\t// out\n        /* \"#utility.yul\":473:839   */\n    tag_35:\n        /* \"#utility.yul\":615:618   */\n      0x00\n        /* \"#utility.yul\":636:703   */\n      tag_37\n        /* \"#utility.yul\":700:702   */\n      0x13\n        /* \"#utility.yul\":695:698   */\n      dup4\n        /* \"#utility.yul\":636:703   */\n      tag_38\n      jump\t// in\n    tag_37:\n        /* \"#utility.yul\":629:703   */\n      swap2\n      pop\n        /* \"#utility.yul\":712:805   */\n      tag_39\n        /* \"#utility.yul\":801:804   */\n      dup3\n        /* \"#utility.yul\":712:805   */\n      tag_40\n      jump\t// in\n    tag_39:\n        /* \"#utility.yul\":830:832   */\n      0x20\n        /* \"#utility.yul\":825:828   */\n      dup3\n        /* \"#utility.yul\":821:833   */\n      add\n        /* \"#utility.yul\":814:833   */\n      swap1\n      pop\n        /* \"#utility.yul\":473:839   */\n      swap2\n      swap1\n      pop\n      jump\t// out\n        /* \"#utility.yul\":845:963   */\n    tag_41:\n        /* \"#utility.yul\":932:956   */\n      tag_43\n        /* \"#utility.yul\":950:955   */\n      dup2\n        /* \"#utility.yul\":932:956   */\n      tag_44\n      jump\t// in\n    tag_43:\n        /* \"#utility.yul\":927:930   */\n      dup3\n        /* \"#utility.yul\":920:957   */\n      mstore\n        /* \"#utility.yul\":845:963   */\n      pop\n      pop\n      jump\t// out\n        /* \"#utility.yul\":969:1260   */\n    tag_9:\n        /* \"#utility.yul\":1109:1112   */\n      0x00\n        /* \"#utility.yul\":1131:1234   */\n      tag_46\n        /* \"#utility.yul\":1230:1233   */\n      dup3\n        /* \"#utility.yul\":1221:1227   */\n      dup5\n        /* \"#utility.yul\":1213:1219   */\n      dup7\n        /* \"#utility.yul\":1131:1234   */\n      tag_29\n      jump\t// in\n    tag_46:\n        /* \"#utility.yul\":1124:1234   */\n      swap2\n      pop\n        /* \"#utility.yul\":1251:1254   */\n      dup2\n        /* \"#utility.yul\":1244:1254   */\n      swap1\n      pop\n        /* \"#utility.yul\":969:1260   */\n      swap4\n      swap3\n      pop\n      pop\n      pop\n      jump\t// out\n        /* \"#utility.yul\":1266:1488   */\n    tag_23:\n        /* \"#utility.yul\":1359:1363   */\n      0x00\n        /* \"#utility.yul\":1397:1399   */\n      0x20\n        /* \"#utility.yul\":1386:1395   */\n      dup3\n        /* \"#utility.yul\":1382:1400   */\n      add\n        /* \"#utility.yul\":1374:1400   */\n      swap1\n      pop\n        /* \"#utility.yul\":1410:1481   */\n      tag_48\n        /* \"#utility.yul\":1478:1479   */\n      0x00\n        /* \"#utility.yul\":1467:1476   */\n      dup4\n        /* \"#utility.yul\":1463:1480   */\n      add\n        /* \"#utility.yul\":1454:1460   */\n      dup5\n        /* \"#utility.yul\":1410:1481   */\n      tag_25\n      jump\t// in\n    tag_48:\n        /* \"#utility.yul\":1266:1488   */\n      swap3\n      swap2\n      pop\n      pop\n      jump\t// out\n        /* \"#utility.yul\":1494:1913   */\n    tag_15:\n        /* \"#utility.yul\":1660:1664   */\n      0x00\n        /* \"#utility.yul\":1698:1700   */\n      0x20\n        /* \"#utility.yul\":1687:1696   */\n      dup3\n        /* \"#utility.yul\":1683:1701   */\n      add\n        /* \"#utility.yul\":1675:1701   */\n      swap1\n      pop\n        /* \"#utility.yul\":1747:1756   */\n      dup2\n        /* \"#utility.yul\":1741:1745   */\n      dup2\n        /* \"#utility.yul\":1737:1757   */\n      sub\n        /* \"#utility.yul\":1733:1734   */\n      0x00\n        /* \"#utility.yul\":1722:1731   */\n      dup4\n        /* \"#utility.yul\":1718:1735   */\n      add\n        /* \"#utility.yul\":1711:1758   */\n      mstore\n        /* \"#utility.yul\":1775:1906   */\n      tag_50\n        /* \"#utility.yul\":1901:1905   */\n      dup2\n        /* \"#utility.yul\":1775:1906   */\n      tag_35\n      jump\t// in\n    tag_50:\n        /* \"#utility.yul\":1767:1906   */\n      swap1\n      pop\n        /* \"#utility.yul\":1494:1913   */\n      swap2\n      swap1\n      pop\n      jump\t// out\n        /* \"#utility.yul\":1919:2141   */\n    tag_19:\n        /* \"#utility.yul\":2012:2016   */\n      0x00\n        /* \"#utility.yul\":2050:2052   */\n      0x20\n        /* \"#utility.yul\":2039:2048   */\n      dup3\n        /* \"#utility.yul\":2035:2053   */\n      add\n        /* \"#utility.yul\":2027:2053   */\n      swap1\n      pop\n        /* \"#utility.yul\":2063:2134   */\n      tag_52\n        /* \"#utility.yul\":2131:2132   */\n      0x00\n        /* \"#utility.yul\":2120:2129   */\n      dup4\n        /* \"#utility.yul\":2116:2133   */\n      add\n        /* \"#utility.yul\":2107:2113   */\n      dup5\n        /* \"#utility.yul\":2063:2134   */\n      tag_41\n      jump\t// in\n    tag_52:\n        /* \"#utility.yul\":1919:2141   */\n      swap3\n      swap2\n      pop\n      pop\n      jump\t// out\n        /* \"#utility.yul\":2147:2294   */\n    tag_32:\n        /* \"#utility.yul\":2248:2259   */\n      0x00\n        /* \"#utility.yul\":2285:2288   */\n      dup2\n        /* \"#utility.yul\":2270:2288   */\n      swap1\n      pop\n        /* \"#utility.yul\":2147:2294   */\n      swap3\n      swap2\n      pop\n      pop\n      jump\t// out\n        /* \"#utility.yul\":2300:2469   */\n    tag_38:\n        /* \"#utility.yul\":2384:2395   */\n      0x00\n        /* \"#utility.yul\":2418:2424   */\n      dup3\n        /* \"#utility.yul\":2413:2416   */\n      dup3\n        /* \"#utility.yul\":2406:2425   */\n      mstore\n        /* \"#utility.yul\":2458:2462   */\n      0x20\n        /* \"#utility.yul\":2453:2456   */\n      dup3\n        /* \"#utility.yul\":2449:2463   */\n      add\n        /* \"#utility.yul\":2434:2463   */\n      swap1\n      pop\n        /* \"#utility.yul\":2300:2469   */\n      swap3\n      swap2\n      pop\n      pop\n      jump\t// out\n        /* \"#utility.yul\":2475:2571   */\n    tag_28:\n        /* \"#utility.yul\":2512:2519   */\n      0x00\n        /* \"#utility.yul\":2541:2565   */\n      tag_56\n        /* \"#utility.yul\":2559:2564   */\n      dup3\n        /* \"#utility.yul\":2541:2565   */\n      tag_57\n      jump\t// in\n    tag_56:\n        /* \"#utility.yul\":2530:2565   */\n      swap1\n      pop\n        /* \"#utility.yul\":2475:2571   */\n      swap2\n      swap1\n      pop\n      jump\t// out\n        /* \"#utility.yul\":2577:2703   */\n    tag_57:\n        /* \"#utility.yul\":2614:2621   */\n      0x00\n        /* \"#utility.yul\":2654:2696   */\n      0xffffffffffffffffffffffffffffffffffffffff\n        /* \"#utility.yul\":2647:2652   */\n      dup3\n        /* \"#utility.yul\":2643:2697   */\n      and\n        /* \"#utility.yul\":2632:2697   */\n      swap1\n      pop\n        /* \"#utility.yul\":2577:2703   */\n      swap2\n      swap1\n      pop\n      jump\t// out\n        /* \"#utility.yul\":2709:2786   */\n    tag_44:\n        /* \"#utility.yul\":2746:2753   */\n      0x00\n        /* \"#utility.yul\":2775:2780   */\n      dup2\n        /* \"#utility.yul\":2764:2780   */\n      swap1\n      pop\n        /* \"#utility.yul\":2709:2786   */\n      swap2\n      swap1\n      pop\n      jump\t// out\n        /* \"#utility.yul\":2792:2946   */\n    tag_34:\n        /* \"#utility.yul\":2876:2882   */\n      dup3\n        /* \"#utility.yul\":2871:2874   */\n      dup2\n        /* \"#utility.yul\":2866:2869   */\n      dup4\n        /* \"#utility.yul\":2853:2883   */\n      calldatacopy\n        /* \"#utility.yul\":2938:2939   */\n      0x00\n        /* \"#utility.yul\":2929:2935   */\n      dup4\n        /* \"#utility.yul\":2924:2927   */\n      dup4\n        /* \"#utility.yul\":2920:2936   */\n      add\n        /* \"#utility.yul\":2913:2940   */\n      mstore\n        /* \"#utility.yul\":2792:2946   */\n      pop\n      pop\n      pop\n      jump\t// out\n        /* \"#utility.yul\":2952:3121   */\n    tag_40:\n        /* \"#utility.yul\":3092:3113   */\n      0x64656c656761746563616c6c206661696c656400000000000000000000000000\n        /* \"#utility.yul\":3088:3089   */\n      0x00\n        /* \"#utility.yul\":3080:3086   */\n      dup3\n        /* \"#utility.yul\":3076:3090   */\n      add\n        /* \"#utility.yul\":3069:3114   */\n      mstore\n        /* \"#utility.yul\":2952:3121   */\n      pop\n      jump\t// out\n\n    auxdata: 0xa2646970667358221220507363cff63ba2bcc9d7dff1e633e911f6a78e01e66882592d7e9d84cb5dbf7964736f6c63430008070033\n}\n",
				"bytecode": {
					"linkReferences": {},
					"object": "608060405234801561001057600080fd5b506040516104273803806104278339818101604052810190610032919061008d565b806000806101000a81548173ffffffffffffffffffffffffffffffffffffffff021916908373ffffffffffffffffffffffffffffffffffffffff16021790555050610108565b600081519050610087816100f1565b92915050565b6000602082840312156100a3576100a26100ec565b5b60006100b184828501610078565b91505092915050565b60006100c5826100cc565b9050919050565b600073ffffffffffffffffffffffffffffffffffffffff82169050919050565b600080fd5b6100fa816100ba565b811461010557600080fd5b50565b610310806101176000396000f3fe608060405234801561001057600080fd5b506004361061003a5760003560e01c806306661abd1461010f578063d7dfa0dd1461012d5761003b565b5b60008060008054906101000a900473ffffffffffffffffffffffffffffffffffffffff1673ffffffffffffffffffffffffffffffffffffffff166000366040516100869291906101db565b600060405180830381855af49150503d80600081146100c1576040519150601f19603f3d011682016040523d82523d6000602084013e6100c6565b606091505b50915091508161010b576040517f08c379a00000000000000000000000000000000000000000000000000000000081526004016101029061020f565b60405180910390fd5b5050005b61011761014b565b604051610124919061022f565b60405180910390f35b610135610151565b60405161014291906101f4565b60405180910390f35b60015481565b60008054906101000a900473ffffffffffffffffffffffffffffffffffffffff1681565b61017e81610266565b82525050565b6000610190838561024a565b935061019d8385846102a2565b82840190509392505050565b60006101b6601383610255565b91506101c1826102b1565b602082019050919050565b6101d581610298565b82525050565b60006101e8828486610184565b91508190509392505050565b60006020820190506102096000830184610175565b92915050565b60006020820190508181036000830152610228816101a9565b9050919050565b600060208201905061024460008301846101cc565b92915050565b600081905092915050565b600082825260208201905092915050565b600061027182610278565b9050919050565b600073ffffffffffffffffffffffffffffffffffffffff82169050919050565b6000819050919050565b82818337600083830152505050565b7f64656c656761746563616c6c206661696c65640000000000000000000000000060008201525056fea2646970667358221220507363cff63ba2bcc9d7dff1e633e911f6a78e01e66882592d7e9d84cb5dbf7964736f6c63430008070033",
					"opcodes": "PUSH1 0x80 PUSH1 0x40 MSTORE CALLVALUE DUP1 ISZERO PUSH2 0x10 JUMPI PUSH1 0x0 DUP1 REVERT JUMPDEST POP PUSH1 0x40 MLOAD PUSH2 0x427 CODESIZE SUB DUP1 PUSH2 0x427 DUP4 CODECOPY DUP2 DUP2 ADD PUSH1 0x40 MSTORE DUP2 ADD SWAP1 PUSH2 0x32 SWAP2 SWAP1 PUSH2 0x8D JUMP JUMPDEST DUP1 PUSH1 0x0 DUP1 PUSH2 0x100 EXP DUP2 SLOAD DUP2 PUSH20 0xFFFFFFFFFFFFFFFFFFFFFFFFFFFFFFFFFFFFFFFF MUL NOT AND SWAP1 DUP4 PUSH20 0xFFFFFFFFFFFFFFFFFFFFFFFFFFFFFFFFFFFFFFFF AND MUL OR SWAP1 SSTORE POP POP PUSH2 0x108 JUMP JUMPDEST PUSH1 0x0 DUP2 MLOAD SWAP1 POP PUSH2 0x87 DUP2 PUSH2 0xF1 JUMP JUMPDEST SWAP3 SWAP2 POP POP JUMP JUMPDEST PUSH1 0x0 PUSH1 0x20 DUP3 DUP5 SUB SLT ISZERO PUSH2 0xA3 JUMPI PUSH2 0xA2 PUSH2 0xEC JUMP JUMPDEST JUMPDEST PUSH1 0x0 PUSH2 0xB1 DUP5 DUP3 DUP6 ADD PUSH2 0x78 JUMP JUMPDEST SWAP2 POP POP SWAP3 SWAP2 POP POP JUMP JUMPDEST PUSH1 0x0 PUSH2 0xC5 DUP3 PUSH2 0xCC JUMP JUMPDEST SWAP1 POP SWAP2 SWAP1 POP JUMP JUMPDEST PUSH1 0x0 PUSH20 0xFFFFFFFFFFFFFFFFFFFFFFFFFFFFFFFFFFFFFFFF DUP3 AND SWAP1 POP SWAP2 SWAP1 POP JUMP JUMPDEST PUSH1 0x0 DUP1 REVERT JUMPDEST PUSH2 0xFA DUP2 PUSH2 0xBA JUMP JUMPDEST DUP2 EQ PUSH2 0x105 JUMPI PUSH1 0x0 DUP1 REVERT JUMPDEST POP JUMP JUMPDEST PUSH2 0x310 DUP1 PUSH2 0x117 PUSH1 0x0 CODECOPY PUSH1 0x0 RETURN INVALID PUSH1 0x80 PUSH1 0x40 MSTORE CALLVALUE DUP1 ISZERO PUSH2 0x10 JUMPI PUSH1 0x0 DUP1 REVERT JUMPDEST POP PUSH1 0x4 CALLDATASIZE LT PUSH2 0x3A JUMPI PUSH1 0x0 CALLDATALOAD PUSH1 0xE0 SHR DUP1 PUSH4 0x6661ABD EQ PUSH2 0x10F JUMPI DUP1 PUSH4 0xD7DFA0DD EQ PUSH2 0x12D JUMPI PUSH2 0x3B JUMP JUMPDEST JUMPDEST PUSH1 0x0 DUP1 PUSH1 0x0 DUP1 SLOAD SWAP1 PUSH2 0x100 EXP SWAP1 DIV PUSH20 0xFFFFFFFFFFFFFFFFFFFFFFFFFFFFFFFFFFFFFFFF AND PUSH20 0xFFFFFFFFFFFFFFFFFFFFFFFFFFFFFFFFFFFFFFFF AND PUSH1 0x0 CALLDATASIZE PUSH1 0x40 MLOAD PUSH2 0x86 SWAP3 SWAP2 SWAP1 PUSH2 0x1DB JUMP JUMPDEST PUSH1 0x0 PUSH1 0x40 MLOAD DUP1 DUP4 SUB DUP2 DUP6 GAS DELEGATECALL SWAP2 POP POP RETURNDATASIZE DUP1 PUSH1 0x0 DUP2 EQ PUSH2 0xC1 JUMPI PUSH1 0x40 MLOAD SWAP2 POP PUSH1 0x1F NOT PUSH1 0x3F RETURNDATASIZE ADD AND DUP3 ADD PUSH1 0x40 MSTORE RETURNDATASIZE DUP3 MSTORE RETURNDATASIZE PUSH1 0x0 PUSH1 0x20 DUP5 ADD RETURNDATACOPY PUSH2 0xC6 JUMP JUMPDEST PUSH1 0x60 SWAP2 POP JUMPDEST POP SWAP2 POP SWAP2 POP DUP2 PUSH2 0x10B JUMPI PUSH1 0x40 MLOAD PUSH32 0x8C379A000000000000000000000000000000000000000000000000000000000 DUP2 MSTORE PUSH1 0x4 ADD PUSH2 0x102 SWAP1 PUSH2 0x20F JUMP JUMPDEST PUSH1 0x40 MLOAD DUP1 SWAP2 SUB SWAP1 REVERT JUMPDEST POP POP STOP JUMPDEST PUSH2 0x117 PUSH2 0x14B JUMP JUMPDEST PUSH1 0x40 MLOAD PUSH2 0x124 SWAP2 SWAP1 PUSH2 0x22F JUMP JUMPDEST PUSH1 0x40 MLOAD DUP1 SWAP2 SUB SWAP1 RETURN JUMPDEST PUSH2 0x135 PUSH2 0x151 JUMP JUMPDEST PUSH1 0x40 MLOAD PUSH2 0x142 SWAP2 SWAP1 PUSH2 0x1F4 JUMP JUMPDEST PUSH1 0x40 MLOAD DUP1 SWAP2 SUB SWAP1 RETURN JUMPDEST PUSH1 0x1 SLOAD DUP2 JUMP JUMPDEST PUSH1 0x0 DUP1 SLOAD SWAP1 PUSH2 0x100 EXP SWAP1 DIV PUSH20 0xFFFFFFFFFFFFFFFFFFFFFFFFFFFFFFFFFFFFFFFF AND DUP2 JUMP JUMPDEST PUSH2 0x17E DUP2 PUSH2 0x266 JUMP JUMPDEST DUP3 MSTORE POP POP JUMP JUMPDEST PUSH1 0x0 PUSH2 0x190 DUP4 DUP6 PUSH2 0x24A JUMP JUMPDEST SWAP4 POP PUSH2 0x19D DUP4 DUP6 DUP5 PUSH2 0x2A2 JUMP JUMPDEST DUP3 DUP5 ADD SWAP1 POP SWAP4 SWAP3 POP POP POP JUMP JUMPDEST PUSH1 0x0 PUSH2 0x1B6 PUSH1 0x13 DUP4 PUSH2 0x255 JUMP JUMPDEST SWAP2 POP PUSH2 0x1C1 DUP3 PUSH2 0x2B1 JUMP JUMPDEST PUSH1 0x20 DUP3 ADD SWAP1 POP SWAP2 SWAP1 POP JUMP JUMPDEST PUSH2 0x1D5 DUP2 PUSH2 0x298 JUMP JUMPDEST DUP3 MSTORE POP POP JUMP JUMPDEST PUSH1 0x0 PUSH2 0x1E8 DUP3 DUP5 DUP7 PUSH2 0x184 JUMP JUMPDEST SWAP2 POP DUP2 SWAP1 POP SWAP4 SWAP3 POP POP POP JUMP JUMPDEST PUSH1 0x0 PUSH1 0x20 DUP3 ADD SWAP1 POP PUSH2 0x209 PUSH1 0x0 DUP4 ADD DUP5 PUSH2 0x175 JUMP JUMPDEST SWAP3 SWAP2 POP POP JUMP JUMPDEST PUSH1 0x0 PUSH1 0x20 DUP3 ADD SWAP1 POP DUP2 DUP2 SUB PUSH1 0x0 DUP4 ADD MSTORE PUSH2 0x228 DUP2 PUSH2 0x1A9 JUMP JUMPDEST SWAP1 POP SWAP2 SWAP1 POP JUMP JUMPDEST PUSH1 0x0 PUSH1 0x20 DUP3 ADD SWAP1 POP PUSH2 0x244 PUSH1 0x0 DUP4 ADD DUP5 PUSH2 0x1CC JUMP JUMPDEST SWAP3 SWAP2 POP POP JUMP JUMPDEST PUSH1 0x0 DUP2 SWAP1 POP SWAP3 SWAP2 POP POP JUMP JUMPDEST PUSH1 0x0 DUP3 DUP3 MSTORE PUSH1 0x20 DUP3 ADD SWAP1 POP SWAP3 SWAP2 POP POP JUMP JUMPDEST PUSH1 0x0 PUSH2 0x271 DUP3 PUSH2 0x278 JUMP JUMPDEST SWAP1 POP SWAP2 SWAP1 POP JUMP JUMPDEST PUSH1 0x0 PUSH20 0xFFFFFFFFFFFFFFFFFFFFFFFFFFFFFFFFFFFFFFFF DUP3 AND SWAP1 POP SWAP2 SWAP1 POP JUMP JUMPDEST PUSH1 0x0 DUP2 SWAP1 POP SWAP2 SWAP1 POP JUMP JUMPDEST DUP3 DUP2 DUP4 CALLDATACOPY PUSH1 0x0 DUP4 DUP4 ADD MSTORE POP POP POP JUMP JUMPDEST PUSH32 0x64656C656761746563616C6C206661696C656400000000000000000000000000 PUSH1 0x0 DUP3 ADD MSTORE POP JUMP INVALID LOG2 PUSH5 0x6970667358 0x22 SLT KECCAK256 POP PUSH20 0x63CFF63BA2BCC9D7DFF1E633E911F6A78E01E668 DUP3 MSIZE 0x2D PUSH31 0x9D84CB5DBF7964736F6C634300080700330000000000000000000000000000 "
				},
				"gasEstimates": {
					"creation": {
						"codeDepositCost": "156800",
						"executionCost": "infinite",
						"totalCost": "infinite"
					},
					"external": {
						"": "infinite",
						"count()": "2407",
						"logic()": "2511"
					}
				},
				"methodIdentifiers": {
					"count()": "06661abd",
					"logic()": "d7dfa0dd"
				}
			},
			"storageLayout": {
				"storage": [
					{
						"astId": 16,
						"contract": "demo/basic-proxy.sol:Proxy",
						"label": "logic",
						"offset": 0,
						"slot": "0",
						"type": "t_address"
					},
					{
						"astId": 18,
						"contract": "demo/basic-proxy.sol:Proxy",
						"label": "count",
						"offset": 0,
						"slot": "1",
						"type": "t_uint256"
					}
				],
				"types": {
					"t_address": {
						"encoding": "inplace",
						"label": "address",
						"numberOfBytes": "20"
					},
					"t_uint256": {
						"encoding": "inplace",
						"label": "uint256",
						"numberOfBytes": "32"
					}
				}
			},
			"userdoc": {
				"kind": "user",
				"methods": {},
				"version": 1
			}
		}
	}
}