{
	"demo/day03.sol": {
		"SignatureVerifier": {
			"abi": [
				{
					"inputs": [
						{
							"internalType": "bytes32",
							"name": "messageHash",
							"type": "bytes32"
						}
					],
					"name": "getEthSignedMessageHash",
					"outputs": [
						{
							"internalType": "bytes32",
							"name": "",
							"type": "bytes32"
						}
					],
					"stateMutability": "pure",
					"type": "function"
				},
				{
					"inputs": [
						{
							"internalType": "string",
							"name": "message",
							"type": "string"
						}
					],
					"name": "getMessageHash",
					"outputs": [
						{
							"internalType": "bytes32",
							"name": "",
							"type": "bytes32"
						}
					],
					"stateMutability": "pure",
					"type": "function"
				},
				{
					"inputs": [
						{
							"internalType": "bytes32",
							"name": "_ethSignedMessageHash",
							"type": "bytes32"
						},
						{
							"internalType": "bytes",
							"name": "_signature",
							"type": "bytes"
						}
					],
					"name": "recoverSigner",
					"outputs": [
						{
							"internalType": "address",
							"name": "",
							"type": "address"
						}
					],
					"stateMutability": "pure",
					"type": "function"
				},
				{
					"inputs": [
						{
							"internalType": "address",
							"name": "signer",
							"type": "address"
						},
						{
							"internalType": "string",
							"name": "message",
							"type": "string"
						},
						{
							"internalType": "bytes",
							"name": "signature",
							"type": "bytes"
						}
					],
					"name": "verify",
					"outputs": [
						{
							"internalType": "bool",
							"name": "",
							"type": "bool"
						}
					],
					"stateMutability": "pure",
					"type": "function"
				}
			],
			"devdoc": {
				"kind": "dev",
				"methods": {},
				"version": 1
			},
			"evm": {
				"assembly": "    /* \"demo/day03.sol\":60:2371  contract  SignatureVerifier {\r... */\n  mstore(0x40, 0x80)\n  callvalue\n  dup1\n  iszero\n  tag_1\n  jumpi\n  0x00\n  dup1\n  revert\ntag_1:\n  pop\n  dataSize(sub_0)\n  dup1\n  dataOffset(sub_0)\n  0x00\n  codecopy\n  0x00\n  return\nstop\n\nsub_0: assembly {\n        /* \"demo/day03.sol\":60:2371  contract  SignatureVerifier {\r... */\n      mstore(0x40, 0x80)\n      callvalue\n      dup1\n      iszero\n      tag_1\n      jumpi\n      0x00\n      dup1\n      revert\n    tag_1:\n      pop\n      jumpi(tag_2, lt(calldatasize, 0x04))\n      shr(0xe0, calldataload(0x00))\n      dup1\n      0x2dd34f0f\n      eq\n      tag_3\n      jumpi\n      dup1\n      0x97aba7f9\n      eq\n      tag_4\n      jumpi\n      dup1\n      0xb446f3b2\n      eq\n      tag_5\n      jumpi\n      dup1\n      0xfa540801\n      eq\n      tag_6\n      jumpi\n    tag_2:\n      0x00\n      dup1\n      revert\n        /* \"demo/day03.sol\":796:1470  function verify(\r... */\n    tag_3:\n      tag_7\n      0x04\n      dup1\n      calldatasize\n      sub\n      dup2\n      add\n      swap1\n      tag_8\n      swap2\n      swap1\n      tag_9\n      jump\t// in\n    tag_8:\n      tag_10\n      jump\t// in\n    tag_7:\n      mload(0x40)\n      tag_11\n      swap2\n      swap1\n      tag_12\n      jump\t// in\n    tag_11:\n      mload(0x40)\n      dup1\n      swap2\n      sub\n      swap1\n      return\n        /* \"demo/day03.sol\":1520:2366  function recoverSigner(bytes32 _ethSignedMessageHash, bytes memory _signature) public pure returns (address) {\r... */\n    tag_4:\n      tag_13\n      0x04\n      dup1\n      calldatasize\n      sub\n      dup2\n      add\n      swap1\n      tag_14\n      swap2\n      swap1\n      tag_15\n      jump\t// in\n    tag_14:\n      tag_16\n      jump\t// in\n    tag_13:\n      mload(0x40)\n      tag_17\n      swap2\n      swap1\n      tag_18\n      jump\t// in\n    tag_17:\n      mload(0x40)\n      dup1\n      swap2\n      sub\n      swap1\n      return\n        /* \"demo/day03.sol\":95:301  function getMessageHash(string memory message) public pure returns (bytes32) {\r... */\n    tag_5:\n      tag_19\n      0x04\n      dup1\n      calldatasize\n      sub\n      dup2\n      add\n      swap1\n      tag_20\n      swap2\n      swap1\n      tag_21\n      jump\t// in\n    tag_20:\n      tag_22\n      jump\t// in\n    tag_19:\n      mload(0x40)\n      tag_23\n      swap2\n      swap1\n      tag_24\n      jump\t// in\n    tag_23:\n      mload(0x40)\n      dup1\n      swap2\n      sub\n      swap1\n      return\n        /* \"demo/day03.sol\":307:714  function getEthSignedMessageHash(bytes32 messageHash) public pure returns (bytes32) {\r... */\n    tag_6:\n      tag_25\n      0x04\n      dup1\n      calldatasize\n      sub\n      dup2\n      add\n      swap1\n      tag_26\n      swap2\n      swap1\n      tag_27\n      jump\t// in\n    tag_26:\n      tag_28\n      jump\t// in\n    tag_25:\n      mload(0x40)\n      tag_29\n      swap2\n      swap1\n      tag_24\n      jump\t// in\n    tag_29:\n      mload(0x40)\n      dup1\n      swap2\n      sub\n      swap1\n      return\n        /* \"demo/day03.sol\":796:1470  function verify(\r... */\n    tag_10:\n        /* \"demo/day03.sol\":1030:1034  bool */\n      0x00\n        /* \"demo/day03.sol\":1097:1116  bytes32 messageHash */\n      dup1\n        /* \"demo/day03.sol\":1119:1142  getMessageHash(message) */\n      tag_31\n        /* \"demo/day03.sol\":1134:1141  message */\n      dup5\n        /* \"demo/day03.sol\":1119:1133  getMessageHash */\n      tag_22\n        /* \"demo/day03.sol\":1119:1142  getMessageHash(message) */\n      jump\t// in\n    tag_31:\n        /* \"demo/day03.sol\":1097:1142  bytes32 messageHash = getMessageHash(message) */\n      swap1\n      pop\n        /* \"demo/day03.sol\":1251:1279  bytes32 ethSignedMessageHash */\n      0x00\n        /* \"demo/day03.sol\":1282:1318  getEthSignedMessageHash(messageHash) */\n      tag_32\n        /* \"demo/day03.sol\":1306:1317  messageHash */\n      dup3\n        /* \"demo/day03.sol\":1282:1305  getEthSignedMessageHash */\n      tag_28\n        /* \"demo/day03.sol\":1282:1318  getEthSignedMessageHash(messageHash) */\n      jump\t// in\n    tag_32:\n        /* \"demo/day03.sol\":1251:1318  bytes32 ethSignedMessageHash = getEthSignedMessageHash(messageHash) */\n      swap1\n      pop\n        /* \"demo/day03.sol\":1456:1462  signer */\n      dup6\n        /* \"demo/day03.sol\":1406:1462  recoverSigner(ethSignedMessageHash, signature) == signer */\n      0xffffffffffffffffffffffffffffffffffffffff\n      and\n        /* \"demo/day03.sol\":1406:1452  recoverSigner(ethSignedMessageHash, signature) */\n      tag_33\n        /* \"demo/day03.sol\":1420:1440  ethSignedMessageHash */\n      dup3\n        /* \"demo/day03.sol\":1442:1451  signature */\n      dup7\n        /* \"demo/day03.sol\":1406:1419  recoverSigner */\n      tag_16\n        /* \"demo/day03.sol\":1406:1452  recoverSigner(ethSignedMessageHash, signature) */\n      jump\t// in\n    tag_33:\n        /* \"demo/day03.sol\":1406:1462  recoverSigner(ethSignedMessageHash, signature) == signer */\n      0xffffffffffffffffffffffffffffffffffffffff\n      and\n      eq\n        /* \"demo/day03.sol\":1399:1462  return recoverSigner(ethSignedMessageHash, signature) == signer */\n      swap3\n      pop\n      pop\n      pop\n        /* \"demo/day03.sol\":796:1470  function verify(\r... */\n      swap4\n      swap3\n      pop\n      pop\n      pop\n      jump\t// out\n        /* \"demo/day03.sol\":1520:2366  function recoverSigner(bytes32 _ethSignedMessageHash, bytes memory _signature) public pure returns (address) {\r... */\n    tag_16:\n        /* \"demo/day03.sol\":1620:1627  address */\n      0x00\n        /* \"demo/day03.sol\":1669:1671  65 */\n      0x41\n        /* \"demo/day03.sol\":1648:1658  _signature */\n      dup3\n        /* \"demo/day03.sol\":1648:1665  _signature.length */\n      mload\n        /* \"demo/day03.sol\":1648:1671  _signature.length == 65 */\n      eq\n        /* \"demo/day03.sol\":1640:1700  require(_signature.length == 65, \"Invalid signature length\") */\n      tag_35\n      jumpi\n      mload(0x40)\n      0x08c379a000000000000000000000000000000000000000000000000000000000\n      dup2\n      mstore\n      0x04\n      add\n      tag_36\n      swap1\n      tag_37\n      jump\t// in\n    tag_36:\n      mload(0x40)\n      dup1\n      swap2\n      sub\n      swap1\n      revert\n    tag_35:\n        /* \"demo/day03.sol\":1713:1722  bytes32 r */\n      0x00\n        /* \"demo/day03.sol\":1733:1742  bytes32 s */\n      dup1\n        /* \"demo/day03.sol\":1753:1760  uint8 v */\n      0x00\n        /* \"demo/day03.sol\":1869:1871  32 */\n      0x20\n        /* \"demo/day03.sol\":1857:1867  _signature */\n      dup6\n        /* \"demo/day03.sol\":1853:1872  add(_signature, 32) */\n      add\n        /* \"demo/day03.sol\":1847:1873  mload(add(_signature, 32)) */\n      mload\n        /* \"demo/day03.sol\":1842:1873  r := mload(add(_signature, 32)) */\n      swap3\n      pop\n        /* \"demo/day03.sol\":1937:1939  64 */\n      0x40\n        /* \"demo/day03.sol\":1925:1935  _signature */\n      dup6\n        /* \"demo/day03.sol\":1921:1940  add(_signature, 64) */\n      add\n        /* \"demo/day03.sol\":1915:1941  mload(add(_signature, 64)) */\n      mload\n        /* \"demo/day03.sol\":1910:1941  s := mload(add(_signature, 64)) */\n      swap2\n      pop\n        /* \"demo/day03.sol\":2014:2016  96 */\n      0x60\n        /* \"demo/day03.sol\":2002:2012  _signature */\n      dup6\n        /* \"demo/day03.sol\":1998:2017  add(_signature, 96) */\n      add\n        /* \"demo/day03.sol\":1992:2018  mload(add(_signature, 96)) */\n      mload\n        /* \"demo/day03.sol\":1989:1990  0 */\n      0x00\n        /* \"demo/day03.sol\":1984:2019  byte(0, mload(add(_signature, 96))) */\n      byte\n        /* \"demo/day03.sol\":1979:2019  v := byte(0, mload(add(_signature, 96))) */\n      swap1\n      pop\n        /* \"demo/day03.sol\":2186:2188  27 */\n      0x1b\n        /* \"demo/day03.sol\":2182:2183  v */\n      dup2\n        /* \"demo/day03.sol\":2182:2188  v < 27 */\n      0xff\n      and\n      lt\n        /* \"demo/day03.sol\":2178:2224  if (v < 27) {\r... */\n      iszero\n      tag_38\n      jumpi\n        /* \"demo/day03.sol\":2210:2212  27 */\n      0x1b\n        /* \"demo/day03.sol\":2205:2212  v += 27 */\n      dup2\n      tag_39\n      swap2\n      swap1\n      tag_40\n      jump\t// in\n    tag_39:\n      swap1\n      pop\n        /* \"demo/day03.sol\":2178:2224  if (v < 27) {\r... */\n    tag_38:\n        /* \"demo/day03.sol\":2317:2358  ecrecover(_ethSignedMessageHash, v, r, s) */\n      0x01\n        /* \"demo/day03.sol\":2327:2348  _ethSignedMessageHash */\n      dup7\n        /* \"demo/day03.sol\":2350:2351  v */\n      dup3\n        /* \"demo/day03.sol\":2353:2354  r */\n      dup6\n        /* \"demo/day03.sol\":2356:2357  s */\n      dup6\n        /* \"demo/day03.sol\":2317:2358  ecrecover(_ethSignedMessageHash, v, r, s) */\n      mload(0x40)\n      0x00\n      dup2\n      mstore\n      0x20\n      add\n      0x40\n      mstore\n      mload(0x40)\n      tag_41\n      swap5\n      swap4\n      swap3\n      swap2\n      swap1\n      tag_42\n      jump\t// in\n    tag_41:\n      0x20\n      mload(0x40)\n      0x20\n      dup2\n      sub\n      swap1\n      dup1\n      dup5\n      sub\n      swap1\n      dup6\n      gas\n      staticcall\n      iszero\n      dup1\n      iszero\n      tag_44\n      jumpi\n      returndatasize\n      0x00\n      dup1\n      returndatacopy\n      revert(0x00, returndatasize)\n    tag_44:\n      pop\n      pop\n      pop\n      mload(sub(mload(0x40), 0x20))\n        /* \"demo/day03.sol\":2310:2358  return ecrecover(_ethSignedMessageHash, v, r, s) */\n      swap4\n      pop\n      pop\n      pop\n      pop\n        /* \"demo/day03.sol\":1520:2366  function recoverSigner(bytes32 _ethSignedMessageHash, bytes memory _signature) public pure returns (address) {\r... */\n      swap3\n      swap2\n      pop\n      pop\n      jump\t// out\n        /* \"demo/day03.sol\":95:301  function getMessageHash(string memory message) public pure returns (bytes32) {\r... */\n    tag_22:\n        /* \"demo/day03.sol\":163:170  bytes32 */\n      0x00\n        /* \"demo/day03.sol\":284:291  message */\n      dup2\n        /* \"demo/day03.sol\":267:292  abi.encodePacked(message) */\n      add(0x20, mload(0x40))\n      tag_46\n      swap2\n      swap1\n      tag_47\n      jump\t// in\n    tag_46:\n      mload(0x40)\n      0x20\n      dup2\n      dup4\n      sub\n      sub\n      dup2\n      mstore\n      swap1\n      0x40\n      mstore\n        /* \"demo/day03.sol\":257:293  keccak256(abi.encodePacked(message)) */\n      dup1\n      mload\n      swap1\n      0x20\n      add\n      keccak256\n        /* \"demo/day03.sol\":250:293  return keccak256(abi.encodePacked(message)) */\n      swap1\n      pop\n        /* \"demo/day03.sol\":95:301  function getMessageHash(string memory message) public pure returns (bytes32) {\r... */\n      swap2\n      swap1\n      pop\n      jump\t// out\n        /* \"demo/day03.sol\":307:714  function getEthSignedMessageHash(bytes32 messageHash) public pure returns (bytes32) {\r... */\n    tag_28:\n        /* \"demo/day03.sol\":382:389  bytes32 */\n      0x00\n        /* \"demo/day03.sol\":693:704  messageHash */\n      dup2\n        /* \"demo/day03.sol\":640:705  abi.encodePacked(\"\\x19Ethereum Signed Message:\\n32\", messageHash) */\n      add(0x20, mload(0x40))\n      tag_49\n      swap2\n      swap1\n      tag_50\n      jump\t// in\n    tag_49:\n      mload(0x40)\n      0x20\n      dup2\n      dup4\n      sub\n      sub\n      dup2\n      mstore\n      swap1\n      0x40\n      mstore\n        /* \"demo/day03.sol\":630:706  keccak256(abi.encodePacked(\"\\x19Ethereum Signed Message:\\n32\", messageHash)) */\n      dup1\n      mload\n      swap1\n      0x20\n      add\n      keccak256\n        /* \"demo/day03.sol\":623:706  return keccak256(abi.encodePacked(\"\\x19Ethereum Signed Message:\\n32\", messageHash)) */\n      swap1\n      pop\n        /* \"demo/day03.sol\":307:714  function getEthSignedMessageHash(bytes32 messageHash) public pure returns (bytes32) {\r... */\n      swap2\n      swap1\n      pop\n      jump\t// out\n        /* \"#utility.yul\":7:417   */\n    tag_52:\n        /* \"#utility.yul\":84:89   */\n      0x00\n        /* \"#utility.yul\":109:174   */\n      tag_54\n        /* \"#utility.yul\":125:173   */\n      tag_55\n        /* \"#utility.yul\":166:172   */\n      dup5\n        /* \"#utility.yul\":125:173   */\n      tag_56\n      jump\t// in\n    tag_55:\n        /* \"#utility.yul\":109:174   */\n      tag_57\n      jump\t// in\n    tag_54:\n        /* \"#utility.yul\":100:174   */\n      swap1\n      pop\n        /* \"#utility.yul\":197:203   */\n      dup3\n        /* \"#utility.yul\":190:195   */\n      dup2\n        /* \"#utility.yul\":183:204   */\n      mstore\n        /* \"#utility.yul\":235:239   */\n      0x20\n        /* \"#utility.yul\":228:233   */\n      dup2\n        /* \"#utility.yul\":224:240   */\n      add\n        /* \"#utility.yul\":273:276   */\n      dup5\n        /* \"#utility.yul\":264:270   */\n      dup5\n        /* \"#utility.yul\":259:262   */\n      dup5\n        /* \"#utility.yul\":255:271   */\n      add\n        /* \"#utility.yul\":252:277   */\n      gt\n        /* \"#utility.yul\":249:361   */\n      iszero\n      tag_58\n      jumpi\n        /* \"#utility.yul\":280:359   */\n      tag_59\n      tag_60\n      jump\t// in\n    tag_59:\n        /* \"#utility.yul\":249:361   */\n    tag_58:\n        /* \"#utility.yul\":370:411   */\n      tag_61\n        /* \"#utility.yul\":404:410   */\n      dup5\n        /* \"#utility.yul\":399:402   */\n      dup3\n        /* \"#utility.yul\":394:397   */\n      dup6\n        /* \"#utility.yul\":370:411   */\n      tag_62\n      jump\t// in\n    tag_61:\n        /* \"#utility.yul\":90:417   */\n      pop\n        /* \"#utility.yul\":7:417   */\n      swap4\n      swap3\n      pop\n      pop\n      pop\n      jump\t// out\n        /* \"#utility.yul\":423:835   */\n    tag_63:\n        /* \"#utility.yul\":501:506   */\n      0x00\n        /* \"#utility.yul\":526:592   */\n      tag_65\n        /* \"#utility.yul\":542:591   */\n      tag_66\n        /* \"#utility.yul\":584:590   */\n      dup5\n        /* \"#utility.yul\":542:591   */\n      tag_67\n      jump\t// in\n    tag_66:\n        /* \"#utility.yul\":526:592   */\n      tag_57\n      jump\t// in\n    tag_65:\n        /* \"#utility.yul\":517:592   */\n      swap1\n      pop\n        /* \"#utility.yul\":615:621   */\n      dup3\n        /* \"#utility.yul\":608:613   */\n      dup2\n        /* \"#utility.yul\":601:622   */\n      mstore\n        /* \"#utility.yul\":653:657   */\n      0x20\n        /* \"#utility.yul\":646:651   */\n      dup2\n        /* \"#utility.yul\":642:658   */\n      add\n        /* \"#utility.yul\":691:694   */\n      dup5\n        /* \"#utility.yul\":682:688   */\n      dup5\n        /* \"#utility.yul\":677:680   */\n      dup5\n        /* \"#utility.yul\":673:689   */\n      add\n        /* \"#utility.yul\":670:695   */\n      gt\n        /* \"#utility.yul\":667:779   */\n      iszero\n      tag_68\n      jumpi\n        /* \"#utility.yul\":698:777   */\n      tag_69\n      tag_60\n      jump\t// in\n    tag_69:\n        /* \"#utility.yul\":667:779   */\n    tag_68:\n        /* \"#utility.yul\":788:829   */\n      tag_70\n        /* \"#utility.yul\":822:828   */\n      dup5\n        /* \"#utility.yul\":817:820   */\n      dup3\n        /* \"#utility.yul\":812:815   */\n      dup6\n        /* \"#utility.yul\":788:829   */\n      tag_62\n      jump\t// in\n    tag_70:\n        /* \"#utility.yul\":507:835   */\n      pop\n        /* \"#utility.yul\":423:835   */\n      swap4\n      swap3\n      pop\n      pop\n      pop\n      jump\t// out\n        /* \"#utility.yul\":841:980   */\n    tag_71:\n        /* \"#utility.yul\":887:892   */\n      0x00\n        /* \"#utility.yul\":925:931   */\n      dup2\n        /* \"#utility.yul\":912:932   */\n      calldataload\n        /* \"#utility.yul\":903:932   */\n      swap1\n      pop\n        /* \"#utility.yul\":941:974   */\n      tag_73\n        /* \"#utility.yul\":968:973   */\n      dup2\n        /* \"#utility.yul\":941:974   */\n      tag_74\n      jump\t// in\n    tag_73:\n        /* \"#utility.yul\":841:980   */\n      swap3\n      swap2\n      pop\n      pop\n      jump\t// out\n        /* \"#utility.yul\":986:1125   */\n    tag_75:\n        /* \"#utility.yul\":1032:1037   */\n      0x00\n        /* \"#utility.yul\":1070:1076   */\n      dup2\n        /* \"#utility.yul\":1057:1077   */\n      calldataload\n        /* \"#utility.yul\":1048:1077   */\n      swap1\n      pop\n        /* \"#utility.yul\":1086:1119   */\n      tag_77\n        /* \"#utility.yul\":1113:1118   */\n      dup2\n        /* \"#utility.yul\":1086:1119   */\n      tag_78\n      jump\t// in\n    tag_77:\n        /* \"#utility.yul\":986:1125   */\n      swap3\n      swap2\n      pop\n      pop\n      jump\t// out\n        /* \"#utility.yul\":1144:1482   */\n    tag_79:\n        /* \"#utility.yul\":1199:1204   */\n      0x00\n        /* \"#utility.yul\":1248:1251   */\n      dup3\n        /* \"#utility.yul\":1241:1245   */\n      0x1f\n        /* \"#utility.yul\":1233:1239   */\n      dup4\n        /* \"#utility.yul\":1229:1246   */\n      add\n        /* \"#utility.yul\":1225:1252   */\n      slt\n        /* \"#utility.yul\":1215:1337   */\n      tag_81\n      jumpi\n        /* \"#utility.yul\":1256:1335   */\n      tag_82\n      tag_83\n      jump\t// in\n    tag_82:\n        /* \"#utility.yul\":1215:1337   */\n    tag_81:\n        /* \"#utility.yul\":1373:1379   */\n      dup2\n        /* \"#utility.yul\":1360:1380   */\n      calldataload\n        /* \"#utility.yul\":1398:1476   */\n      tag_84\n        /* \"#utility.yul\":1472:1475   */\n      dup5\n        /* \"#utility.yul\":1464:1470   */\n      dup3\n        /* \"#utility.yul\":1457:1461   */\n      0x20\n        /* \"#utility.yul\":1449:1455   */\n      dup7\n        /* \"#utility.yul\":1445:1462   */\n      add\n        /* \"#utility.yul\":1398:1476   */\n      tag_52\n      jump\t// in\n    tag_84:\n        /* \"#utility.yul\":1389:1476   */\n      swap2\n      pop\n        /* \"#utility.yul\":1205:1482   */\n      pop\n        /* \"#utility.yul\":1144:1482   */\n      swap3\n      swap2\n      pop\n      pop\n      jump\t// out\n        /* \"#utility.yul\":1502:1842   */\n    tag_85:\n        /* \"#utility.yul\":1558:1563   */\n      0x00\n        /* \"#utility.yul\":1607:1610   */\n      dup3\n        /* \"#utility.yul\":1600:1604   */\n      0x1f\n        /* \"#utility.yul\":1592:1598   */\n      dup4\n        /* \"#utility.yul\":1588:1605   */\n      add\n        /* \"#utility.yul\":1584:1611   */\n      slt\n        /* \"#utility.yul\":1574:1696   */\n      tag_87\n      jumpi\n        /* \"#utility.yul\":1615:1694   */\n      tag_88\n      tag_83\n      jump\t// in\n    tag_88:\n        /* \"#utility.yul\":1574:1696   */\n    tag_87:\n        /* \"#utility.yul\":1732:1738   */\n      dup2\n        /* \"#utility.yul\":1719:1739   */\n      calldataload\n        /* \"#utility.yul\":1757:1836   */\n      tag_89\n        /* \"#utility.yul\":1832:1835   */\n      dup5\n        /* \"#utility.yul\":1824:1830   */\n      dup3\n        /* \"#utility.yul\":1817:1821   */\n      0x20\n        /* \"#utility.yul\":1809:1815   */\n      dup7\n        /* \"#utility.yul\":1805:1822   */\n      add\n        /* \"#utility.yul\":1757:1836   */\n      tag_63\n      jump\t// in\n    tag_89:\n        /* \"#utility.yul\":1748:1836   */\n      swap2\n      pop\n        /* \"#utility.yul\":1564:1842   */\n      pop\n        /* \"#utility.yul\":1502:1842   */\n      swap3\n      swap2\n      pop\n      pop\n      jump\t// out\n        /* \"#utility.yul\":1848:2825   */\n    tag_9:\n        /* \"#utility.yul\":1944:1950   */\n      0x00\n        /* \"#utility.yul\":1952:1958   */\n      dup1\n        /* \"#utility.yul\":1960:1966   */\n      0x00\n        /* \"#utility.yul\":2009:2011   */\n      0x60\n        /* \"#utility.yul\":1997:2006   */\n      dup5\n        /* \"#utility.yul\":1988:1995   */\n      dup7\n        /* \"#utility.yul\":1984:2007   */\n      sub\n        /* \"#utility.yul\":1980:2012   */\n      slt\n        /* \"#utility.yul\":1977:2096   */\n      iszero\n      tag_91\n      jumpi\n        /* \"#utility.yul\":2015:2094   */\n      tag_92\n      tag_93\n      jump\t// in\n    tag_92:\n        /* \"#utility.yul\":1977:2096   */\n    tag_91:\n        /* \"#utility.yul\":2135:2136   */\n      0x00\n        /* \"#utility.yul\":2160:2213   */\n      tag_94\n        /* \"#utility.yul\":2205:2212   */\n      dup7\n        /* \"#utility.yul\":2196:2202   */\n      dup3\n        /* \"#utility.yul\":2185:2194   */\n      dup8\n        /* \"#utility.yul\":2181:2203   */\n      add\n        /* \"#utility.yul\":2160:2213   */\n      tag_71\n      jump\t// in\n    tag_94:\n        /* \"#utility.yul\":2150:2213   */\n      swap4\n      pop\n        /* \"#utility.yul\":2106:2223   */\n      pop\n        /* \"#utility.yul\":2290:2292   */\n      0x20\n        /* \"#utility.yul\":2279:2288   */\n      dup5\n        /* \"#utility.yul\":2275:2293   */\n      add\n        /* \"#utility.yul\":2262:2294   */\n      calldataload\n        /* \"#utility.yul\":2321:2339   */\n      0xffffffffffffffff\n        /* \"#utility.yul\":2313:2319   */\n      dup2\n        /* \"#utility.yul\":2310:2340   */\n      gt\n        /* \"#utility.yul\":2307:2424   */\n      iszero\n      tag_95\n      jumpi\n        /* \"#utility.yul\":2343:2422   */\n      tag_96\n      tag_97\n      jump\t// in\n    tag_96:\n        /* \"#utility.yul\":2307:2424   */\n    tag_95:\n        /* \"#utility.yul\":2448:2511   */\n      tag_98\n        /* \"#utility.yul\":2503:2510   */\n      dup7\n        /* \"#utility.yul\":2494:2500   */\n      dup3\n        /* \"#utility.yul\":2483:2492   */\n      dup8\n        /* \"#utility.yul\":2479:2501   */\n      add\n        /* \"#utility.yul\":2448:2511   */\n      tag_85\n      jump\t// in\n    tag_98:\n        /* \"#utility.yul\":2438:2511   */\n      swap3\n      pop\n        /* \"#utility.yul\":2233:2521   */\n      pop\n        /* \"#utility.yul\":2588:2590   */\n      0x40\n        /* \"#utility.yul\":2577:2586   */\n      dup5\n        /* \"#utility.yul\":2573:2591   */\n      add\n        /* \"#utility.yul\":2560:2592   */\n      calldataload\n        /* \"#utility.yul\":2619:2637   */\n      0xffffffffffffffff\n        /* \"#utility.yul\":2611:2617   */\n      dup2\n        /* \"#utility.yul\":2608:2638   */\n      gt\n        /* \"#utility.yul\":2605:2722   */\n      iszero\n      tag_99\n      jumpi\n        /* \"#utility.yul\":2641:2720   */\n      tag_100\n      tag_97\n      jump\t// in\n    tag_100:\n        /* \"#utility.yul\":2605:2722   */\n    tag_99:\n        /* \"#utility.yul\":2746:2808   */\n      tag_101\n        /* \"#utility.yul\":2800:2807   */\n      dup7\n        /* \"#utility.yul\":2791:2797   */\n      dup3\n        /* \"#utility.yul\":2780:2789   */\n      dup8\n        /* \"#utility.yul\":2776:2798   */\n      add\n        /* \"#utility.yul\":2746:2808   */\n      tag_79\n      jump\t// in\n    tag_101:\n        /* \"#utility.yul\":2736:2808   */\n      swap2\n      pop\n        /* \"#utility.yul\":2531:2818   */\n      pop\n        /* \"#utility.yul\":1848:2825   */\n      swap3\n      pop\n      swap3\n      pop\n      swap3\n      jump\t// out\n        /* \"#utility.yul\":2831:3160   */\n    tag_27:\n        /* \"#utility.yul\":2890:2896   */\n      0x00\n        /* \"#utility.yul\":2939:2941   */\n      0x20\n        /* \"#utility.yul\":2927:2936   */\n      dup3\n        /* \"#utility.yul\":2918:2925   */\n      dup5\n        /* \"#utility.yul\":2914:2937   */\n      sub\n        /* \"#utility.yul\":2910:2942   */\n      slt\n        /* \"#utility.yul\":2907:3026   */\n      iszero\n      tag_103\n      jumpi\n        /* \"#utility.yul\":2945:3024   */\n      tag_104\n      tag_93\n      jump\t// in\n    tag_104:\n        /* \"#utility.yul\":2907:3026   */\n    tag_103:\n        /* \"#utility.yul\":3065:3066   */\n      0x00\n        /* \"#utility.yul\":3090:3143   */\n      tag_105\n        /* \"#utility.yul\":3135:3142   */\n      dup5\n        /* \"#utility.yul\":3126:3132   */\n      dup3\n        /* \"#utility.yul\":3115:3124   */\n      dup6\n        /* \"#utility.yul\":3111:3133   */\n      add\n        /* \"#utility.yul\":3090:3143   */\n      tag_75\n      jump\t// in\n    tag_105:\n        /* \"#utility.yul\":3080:3143   */\n      swap2\n      pop\n        /* \"#utility.yul\":3036:3153   */\n      pop\n        /* \"#utility.yul\":2831:3160   */\n      swap3\n      swap2\n      pop\n      pop\n      jump\t// out\n        /* \"#utility.yul\":3166:3818   */\n    tag_15:\n        /* \"#utility.yul\":3243:3249   */\n      0x00\n        /* \"#utility.yul\":3251:3257   */\n      dup1\n        /* \"#utility.yul\":3300:3302   */\n      0x40\n        /* \"#utility.yul\":3288:3297   */\n      dup4\n        /* \"#utility.yul\":3279:3286   */\n      dup6\n        /* \"#utility.yul\":3275:3298   */\n      sub\n        /* \"#utility.yul\":3271:3303   */\n      slt\n        /* \"#utility.yul\":3268:3387   */\n      iszero\n      tag_107\n      jumpi\n        /* \"#utility.yul\":3306:3385   */\n      tag_108\n      tag_93\n      jump\t// in\n    tag_108:\n        /* \"#utility.yul\":3268:3387   */\n    tag_107:\n        /* \"#utility.yul\":3426:3427   */\n      0x00\n        /* \"#utility.yul\":3451:3504   */\n      tag_109\n        /* \"#utility.yul\":3496:3503   */\n      dup6\n        /* \"#utility.yul\":3487:3493   */\n      dup3\n        /* \"#utility.yul\":3476:3485   */\n      dup7\n        /* \"#utility.yul\":3472:3494   */\n      add\n        /* \"#utility.yul\":3451:3504   */\n      tag_75\n      jump\t// in\n    tag_109:\n        /* \"#utility.yul\":3441:3504   */\n      swap3\n      pop\n        /* \"#utility.yul\":3397:3514   */\n      pop\n        /* \"#utility.yul\":3581:3583   */\n      0x20\n        /* \"#utility.yul\":3570:3579   */\n      dup4\n        /* \"#utility.yul\":3566:3584   */\n      add\n        /* \"#utility.yul\":3553:3585   */\n      calldataload\n        /* \"#utility.yul\":3612:3630   */\n      0xffffffffffffffff\n        /* \"#utility.yul\":3604:3610   */\n      dup2\n        /* \"#utility.yul\":3601:3631   */\n      gt\n        /* \"#utility.yul\":3598:3715   */\n      iszero\n      tag_110\n      jumpi\n        /* \"#utility.yul\":3634:3713   */\n      tag_111\n      tag_97\n      jump\t// in\n    tag_111:\n        /* \"#utility.yul\":3598:3715   */\n    tag_110:\n        /* \"#utility.yul\":3739:3801   */\n      tag_112\n        /* \"#utility.yul\":3793:3800   */\n      dup6\n        /* \"#utility.yul\":3784:3790   */\n      dup3\n        /* \"#utility.yul\":3773:3782   */\n      dup7\n        /* \"#utility.yul\":3769:3791   */\n      add\n        /* \"#utility.yul\":3739:3801   */\n      tag_79\n      jump\t// in\n    tag_112:\n        /* \"#utility.yul\":3729:3801   */\n      swap2\n      pop\n        /* \"#utility.yul\":3524:3811   */\n      pop\n        /* \"#utility.yul\":3166:3818   */\n      swap3\n      pop\n      swap3\n      swap1\n      pop\n      jump\t// out\n        /* \"#utility.yul\":3824:4333   */\n    tag_21:\n        /* \"#utility.yul\":3893:3899   */\n      0x00\n        /* \"#utility.yul\":3942:3944   */\n      0x20\n        /* \"#utility.yul\":3930:3939   */\n      dup3\n        /* \"#utility.yul\":3921:3928   */\n      dup5\n        /* \"#utility.yul\":3917:3940   */\n      sub\n        /* \"#utility.yul\":3913:3945   */\n      slt\n        /* \"#utility.yul\":3910:4029   */\n      iszero\n      tag_114\n      jumpi\n        /* \"#utility.yul\":3948:4027   */\n      tag_115\n      tag_93\n      jump\t// in\n    tag_115:\n        /* \"#utility.yul\":3910:4029   */\n    tag_114:\n        /* \"#utility.yul\":4096:4097   */\n      0x00\n        /* \"#utility.yul\":4085:4094   */\n      dup3\n        /* \"#utility.yul\":4081:4098   */\n      add\n        /* \"#utility.yul\":4068:4099   */\n      calldataload\n        /* \"#utility.yul\":4126:4144   */\n      0xffffffffffffffff\n        /* \"#utility.yul\":4118:4124   */\n      dup2\n        /* \"#utility.yul\":4115:4145   */\n      gt\n        /* \"#utility.yul\":4112:4229   */\n      iszero\n      tag_116\n      jumpi\n        /* \"#utility.yul\":4148:4227   */\n      tag_117\n      tag_97\n      jump\t// in\n    tag_117:\n        /* \"#utility.yul\":4112:4229   */\n    tag_116:\n        /* \"#utility.yul\":4253:4316   */\n      tag_118\n        /* \"#utility.yul\":4308:4315   */\n      dup5\n        /* \"#utility.yul\":4299:4305   */\n      dup3\n        /* \"#utility.yul\":4288:4297   */\n      dup6\n        /* \"#utility.yul\":4284:4306   */\n      add\n        /* \"#utility.yul\":4253:4316   */\n      tag_85\n      jump\t// in\n    tag_118:\n        /* \"#utility.yul\":4243:4316   */\n      swap2\n      pop\n        /* \"#utility.yul\":4039:4326   */\n      pop\n        /* \"#utility.yul\":3824:4333   */\n      swap3\n      swap2\n      pop\n      pop\n      jump\t// out\n        /* \"#utility.yul\":4339:4457   */\n    tag_119:\n        /* \"#utility.yul\":4426:4450   */\n      tag_121\n        /* \"#utility.yul\":4444:4449   */\n      dup2\n        /* \"#utility.yul\":4426:4450   */\n      tag_122\n      jump\t// in\n    tag_121:\n        /* \"#utility.yul\":4421:4424   */\n      dup3\n        /* \"#utility.yul\":4414:4451   */\n      mstore\n        /* \"#utility.yul\":4339:4457   */\n      pop\n      pop\n      jump\t// out\n        /* \"#utility.yul\":4463:4572   */\n    tag_123:\n        /* \"#utility.yul\":4544:4565   */\n      tag_125\n        /* \"#utility.yul\":4559:4564   */\n      dup2\n        /* \"#utility.yul\":4544:4565   */\n      tag_126\n      jump\t// in\n    tag_125:\n        /* \"#utility.yul\":4539:4542   */\n      dup3\n        /* \"#utility.yul\":4532:4566   */\n      mstore\n        /* \"#utility.yul\":4463:4572   */\n      pop\n      pop\n      jump\t// out\n        /* \"#utility.yul\":4578:4696   */\n    tag_127:\n        /* \"#utility.yul\":4665:4689   */\n      tag_129\n        /* \"#utility.yul\":4683:4688   */\n      dup2\n        /* \"#utility.yul\":4665:4689   */\n      tag_130\n      jump\t// in\n    tag_129:\n        /* \"#utility.yul\":4660:4663   */\n      dup3\n        /* \"#utility.yul\":4653:4690   */\n      mstore\n        /* \"#utility.yul\":4578:4696   */\n      pop\n      pop\n      jump\t// out\n        /* \"#utility.yul\":4702:4859   */\n    tag_131:\n        /* \"#utility.yul\":4807:4852   */\n      tag_133\n        /* \"#utility.yul\":4827:4851   */\n      tag_134\n        /* \"#utility.yul\":4845:4850   */\n      dup3\n        /* \"#utility.yul\":4827:4851   */\n      tag_130\n      jump\t// in\n    tag_134:\n        /* \"#utility.yul\":4807:4852   */\n      tag_135\n      jump\t// in\n    tag_133:\n        /* \"#utility.yul\":4802:4805   */\n      dup3\n        /* \"#utility.yul\":4795:4853   */\n      mstore\n        /* \"#utility.yul\":4702:4859   */\n      pop\n      pop\n      jump\t// out\n        /* \"#utility.yul\":4865:5242   */\n    tag_136:\n        /* \"#utility.yul\":4971:4974   */\n      0x00\n        /* \"#utility.yul\":4999:5038   */\n      tag_138\n        /* \"#utility.yul\":5032:5037   */\n      dup3\n        /* \"#utility.yul\":4999:5038   */\n      tag_139\n      jump\t// in\n    tag_138:\n        /* \"#utility.yul\":5054:5143   */\n      tag_140\n        /* \"#utility.yul\":5136:5142   */\n      dup2\n        /* \"#utility.yul\":5131:5134   */\n      dup6\n        /* \"#utility.yul\":5054:5143   */\n      tag_141\n      jump\t// in\n    tag_140:\n        /* \"#utility.yul\":5047:5143   */\n      swap4\n      pop\n        /* \"#utility.yul\":5152:5204   */\n      tag_142\n        /* \"#utility.yul\":5197:5203   */\n      dup2\n        /* \"#utility.yul\":5192:5195   */\n      dup6\n        /* \"#utility.yul\":5185:5189   */\n      0x20\n        /* \"#utility.yul\":5178:5183   */\n      dup7\n        /* \"#utility.yul\":5174:5190   */\n      add\n        /* \"#utility.yul\":5152:5204   */\n      tag_143\n      jump\t// in\n    tag_142:\n        /* \"#utility.yul\":5229:5235   */\n      dup1\n        /* \"#utility.yul\":5224:5227   */\n      dup5\n        /* \"#utility.yul\":5220:5236   */\n      add\n        /* \"#utility.yul\":5213:5236   */\n      swap2\n      pop\n        /* \"#utility.yul\":4975:5242   */\n      pop\n        /* \"#utility.yul\":4865:5242   */\n      swap3\n      swap2\n      pop\n      pop\n      jump\t// out\n        /* \"#utility.yul\":5248:5650   */\n    tag_144:\n        /* \"#utility.yul\":5408:5411   */\n      0x00\n        /* \"#utility.yul\":5429:5514   */\n      tag_146\n        /* \"#utility.yul\":5511:5513   */\n      0x1c\n        /* \"#utility.yul\":5506:5509   */\n      dup4\n        /* \"#utility.yul\":5429:5514   */\n      tag_141\n      jump\t// in\n    tag_146:\n        /* \"#utility.yul\":5422:5514   */\n      swap2\n      pop\n        /* \"#utility.yul\":5523:5616   */\n      tag_147\n        /* \"#utility.yul\":5612:5615   */\n      dup3\n        /* \"#utility.yul\":5523:5616   */\n      tag_148\n      jump\t// in\n    tag_147:\n        /* \"#utility.yul\":5641:5643   */\n      0x1c\n        /* \"#utility.yul\":5636:5639   */\n      dup3\n        /* \"#utility.yul\":5632:5644   */\n      add\n        /* \"#utility.yul\":5625:5644   */\n      swap1\n      pop\n        /* \"#utility.yul\":5248:5650   */\n      swap2\n      swap1\n      pop\n      jump\t// out\n        /* \"#utility.yul\":5656:6022   */\n    tag_149:\n        /* \"#utility.yul\":5798:5801   */\n      0x00\n        /* \"#utility.yul\":5819:5886   */\n      tag_151\n        /* \"#utility.yul\":5883:5885   */\n      0x18\n        /* \"#utility.yul\":5878:5881   */\n      dup4\n        /* \"#utility.yul\":5819:5886   */\n      tag_152\n      jump\t// in\n    tag_151:\n        /* \"#utility.yul\":5812:5886   */\n      swap2\n      pop\n        /* \"#utility.yul\":5895:5988   */\n      tag_153\n        /* \"#utility.yul\":5984:5987   */\n      dup3\n        /* \"#utility.yul\":5895:5988   */\n      tag_154\n      jump\t// in\n    tag_153:\n        /* \"#utility.yul\":6013:6015   */\n      0x20\n        /* \"#utility.yul\":6008:6011   */\n      dup3\n        /* \"#utility.yul\":6004:6016   */\n      add\n        /* \"#utility.yul\":5997:6016   */\n      swap1\n      pop\n        /* \"#utility.yul\":5656:6022   */\n      swap2\n      swap1\n      pop\n      jump\t// out\n        /* \"#utility.yul\":6028:6140   */\n    tag_155:\n        /* \"#utility.yul\":6111:6133   */\n      tag_157\n        /* \"#utility.yul\":6127:6132   */\n      dup2\n        /* \"#utility.yul\":6111:6133   */\n      tag_158\n      jump\t// in\n    tag_157:\n        /* \"#utility.yul\":6106:6109   */\n      dup3\n        /* \"#utility.yul\":6099:6134   */\n      mstore\n        /* \"#utility.yul\":6028:6140   */\n      pop\n      pop\n      jump\t// out\n        /* \"#utility.yul\":6146:6421   */\n    tag_47:\n        /* \"#utility.yul\":6278:6281   */\n      0x00\n        /* \"#utility.yul\":6300:6395   */\n      tag_160\n        /* \"#utility.yul\":6391:6394   */\n      dup3\n        /* \"#utility.yul\":6382:6388   */\n      dup5\n        /* \"#utility.yul\":6300:6395   */\n      tag_136\n      jump\t// in\n    tag_160:\n        /* \"#utility.yul\":6293:6395   */\n      swap2\n      pop\n        /* \"#utility.yul\":6412:6415   */\n      dup2\n        /* \"#utility.yul\":6405:6415   */\n      swap1\n      pop\n        /* \"#utility.yul\":6146:6421   */\n      swap3\n      swap2\n      pop\n      pop\n      jump\t// out\n        /* \"#utility.yul\":6427:6949   */\n    tag_50:\n        /* \"#utility.yul\":6640:6643   */\n      0x00\n        /* \"#utility.yul\":6662:6810   */\n      tag_162\n        /* \"#utility.yul\":6806:6809   */\n      dup3\n        /* \"#utility.yul\":6662:6810   */\n      tag_144\n      jump\t// in\n    tag_162:\n        /* \"#utility.yul\":6655:6810   */\n      swap2\n      pop\n        /* \"#utility.yul\":6820:6895   */\n      tag_163\n        /* \"#utility.yul\":6891:6894   */\n      dup3\n        /* \"#utility.yul\":6882:6888   */\n      dup5\n        /* \"#utility.yul\":6820:6895   */\n      tag_131\n      jump\t// in\n    tag_163:\n        /* \"#utility.yul\":6920:6922   */\n      0x20\n        /* \"#utility.yul\":6915:6918   */\n      dup3\n        /* \"#utility.yul\":6911:6923   */\n      add\n        /* \"#utility.yul\":6904:6923   */\n      swap2\n      pop\n        /* \"#utility.yul\":6940:6943   */\n      dup2\n        /* \"#utility.yul\":6933:6943   */\n      swap1\n      pop\n        /* \"#utility.yul\":6427:6949   */\n      swap3\n      swap2\n      pop\n      pop\n      jump\t// out\n        /* \"#utility.yul\":6955:7177   */\n    tag_18:\n        /* \"#utility.yul\":7048:7052   */\n      0x00\n        /* \"#utility.yul\":7086:7088   */\n      0x20\n        /* \"#utility.yul\":7075:7084   */\n      dup3\n        /* \"#utility.yul\":7071:7089   */\n      add\n        /* \"#utility.yul\":7063:7089   */\n      swap1\n      pop\n        /* \"#utility.yul\":7099:7170   */\n      tag_165\n        /* \"#utility.yul\":7167:7168   */\n      0x00\n        /* \"#utility.yul\":7156:7165   */\n      dup4\n        /* \"#utility.yul\":7152:7169   */\n      add\n        /* \"#utility.yul\":7143:7149   */\n      dup5\n        /* \"#utility.yul\":7099:7170   */\n      tag_119\n      jump\t// in\n    tag_165:\n        /* \"#utility.yul\":6955:7177   */\n      swap3\n      swap2\n      pop\n      pop\n      jump\t// out\n        /* \"#utility.yul\":7183:7393   */\n    tag_12:\n        /* \"#utility.yul\":7270:7274   */\n      0x00\n        /* \"#utility.yul\":7308:7310   */\n      0x20\n        /* \"#utility.yul\":7297:7306   */\n      dup3\n        /* \"#utility.yul\":7293:7311   */\n      add\n        /* \"#utility.yul\":7285:7311   */\n      swap1\n      pop\n        /* \"#utility.yul\":7321:7386   */\n      tag_167\n        /* \"#utility.yul\":7383:7384   */\n      0x00\n        /* \"#utility.yul\":7372:7381   */\n      dup4\n        /* \"#utility.yul\":7368:7385   */\n      add\n        /* \"#utility.yul\":7359:7365   */\n      dup5\n        /* \"#utility.yul\":7321:7386   */\n      tag_123\n      jump\t// in\n    tag_167:\n        /* \"#utility.yul\":7183:7393   */\n      swap3\n      swap2\n      pop\n      pop\n      jump\t// out\n        /* \"#utility.yul\":7399:7621   */\n    tag_24:\n        /* \"#utility.yul\":7492:7496   */\n      0x00\n        /* \"#utility.yul\":7530:7532   */\n      0x20\n        /* \"#utility.yul\":7519:7528   */\n      dup3\n        /* \"#utility.yul\":7515:7533   */\n      add\n        /* \"#utility.yul\":7507:7533   */\n      swap1\n      pop\n        /* \"#utility.yul\":7543:7614   */\n      tag_169\n        /* \"#utility.yul\":7611:7612   */\n      0x00\n        /* \"#utility.yul\":7600:7609   */\n      dup4\n        /* \"#utility.yul\":7596:7613   */\n      add\n        /* \"#utility.yul\":7587:7593   */\n      dup5\n        /* \"#utility.yul\":7543:7614   */\n      tag_127\n      jump\t// in\n    tag_169:\n        /* \"#utility.yul\":7399:7621   */\n      swap3\n      swap2\n      pop\n      pop\n      jump\t// out\n        /* \"#utility.yul\":7627:8172   */\n    tag_42:\n        /* \"#utility.yul\":7800:7804   */\n      0x00\n        /* \"#utility.yul\":7838:7841   */\n      0x80\n        /* \"#utility.yul\":7827:7836   */\n      dup3\n        /* \"#utility.yul\":7823:7842   */\n      add\n        /* \"#utility.yul\":7815:7842   */\n      swap1\n      pop\n        /* \"#utility.yul\":7852:7923   */\n      tag_171\n        /* \"#utility.yul\":7920:7921   */\n      0x00\n        /* \"#utility.yul\":7909:7918   */\n      dup4\n        /* \"#utility.yul\":7905:7922   */\n      add\n        /* \"#utility.yul\":7896:7902   */\n      dup8\n        /* \"#utility.yul\":7852:7923   */\n      tag_127\n      jump\t// in\n    tag_171:\n        /* \"#utility.yul\":7933:8001   */\n      tag_172\n        /* \"#utility.yul\":7997:7999   */\n      0x20\n        /* \"#utility.yul\":7986:7995   */\n      dup4\n        /* \"#utility.yul\":7982:8000   */\n      add\n        /* \"#utility.yul\":7973:7979   */\n      dup7\n        /* \"#utility.yul\":7933:8001   */\n      tag_155\n      jump\t// in\n    tag_172:\n        /* \"#utility.yul\":8011:8083   */\n      tag_173\n        /* \"#utility.yul\":8079:8081   */\n      0x40\n        /* \"#utility.yul\":8068:8077   */\n      dup4\n        /* \"#utility.yul\":8064:8082   */\n      add\n        /* \"#utility.yul\":8055:8061   */\n      dup6\n        /* \"#utility.yul\":8011:8083   */\n      tag_127\n      jump\t// in\n    tag_173:\n        /* \"#utility.yul\":8093:8165   */\n      tag_174\n        /* \"#utility.yul\":8161:8163   */\n      0x60\n        /* \"#utility.yul\":8150:8159   */\n      dup4\n        /* \"#utility.yul\":8146:8164   */\n      add\n        /* \"#utility.yul\":8137:8143   */\n      dup5\n        /* \"#utility.yul\":8093:8165   */\n      tag_127\n      jump\t// in\n    tag_174:\n        /* \"#utility.yul\":7627:8172   */\n      swap6\n      swap5\n      pop\n      pop\n      pop\n      pop\n      pop\n      jump\t// out\n        /* \"#utility.yul\":8178:8597   */\n    tag_37:\n        /* \"#utility.yul\":8344:8348   */\n      0x00\n        /* \"#utility.yul\":8382:8384   */\n      0x20\n        /* \"#utility.yul\":8371:8380   */\n      dup3\n        /* \"#utility.yul\":8367:8385   */\n      add\n        /* \"#utility.yul\":8359:8385   */\n      swap1\n      pop\n        /* \"#utility.yul\":8431:8440   */\n      dup2\n        /* \"#utility.yul\":8425:8429   */\n      dup2\n        /* \"#utility.yul\":8421:8441   */\n      sub\n        /* \"#utility.yul\":8417:8418   */\n      0x00\n        /* \"#utility.yul\":8406:8415   */\n      dup4\n        /* \"#utility.yul\":8402:8419   */\n      add\n        /* \"#utility.yul\":8395:8442   */\n      mstore\n        /* \"#utility.yul\":8459:8590   */\n      tag_176\n        /* \"#utility.yul\":8585:8589   */\n      dup2\n        /* \"#utility.yul\":8459:8590   */\n      tag_149\n      jump\t// in\n    tag_176:\n        /* \"#utility.yul\":8451:8590   */\n      swap1\n      pop\n        /* \"#utility.yul\":8178:8597   */\n      swap2\n      swap1\n      pop\n      jump\t// out\n        /* \"#utility.yul\":8603:8732   */\n    tag_57:\n        /* \"#utility.yul\":8637:8643   */\n      0x00\n        /* \"#utility.yul\":8664:8684   */\n      tag_178\n      tag_179\n      jump\t// in\n    tag_178:\n        /* \"#utility.yul\":8654:8684   */\n      swap1\n      pop\n        /* \"#utility.yul\":8693:8726   */\n      tag_180\n        /* \"#utility.yul\":8721:8725   */\n      dup3\n        /* \"#utility.yul\":8713:8719   */\n      dup3\n        /* \"#utility.yul\":8693:8726   */\n      tag_181\n      jump\t// in\n    tag_180:\n        /* \"#utility.yul\":8603:8732   */\n      swap2\n      swap1\n      pop\n      jump\t// out\n        /* \"#utility.yul\":8738:8813   */\n    tag_179:\n        /* \"#utility.yul\":8771:8777   */\n      0x00\n        /* \"#utility.yul\":8804:8806   */\n      0x40\n        /* \"#utility.yul\":8798:8807   */\n      mload\n        /* \"#utility.yul\":8788:8807   */\n      swap1\n      pop\n        /* \"#utility.yul\":8738:8813   */\n      swap1\n      jump\t// out\n        /* \"#utility.yul\":8819:9126   */\n    tag_56:\n        /* \"#utility.yul\":8880:8884   */\n      0x00\n        /* \"#utility.yul\":8970:8988   */\n      0xffffffffffffffff\n        /* \"#utility.yul\":8962:8968   */\n      dup3\n        /* \"#utility.yul\":8959:8989   */\n      gt\n        /* \"#utility.yul\":8956:9012   */\n      iszero\n      tag_184\n      jumpi\n        /* \"#utility.yul\":8992:9010   */\n      tag_185\n      tag_186\n      jump\t// in\n    tag_185:\n        /* \"#utility.yul\":8956:9012   */\n    tag_184:\n        /* \"#utility.yul\":9030:9059   */\n      tag_187\n        /* \"#utility.yul\":9052:9058   */\n      dup3\n        /* \"#utility.yul\":9030:9059   */\n      tag_188\n      jump\t// in\n    tag_187:\n        /* \"#utility.yul\":9022:9059   */\n      swap1\n      pop\n        /* \"#utility.yul\":9114:9118   */\n      0x20\n        /* \"#utility.yul\":9108:9112   */\n      dup2\n        /* \"#utility.yul\":9104:9119   */\n      add\n        /* \"#utility.yul\":9096:9119   */\n      swap1\n      pop\n        /* \"#utility.yul\":8819:9126   */\n      swap2\n      swap1\n      pop\n      jump\t// out\n        /* \"#utility.yul\":9132:9440   */\n    tag_67:\n        /* \"#utility.yul\":9194:9198   */\n      0x00\n        /* \"#utility.yul\":9284:9302   */\n      0xffffffffffffffff\n        /* \"#utility.yul\":9276:9282   */\n      dup3\n        /* \"#utility.yul\":9273:9303   */\n      gt\n        /* \"#utility.yul\":9270:9326   */\n      iszero\n      tag_190\n      jumpi\n        /* \"#utility.yul\":9306:9324   */\n      tag_191\n      tag_186\n      jump\t// in\n    tag_191:\n        /* \"#utility.yul\":9270:9326   */\n    tag_190:\n        /* \"#utility.yul\":9344:9373   */\n      tag_192\n        /* \"#utility.yul\":9366:9372   */\n      dup3\n        /* \"#utility.yul\":9344:9373   */\n      tag_188\n      jump\t// in\n    tag_192:\n        /* \"#utility.yul\":9336:9373   */\n      swap1\n      pop\n        /* \"#utility.yul\":9428:9432   */\n      0x20\n        /* \"#utility.yul\":9422:9426   */\n      dup2\n        /* \"#utility.yul\":9418:9433   */\n      add\n        /* \"#utility.yul\":9410:9433   */\n      swap1\n      pop\n        /* \"#utility.yul\":9132:9440   */\n      swap2\n      swap1\n      pop\n      jump\t// out\n        /* \"#utility.yul\":9446:9545   */\n    tag_139:\n        /* \"#utility.yul\":9498:9504   */\n      0x00\n        /* \"#utility.yul\":9532:9537   */\n      dup2\n        /* \"#utility.yul\":9526:9538   */\n      mload\n        /* \"#utility.yul\":9516:9538   */\n      swap1\n      pop\n        /* \"#utility.yul\":9446:9545   */\n      swap2\n      swap1\n      pop\n      jump\t// out\n        /* \"#utility.yul\":9551:9720   */\n    tag_152:\n        /* \"#utility.yul\":9635:9646   */\n      0x00\n        /* \"#utility.yul\":9669:9675   */\n      dup3\n        /* \"#utility.yul\":9664:9667   */\n      dup3\n        /* \"#utility.yul\":9657:9676   */\n      mstore\n        /* \"#utility.yul\":9709:9713   */\n      0x20\n        /* \"#utility.yul\":9704:9707   */\n      dup3\n        /* \"#utility.yul\":9700:9714   */\n      add\n        /* \"#utility.yul\":9685:9714   */\n      swap1\n      pop\n        /* \"#utility.yul\":9551:9720   */\n      swap3\n      swap2\n      pop\n      pop\n      jump\t// out\n        /* \"#utility.yul\":9726:9874   */\n    tag_141:\n        /* \"#utility.yul\":9828:9839   */\n      0x00\n        /* \"#utility.yul\":9865:9868   */\n      dup2\n        /* \"#utility.yul\":9850:9868   */\n      swap1\n      pop\n        /* \"#utility.yul\":9726:9874   */\n      swap3\n      swap2\n      pop\n      pop\n      jump\t// out\n        /* \"#utility.yul\":9880:10117   */\n    tag_40:\n        /* \"#utility.yul\":9918:9921   */\n      0x00\n        /* \"#utility.yul\":9937:9955   */\n      tag_197\n        /* \"#utility.yul\":9953:9954   */\n      dup3\n        /* \"#utility.yul\":9937:9955   */\n      tag_158\n      jump\t// in\n    tag_197:\n        /* \"#utility.yul\":9932:9955   */\n      swap2\n      pop\n        /* \"#utility.yul\":9969:9987   */\n      tag_198\n        /* \"#utility.yul\":9985:9986   */\n      dup4\n        /* \"#utility.yul\":9969:9987   */\n      tag_158\n      jump\t// in\n    tag_198:\n        /* \"#utility.yul\":9964:9987   */\n      swap3\n      pop\n        /* \"#utility.yul\":10059:10060   */\n      dup3\n        /* \"#utility.yul\":10053:10057   */\n      0xff\n        /* \"#utility.yul\":10049:10061   */\n      sub\n        /* \"#utility.yul\":10046:10047   */\n      dup3\n        /* \"#utility.yul\":10043:10062   */\n      gt\n        /* \"#utility.yul\":10040:10085   */\n      iszero\n      tag_199\n      jumpi\n        /* \"#utility.yul\":10065:10083   */\n      tag_200\n      tag_201\n      jump\t// in\n    tag_200:\n        /* \"#utility.yul\":10040:10085   */\n    tag_199:\n        /* \"#utility.yul\":10109:10110   */\n      dup3\n        /* \"#utility.yul\":10106:10107   */\n      dup3\n        /* \"#utility.yul\":10102:10111   */\n      add\n        /* \"#utility.yul\":10095:10111   */\n      swap1\n      pop\n        /* \"#utility.yul\":9880:10117   */\n      swap3\n      swap2\n      pop\n      pop\n      jump\t// out\n        /* \"#utility.yul\":10123:10219   */\n    tag_122:\n        /* \"#utility.yul\":10160:10167   */\n      0x00\n        /* \"#utility.yul\":10189:10213   */\n      tag_203\n        /* \"#utility.yul\":10207:10212   */\n      dup3\n        /* \"#utility.yul\":10189:10213   */\n      tag_204\n      jump\t// in\n    tag_203:\n        /* \"#utility.yul\":10178:10213   */\n      swap1\n      pop\n        /* \"#utility.yul\":10123:10219   */\n      swap2\n      swap1\n      pop\n      jump\t// out\n        /* \"#utility.yul\":10225:10315   */\n    tag_126:\n        /* \"#utility.yul\":10259:10266   */\n      0x00\n        /* \"#utility.yul\":10302:10307   */\n      dup2\n        /* \"#utility.yul\":10295:10308   */\n      iszero\n        /* \"#utility.yul\":10288:10309   */\n      iszero\n        /* \"#utility.yul\":10277:10309   */\n      swap1\n      pop\n        /* \"#utility.yul\":10225:10315   */\n      swap2\n      swap1\n      pop\n      jump\t// out\n        /* \"#utility.yul\":10321:10398   */\n    tag_130:\n        /* \"#utility.yul\":10358:10365   */\n      0x00\n        /* \"#utility.yul\":10387:10392   */\n      dup2\n        /* \"#utility.yul\":10376:10392   */\n      swap1\n      pop\n        /* \"#utility.yul\":10321:10398   */\n      swap2\n      swap1\n      pop\n      jump\t// out\n        /* \"#utility.yul\":10404:10530   */\n    tag_204:\n        /* \"#utility.yul\":10441:10448   */\n      0x00\n        /* \"#utility.yul\":10481:10523   */\n      0xffffffffffffffffffffffffffffffffffffffff\n        /* \"#utility.yul\":10474:10479   */\n      dup3\n        /* \"#utility.yul\":10470:10524   */\n      and\n        /* \"#utility.yul\":10459:10524   */\n      swap1\n      pop\n        /* \"#utility.yul\":10404:10530   */\n      swap2\n      swap1\n      pop\n      jump\t// out\n        /* \"#utility.yul\":10536:10622   */\n    tag_158:\n        /* \"#utility.yul\":10571:10578   */\n      0x00\n        /* \"#utility.yul\":10611:10615   */\n      0xff\n        /* \"#utility.yul\":10604:10609   */\n      dup3\n        /* \"#utility.yul\":10600:10616   */\n      and\n        /* \"#utility.yul\":10589:10616   */\n      swap1\n      pop\n        /* \"#utility.yul\":10536:10622   */\n      swap2\n      swap1\n      pop\n      jump\t// out\n        /* \"#utility.yul\":10628:10782   */\n    tag_62:\n        /* \"#utility.yul\":10712:10718   */\n      dup3\n        /* \"#utility.yul\":10707:10710   */\n      dup2\n        /* \"#utility.yul\":10702:10705   */\n      dup4\n        /* \"#utility.yul\":10689:10719   */\n      calldatacopy\n        /* \"#utility.yul\":10774:10775   */\n      0x00\n        /* \"#utility.yul\":10765:10771   */\n      dup4\n        /* \"#utility.yul\":10760:10763   */\n      dup4\n        /* \"#utility.yul\":10756:10772   */\n      add\n        /* \"#utility.yul\":10749:10776   */\n      mstore\n        /* \"#utility.yul\":10628:10782   */\n      pop\n      pop\n      pop\n      jump\t// out\n        /* \"#utility.yul\":10788:11095   */\n    tag_143:\n        /* \"#utility.yul\":10856:10857   */\n      0x00\n        /* \"#utility.yul\":10866:10979   */\n    tag_211:\n        /* \"#utility.yul\":10880:10886   */\n      dup4\n        /* \"#utility.yul\":10877:10878   */\n      dup2\n        /* \"#utility.yul\":10874:10887   */\n      lt\n        /* \"#utility.yul\":10866:10979   */\n      iszero\n      tag_213\n      jumpi\n        /* \"#utility.yul\":10965:10966   */\n      dup1\n        /* \"#utility.yul\":10960:10963   */\n      dup3\n        /* \"#utility.yul\":10956:10967   */\n      add\n        /* \"#utility.yul\":10950:10968   */\n      mload\n        /* \"#utility.yul\":10946:10947   */\n      dup2\n        /* \"#utility.yul\":10941:10944   */\n      dup5\n        /* \"#utility.yul\":10937:10948   */\n      add\n        /* \"#utility.yul\":10930:10969   */\n      mstore\n        /* \"#utility.yul\":10902:10904   */\n      0x20\n        /* \"#utility.yul\":10899:10900   */\n      dup2\n        /* \"#utility.yul\":10895:10905   */\n      add\n        /* \"#utility.yul\":10890:10905   */\n      swap1\n      pop\n        /* \"#utility.yul\":10866:10979   */\n      jump(tag_211)\n    tag_213:\n        /* \"#utility.yul\":10997:11003   */\n      dup4\n        /* \"#utility.yul\":10994:10995   */\n      dup2\n        /* \"#utility.yul\":10991:11004   */\n      gt\n        /* \"#utility.yul\":10988:11089   */\n      iszero\n      tag_214\n      jumpi\n        /* \"#utility.yul\":11077:11078   */\n      0x00\n        /* \"#utility.yul\":11068:11074   */\n      dup5\n        /* \"#utility.yul\":11063:11066   */\n      dup5\n        /* \"#utility.yul\":11059:11075   */\n      add\n        /* \"#utility.yul\":11052:11079   */\n      mstore\n        /* \"#utility.yul\":10988:11089   */\n    tag_214:\n        /* \"#utility.yul\":10837:11095   */\n      pop\n        /* \"#utility.yul\":10788:11095   */\n      pop\n      pop\n      pop\n      jump\t// out\n        /* \"#utility.yul\":11101:11382   */\n    tag_181:\n        /* \"#utility.yul\":11184:11211   */\n      tag_216\n        /* \"#utility.yul\":11206:11210   */\n      dup3\n        /* \"#utility.yul\":11184:11211   */\n      tag_188\n      jump\t// in\n    tag_216:\n        /* \"#utility.yul\":11176:11182   */\n      dup2\n        /* \"#utility.yul\":11172:11212   */\n      add\n        /* \"#utility.yul\":11314:11320   */\n      dup2\n        /* \"#utility.yul\":11302:11312   */\n      dup2\n        /* \"#utility.yul\":11299:11321   */\n      lt\n        /* \"#utility.yul\":11278:11296   */\n      0xffffffffffffffff\n        /* \"#utility.yul\":11266:11276   */\n      dup3\n        /* \"#utility.yul\":11263:11297   */\n      gt\n        /* \"#utility.yul\":11260:11322   */\n      or\n        /* \"#utility.yul\":11257:11345   */\n      iszero\n      tag_217\n      jumpi\n        /* \"#utility.yul\":11325:11343   */\n      tag_218\n      tag_186\n      jump\t// in\n    tag_218:\n        /* \"#utility.yul\":11257:11345   */\n    tag_217:\n        /* \"#utility.yul\":11365:11375   */\n      dup1\n        /* \"#utility.yul\":11361:11363   */\n      0x40\n        /* \"#utility.yul\":11354:11376   */\n      mstore\n        /* \"#utility.yul\":11144:11382   */\n      pop\n        /* \"#utility.yul\":11101:11382   */\n      pop\n      pop\n      jump\t// out\n        /* \"#utility.yul\":11388:11467   */\n    tag_135:\n        /* \"#utility.yul\":11427:11434   */\n      0x00\n        /* \"#utility.yul\":11456:11461   */\n      dup2\n        /* \"#utility.yul\":11445:11461   */\n      swap1\n      pop\n        /* \"#utility.yul\":11388:11467   */\n      swap2\n      swap1\n      pop\n      jump\t// out\n        /* \"#utility.yul\":11473:11653   */\n    tag_201:\n        /* \"#utility.yul\":11521:11598   */\n      0x4e487b7100000000000000000000000000000000000000000000000000000000\n        /* \"#utility.yul\":11518:11519   */\n      0x00\n        /* \"#utility.yul\":11511:11599   */\n      mstore\n        /* \"#utility.yul\":11618:11622   */\n      0x11\n        /* \"#utility.yul\":11615:11616   */\n      0x04\n        /* \"#utility.yul\":11608:11623   */\n      mstore\n        /* \"#utility.yul\":11642:11646   */\n      0x24\n        /* \"#utility.yul\":11639:11640   */\n      0x00\n        /* \"#utility.yul\":11632:11647   */\n      revert\n        /* \"#utility.yul\":11659:11839   */\n    tag_186:\n        /* \"#utility.yul\":11707:11784   */\n      0x4e487b7100000000000000000000000000000000000000000000000000000000\n        /* \"#utility.yul\":11704:11705   */\n      0x00\n        /* \"#utility.yul\":11697:11785   */\n      mstore\n        /* \"#utility.yul\":11804:11808   */\n      0x41\n        /* \"#utility.yul\":11801:11802   */\n      0x04\n        /* \"#utility.yul\":11794:11809   */\n      mstore\n        /* \"#utility.yul\":11828:11832   */\n      0x24\n        /* \"#utility.yul\":11825:11826   */\n      0x00\n        /* \"#utility.yul\":11818:11833   */\n      revert\n        /* \"#utility.yul\":11845:11962   */\n    tag_83:\n        /* \"#utility.yul\":11954:11955   */\n      0x00\n        /* \"#utility.yul\":11951:11952   */\n      dup1\n        /* \"#utility.yul\":11944:11956   */\n      revert\n        /* \"#utility.yul\":11968:12085   */\n    tag_60:\n        /* \"#utility.yul\":12077:12078   */\n      0x00\n        /* \"#utility.yul\":12074:12075   */\n      dup1\n        /* \"#utility.yul\":12067:12079   */\n      revert\n        /* \"#utility.yul\":12091:12208   */\n    tag_97:\n        /* \"#utility.yul\":12200:12201   */\n      0x00\n        /* \"#utility.yul\":12197:12198   */\n      dup1\n        /* \"#utility.yul\":12190:12202   */\n      revert\n        /* \"#utility.yul\":12214:12331   */\n    tag_93:\n        /* \"#utility.yul\":12323:12324   */\n      0x00\n        /* \"#utility.yul\":12320:12321   */\n      dup1\n        /* \"#utility.yul\":12313:12325   */\n      revert\n        /* \"#utility.yul\":12337:12439   */\n    tag_188:\n        /* \"#utility.yul\":12378:12384   */\n      0x00\n        /* \"#utility.yul\":12429:12431   */\n      0x1f\n        /* \"#utility.yul\":12425:12432   */\n      not\n        /* \"#utility.yul\":12420:12422   */\n      0x1f\n        /* \"#utility.yul\":12413:12418   */\n      dup4\n        /* \"#utility.yul\":12409:12423   */\n      add\n        /* \"#utility.yul\":12405:12433   */\n      and\n        /* \"#utility.yul\":12395:12433   */\n      swap1\n      pop\n        /* \"#utility.yul\":12337:12439   */\n      swap2\n      swap1\n      pop\n      jump\t// out\n        /* \"#utility.yul\":12445:12659   */\n    tag_148:\n        /* \"#utility.yul\":12585:12651   */\n      0x19457468657265756d205369676e6564204d6573736167653a0a333200000000\n        /* \"#utility.yul\":12581:12582   */\n      0x00\n        /* \"#utility.yul\":12573:12579   */\n      dup3\n        /* \"#utility.yul\":12569:12583   */\n      add\n        /* \"#utility.yul\":12562:12652   */\n      mstore\n        /* \"#utility.yul\":12445:12659   */\n      pop\n      jump\t// out\n        /* \"#utility.yul\":12665:12839   */\n    tag_154:\n        /* \"#utility.yul\":12805:12831   */\n      0x496e76616c6964207369676e6174757265206c656e6774680000000000000000\n        /* \"#utility.yul\":12801:12802   */\n      0x00\n        /* \"#utility.yul\":12793:12799   */\n      dup3\n        /* \"#utility.yul\":12789:12803   */\n      add\n        /* \"#utility.yul\":12782:12832   */\n      mstore\n        /* \"#utility.yul\":12665:12839   */\n      pop\n      jump\t// out\n        /* \"#utility.yul\":12845:12967   */\n    tag_74:\n        /* \"#utility.yul\":12918:12942   */\n      tag_230\n        /* \"#utility.yul\":12936:12941   */\n      dup2\n        /* \"#utility.yul\":12918:12942   */\n      tag_122\n      jump\t// in\n    tag_230:\n        /* \"#utility.yul\":12911:12916   */\n      dup2\n        /* \"#utility.yul\":12908:12943   */\n      eq\n        /* \"#utility.yul\":12898:12961   */\n      tag_231\n      jumpi\n        /* \"#utility.yul\":12957:12958   */\n      0x00\n        /* \"#utility.yul\":12954:12955   */\n      dup1\n        /* \"#utility.yul\":12947:12959   */\n      revert\n        /* \"#utility.yul\":12898:12961   */\n    tag_231:\n        /* \"#utility.yul\":12845:12967   */\n      pop\n      jump\t// out\n        /* \"#utility.yul\":12973:13095   */\n    tag_78:\n        /* \"#utility.yul\":13046:13070   */\n      tag_233\n        /* \"#utility.yul\":13064:13069   */\n      dup2\n        /* \"#utility.yul\":13046:13070   */\n      tag_130\n      jump\t// in\n    tag_233:\n        /* \"#utility.yul\":13039:13044   */\n      dup2\n        /* \"#utility.yul\":13036:13071   */\n      eq\n        /* \"#utility.yul\":13026:13089   */\n      tag_234\n      jumpi\n        /* \"#utility.yul\":13085:13086   */\n      0x00\n        /* \"#utility.yul\":13082:13083   */\n      dup1\n        /* \"#utility.yul\":13075:13087   */\n      revert\n        /* \"#utility.yul\":13026:13089   */\n    tag_234:\n        /* \"#utility.yul\":12973:13095   */\n      pop\n      jump\t// out\n\n    auxdata: 0xa2646970667358221220f0a6ff09cf5d6f2844bd6ba877f130912250fb50133eb3e9298beb8c0a18965e64736f6c63430008070033\n}\n",
				"bytecode": {
					"linkReferences": {},
					"object": "608060405234801561001057600080fd5b506109bc806100206000396000f3fe608060405234801561001057600080fd5b506004361061004c5760003560e01c80632dd34f0f1461005157806397aba7f914610081578063b446f3b2146100b1578063fa540801146100e1575b600080fd5b61006b600480360381019061006691906103b2565b610111565b6040516100789190610631565b60405180910390f35b61009b6004803603810190610096919061046a565b61016f565b6040516100a89190610616565b60405180910390f35b6100cb60048036038101906100c691906104c6565b610248565b6040516100d8919061064c565b60405180910390f35b6100fb60048036038101906100f6919061043d565b610278565b604051610108919061064c565b60405180910390f35b60008061011d84610248565b9050600061012a82610278565b90508573ffffffffffffffffffffffffffffffffffffffff1661014d828661016f565b73ffffffffffffffffffffffffffffffffffffffff1614925050509392505050565b600060418251146101b5576040517f08c379a00000000000000000000000000000000000000000000000000000000081526004016101ac906106ac565b60405180910390fd5b60008060006020850151925060408501519150606085015160001a9050601b8160ff1610156101ee57601b816101eb919061077a565b90505b600186828585604051600081526020016040526040516102119493929190610667565b6020604051602081039080840390855afa158015610233573d6000803e3d6000fd5b50505060206040510351935050505092915050565b60008160405160200161025b91906105d9565b604051602081830303815290604052805190602001209050919050565b60008160405160200161028b91906105f0565b604051602081830303815290604052805190602001209050919050565b60006102bb6102b6846106f1565b6106cc565b9050828152602081018484840111156102d7576102d66108e6565b5b6102e2848285610806565b509392505050565b60006102fd6102f884610722565b6106cc565b905082815260208101848484011115610319576103186108e6565b5b610324848285610806565b509392505050565b60008135905061033b81610958565b92915050565b6000813590506103508161096f565b92915050565b600082601f83011261036b5761036a6108e1565b5b813561037b8482602086016102a8565b91505092915050565b600082601f830112610399576103986108e1565b5b81356103a98482602086016102ea565b91505092915050565b6000806000606084860312156103cb576103ca6108f0565b5b60006103d98682870161032c565b935050602084013567ffffffffffffffff8111156103fa576103f96108eb565b5b61040686828701610384565b925050604084013567ffffffffffffffff811115610427576104266108eb565b5b61043386828701610356565b9150509250925092565b600060208284031215610453576104526108f0565b5b600061046184828501610341565b91505092915050565b60008060408385031215610481576104806108f0565b5b600061048f85828601610341565b925050602083013567ffffffffffffffff8111156104b0576104af6108eb565b5b6104bc85828601610356565b9150509250929050565b6000602082840312156104dc576104db6108f0565b5b600082013567ffffffffffffffff8111156104fa576104f96108eb565b5b61050684828501610384565b91505092915050565b610518816107b1565b82525050565b610527816107c3565b82525050565b610536816107cf565b82525050565b61054d610548826107cf565b610879565b82525050565b600061055e82610753565b610568818561076f565b9350610578818560208601610815565b80840191505092915050565b6000610591601c8361076f565b915061059c82610906565b601c82019050919050565b60006105b460188361075e565b91506105bf8261092f565b602082019050919050565b6105d3816107f9565b82525050565b60006105e58284610553565b915081905092915050565b60006105fb82610584565b9150610607828461053c565b60208201915081905092915050565b600060208201905061062b600083018461050f565b92915050565b6000602082019050610646600083018461051e565b92915050565b6000602082019050610661600083018461052d565b92915050565b600060808201905061067c600083018761052d565b61068960208301866105ca565b610696604083018561052d565b6106a3606083018461052d565b95945050505050565b600060208201905081810360008301526106c5816105a7565b9050919050565b60006106d66106e7565b90506106e28282610848565b919050565b6000604051905090565b600067ffffffffffffffff82111561070c5761070b6108b2565b5b610715826108f5565b9050602081019050919050565b600067ffffffffffffffff82111561073d5761073c6108b2565b5b610746826108f5565b9050602081019050919050565b600081519050919050565b600082825260208201905092915050565b600081905092915050565b6000610785826107f9565b9150610790836107f9565b92508260ff038211156107a6576107a5610883565b5b828201905092915050565b60006107bc826107d9565b9050919050565b60008115159050919050565b6000819050919050565b600073ffffffffffffffffffffffffffffffffffffffff82169050919050565b600060ff82169050919050565b82818337600083830152505050565b60005b83811015610833578082015181840152602081019050610818565b83811115610842576000848401525b50505050565b610851826108f5565b810181811067ffffffffffffffff821117156108705761086f6108b2565b5b80604052505050565b6000819050919050565b7f4e487b7100000000000000000000000000000000000000000000000000000000600052601160045260246000fd5b7f4e487b7100000000000000000000000000000000000000000000000000000000600052604160045260246000fd5b600080fd5b600080fd5b600080fd5b600080fd5b6000601f19601f8301169050919050565b7f19457468657265756d205369676e6564204d6573736167653a0a333200000000600082015250565b7f496e76616c6964207369676e6174757265206c656e6774680000000000000000600082015250565b610961816107b1565b811461096c57600080fd5b50565b610978816107cf565b811461098357600080fd5b5056fea2646970667358221220f0a6ff09cf5d6f2844bd6ba877f130912250fb50133eb3e9298beb8c0a18965e64736f6c63430008070033",
					"opcodes": "PUSH1 0x80 PUSH1 0x40 MSTORE CALLVALUE DUP1 ISZERO PUSH2 0x10 JUMPI PUSH1 0x0 DUP1 REVERT JUMPDEST POP PUSH2 0x9BC DUP1 PUSH2 0x20 PUSH1 0x0 CODECOPY PUSH1 0x0 RETURN INVALID PUSH1 0x80 PUSH1 0x40 MSTORE CALLVALUE DUP1 ISZERO PUSH2 0x10 JUMPI PUSH1 0x0 DUP1 REVERT JUMPDEST POP PUSH1 0x4 CALLDATASIZE LT PUSH2 0x4C JUMPI PUSH1 0x0 CALLDATALOAD PUSH1 0xE0 SHR DUP1 PUSH4 0x2DD34F0F EQ PUSH2 0x51 JUMPI DUP1 PUSH4 0x97ABA7F9 EQ PUSH2 0x81 JUMPI DUP1 PUSH4 0xB446F3B2 EQ PUSH2 0xB1 JUMPI DUP1 PUSH4 0xFA540801 EQ PUSH2 0xE1 JUMPI JUMPDEST PUSH1 0x0 DUP1 REVERT JUMPDEST PUSH2 0x6B PUSH1 0x4 DUP1 CALLDATASIZE SUB DUP2 ADD SWAP1 PUSH2 0x66 SWAP2 SWAP1 PUSH2 0x3B2 JUMP JUMPDEST PUSH2 0x111 JUMP JUMPDEST PUSH1 0x40 MLOAD PUSH2 0x78 SWAP2 SWAP1 PUSH2 0x631 JUMP JUMPDEST PUSH1 0x40 MLOAD DUP1 SWAP2 SUB SWAP1 RETURN JUMPDEST PUSH2 0x9B PUSH1 0x4 DUP1 CALLDATASIZE SUB DUP2 ADD SWAP1 PUSH2 0x96 SWAP2 SWAP1 PUSH2 0x46A JUMP JUMPDEST PUSH2 0x16F JUMP JUMPDEST PUSH1 0x40 MLOAD PUSH2 0xA8 SWAP2 SWAP1 PUSH2 0x616 JUMP JUMPDEST PUSH1 0x40 MLOAD DUP1 SWAP2 SUB SWAP1 RETURN JUMPDEST PUSH2 0xCB PUSH1 0x4 DUP1 CALLDATASIZE SUB DUP2 ADD SWAP1 PUSH2 0xC6 SWAP2 SWAP1 PUSH2 0x4C6 JUMP JUMPDEST PUSH2 0x248 JUMP JUMPDEST PUSH1 0x40 MLOAD PUSH2 0xD8 SWAP2 SWAP1 PUSH2 0x64C JUMP JUMPDEST PUSH1 0x40 MLOAD DUP1 SWAP2 SUB SWAP1 RETURN JUMPDEST PUSH2 0xFB PUSH1 0x4 DUP1 CALLDATASIZE SUB DUP2 ADD SWAP1 PUSH2 0xF6 SWAP2 SWAP1 PUSH2 0x43D JUMP JUMPDEST PUSH2 0x278 JUMP JUMPDEST PUSH1 0x40 MLOAD PUSH2 0x108 SWAP2 SWAP1 PUSH2 0x64C JUMP JUMPDEST PUSH1 0x40 MLOAD DUP1 SWAP2 SUB SWAP1 RETURN JUMPDEST PUSH1 0x0 DUP1 PUSH2 0x11D DUP5 PUSH2 0x248 JUMP JUMPDEST SWAP1 POP PUSH1 0x0 PUSH2 0x12A DUP3 PUSH2 0x278 JUMP JUMPDEST SWAP1 POP DUP6 PUSH20 0xFFFFFFFFFFFFFFFFFFFFFFFFFFFFFFFFFFFFFFFF AND PUSH2 0x14D DUP3 DUP7 PUSH2 0x16F JUMP JUMPDEST PUSH20 0xFFFFFFFFFFFFFFFFFFFFFFFFFFFFFFFFFFFFFFFF AND EQ SWAP3 POP POP POP SWAP4 SWAP3 POP POP POP JUMP JUMPDEST PUSH1 0x0 PUSH1 0x41 DUP3 MLOAD EQ PUSH2 0x1B5 JUMPI PUSH1 0x40 MLOAD PUSH32 0x8C379A000000000000000000000000000000000000000000000000000000000 DUP2 MSTORE PUSH1 0x4 ADD PUSH2 0x1AC SWAP1 PUSH2 0x6AC JUMP JUMPDEST PUSH1 0x40 MLOAD DUP1 SWAP2 SUB SWAP1 REVERT JUMPDEST PUSH1 0x0 DUP1 PUSH1 0x0 PUSH1 0x20 DUP6 ADD MLOAD SWAP3 POP PUSH1 0x40 DUP6 ADD MLOAD SWAP2 POP PUSH1 0x60 DUP6 ADD MLOAD PUSH1 0x0 BYTE SWAP1 POP PUSH1 0x1B DUP2 PUSH1 0xFF AND LT ISZERO PUSH2 0x1EE JUMPI PUSH1 0x1B DUP2 PUSH2 0x1EB SWAP2 SWAP1 PUSH2 0x77A JUMP JUMPDEST SWAP1 POP JUMPDEST PUSH1 0x1 DUP7 DUP3 DUP6 DUP6 PUSH1 0x40 MLOAD PUSH1 0x0 DUP2 MSTORE PUSH1 0x20 ADD PUSH1 0x40 MSTORE PUSH1 0x40 MLOAD PUSH2 0x211 SWAP5 SWAP4 SWAP3 SWAP2 SWAP1 PUSH2 0x667 JUMP JUMPDEST PUSH1 0x20 PUSH1 0x40 MLOAD PUSH1 0x20 DUP2 SUB SWAP1 DUP1 DUP5 SUB SWAP1 DUP6 GAS STATICCALL ISZERO DUP1 ISZERO PUSH2 0x233 JUMPI RETURNDATASIZE PUSH1 0x0 DUP1 RETURNDATACOPY RETURNDATASIZE PUSH1 0x0 REVERT JUMPDEST POP POP POP PUSH1 0x20 PUSH1 0x40 MLOAD SUB MLOAD SWAP4 POP POP POP POP SWAP3 SWAP2 POP POP JUMP JUMPDEST PUSH1 0x0 DUP2 PUSH1 0x40 MLOAD PUSH1 0x20 ADD PUSH2 0x25B SWAP2 SWAP1 PUSH2 0x5D9 JUMP JUMPDEST PUSH1 0x40 MLOAD PUSH1 0x20 DUP2 DUP4 SUB SUB DUP2 MSTORE SWAP1 PUSH1 0x40 MSTORE DUP1 MLOAD SWAP1 PUSH1 0x20 ADD KECCAK256 SWAP1 POP SWAP2 SWAP1 POP JUMP JUMPDEST PUSH1 0x0 DUP2 PUSH1 0x40 MLOAD PUSH1 0x20 ADD PUSH2 0x28B SWAP2 SWAP1 PUSH2 0x5F0 JUMP JUMPDEST PUSH1 0x40 MLOAD PUSH1 0x20 DUP2 DUP4 SUB SUB DUP2 MSTORE SWAP1 PUSH1 0x40 MSTORE DUP1 MLOAD SWAP1 PUSH1 0x20 ADD KECCAK256 SWAP1 POP SWAP2 SWAP1 POP JUMP JUMPDEST PUSH1 0x0 PUSH2 0x2BB PUSH2 0x2B6 DUP5 PUSH2 0x6F1 JUMP JUMPDEST PUSH2 0x6CC JUMP JUMPDEST SWAP1 POP DUP3 DUP2 MSTORE PUSH1 0x20 DUP2 ADD DUP5 DUP5 DUP5 ADD GT ISZERO PUSH2 0x2D7 JUMPI PUSH2 0x2D6 PUSH2 0x8E6 JUMP JUMPDEST JUMPDEST PUSH2 0x2E2 DUP5 DUP3 DUP6 PUSH2 0x806 JUMP JUMPDEST POP SWAP4 SWAP3 POP POP POP JUMP JUMPDEST PUSH1 0x0 PUSH2 0x2FD PUSH2 0x2F8 DUP5 PUSH2 0x722 JUMP JUMPDEST PUSH2 0x6CC JUMP JUMPDEST SWAP1 POP DUP3 DUP2 MSTORE PUSH1 0x20 DUP2 ADD DUP5 DUP5 DUP5 ADD GT ISZERO PUSH2 0x319 JUMPI PUSH2 0x318 PUSH2 0x8E6 JUMP JUMPDEST JUMPDEST PUSH2 0x324 DUP5 DUP3 DUP6 PUSH2 0x806 JUMP JUMPDEST POP SWAP4 SWAP3 POP POP POP JUMP JUMPDEST PUSH1 0x0 DUP2 CALLDATALOAD SWAP1 POP PUSH2 0x33B DUP2 PUSH2 0x958 JUMP JUMPDEST SWAP3 SWAP2 POP POP JUMP JUMPDEST PUSH1 0x0 DUP2 CALLDATALOAD SWAP1 POP PUSH2 0x350 DUP2 PUSH2 0x96F JUMP JUMPDEST SWAP3 SWAP2 POP POP JUMP JUMPDEST PUSH1 0x0 DUP3 PUSH1 0x1F DUP4 ADD SLT PUSH2 0x36B JUMPI PUSH2 0x36A PUSH2 0x8E1 JUMP JUMPDEST JUMPDEST DUP2 CALLDATALOAD PUSH2 0x37B DUP5 DUP3 PUSH1 0x20 DUP7 ADD PUSH2 0x2A8 JUMP JUMPDEST SWAP2 POP POP SWAP3 SWAP2 POP POP JUMP JUMPDEST PUSH1 0x0 DUP3 PUSH1 0x1F DUP4 ADD SLT PUSH2 0x399 JUMPI PUSH2 0x398 PUSH2 0x8E1 JUMP JUMPDEST JUMPDEST DUP2 CALLDATALOAD PUSH2 0x3A9 DUP5 DUP3 PUSH1 0x20 DUP7 ADD PUSH2 0x2EA JUMP JUMPDEST SWAP2 POP POP SWAP3 SWAP2 POP POP JUMP JUMPDEST PUSH1 0x0 DUP1 PUSH1 0x0 PUSH1 0x60 DUP5 DUP7 SUB SLT ISZERO PUSH2 0x3CB JUMPI PUSH2 0x3CA PUSH2 0x8F0 JUMP JUMPDEST JUMPDEST PUSH1 0x0 PUSH2 0x3D9 DUP7 DUP3 DUP8 ADD PUSH2 0x32C JUMP JUMPDEST SWAP4 POP POP PUSH1 0x20 DUP5 ADD CALLDATALOAD PUSH8 0xFFFFFFFFFFFFFFFF DUP2 GT ISZERO PUSH2 0x3FA JUMPI PUSH2 0x3F9 PUSH2 0x8EB JUMP JUMPDEST JUMPDEST PUSH2 0x406 DUP7 DUP3 DUP8 ADD PUSH2 0x384 JUMP JUMPDEST SWAP3 POP POP PUSH1 0x40 DUP5 ADD CALLDATALOAD PUSH8 0xFFFFFFFFFFFFFFFF DUP2 GT ISZERO PUSH2 0x427 JUMPI PUSH2 0x426 PUSH2 0x8EB JUMP JUMPDEST JUMPDEST PUSH2 0x433 DUP7 DUP3 DUP8 ADD PUSH2 0x356 JUMP JUMPDEST SWAP2 POP POP SWAP3 POP SWAP3 POP SWAP3 JUMP JUMPDEST PUSH1 0x0 PUSH1 0x20 DUP3 DUP5 SUB SLT ISZERO PUSH2 0x453 JUMPI PUSH2 0x452 PUSH2 0x8F0 JUMP JUMPDEST JUMPDEST PUSH1 0x0 PUSH2 0x461 DUP5 DUP3 DUP6 ADD PUSH2 0x341 JUMP JUMPDEST SWAP2 POP POP SWAP3 SWAP2 POP POP JUMP JUMPDEST PUSH1 0x0 DUP1 PUSH1 0x40 DUP4 DUP6 SUB SLT ISZERO PUSH2 0x481 JUMPI PUSH2 0x480 PUSH2 0x8F0 JUMP JUMPDEST JUMPDEST PUSH1 0x0 PUSH2 0x48F DUP6 DUP3 DUP7 ADD PUSH2 0x341 JUMP JUMPDEST SWAP3 POP POP PUSH1 0x20 DUP4 ADD CALLDATALOAD PUSH8 0xFFFFFFFFFFFFFFFF DUP2 GT ISZERO PUSH2 0x4B0 JUMPI PUSH2 0x4AF PUSH2 0x8EB JUMP JUMPDEST JUMPDEST PUSH2 0x4BC DUP6 DUP3 DUP7 ADD PUSH2 0x356 JUMP JUMPDEST SWAP2 POP POP SWAP3 POP SWAP3 SWAP1 POP JUMP JUMPDEST PUSH1 0x0 PUSH1 0x20 DUP3 DUP5 SUB SLT ISZERO PUSH2 0x4DC JUMPI PUSH2 0x4DB PUSH2 0x8F0 JUMP JUMPDEST JUMPDEST PUSH1 0x0 DUP3 ADD CALLDATALOAD PUSH8 0xFFFFFFFFFFFFFFFF DUP2 GT ISZERO PUSH2 0x4FA JUMPI PUSH2 0x4F9 PUSH2 0x8EB JUMP JUMPDEST JUMPDEST PUSH2 0x506 DUP5 DUP3 DUP6 ADD PUSH2 0x384 JUMP JUMPDEST SWAP2 POP POP SWAP3 SWAP2 POP POP JUMP JUMPDEST PUSH2 0x518 DUP2 PUSH2 0x7B1 JUMP JUMPDEST DUP3 MSTORE POP POP JUMP JUMPDEST PUSH2 0x527 DUP2 PUSH2 0x7C3 JUMP JUMPDEST DUP3 MSTORE POP POP JUMP JUMPDEST PUSH2 0x536 DUP2 PUSH2 0x7CF JUMP JUMPDEST DUP3 MSTORE POP POP JUMP JUMPDEST PUSH2 0x54D PUSH2 0x548 DUP3 PUSH2 0x7CF JUMP JUMPDEST PUSH2 0x879 JUMP JUMPDEST DUP3 MSTORE POP POP JUMP JUMPDEST PUSH1 0x0 PUSH2 0x55E DUP3 PUSH2 0x753 JUMP JUMPDEST PUSH2 0x568 DUP2 DUP6 PUSH2 0x76F JUMP JUMPDEST SWAP4 POP PUSH2 0x578 DUP2 DUP6 PUSH1 0x20 DUP7 ADD PUSH2 0x815 JUMP JUMPDEST DUP1 DUP5 ADD SWAP2 POP POP SWAP3 SWAP2 POP POP JUMP JUMPDEST PUSH1 0x0 PUSH2 0x591 PUSH1 0x1C DUP4 PUSH2 0x76F JUMP JUMPDEST SWAP2 POP PUSH2 0x59C DUP3 PUSH2 0x906 JUMP JUMPDEST PUSH1 0x1C DUP3 ADD SWAP1 POP SWAP2 SWAP1 POP JUMP JUMPDEST PUSH1 0x0 PUSH2 0x5B4 PUSH1 0x18 DUP4 PUSH2 0x75E JUMP JUMPDEST SWAP2 POP PUSH2 0x5BF DUP3 PUSH2 0x92F JUMP JUMPDEST PUSH1 0x20 DUP3 ADD SWAP1 POP SWAP2 SWAP1 POP JUMP JUMPDEST PUSH2 0x5D3 DUP2 PUSH2 0x7F9 JUMP JUMPDEST DUP3 MSTORE POP POP JUMP JUMPDEST PUSH1 0x0 PUSH2 0x5E5 DUP3 DUP5 PUSH2 0x553 JUMP JUMPDEST SWAP2 POP DUP2 SWAP1 POP SWAP3 SWAP2 POP POP JUMP JUMPDEST PUSH1 0x0 PUSH2 0x5FB DUP3 PUSH2 0x584 JUMP JUMPDEST SWAP2 POP PUSH2 0x607 DUP3 DUP5 PUSH2 0x53C JUMP JUMPDEST PUSH1 0x20 DUP3 ADD SWAP2 POP DUP2 SWAP1 POP SWAP3 SWAP2 POP POP JUMP JUMPDEST PUSH1 0x0 PUSH1 0x20 DUP3 ADD SWAP1 POP PUSH2 0x62B PUSH1 0x0 DUP4 ADD DUP5 PUSH2 0x50F JUMP JUMPDEST SWAP3 SWAP2 POP POP JUMP JUMPDEST PUSH1 0x0 PUSH1 0x20 DUP3 ADD SWAP1 POP PUSH2 0x646 PUSH1 0x0 DUP4 ADD DUP5 PUSH2 0x51E JUMP JUMPDEST SWAP3 SWAP2 POP POP JUMP JUMPDEST PUSH1 0x0 PUSH1 0x20 DUP3 ADD SWAP1 POP PUSH2 0x661 PUSH1 0x0 DUP4 ADD DUP5 PUSH2 0x52D JUMP JUMPDEST SWAP3 SWAP2 POP POP JUMP JUMPDEST PUSH1 0x0 PUSH1 0x80 DUP3 ADD SWAP1 POP PUSH2 0x67C PUSH1 0x0 DUP4 ADD DUP8 PUSH2 0x52D JUMP JUMPDEST PUSH2 0x689 PUSH1 0x20 DUP4 ADD DUP7 PUSH2 0x5CA JUMP JUMPDEST PUSH2 0x696 PUSH1 0x40 DUP4 ADD DUP6 PUSH2 0x52D JUMP JUMPDEST PUSH2 0x6A3 PUSH1 0x60 DUP4 ADD DUP5 PUSH2 0x52D JUMP JUMPDEST SWAP6 SWAP5 POP POP POP POP POP JUMP JUMPDEST PUSH1 0x0 PUSH1 0x20 DUP3 ADD SWAP1 POP DUP2 DUP2 SUB PUSH1 0x0 DUP4 ADD MSTORE PUSH2 0x6C5 DUP2 PUSH2 0x5A7 JUMP JUMPDEST SWAP1 POP SWAP2 SWAP1 POP JUMP JUMPDEST PUSH1 0x0 PUSH2 0x6D6 PUSH2 0x6E7 JUMP JUMPDEST SWAP1 POP PUSH2 0x6E2 DUP3 DUP3 PUSH2 0x848 JUMP JUMPDEST SWAP2 SWAP1 POP JUMP JUMPDEST PUSH1 0x0 PUSH1 0x40 MLOAD SWAP1 POP SWAP1 JUMP JUMPDEST PUSH1 0x0 PUSH8 0xFFFFFFFFFFFFFFFF DUP3 GT ISZERO PUSH2 0x70C JUMPI PUSH2 0x70B PUSH2 0x8B2 JUMP JUMPDEST JUMPDEST PUSH2 0x715 DUP3 PUSH2 0x8F5 JUMP JUMPDEST SWAP1 POP PUSH1 0x20 DUP2 ADD SWAP1 POP SWAP2 SWAP1 POP JUMP JUMPDEST PUSH1 0x0 PUSH8 0xFFFFFFFFFFFFFFFF DUP3 GT ISZERO PUSH2 0x73D JUMPI PUSH2 0x73C PUSH2 0x8B2 JUMP JUMPDEST JUMPDEST PUSH2 0x746 DUP3 PUSH2 0x8F5 JUMP JUMPDEST SWAP1 POP PUSH1 0x20 DUP2 ADD SWAP1 POP SWAP2 SWAP1 POP JUMP JUMPDEST PUSH1 0x0 DUP2 MLOAD SWAP1 POP SWAP2 SWAP1 POP JUMP JUMPDEST PUSH1 0x0 DUP3 DUP3 MSTORE PUSH1 0x20 DUP3 ADD SWAP1 POP SWAP3 SWAP2 POP POP JUMP JUMPDEST PUSH1 0x0 DUP2 SWAP1 POP SWAP3 SWAP2 POP POP JUMP JUMPDEST PUSH1 0x0 PUSH2 0x785 DUP3 PUSH2 0x7F9 JUMP JUMPDEST SWAP2 POP PUSH2 0x790 DUP4 PUSH2 0x7F9 JUMP JUMPDEST SWAP3 POP DUP3 PUSH1 0xFF SUB DUP3 GT ISZERO PUSH2 0x7A6 JUMPI PUSH2 0x7A5 PUSH2 0x883 JUMP JUMPDEST JUMPDEST DUP3 DUP3 ADD SWAP1 POP SWAP3 SWAP2 POP POP JUMP JUMPDEST PUSH1 0x0 PUSH2 0x7BC DUP3 PUSH2 0x7D9 JUMP JUMPDEST SWAP1 POP SWAP2 SWAP1 POP JUMP JUMPDEST PUSH1 0x0 DUP2 ISZERO ISZERO SWAP1 POP SWAP2 SWAP1 POP JUMP JUMPDEST PUSH1 0x0 DUP2 SWAP1 POP SWAP2 SWAP1 POP JUMP JUMPDEST PUSH1 0x0 PUSH20 0xFFFFFFFFFFFFFFFFFFFFFFFFFFFFFFFFFFFFFFFF DUP3 AND SWAP1 POP SWAP2 SWAP1 POP JUMP JUMPDEST PUSH1 0x0 PUSH1 0xFF DUP3 AND SWAP1 POP SWAP2 SWAP1 POP JUMP JUMPDEST DUP3 DUP2 DUP4 CALLDATACOPY PUSH1 0x0 DUP4 DUP4 ADD MSTORE POP POP POP JUMP JUMPDEST PUSH1 0x0 JUMPDEST DUP4 DUP2 LT ISZERO PUSH2 0x833 JUMPI DUP1 DUP3 ADD MLOAD DUP2 DUP5 ADD MSTORE PUSH1 0x20 DUP2 ADD SWAP1 POP PUSH2 0x818 JUMP JUMPDEST DUP4 DUP2 GT ISZERO PUSH2 0x842 JUMPI PUSH1 0x0 DUP5 DUP5 ADD MSTORE JUMPDEST POP POP POP POP JUMP JUMPDEST PUSH2 0x851 DUP3 PUSH2 0x8F5 JUMP JUMPDEST DUP2 ADD DUP2 DUP2 LT PUSH8 0xFFFFFFFFFFFFFFFF DUP3 GT OR ISZERO PUSH2 0x870 JUMPI PUSH2 0x86F PUSH2 0x8B2 JUMP JUMPDEST JUMPDEST DUP1 PUSH1 0x40 MSTORE POP POP POP JUMP JUMPDEST PUSH1 0x0 DUP2 SWAP1 POP SWAP2 SWAP1 POP JUMP JUMPDEST PUSH32 0x4E487B7100000000000000000000000000000000000000000000000000000000 PUSH1 0x0 MSTORE PUSH1 0x11 PUSH1 0x4 MSTORE PUSH1 0x24 PUSH1 0x0 REVERT JUMPDEST PUSH32 0x4E487B7100000000000000000000000000000000000000000000000000000000 PUSH1 0x0 MSTORE PUSH1 0x41 PUSH1 0x4 MSTORE PUSH1 0x24 PUSH1 0x0 REVERT JUMPDEST PUSH1 0x0 DUP1 REVERT JUMPDEST PUSH1 0x0 DUP1 REVERT JUMPDEST PUSH1 0x0 DUP1 REVERT JUMPDEST PUSH1 0x0 DUP1 REVERT JUMPDEST PUSH1 0x0 PUSH1 0x1F NOT PUSH1 0x1F DUP4 ADD AND SWAP1 POP SWAP2 SWAP1 POP JUMP JUMPDEST PUSH32 0x19457468657265756D205369676E6564204D6573736167653A0A333200000000 PUSH1 0x0 DUP3 ADD MSTORE POP JUMP JUMPDEST PUSH32 0x496E76616C6964207369676E6174757265206C656E6774680000000000000000 PUSH1 0x0 DUP3 ADD MSTORE POP JUMP JUMPDEST PUSH2 0x961 DUP2 PUSH2 0x7B1 JUMP JUMPDEST DUP2 EQ PUSH2 0x96C JUMPI PUSH1 0x0 DUP1 REVERT JUMPDEST POP JUMP JUMPDEST PUSH2 0x978 DUP2 PUSH2 0x7CF JUMP JUMPDEST DUP2 EQ PUSH2 0x983 JUMPI PUSH1 0x0 DUP1 REVERT JUMPDEST POP JUMP INVALID LOG2 PUSH5 0x6970667358 0x22 SLT KECCAK256 CREATE 0xA6 SELFDESTRUCT MULMOD 0xCF 0x5D PUSH16 0x2844BD6BA877F130912250FB50133EB3 0xE9 0x29 DUP12 0xEB DUP13 EXP XOR SWAP7 0x5E PUSH5 0x736F6C6343 STOP ADDMOD SMOD STOP CALLER "
				},
				"gasEstimates": {
					"creation": {
						"codeDepositCost": "498400",
						"executionCost": "530",
						"totalCost": "498930"
					},
					"external": {
						"getEthSignedMessageHash(bytes32)": "infinite",
						"getMessageHash(string)": "infinite",
						"recoverSigner(bytes32,bytes)": "infinite",
						"verify(address,string,bytes)": "infinite"
					}
				},
				"methodIdentifiers": {
					"getEthSignedMessageHash(bytes32)": "fa540801",
					"getMessageHash(string)": "b446f3b2",
					"recoverSigner(bytes32,bytes)": "97aba7f9",
					"verify(address,string,bytes)": "2dd34f0f"
				}
			},
			"storageLayout": {
				"storage": [],
				"types": null
			},
			"userdoc": {
				"kind": "user",
				"methods": {},
				"version": 1
			}
		}
	}
}