{
	"contracts/airdrop1.sol": {
		"Airdrop": {
			"abi": [
				{
					"inputs": [
						{
							"internalType": "address",
							"name": "_tokenAddress",
							"type": "address"
						}
					],
					"stateMutability": "nonpayable",
					"type": "constructor"
				},
				{
					"anonymous": false,
					"inputs": [
						{
							"indexed": true,
							"internalType": "address",
							"name": "recipient",
							"type": "address"
						},
						{
							"indexed": false,
							"internalType": "uint256",
							"name": "amount",
							"type": "uint256"
						}
					],
					"name": "AirdropBNB",
					"type": "event"
				},
				{
					"anonymous": false,
					"inputs": [
						{
							"indexed": true,
							"internalType": "address",
							"name": "recipient",
							"type": "address"
						},
						{
							"indexed": false,
							"internalType": "uint256",
							"name": "amount",
							"type": "uint256"
						}
					],
					"name": "AirdropERC20",
					"type": "event"
				},
				{
					"inputs": [
						{
							"internalType": "address[]",
							"name": "recipients",
							"type": "address[]"
						},
						{
							"internalType": "uint256[]",
							"name": "amounts",
							"type": "uint256[]"
						}
					],
					"name": "airdropBNB",
					"outputs": [],
					"stateMutability": "payable",
					"type": "function"
				},
				{
					"inputs": [
						{
							"internalType": "address[]",
							"name": "recipients",
							"type": "address[]"
						},
						{
							"internalType": "uint256[]",
							"name": "amounts",
							"type": "uint256[]"
						}
					],
					"name": "airdropERC20",
					"outputs": [],
					"stateMutability": "nonpayable",
					"type": "function"
				},
				{
					"inputs": [],
					"name": "gov",
					"outputs": [
						{
							"internalType": "address",
							"name": "",
							"type": "address"
						}
					],
					"stateMutability": "view",
					"type": "function"
				},
				{
					"inputs": [
						{
							"internalType": "address",
							"name": "_newGov",
							"type": "address"
						}
					],
					"name": "setGov",
					"outputs": [],
					"stateMutability": "nonpayable",
					"type": "function"
				},
				{
					"inputs": [],
					"name": "token",
					"outputs": [
						{
							"internalType": "contract MyToken",
							"name": "",
							"type": "address"
						}
					],
					"stateMutability": "view",
					"type": "function"
				}
			],
			"devdoc": {
				"kind": "dev",
				"methods": {},
				"version": 1
			},
			"evm": {
				"assembly": "    /* \"contracts/airdrop1.sol\":89:1674  contract Airdrop{... */\n  mstore(0x40, 0x80)\n    /* \"contracts/airdrop1.sol\":663:863  constructor(address _tokenAddress) {... */\n  callvalue\n  dup1\n  iszero\n  tag_1\n  jumpi\n  0x00\n  dup1\n  revert\ntag_1:\n  pop\n  mload(0x40)\n  sub(codesize, bytecodeSize)\n  dup1\n  bytecodeSize\n  dup4\n  codecopy\n  dup2\n  dup2\n  add\n  0x40\n  mstore\n  dup2\n  add\n  swap1\n  tag_2\n  swap2\n  swap1\n  tag_3\n  jump\t// in\ntag_2:\n    /* \"contracts/airdrop1.sol\":715:725  msg.sender */\n  caller\n    /* \"contracts/airdrop1.sol\":709:712  gov */\n  0x00\n  dup1\n    /* \"contracts/airdrop1.sol\":709:725  gov = msg.sender */\n  0x0100\n  exp\n  dup2\n  sload\n  dup2\n  0xffffffffffffffffffffffffffffffffffffffff\n  mul\n  not\n  and\n  swap1\n  dup4\n  0xffffffffffffffffffffffffffffffffffffffff\n  and\n  mul\n  or\n  swap1\n  sstore\n  pop\n    /* \"contracts/airdrop1.sol\":783:796  _tokenAddress */\n  dup1\n    /* \"contracts/airdrop1.sol\":767:772  token */\n  0x01\n  0x00\n    /* \"contracts/airdrop1.sol\":767:797  token = MyToken(_tokenAddress) */\n  0x0100\n  exp\n  dup2\n  sload\n  dup2\n  0xffffffffffffffffffffffffffffffffffffffff\n  mul\n  not\n  and\n  swap1\n  dup4\n  0xffffffffffffffffffffffffffffffffffffffff\n  and\n  mul\n  or\n  swap1\n  sstore\n  pop\n    /* \"contracts/airdrop1.sol\":663:863  constructor(address _tokenAddress) {... */\n  pop\n    /* \"contracts/airdrop1.sol\":89:1674  contract Airdrop{... */\n  jump(tag_6)\n    /* \"#utility.yul\":88:205   */\ntag_8:\n    /* \"#utility.yul\":197:198   */\n  0x00\n    /* \"#utility.yul\":194:195   */\n  dup1\n    /* \"#utility.yul\":187:199   */\n  revert\n    /* \"#utility.yul\":334:460   */\ntag_10:\n    /* \"#utility.yul\":371:378   */\n  0x00\n    /* \"#utility.yul\":411:453   */\n  0xffffffffffffffffffffffffffffffffffffffff\n    /* \"#utility.yul\":404:409   */\n  dup3\n    /* \"#utility.yul\":400:454   */\n  and\n    /* \"#utility.yul\":389:454   */\n  swap1\n  pop\n    /* \"#utility.yul\":334:460   */\n  swap2\n  swap1\n  pop\n  jump\t// out\n    /* \"#utility.yul\":466:562   */\ntag_11:\n    /* \"#utility.yul\":503:510   */\n  0x00\n    /* \"#utility.yul\":532:556   */\n  tag_20\n    /* \"#utility.yul\":550:555   */\n  dup3\n    /* \"#utility.yul\":532:556   */\n  tag_10\n  jump\t// in\ntag_20:\n    /* \"#utility.yul\":521:556   */\n  swap1\n  pop\n    /* \"#utility.yul\":466:562   */\n  swap2\n  swap1\n  pop\n  jump\t// out\n    /* \"#utility.yul\":568:690   */\ntag_12:\n    /* \"#utility.yul\":641:665   */\n  tag_22\n    /* \"#utility.yul\":659:664   */\n  dup2\n    /* \"#utility.yul\":641:665   */\n  tag_11\n  jump\t// in\ntag_22:\n    /* \"#utility.yul\":634:639   */\n  dup2\n    /* \"#utility.yul\":631:666   */\n  eq\n    /* \"#utility.yul\":621:684   */\n  tag_23\n  jumpi\n    /* \"#utility.yul\":680:681   */\n  0x00\n    /* \"#utility.yul\":677:678   */\n  dup1\n    /* \"#utility.yul\":670:682   */\n  revert\n    /* \"#utility.yul\":621:684   */\ntag_23:\n    /* \"#utility.yul\":568:690   */\n  pop\n  jump\t// out\n    /* \"#utility.yul\":696:839   */\ntag_13:\n    /* \"#utility.yul\":753:758   */\n  0x00\n    /* \"#utility.yul\":784:790   */\n  dup2\n    /* \"#utility.yul\":778:791   */\n  mload\n    /* \"#utility.yul\":769:791   */\n  swap1\n  pop\n    /* \"#utility.yul\":800:833   */\n  tag_25\n    /* \"#utility.yul\":827:832   */\n  dup2\n    /* \"#utility.yul\":800:833   */\n  tag_12\n  jump\t// in\ntag_25:\n    /* \"#utility.yul\":696:839   */\n  swap3\n  swap2\n  pop\n  pop\n  jump\t// out\n    /* \"#utility.yul\":845:1196   */\ntag_3:\n    /* \"#utility.yul\":915:921   */\n  0x00\n    /* \"#utility.yul\":964:966   */\n  0x20\n    /* \"#utility.yul\":952:961   */\n  dup3\n    /* \"#utility.yul\":943:950   */\n  dup5\n    /* \"#utility.yul\":939:962   */\n  sub\n    /* \"#utility.yul\":935:967   */\n  slt\n    /* \"#utility.yul\":932:1051   */\n  iszero\n  tag_27\n  jumpi\n    /* \"#utility.yul\":970:1049   */\n  tag_28\n  tag_8\n  jump\t// in\ntag_28:\n    /* \"#utility.yul\":932:1051   */\ntag_27:\n    /* \"#utility.yul\":1090:1091   */\n  0x00\n    /* \"#utility.yul\":1115:1179   */\n  tag_29\n    /* \"#utility.yul\":1171:1178   */\n  dup5\n    /* \"#utility.yul\":1162:1168   */\n  dup3\n    /* \"#utility.yul\":1151:1160   */\n  dup6\n    /* \"#utility.yul\":1147:1169   */\n  add\n    /* \"#utility.yul\":1115:1179   */\n  tag_13\n  jump\t// in\ntag_29:\n    /* \"#utility.yul\":1105:1179   */\n  swap2\n  pop\n    /* \"#utility.yul\":1061:1189   */\n  pop\n    /* \"#utility.yul\":845:1196   */\n  swap3\n  swap2\n  pop\n  pop\n  jump\t// out\n    /* \"contracts/airdrop1.sol\":89:1674  contract Airdrop{... */\ntag_6:\n  dataSize(sub_0)\n  dup1\n  dataOffset(sub_0)\n  0x00\n  codecopy\n  0x00\n  return\nstop\n\nsub_0: assembly {\n        /* \"contracts/airdrop1.sol\":89:1674  contract Airdrop{... */\n      mstore(0x40, 0x80)\n      jumpi(tag_1, lt(calldatasize, 0x04))\n      shr(0xe0, calldataload(0x00))\n      dup1\n      0x12d43a51\n      eq\n      tag_2\n      jumpi\n      dup1\n      0x677e88c3\n      eq\n      tag_3\n      jumpi\n      dup1\n      0xa3b86230\n      eq\n      tag_4\n      jumpi\n      dup1\n      0xcfad57a2\n      eq\n      tag_5\n      jumpi\n      dup1\n      0xfc0c546a\n      eq\n      tag_6\n      jumpi\n    tag_1:\n      0x00\n      dup1\n      revert\n        /* \"contracts/airdrop1.sol\":112:130  address public gov */\n    tag_2:\n      callvalue\n      dup1\n      iszero\n      tag_7\n      jumpi\n      0x00\n      dup1\n      revert\n    tag_7:\n      pop\n      tag_8\n      tag_9\n      jump\t// in\n    tag_8:\n      mload(0x40)\n      tag_10\n      swap2\n      swap1\n      tag_11\n      jump\t// in\n    tag_10:\n      mload(0x40)\n      dup1\n      swap2\n      sub\n      swap1\n      return\n        /* \"contracts/airdrop1.sol\":1349:1671  function airdropBNB(address[] memory recipients, uint256[] memory amounts) external payable onlyGov {... */\n    tag_3:\n      tag_12\n      0x04\n      dup1\n      calldatasize\n      sub\n      dup2\n      add\n      swap1\n      tag_13\n      swap2\n      swap1\n      tag_14\n      jump\t// in\n    tag_13:\n      tag_15\n      jump\t// in\n    tag_12:\n      stop\n        /* \"contracts/airdrop1.sol\":1042:1345  function airdropERC20(address[] memory recipients, uint256[] memory amounts) external onlyGov {... */\n    tag_4:\n      callvalue\n      dup1\n      iszero\n      tag_16\n      jumpi\n      0x00\n      dup1\n      revert\n    tag_16:\n      pop\n      tag_17\n      0x04\n      dup1\n      calldatasize\n      sub\n      dup2\n      add\n      swap1\n      tag_18\n      swap2\n      swap1\n      tag_14\n      jump\t// in\n    tag_18:\n      tag_19\n      jump\t// in\n    tag_17:\n      stop\n        /* \"contracts/airdrop1.sol\":869:1036  function setGov(address _newGov)public  onlyGov{... */\n    tag_5:\n      callvalue\n      dup1\n      iszero\n      tag_20\n      jumpi\n      0x00\n      dup1\n      revert\n    tag_20:\n      pop\n      tag_21\n      0x04\n      dup1\n      calldatasize\n      sub\n      dup2\n      add\n      swap1\n      tag_22\n      swap2\n      swap1\n      tag_23\n      jump\t// in\n    tag_22:\n      tag_24\n      jump\t// in\n    tag_21:\n      stop\n        /* \"contracts/airdrop1.sol\":184:204  MyToken public token */\n    tag_6:\n      callvalue\n      dup1\n      iszero\n      tag_25\n      jumpi\n      0x00\n      dup1\n      revert\n    tag_25:\n      pop\n      tag_26\n      tag_27\n      jump\t// in\n    tag_26:\n      mload(0x40)\n      tag_28\n      swap2\n      swap1\n      tag_29\n      jump\t// in\n    tag_28:\n      mload(0x40)\n      dup1\n      swap2\n      sub\n      swap1\n      return\n        /* \"contracts/airdrop1.sol\":112:130  address public gov */\n    tag_9:\n      0x00\n      dup1\n      sload\n      swap1\n      0x0100\n      exp\n      swap1\n      div\n      0xffffffffffffffffffffffffffffffffffffffff\n      and\n      dup2\n      jump\t// out\n        /* \"contracts/airdrop1.sol\":1349:1671  function airdropBNB(address[] memory recipients, uint256[] memory amounts) external payable onlyGov {... */\n    tag_15:\n        /* \"contracts/airdrop1.sol\":533:536  gov */\n      0x00\n      dup1\n      sload\n      swap1\n      0x0100\n      exp\n      swap1\n      div\n      0xffffffffffffffffffffffffffffffffffffffff\n      and\n        /* \"contracts/airdrop1.sol\":519:536  msg.sender == gov */\n      0xffffffffffffffffffffffffffffffffffffffff\n      and\n        /* \"contracts/airdrop1.sol\":519:529  msg.sender */\n      caller\n        /* \"contracts/airdrop1.sol\":519:536  msg.sender == gov */\n      0xffffffffffffffffffffffffffffffffffffffff\n      and\n      eq\n        /* \"contracts/airdrop1.sol\":511:572  require(msg.sender == gov, \"Airdrop: caller is not governor\") */\n      tag_31\n      jumpi\n      mload(0x40)\n      0x08c379a000000000000000000000000000000000000000000000000000000000\n      dup2\n      mstore\n      0x04\n      add\n      tag_32\n      swap1\n      tag_33\n      jump\t// in\n    tag_32:\n      mload(0x40)\n      dup1\n      swap2\n      sub\n      swap1\n      revert\n    tag_31:\n        /* \"contracts/airdrop1.sol\":1349:1671  function airdropBNB(address[] memory recipients, uint256[] memory amounts) external payable onlyGov {... */\n      pop\n      pop\n      jump\t// out\n        /* \"contracts/airdrop1.sol\":1042:1345  function airdropERC20(address[] memory recipients, uint256[] memory amounts) external onlyGov {... */\n    tag_19:\n        /* \"contracts/airdrop1.sol\":533:536  gov */\n      0x00\n      dup1\n      sload\n      swap1\n      0x0100\n      exp\n      swap1\n      div\n      0xffffffffffffffffffffffffffffffffffffffff\n      and\n        /* \"contracts/airdrop1.sol\":519:536  msg.sender == gov */\n      0xffffffffffffffffffffffffffffffffffffffff\n      and\n        /* \"contracts/airdrop1.sol\":519:529  msg.sender */\n      caller\n        /* \"contracts/airdrop1.sol\":519:536  msg.sender == gov */\n      0xffffffffffffffffffffffffffffffffffffffff\n      and\n      eq\n        /* \"contracts/airdrop1.sol\":511:572  require(msg.sender == gov, \"Airdrop: caller is not governor\") */\n      tag_36\n      jumpi\n      mload(0x40)\n      0x08c379a000000000000000000000000000000000000000000000000000000000\n      dup2\n      mstore\n      0x04\n      add\n      tag_37\n      swap1\n      tag_33\n      jump\t// in\n    tag_37:\n      mload(0x40)\n      dup1\n      swap2\n      sub\n      swap1\n      revert\n    tag_36:\n        /* \"contracts/airdrop1.sol\":1042:1345  function airdropERC20(address[] memory recipients, uint256[] memory amounts) external onlyGov {... */\n      pop\n      pop\n      jump\t// out\n        /* \"contracts/airdrop1.sol\":869:1036  function setGov(address _newGov)public  onlyGov{... */\n    tag_24:\n        /* \"contracts/airdrop1.sol\":533:536  gov */\n      0x00\n      dup1\n      sload\n      swap1\n      0x0100\n      exp\n      swap1\n      div\n      0xffffffffffffffffffffffffffffffffffffffff\n      and\n        /* \"contracts/airdrop1.sol\":519:536  msg.sender == gov */\n      0xffffffffffffffffffffffffffffffffffffffff\n      and\n        /* \"contracts/airdrop1.sol\":519:529  msg.sender */\n      caller\n        /* \"contracts/airdrop1.sol\":519:536  msg.sender == gov */\n      0xffffffffffffffffffffffffffffffffffffffff\n      and\n      eq\n        /* \"contracts/airdrop1.sol\":511:572  require(msg.sender == gov, \"Airdrop: caller is not governor\") */\n      tag_40\n      jumpi\n      mload(0x40)\n      0x08c379a000000000000000000000000000000000000000000000000000000000\n      dup2\n      mstore\n      0x04\n      add\n      tag_41\n      swap1\n      tag_33\n      jump\t// in\n    tag_41:\n      mload(0x40)\n      dup1\n      swap2\n      sub\n      swap1\n      revert\n    tag_40:\n        /* \"contracts/airdrop1.sol\":955:956  0 */\n      0x00\n        /* \"contracts/airdrop1.sol\":936:957  _newGov != address(0) */\n      0xffffffffffffffffffffffffffffffffffffffff\n      and\n        /* \"contracts/airdrop1.sol\":936:943  _newGov */\n      dup2\n        /* \"contracts/airdrop1.sol\":936:957  _newGov != address(0) */\n      0xffffffffffffffffffffffffffffffffffffffff\n      and\n      sub\n        /* \"contracts/airdrop1.sol\":928:994  require(_newGov != address(0), \"Airdrop: new gov is zero address\") */\n      tag_43\n      jumpi\n      mload(0x40)\n      0x08c379a000000000000000000000000000000000000000000000000000000000\n      dup2\n      mstore\n      0x04\n      add\n      tag_44\n      swap1\n      tag_45\n      jump\t// in\n    tag_44:\n      mload(0x40)\n      dup1\n      swap2\n      sub\n      swap1\n      revert\n    tag_43:\n        /* \"contracts/airdrop1.sol\":1011:1018  _newGov */\n      dup1\n        /* \"contracts/airdrop1.sol\":1005:1008  gov */\n      0x00\n      dup1\n        /* \"contracts/airdrop1.sol\":1005:1018  gov = _newGov */\n      0x0100\n      exp\n      dup2\n      sload\n      dup2\n      0xffffffffffffffffffffffffffffffffffffffff\n      mul\n      not\n      and\n      swap1\n      dup4\n      0xffffffffffffffffffffffffffffffffffffffff\n      and\n      mul\n      or\n      swap1\n      sstore\n      pop\n        /* \"contracts/airdrop1.sol\":869:1036  function setGov(address _newGov)public  onlyGov{... */\n      pop\n      jump\t// out\n        /* \"contracts/airdrop1.sol\":184:204  MyToken public token */\n    tag_27:\n      0x01\n      0x00\n      swap1\n      sload\n      swap1\n      0x0100\n      exp\n      swap1\n      div\n      0xffffffffffffffffffffffffffffffffffffffff\n      and\n      dup2\n      jump\t// out\n        /* \"#utility.yul\":7:133   */\n    tag_46:\n        /* \"#utility.yul\":44:51   */\n      0x00\n        /* \"#utility.yul\":84:126   */\n      0xffffffffffffffffffffffffffffffffffffffff\n        /* \"#utility.yul\":77:82   */\n      dup3\n        /* \"#utility.yul\":73:127   */\n      and\n        /* \"#utility.yul\":62:127   */\n      swap1\n      pop\n        /* \"#utility.yul\":7:133   */\n      swap2\n      swap1\n      pop\n      jump\t// out\n        /* \"#utility.yul\":139:235   */\n    tag_47:\n        /* \"#utility.yul\":176:183   */\n      0x00\n        /* \"#utility.yul\":205:229   */\n      tag_82\n        /* \"#utility.yul\":223:228   */\n      dup3\n        /* \"#utility.yul\":205:229   */\n      tag_46\n      jump\t// in\n    tag_82:\n        /* \"#utility.yul\":194:229   */\n      swap1\n      pop\n        /* \"#utility.yul\":139:235   */\n      swap2\n      swap1\n      pop\n      jump\t// out\n        /* \"#utility.yul\":241:359   */\n    tag_48:\n        /* \"#utility.yul\":328:352   */\n      tag_84\n        /* \"#utility.yul\":346:351   */\n      dup2\n        /* \"#utility.yul\":328:352   */\n      tag_47\n      jump\t// in\n    tag_84:\n        /* \"#utility.yul\":323:326   */\n      dup3\n        /* \"#utility.yul\":316:353   */\n      mstore\n        /* \"#utility.yul\":241:359   */\n      pop\n      pop\n      jump\t// out\n        /* \"#utility.yul\":365:587   */\n    tag_11:\n        /* \"#utility.yul\":458:462   */\n      0x00\n        /* \"#utility.yul\":496:498   */\n      0x20\n        /* \"#utility.yul\":485:494   */\n      dup3\n        /* \"#utility.yul\":481:499   */\n      add\n        /* \"#utility.yul\":473:499   */\n      swap1\n      pop\n        /* \"#utility.yul\":509:580   */\n      tag_86\n        /* \"#utility.yul\":577:578   */\n      0x00\n        /* \"#utility.yul\":566:575   */\n      dup4\n        /* \"#utility.yul\":562:579   */\n      add\n        /* \"#utility.yul\":553:559   */\n      dup5\n        /* \"#utility.yul\":509:580   */\n      tag_48\n      jump\t// in\n    tag_86:\n        /* \"#utility.yul\":365:587   */\n      swap3\n      swap2\n      pop\n      pop\n      jump\t// out\n        /* \"#utility.yul\":593:668   */\n    tag_49:\n        /* \"#utility.yul\":626:632   */\n      0x00\n        /* \"#utility.yul\":659:661   */\n      0x40\n        /* \"#utility.yul\":653:662   */\n      mload\n        /* \"#utility.yul\":643:662   */\n      swap1\n      pop\n        /* \"#utility.yul\":593:668   */\n      swap1\n      jump\t// out\n        /* \"#utility.yul\":674:791   */\n    tag_50:\n        /* \"#utility.yul\":783:784   */\n      0x00\n        /* \"#utility.yul\":780:781   */\n      dup1\n        /* \"#utility.yul\":773:785   */\n      revert\n        /* \"#utility.yul\":797:914   */\n    tag_51:\n        /* \"#utility.yul\":906:907   */\n      0x00\n        /* \"#utility.yul\":903:904   */\n      dup1\n        /* \"#utility.yul\":896:908   */\n      revert\n        /* \"#utility.yul\":920:1037   */\n    tag_52:\n        /* \"#utility.yul\":1029:1030   */\n      0x00\n        /* \"#utility.yul\":1026:1027   */\n      dup1\n        /* \"#utility.yul\":1019:1031   */\n      revert\n        /* \"#utility.yul\":1043:1145   */\n    tag_53:\n        /* \"#utility.yul\":1084:1090   */\n      0x00\n        /* \"#utility.yul\":1135:1137   */\n      0x1f\n        /* \"#utility.yul\":1131:1138   */\n      not\n        /* \"#utility.yul\":1126:1128   */\n      0x1f\n        /* \"#utility.yul\":1119:1124   */\n      dup4\n        /* \"#utility.yul\":1115:1129   */\n      add\n        /* \"#utility.yul\":1111:1139   */\n      and\n        /* \"#utility.yul\":1101:1139   */\n      swap1\n      pop\n        /* \"#utility.yul\":1043:1145   */\n      swap2\n      swap1\n      pop\n      jump\t// out\n        /* \"#utility.yul\":1151:1331   */\n    tag_54:\n        /* \"#utility.yul\":1199:1276   */\n      0x4e487b7100000000000000000000000000000000000000000000000000000000\n        /* \"#utility.yul\":1196:1197   */\n      0x00\n        /* \"#utility.yul\":1189:1277   */\n      mstore\n        /* \"#utility.yul\":1296:1300   */\n      0x41\n        /* \"#utility.yul\":1293:1294   */\n      0x04\n        /* \"#utility.yul\":1286:1301   */\n      mstore\n        /* \"#utility.yul\":1320:1324   */\n      0x24\n        /* \"#utility.yul\":1317:1318   */\n      0x00\n        /* \"#utility.yul\":1310:1325   */\n      revert\n        /* \"#utility.yul\":1337:1618   */\n    tag_55:\n        /* \"#utility.yul\":1420:1447   */\n      tag_94\n        /* \"#utility.yul\":1442:1446   */\n      dup3\n        /* \"#utility.yul\":1420:1447   */\n      tag_53\n      jump\t// in\n    tag_94:\n        /* \"#utility.yul\":1412:1418   */\n      dup2\n        /* \"#utility.yul\":1408:1448   */\n      add\n        /* \"#utility.yul\":1550:1556   */\n      dup2\n        /* \"#utility.yul\":1538:1548   */\n      dup2\n        /* \"#utility.yul\":1535:1557   */\n      lt\n        /* \"#utility.yul\":1514:1532   */\n      0xffffffffffffffff\n        /* \"#utility.yul\":1502:1512   */\n      dup3\n        /* \"#utility.yul\":1499:1533   */\n      gt\n        /* \"#utility.yul\":1496:1558   */\n      or\n        /* \"#utility.yul\":1493:1581   */\n      iszero\n      tag_95\n      jumpi\n        /* \"#utility.yul\":1561:1579   */\n      tag_96\n      tag_54\n      jump\t// in\n    tag_96:\n        /* \"#utility.yul\":1493:1581   */\n    tag_95:\n        /* \"#utility.yul\":1601:1611   */\n      dup1\n        /* \"#utility.yul\":1597:1599   */\n      0x40\n        /* \"#utility.yul\":1590:1612   */\n      mstore\n        /* \"#utility.yul\":1380:1618   */\n      pop\n        /* \"#utility.yul\":1337:1618   */\n      pop\n      pop\n      jump\t// out\n        /* \"#utility.yul\":1624:1753   */\n    tag_56:\n        /* \"#utility.yul\":1658:1664   */\n      0x00\n        /* \"#utility.yul\":1685:1705   */\n      tag_98\n      tag_49\n      jump\t// in\n    tag_98:\n        /* \"#utility.yul\":1675:1705   */\n      swap1\n      pop\n        /* \"#utility.yul\":1714:1747   */\n      tag_99\n        /* \"#utility.yul\":1742:1746   */\n      dup3\n        /* \"#utility.yul\":1734:1740   */\n      dup3\n        /* \"#utility.yul\":1714:1747   */\n      tag_55\n      jump\t// in\n    tag_99:\n        /* \"#utility.yul\":1624:1753   */\n      swap2\n      swap1\n      pop\n      jump\t// out\n        /* \"#utility.yul\":1759:2070   */\n    tag_57:\n        /* \"#utility.yul\":1836:1840   */\n      0x00\n        /* \"#utility.yul\":1926:1944   */\n      0xffffffffffffffff\n        /* \"#utility.yul\":1918:1924   */\n      dup3\n        /* \"#utility.yul\":1915:1945   */\n      gt\n        /* \"#utility.yul\":1912:1968   */\n      iszero\n      tag_101\n      jumpi\n        /* \"#utility.yul\":1948:1966   */\n      tag_102\n      tag_54\n      jump\t// in\n    tag_102:\n        /* \"#utility.yul\":1912:1968   */\n    tag_101:\n        /* \"#utility.yul\":1998:2002   */\n      0x20\n        /* \"#utility.yul\":1990:1996   */\n      dup3\n        /* \"#utility.yul\":1986:2003   */\n      mul\n        /* \"#utility.yul\":1978:2003   */\n      swap1\n      pop\n        /* \"#utility.yul\":2058:2062   */\n      0x20\n        /* \"#utility.yul\":2052:2056   */\n      dup2\n        /* \"#utility.yul\":2048:2063   */\n      add\n        /* \"#utility.yul\":2040:2063   */\n      swap1\n      pop\n        /* \"#utility.yul\":1759:2070   */\n      swap2\n      swap1\n      pop\n      jump\t// out\n        /* \"#utility.yul\":2076:2193   */\n    tag_58:\n        /* \"#utility.yul\":2185:2186   */\n      0x00\n        /* \"#utility.yul\":2182:2183   */\n      dup1\n        /* \"#utility.yul\":2175:2187   */\n      revert\n        /* \"#utility.yul\":2199:2321   */\n    tag_59:\n        /* \"#utility.yul\":2272:2296   */\n      tag_105\n        /* \"#utility.yul\":2290:2295   */\n      dup2\n        /* \"#utility.yul\":2272:2296   */\n      tag_47\n      jump\t// in\n    tag_105:\n        /* \"#utility.yul\":2265:2270   */\n      dup2\n        /* \"#utility.yul\":2262:2297   */\n      eq\n        /* \"#utility.yul\":2252:2315   */\n      tag_106\n      jumpi\n        /* \"#utility.yul\":2311:2312   */\n      0x00\n        /* \"#utility.yul\":2308:2309   */\n      dup1\n        /* \"#utility.yul\":2301:2313   */\n      revert\n        /* \"#utility.yul\":2252:2315   */\n    tag_106:\n        /* \"#utility.yul\":2199:2321   */\n      pop\n      jump\t// out\n        /* \"#utility.yul\":2327:2466   */\n    tag_60:\n        /* \"#utility.yul\":2373:2378   */\n      0x00\n        /* \"#utility.yul\":2411:2417   */\n      dup2\n        /* \"#utility.yul\":2398:2418   */\n      calldataload\n        /* \"#utility.yul\":2389:2418   */\n      swap1\n      pop\n        /* \"#utility.yul\":2427:2460   */\n      tag_108\n        /* \"#utility.yul\":2454:2459   */\n      dup2\n        /* \"#utility.yul\":2427:2460   */\n      tag_59\n      jump\t// in\n    tag_108:\n        /* \"#utility.yul\":2327:2466   */\n      swap3\n      swap2\n      pop\n      pop\n      jump\t// out\n        /* \"#utility.yul\":2489:3199   */\n    tag_61:\n        /* \"#utility.yul\":2585:2590   */\n      0x00\n        /* \"#utility.yul\":2610:2691   */\n      tag_110\n        /* \"#utility.yul\":2626:2690   */\n      tag_111\n        /* \"#utility.yul\":2683:2689   */\n      dup5\n        /* \"#utility.yul\":2626:2690   */\n      tag_57\n      jump\t// in\n    tag_111:\n        /* \"#utility.yul\":2610:2691   */\n      tag_56\n      jump\t// in\n    tag_110:\n        /* \"#utility.yul\":2601:2691   */\n      swap1\n      pop\n        /* \"#utility.yul\":2711:2716   */\n      dup1\n        /* \"#utility.yul\":2740:2746   */\n      dup4\n        /* \"#utility.yul\":2733:2738   */\n      dup3\n        /* \"#utility.yul\":2726:2747   */\n      mstore\n        /* \"#utility.yul\":2774:2778   */\n      0x20\n        /* \"#utility.yul\":2767:2772   */\n      dup3\n        /* \"#utility.yul\":2763:2779   */\n      add\n        /* \"#utility.yul\":2756:2779   */\n      swap1\n      pop\n        /* \"#utility.yul\":2827:2831   */\n      0x20\n        /* \"#utility.yul\":2819:2825   */\n      dup5\n        /* \"#utility.yul\":2815:2832   */\n      mul\n        /* \"#utility.yul\":2807:2813   */\n      dup4\n        /* \"#utility.yul\":2803:2833   */\n      add\n        /* \"#utility.yul\":2856:2859   */\n      dup6\n        /* \"#utility.yul\":2848:2854   */\n      dup2\n        /* \"#utility.yul\":2845:2860   */\n      gt\n        /* \"#utility.yul\":2842:2964   */\n      iszero\n      tag_112\n      jumpi\n        /* \"#utility.yul\":2875:2954   */\n      tag_113\n      tag_58\n      jump\t// in\n    tag_113:\n        /* \"#utility.yul\":2842:2964   */\n    tag_112:\n        /* \"#utility.yul\":2990:2996   */\n      dup4\n        /* \"#utility.yul\":2973:3193   */\n    tag_114:\n        /* \"#utility.yul\":3007:3013   */\n      dup2\n        /* \"#utility.yul\":3002:3005   */\n      dup2\n        /* \"#utility.yul\":2999:3014   */\n      lt\n        /* \"#utility.yul\":2973:3193   */\n      iszero\n      tag_116\n      jumpi\n        /* \"#utility.yul\":3082:3085   */\n      dup1\n        /* \"#utility.yul\":3111:3148   */\n      tag_117\n        /* \"#utility.yul\":3144:3147   */\n      dup9\n        /* \"#utility.yul\":3132:3142   */\n      dup3\n        /* \"#utility.yul\":3111:3148   */\n      tag_60\n      jump\t// in\n    tag_117:\n        /* \"#utility.yul\":3106:3109   */\n      dup5\n        /* \"#utility.yul\":3099:3149   */\n      mstore\n        /* \"#utility.yul\":3178:3182   */\n      0x20\n        /* \"#utility.yul\":3173:3176   */\n      dup5\n        /* \"#utility.yul\":3169:3183   */\n      add\n        /* \"#utility.yul\":3162:3183   */\n      swap4\n      pop\n        /* \"#utility.yul\":3049:3193   */\n      pop\n        /* \"#utility.yul\":3033:3037   */\n      0x20\n        /* \"#utility.yul\":3028:3031   */\n      dup2\n        /* \"#utility.yul\":3024:3038   */\n      add\n        /* \"#utility.yul\":3017:3038   */\n      swap1\n      pop\n        /* \"#utility.yul\":2973:3193   */\n      jump(tag_114)\n    tag_116:\n        /* \"#utility.yul\":2977:2998   */\n      pop\n        /* \"#utility.yul\":2591:3199   */\n      pop\n      pop\n        /* \"#utility.yul\":2489:3199   */\n      swap4\n      swap3\n      pop\n      pop\n      pop\n      jump\t// out\n        /* \"#utility.yul\":3222:3592   */\n    tag_62:\n        /* \"#utility.yul\":3293:3298   */\n      0x00\n        /* \"#utility.yul\":3342:3345   */\n      dup3\n        /* \"#utility.yul\":3335:3339   */\n      0x1f\n        /* \"#utility.yul\":3327:3333   */\n      dup4\n        /* \"#utility.yul\":3323:3340   */\n      add\n        /* \"#utility.yul\":3319:3346   */\n      slt\n        /* \"#utility.yul\":3309:3431   */\n      tag_119\n      jumpi\n        /* \"#utility.yul\":3350:3429   */\n      tag_120\n      tag_52\n      jump\t// in\n    tag_120:\n        /* \"#utility.yul\":3309:3431   */\n    tag_119:\n        /* \"#utility.yul\":3467:3473   */\n      dup2\n        /* \"#utility.yul\":3454:3474   */\n      calldataload\n        /* \"#utility.yul\":3492:3586   */\n      tag_121\n        /* \"#utility.yul\":3582:3585   */\n      dup5\n        /* \"#utility.yul\":3574:3580   */\n      dup3\n        /* \"#utility.yul\":3567:3571   */\n      0x20\n        /* \"#utility.yul\":3559:3565   */\n      dup7\n        /* \"#utility.yul\":3555:3572   */\n      add\n        /* \"#utility.yul\":3492:3586   */\n      tag_61\n      jump\t// in\n    tag_121:\n        /* \"#utility.yul\":3483:3586   */\n      swap2\n      pop\n        /* \"#utility.yul\":3299:3592   */\n      pop\n        /* \"#utility.yul\":3222:3592   */\n      swap3\n      swap2\n      pop\n      pop\n      jump\t// out\n        /* \"#utility.yul\":3598:3909   */\n    tag_63:\n        /* \"#utility.yul\":3675:3679   */\n      0x00\n        /* \"#utility.yul\":3765:3783   */\n      0xffffffffffffffff\n        /* \"#utility.yul\":3757:3763   */\n      dup3\n        /* \"#utility.yul\":3754:3784   */\n      gt\n        /* \"#utility.yul\":3751:3807   */\n      iszero\n      tag_123\n      jumpi\n        /* \"#utility.yul\":3787:3805   */\n      tag_124\n      tag_54\n      jump\t// in\n    tag_124:\n        /* \"#utility.yul\":3751:3807   */\n    tag_123:\n        /* \"#utility.yul\":3837:3841   */\n      0x20\n        /* \"#utility.yul\":3829:3835   */\n      dup3\n        /* \"#utility.yul\":3825:3842   */\n      mul\n        /* \"#utility.yul\":3817:3842   */\n      swap1\n      pop\n        /* \"#utility.yul\":3897:3901   */\n      0x20\n        /* \"#utility.yul\":3891:3895   */\n      dup2\n        /* \"#utility.yul\":3887:3902   */\n      add\n        /* \"#utility.yul\":3879:3902   */\n      swap1\n      pop\n        /* \"#utility.yul\":3598:3909   */\n      swap2\n      swap1\n      pop\n      jump\t// out\n        /* \"#utility.yul\":3915:3992   */\n    tag_64:\n        /* \"#utility.yul\":3952:3959   */\n      0x00\n        /* \"#utility.yul\":3981:3986   */\n      dup2\n        /* \"#utility.yul\":3970:3986   */\n      swap1\n      pop\n        /* \"#utility.yul\":3915:3992   */\n      swap2\n      swap1\n      pop\n      jump\t// out\n        /* \"#utility.yul\":3998:4120   */\n    tag_65:\n        /* \"#utility.yul\":4071:4095   */\n      tag_127\n        /* \"#utility.yul\":4089:4094   */\n      dup2\n        /* \"#utility.yul\":4071:4095   */\n      tag_64\n      jump\t// in\n    tag_127:\n        /* \"#utility.yul\":4064:4069   */\n      dup2\n        /* \"#utility.yul\":4061:4096   */\n      eq\n        /* \"#utility.yul\":4051:4114   */\n      tag_128\n      jumpi\n        /* \"#utility.yul\":4110:4111   */\n      0x00\n        /* \"#utility.yul\":4107:4108   */\n      dup1\n        /* \"#utility.yul\":4100:4112   */\n      revert\n        /* \"#utility.yul\":4051:4114   */\n    tag_128:\n        /* \"#utility.yul\":3998:4120   */\n      pop\n      jump\t// out\n        /* \"#utility.yul\":4126:4265   */\n    tag_66:\n        /* \"#utility.yul\":4172:4177   */\n      0x00\n        /* \"#utility.yul\":4210:4216   */\n      dup2\n        /* \"#utility.yul\":4197:4217   */\n      calldataload\n        /* \"#utility.yul\":4188:4217   */\n      swap1\n      pop\n        /* \"#utility.yul\":4226:4259   */\n      tag_130\n        /* \"#utility.yul\":4253:4258   */\n      dup2\n        /* \"#utility.yul\":4226:4259   */\n      tag_65\n      jump\t// in\n    tag_130:\n        /* \"#utility.yul\":4126:4265   */\n      swap3\n      swap2\n      pop\n      pop\n      jump\t// out\n        /* \"#utility.yul\":4288:4998   */\n    tag_67:\n        /* \"#utility.yul\":4384:4389   */\n      0x00\n        /* \"#utility.yul\":4409:4490   */\n      tag_132\n        /* \"#utility.yul\":4425:4489   */\n      tag_133\n        /* \"#utility.yul\":4482:4488   */\n      dup5\n        /* \"#utility.yul\":4425:4489   */\n      tag_63\n      jump\t// in\n    tag_133:\n        /* \"#utility.yul\":4409:4490   */\n      tag_56\n      jump\t// in\n    tag_132:\n        /* \"#utility.yul\":4400:4490   */\n      swap1\n      pop\n        /* \"#utility.yul\":4510:4515   */\n      dup1\n        /* \"#utility.yul\":4539:4545   */\n      dup4\n        /* \"#utility.yul\":4532:4537   */\n      dup3\n        /* \"#utility.yul\":4525:4546   */\n      mstore\n        /* \"#utility.yul\":4573:4577   */\n      0x20\n        /* \"#utility.yul\":4566:4571   */\n      dup3\n        /* \"#utility.yul\":4562:4578   */\n      add\n        /* \"#utility.yul\":4555:4578   */\n      swap1\n      pop\n        /* \"#utility.yul\":4626:4630   */\n      0x20\n        /* \"#utility.yul\":4618:4624   */\n      dup5\n        /* \"#utility.yul\":4614:4631   */\n      mul\n        /* \"#utility.yul\":4606:4612   */\n      dup4\n        /* \"#utility.yul\":4602:4632   */\n      add\n        /* \"#utility.yul\":4655:4658   */\n      dup6\n        /* \"#utility.yul\":4647:4653   */\n      dup2\n        /* \"#utility.yul\":4644:4659   */\n      gt\n        /* \"#utility.yul\":4641:4763   */\n      iszero\n      tag_134\n      jumpi\n        /* \"#utility.yul\":4674:4753   */\n      tag_135\n      tag_58\n      jump\t// in\n    tag_135:\n        /* \"#utility.yul\":4641:4763   */\n    tag_134:\n        /* \"#utility.yul\":4789:4795   */\n      dup4\n        /* \"#utility.yul\":4772:4992   */\n    tag_136:\n        /* \"#utility.yul\":4806:4812   */\n      dup2\n        /* \"#utility.yul\":4801:4804   */\n      dup2\n        /* \"#utility.yul\":4798:4813   */\n      lt\n        /* \"#utility.yul\":4772:4992   */\n      iszero\n      tag_138\n      jumpi\n        /* \"#utility.yul\":4881:4884   */\n      dup1\n        /* \"#utility.yul\":4910:4947   */\n      tag_139\n        /* \"#utility.yul\":4943:4946   */\n      dup9\n        /* \"#utility.yul\":4931:4941   */\n      dup3\n        /* \"#utility.yul\":4910:4947   */\n      tag_66\n      jump\t// in\n    tag_139:\n        /* \"#utility.yul\":4905:4908   */\n      dup5\n        /* \"#utility.yul\":4898:4948   */\n      mstore\n        /* \"#utility.yul\":4977:4981   */\n      0x20\n        /* \"#utility.yul\":4972:4975   */\n      dup5\n        /* \"#utility.yul\":4968:4982   */\n      add\n        /* \"#utility.yul\":4961:4982   */\n      swap4\n      pop\n        /* \"#utility.yul\":4848:4992   */\n      pop\n        /* \"#utility.yul\":4832:4836   */\n      0x20\n        /* \"#utility.yul\":4827:4830   */\n      dup2\n        /* \"#utility.yul\":4823:4837   */\n      add\n        /* \"#utility.yul\":4816:4837   */\n      swap1\n      pop\n        /* \"#utility.yul\":4772:4992   */\n      jump(tag_136)\n    tag_138:\n        /* \"#utility.yul\":4776:4797   */\n      pop\n        /* \"#utility.yul\":4390:4998   */\n      pop\n      pop\n        /* \"#utility.yul\":4288:4998   */\n      swap4\n      swap3\n      pop\n      pop\n      pop\n      jump\t// out\n        /* \"#utility.yul\":5021:5391   */\n    tag_68:\n        /* \"#utility.yul\":5092:5097   */\n      0x00\n        /* \"#utility.yul\":5141:5144   */\n      dup3\n        /* \"#utility.yul\":5134:5138   */\n      0x1f\n        /* \"#utility.yul\":5126:5132   */\n      dup4\n        /* \"#utility.yul\":5122:5139   */\n      add\n        /* \"#utility.yul\":5118:5145   */\n      slt\n        /* \"#utility.yul\":5108:5230   */\n      tag_141\n      jumpi\n        /* \"#utility.yul\":5149:5228   */\n      tag_142\n      tag_52\n      jump\t// in\n    tag_142:\n        /* \"#utility.yul\":5108:5230   */\n    tag_141:\n        /* \"#utility.yul\":5266:5272   */\n      dup2\n        /* \"#utility.yul\":5253:5273   */\n      calldataload\n        /* \"#utility.yul\":5291:5385   */\n      tag_143\n        /* \"#utility.yul\":5381:5384   */\n      dup5\n        /* \"#utility.yul\":5373:5379   */\n      dup3\n        /* \"#utility.yul\":5366:5370   */\n      0x20\n        /* \"#utility.yul\":5358:5364   */\n      dup7\n        /* \"#utility.yul\":5354:5371   */\n      add\n        /* \"#utility.yul\":5291:5385   */\n      tag_67\n      jump\t// in\n    tag_143:\n        /* \"#utility.yul\":5282:5385   */\n      swap2\n      pop\n        /* \"#utility.yul\":5098:5391   */\n      pop\n        /* \"#utility.yul\":5021:5391   */\n      swap3\n      swap2\n      pop\n      pop\n      jump\t// out\n        /* \"#utility.yul\":5397:6291   */\n    tag_14:\n        /* \"#utility.yul\":5515:5521   */\n      0x00\n        /* \"#utility.yul\":5523:5529   */\n      dup1\n        /* \"#utility.yul\":5572:5574   */\n      0x40\n        /* \"#utility.yul\":5560:5569   */\n      dup4\n        /* \"#utility.yul\":5551:5558   */\n      dup6\n        /* \"#utility.yul\":5547:5570   */\n      sub\n        /* \"#utility.yul\":5543:5575   */\n      slt\n        /* \"#utility.yul\":5540:5659   */\n      iszero\n      tag_145\n      jumpi\n        /* \"#utility.yul\":5578:5657   */\n      tag_146\n      tag_50\n      jump\t// in\n    tag_146:\n        /* \"#utility.yul\":5540:5659   */\n    tag_145:\n        /* \"#utility.yul\":5726:5727   */\n      0x00\n        /* \"#utility.yul\":5715:5724   */\n      dup4\n        /* \"#utility.yul\":5711:5728   */\n      add\n        /* \"#utility.yul\":5698:5729   */\n      calldataload\n        /* \"#utility.yul\":5756:5774   */\n      0xffffffffffffffff\n        /* \"#utility.yul\":5748:5754   */\n      dup2\n        /* \"#utility.yul\":5745:5775   */\n      gt\n        /* \"#utility.yul\":5742:5859   */\n      iszero\n      tag_147\n      jumpi\n        /* \"#utility.yul\":5778:5857   */\n      tag_148\n      tag_51\n      jump\t// in\n    tag_148:\n        /* \"#utility.yul\":5742:5859   */\n    tag_147:\n        /* \"#utility.yul\":5883:5961   */\n      tag_149\n        /* \"#utility.yul\":5953:5960   */\n      dup6\n        /* \"#utility.yul\":5944:5950   */\n      dup3\n        /* \"#utility.yul\":5933:5942   */\n      dup7\n        /* \"#utility.yul\":5929:5951   */\n      add\n        /* \"#utility.yul\":5883:5961   */\n      tag_62\n      jump\t// in\n    tag_149:\n        /* \"#utility.yul\":5873:5961   */\n      swap3\n      pop\n        /* \"#utility.yul\":5669:5971   */\n      pop\n        /* \"#utility.yul\":6038:6040   */\n      0x20\n        /* \"#utility.yul\":6027:6036   */\n      dup4\n        /* \"#utility.yul\":6023:6041   */\n      add\n        /* \"#utility.yul\":6010:6042   */\n      calldataload\n        /* \"#utility.yul\":6069:6087   */\n      0xffffffffffffffff\n        /* \"#utility.yul\":6061:6067   */\n      dup2\n        /* \"#utility.yul\":6058:6088   */\n      gt\n        /* \"#utility.yul\":6055:6172   */\n      iszero\n      tag_150\n      jumpi\n        /* \"#utility.yul\":6091:6170   */\n      tag_151\n      tag_51\n      jump\t// in\n    tag_151:\n        /* \"#utility.yul\":6055:6172   */\n    tag_150:\n        /* \"#utility.yul\":6196:6274   */\n      tag_152\n        /* \"#utility.yul\":6266:6273   */\n      dup6\n        /* \"#utility.yul\":6257:6263   */\n      dup3\n        /* \"#utility.yul\":6246:6255   */\n      dup7\n        /* \"#utility.yul\":6242:6264   */\n      add\n        /* \"#utility.yul\":6196:6274   */\n      tag_68\n      jump\t// in\n    tag_152:\n        /* \"#utility.yul\":6186:6274   */\n      swap2\n      pop\n        /* \"#utility.yul\":5981:6284   */\n      pop\n        /* \"#utility.yul\":5397:6291   */\n      swap3\n      pop\n      swap3\n      swap1\n      pop\n      jump\t// out\n        /* \"#utility.yul\":6297:6626   */\n    tag_23:\n        /* \"#utility.yul\":6356:6362   */\n      0x00\n        /* \"#utility.yul\":6405:6407   */\n      0x20\n        /* \"#utility.yul\":6393:6402   */\n      dup3\n        /* \"#utility.yul\":6384:6391   */\n      dup5\n        /* \"#utility.yul\":6380:6403   */\n      sub\n        /* \"#utility.yul\":6376:6408   */\n      slt\n        /* \"#utility.yul\":6373:6492   */\n      iszero\n      tag_154\n      jumpi\n        /* \"#utility.yul\":6411:6490   */\n      tag_155\n      tag_50\n      jump\t// in\n    tag_155:\n        /* \"#utility.yul\":6373:6492   */\n    tag_154:\n        /* \"#utility.yul\":6531:6532   */\n      0x00\n        /* \"#utility.yul\":6556:6609   */\n      tag_156\n        /* \"#utility.yul\":6601:6608   */\n      dup5\n        /* \"#utility.yul\":6592:6598   */\n      dup3\n        /* \"#utility.yul\":6581:6590   */\n      dup6\n        /* \"#utility.yul\":6577:6599   */\n      add\n        /* \"#utility.yul\":6556:6609   */\n      tag_60\n      jump\t// in\n    tag_156:\n        /* \"#utility.yul\":6546:6609   */\n      swap2\n      pop\n        /* \"#utility.yul\":6502:6619   */\n      pop\n        /* \"#utility.yul\":6297:6626   */\n      swap3\n      swap2\n      pop\n      pop\n      jump\t// out\n        /* \"#utility.yul\":6632:6692   */\n    tag_69:\n        /* \"#utility.yul\":6660:6663   */\n      0x00\n        /* \"#utility.yul\":6681:6686   */\n      dup2\n        /* \"#utility.yul\":6674:6686   */\n      swap1\n      pop\n        /* \"#utility.yul\":6632:6692   */\n      swap2\n      swap1\n      pop\n      jump\t// out\n        /* \"#utility.yul\":6698:6840   */\n    tag_70:\n        /* \"#utility.yul\":6748:6757   */\n      0x00\n        /* \"#utility.yul\":6781:6834   */\n      tag_159\n        /* \"#utility.yul\":6799:6833   */\n      tag_160\n        /* \"#utility.yul\":6808:6832   */\n      tag_161\n        /* \"#utility.yul\":6826:6831   */\n      dup5\n        /* \"#utility.yul\":6808:6832   */\n      tag_46\n      jump\t// in\n    tag_161:\n        /* \"#utility.yul\":6799:6833   */\n      tag_69\n      jump\t// in\n    tag_160:\n        /* \"#utility.yul\":6781:6834   */\n      tag_46\n      jump\t// in\n    tag_159:\n        /* \"#utility.yul\":6768:6834   */\n      swap1\n      pop\n        /* \"#utility.yul\":6698:6840   */\n      swap2\n      swap1\n      pop\n      jump\t// out\n        /* \"#utility.yul\":6846:6972   */\n    tag_71:\n        /* \"#utility.yul\":6896:6905   */\n      0x00\n        /* \"#utility.yul\":6929:6966   */\n      tag_163\n        /* \"#utility.yul\":6960:6965   */\n      dup3\n        /* \"#utility.yul\":6929:6966   */\n      tag_70\n      jump\t// in\n    tag_163:\n        /* \"#utility.yul\":6916:6966   */\n      swap1\n      pop\n        /* \"#utility.yul\":6846:6972   */\n      swap2\n      swap1\n      pop\n      jump\t// out\n        /* \"#utility.yul\":6978:7119   */\n    tag_72:\n        /* \"#utility.yul\":7043:7052   */\n      0x00\n        /* \"#utility.yul\":7076:7113   */\n      tag_165\n        /* \"#utility.yul\":7107:7112   */\n      dup3\n        /* \"#utility.yul\":7076:7113   */\n      tag_71\n      jump\t// in\n    tag_165:\n        /* \"#utility.yul\":7063:7113   */\n      swap1\n      pop\n        /* \"#utility.yul\":6978:7119   */\n      swap2\n      swap1\n      pop\n      jump\t// out\n        /* \"#utility.yul\":7125:7286   */\n    tag_73:\n        /* \"#utility.yul\":7227:7279   */\n      tag_167\n        /* \"#utility.yul\":7273:7278   */\n      dup2\n        /* \"#utility.yul\":7227:7279   */\n      tag_72\n      jump\t// in\n    tag_167:\n        /* \"#utility.yul\":7222:7225   */\n      dup3\n        /* \"#utility.yul\":7215:7280   */\n      mstore\n        /* \"#utility.yul\":7125:7286   */\n      pop\n      pop\n      jump\t// out\n        /* \"#utility.yul\":7292:7544   */\n    tag_29:\n        /* \"#utility.yul\":7400:7404   */\n      0x00\n        /* \"#utility.yul\":7438:7440   */\n      0x20\n        /* \"#utility.yul\":7427:7436   */\n      dup3\n        /* \"#utility.yul\":7423:7441   */\n      add\n        /* \"#utility.yul\":7415:7441   */\n      swap1\n      pop\n        /* \"#utility.yul\":7451:7537   */\n      tag_169\n        /* \"#utility.yul\":7534:7535   */\n      0x00\n        /* \"#utility.yul\":7523:7532   */\n      dup4\n        /* \"#utility.yul\":7519:7536   */\n      add\n        /* \"#utility.yul\":7510:7516   */\n      dup5\n        /* \"#utility.yul\":7451:7537   */\n      tag_73\n      jump\t// in\n    tag_169:\n        /* \"#utility.yul\":7292:7544   */\n      swap3\n      swap2\n      pop\n      pop\n      jump\t// out\n        /* \"#utility.yul\":7550:7719   */\n    tag_74:\n        /* \"#utility.yul\":7634:7645   */\n      0x00\n        /* \"#utility.yul\":7668:7674   */\n      dup3\n        /* \"#utility.yul\":7663:7666   */\n      dup3\n        /* \"#utility.yul\":7656:7675   */\n      mstore\n        /* \"#utility.yul\":7708:7712   */\n      0x20\n        /* \"#utility.yul\":7703:7706   */\n      dup3\n        /* \"#utility.yul\":7699:7713   */\n      add\n        /* \"#utility.yul\":7684:7713   */\n      swap1\n      pop\n        /* \"#utility.yul\":7550:7719   */\n      swap3\n      swap2\n      pop\n      pop\n      jump\t// out\n        /* \"#utility.yul\":7725:7906   */\n    tag_75:\n        /* \"#utility.yul\":7865:7898   */\n      0x41697264726f703a2063616c6c6572206973206e6f7420676f7665726e6f7200\n        /* \"#utility.yul\":7861:7862   */\n      0x00\n        /* \"#utility.yul\":7853:7859   */\n      dup3\n        /* \"#utility.yul\":7849:7863   */\n      add\n        /* \"#utility.yul\":7842:7899   */\n      mstore\n        /* \"#utility.yul\":7725:7906   */\n      pop\n      jump\t// out\n        /* \"#utility.yul\":7912:8278   */\n    tag_76:\n        /* \"#utility.yul\":8054:8057   */\n      0x00\n        /* \"#utility.yul\":8075:8142   */\n      tag_173\n        /* \"#utility.yul\":8139:8141   */\n      0x1f\n        /* \"#utility.yul\":8134:8137   */\n      dup4\n        /* \"#utility.yul\":8075:8142   */\n      tag_74\n      jump\t// in\n    tag_173:\n        /* \"#utility.yul\":8068:8142   */\n      swap2\n      pop\n        /* \"#utility.yul\":8151:8244   */\n      tag_174\n        /* \"#utility.yul\":8240:8243   */\n      dup3\n        /* \"#utility.yul\":8151:8244   */\n      tag_75\n      jump\t// in\n    tag_174:\n        /* \"#utility.yul\":8269:8271   */\n      0x20\n        /* \"#utility.yul\":8264:8267   */\n      dup3\n        /* \"#utility.yul\":8260:8272   */\n      add\n        /* \"#utility.yul\":8253:8272   */\n      swap1\n      pop\n        /* \"#utility.yul\":7912:8278   */\n      swap2\n      swap1\n      pop\n      jump\t// out\n        /* \"#utility.yul\":8284:8703   */\n    tag_33:\n        /* \"#utility.yul\":8450:8454   */\n      0x00\n        /* \"#utility.yul\":8488:8490   */\n      0x20\n        /* \"#utility.yul\":8477:8486   */\n      dup3\n        /* \"#utility.yul\":8473:8491   */\n      add\n        /* \"#utility.yul\":8465:8491   */\n      swap1\n      pop\n        /* \"#utility.yul\":8537:8546   */\n      dup2\n        /* \"#utility.yul\":8531:8535   */\n      dup2\n        /* \"#utility.yul\":8527:8547   */\n      sub\n        /* \"#utility.yul\":8523:8524   */\n      0x00\n        /* \"#utility.yul\":8512:8521   */\n      dup4\n        /* \"#utility.yul\":8508:8525   */\n      add\n        /* \"#utility.yul\":8501:8548   */\n      mstore\n        /* \"#utility.yul\":8565:8696   */\n      tag_176\n        /* \"#utility.yul\":8691:8695   */\n      dup2\n        /* \"#utility.yul\":8565:8696   */\n      tag_76\n      jump\t// in\n    tag_176:\n        /* \"#utility.yul\":8557:8696   */\n      swap1\n      pop\n        /* \"#utility.yul\":8284:8703   */\n      swap2\n      swap1\n      pop\n      jump\t// out\n        /* \"#utility.yul\":8709:8891   */\n    tag_77:\n        /* \"#utility.yul\":8849:8883   */\n      0x41697264726f703a206e657720676f76206973207a65726f2061646472657373\n        /* \"#utility.yul\":8845:8846   */\n      0x00\n        /* \"#utility.yul\":8837:8843   */\n      dup3\n        /* \"#utility.yul\":8833:8847   */\n      add\n        /* \"#utility.yul\":8826:8884   */\n      mstore\n        /* \"#utility.yul\":8709:8891   */\n      pop\n      jump\t// out\n        /* \"#utility.yul\":8897:9263   */\n    tag_78:\n        /* \"#utility.yul\":9039:9042   */\n      0x00\n        /* \"#utility.yul\":9060:9127   */\n      tag_179\n        /* \"#utility.yul\":9124:9126   */\n      0x20\n        /* \"#utility.yul\":9119:9122   */\n      dup4\n        /* \"#utility.yul\":9060:9127   */\n      tag_74\n      jump\t// in\n    tag_179:\n        /* \"#utility.yul\":9053:9127   */\n      swap2\n      pop\n        /* \"#utility.yul\":9136:9229   */\n      tag_180\n        /* \"#utility.yul\":9225:9228   */\n      dup3\n        /* \"#utility.yul\":9136:9229   */\n      tag_77\n      jump\t// in\n    tag_180:\n        /* \"#utility.yul\":9254:9256   */\n      0x20\n        /* \"#utility.yul\":9249:9252   */\n      dup3\n        /* \"#utility.yul\":9245:9257   */\n      add\n        /* \"#utility.yul\":9238:9257   */\n      swap1\n      pop\n        /* \"#utility.yul\":8897:9263   */\n      swap2\n      swap1\n      pop\n      jump\t// out\n        /* \"#utility.yul\":9269:9688   */\n    tag_45:\n        /* \"#utility.yul\":9435:9439   */\n      0x00\n        /* \"#utility.yul\":9473:9475   */\n      0x20\n        /* \"#utility.yul\":9462:9471   */\n      dup3\n        /* \"#utility.yul\":9458:9476   */\n      add\n        /* \"#utility.yul\":9450:9476   */\n      swap1\n      pop\n        /* \"#utility.yul\":9522:9531   */\n      dup2\n        /* \"#utility.yul\":9516:9520   */\n      dup2\n        /* \"#utility.yul\":9512:9532   */\n      sub\n        /* \"#utility.yul\":9508:9509   */\n      0x00\n        /* \"#utility.yul\":9497:9506   */\n      dup4\n        /* \"#utility.yul\":9493:9510   */\n      add\n        /* \"#utility.yul\":9486:9533   */\n      mstore\n        /* \"#utility.yul\":9550:9681   */\n      tag_182\n        /* \"#utility.yul\":9676:9680   */\n      dup2\n        /* \"#utility.yul\":9550:9681   */\n      tag_78\n      jump\t// in\n    tag_182:\n        /* \"#utility.yul\":9542:9681   */\n      swap1\n      pop\n        /* \"#utility.yul\":9269:9688   */\n      swap2\n      swap1\n      pop\n      jump\t// out\n\n    auxdata: 0xa2646970667358221220cf9cc05d11731822a39083a364fb5b4354f1b51a6dd5d43c52448597bd595b6d64736f6c63430008140033\n}\n",
				"bytecode": {
					"linkReferences": {},
					"object": "608060405234801561000f575f80fd5b50604051610a01380380610a0183398181016040528101906100319190610114565b335f806101000a81548173ffffffffffffffffffffffffffffffffffffffff021916908373ffffffffffffffffffffffffffffffffffffffff1602179055508060015f6101000a81548173ffffffffffffffffffffffffffffffffffffffff021916908373ffffffffffffffffffffffffffffffffffffffff1602179055505061013f565b5f80fd5b5f73ffffffffffffffffffffffffffffffffffffffff82169050919050565b5f6100e3826100ba565b9050919050565b6100f3816100d9565b81146100fd575f80fd5b50565b5f8151905061010e816100ea565b92915050565b5f60208284031215610129576101286100b6565b5b5f61013684828501610100565b91505092915050565b6108b58061014c5f395ff3fe608060405260043610610049575f3560e01c806312d43a511461004d578063677e88c314610077578063a3b8623014610093578063cfad57a2146100bb578063fc0c546a146100e3575b5f80fd5b348015610058575f80fd5b5061006161010d565b60405161006e91906103f3565b60405180910390f35b610091600480360381019061008c919061068a565b610130565b005b34801561009e575f80fd5b506100b960048036038101906100b4919061068a565b6101c1565b005b3480156100c6575f80fd5b506100e160048036038101906100dc9190610700565b610252565b005b3480156100ee575f80fd5b506100f761038f565b6040516101049190610786565b60405180910390f35b5f8054906101000a900473ffffffffffffffffffffffffffffffffffffffff1681565b5f8054906101000a900473ffffffffffffffffffffffffffffffffffffffff1673ffffffffffffffffffffffffffffffffffffffff163373ffffffffffffffffffffffffffffffffffffffff16146101bd576040517f08c379a00000000000000000000000000000000000000000000000000000000081526004016101b4906107f9565b60405180910390fd5b5050565b5f8054906101000a900473ffffffffffffffffffffffffffffffffffffffff1673ffffffffffffffffffffffffffffffffffffffff163373ffffffffffffffffffffffffffffffffffffffff161461024e576040517f08c379a0000000000000000000000000000000000000000000000000000000008152600401610245906107f9565b60405180910390fd5b5050565b5f8054906101000a900473ffffffffffffffffffffffffffffffffffffffff1673ffffffffffffffffffffffffffffffffffffffff163373ffffffffffffffffffffffffffffffffffffffff16146102df576040517f08c379a00000000000000000000000000000000000000000000000000000000081526004016102d6906107f9565b60405180910390fd5b5f73ffffffffffffffffffffffffffffffffffffffff168173ffffffffffffffffffffffffffffffffffffffff160361034d576040517f08c379a000000000000000000000000000000000000000000000000000000000815260040161034490610861565b60405180910390fd5b805f806101000a81548173ffffffffffffffffffffffffffffffffffffffff021916908373ffffffffffffffffffffffffffffffffffffffff16021790555050565b60015f9054906101000a900473ffffffffffffffffffffffffffffffffffffffff1681565b5f73ffffffffffffffffffffffffffffffffffffffff82169050919050565b5f6103dd826103b4565b9050919050565b6103ed816103d3565b82525050565b5f6020820190506104065f8301846103e4565b92915050565b5f604051905090565b5f80fd5b5f80fd5b5f80fd5b5f601f19601f8301169050919050565b7f4e487b71000000000000000000000000000000000000000000000000000000005f52604160045260245ffd5b61046782610421565b810181811067ffffffffffffffff8211171561048657610485610431565b5b80604052505050565b5f61049861040c565b90506104a4828261045e565b919050565b5f67ffffffffffffffff8211156104c3576104c2610431565b5b602082029050602081019050919050565b5f80fd5b6104e1816103d3565b81146104eb575f80fd5b50565b5f813590506104fc816104d8565b92915050565b5f61051461050f846104a9565b61048f565b90508083825260208201905060208402830185811115610537576105366104d4565b5b835b81811015610560578061054c88826104ee565b845260208401935050602081019050610539565b5050509392505050565b5f82601f83011261057e5761057d61041d565b5b813561058e848260208601610502565b91505092915050565b5f67ffffffffffffffff8211156105b1576105b0610431565b5b602082029050602081019050919050565b5f819050919050565b6105d4816105c2565b81146105de575f80fd5b50565b5f813590506105ef816105cb565b92915050565b5f61060761060284610597565b61048f565b9050808382526020820190506020840283018581111561062a576106296104d4565b5b835b81811015610653578061063f88826105e1565b84526020840193505060208101905061062c565b5050509392505050565b5f82601f8301126106715761067061041d565b5b81356106818482602086016105f5565b91505092915050565b5f80604083850312156106a05761069f610415565b5b5f83013567ffffffffffffffff8111156106bd576106bc610419565b5b6106c98582860161056a565b925050602083013567ffffffffffffffff8111156106ea576106e9610419565b5b6106f68582860161065d565b9150509250929050565b5f6020828403121561071557610714610415565b5b5f610722848285016104ee565b91505092915050565b5f819050919050565b5f61074e610749610744846103b4565b61072b565b6103b4565b9050919050565b5f61075f82610734565b9050919050565b5f61077082610755565b9050919050565b61078081610766565b82525050565b5f6020820190506107995f830184610777565b92915050565b5f82825260208201905092915050565b7f41697264726f703a2063616c6c6572206973206e6f7420676f7665726e6f72005f82015250565b5f6107e3601f8361079f565b91506107ee826107af565b602082019050919050565b5f6020820190508181035f830152610810816107d7565b9050919050565b7f41697264726f703a206e657720676f76206973207a65726f20616464726573735f82015250565b5f61084b60208361079f565b915061085682610817565b602082019050919050565b5f6020820190508181035f8301526108788161083f565b905091905056fea2646970667358221220cf9cc05d11731822a39083a364fb5b4354f1b51a6dd5d43c52448597bd595b6d64736f6c63430008140033",
					"opcodes": "PUSH1 0x80 PUSH1 0x40 MSTORE CALLVALUE DUP1 ISZERO PUSH2 0xF JUMPI PUSH0 DUP1 REVERT JUMPDEST POP PUSH1 0x40 MLOAD PUSH2 0xA01 CODESIZE SUB DUP1 PUSH2 0xA01 DUP4 CODECOPY DUP2 DUP2 ADD PUSH1 0x40 MSTORE DUP2 ADD SWAP1 PUSH2 0x31 SWAP2 SWAP1 PUSH2 0x114 JUMP JUMPDEST CALLER PUSH0 DUP1 PUSH2 0x100 EXP DUP2 SLOAD DUP2 PUSH20 0xFFFFFFFFFFFFFFFFFFFFFFFFFFFFFFFFFFFFFFFF MUL NOT AND SWAP1 DUP4 PUSH20 0xFFFFFFFFFFFFFFFFFFFFFFFFFFFFFFFFFFFFFFFF AND MUL OR SWAP1 SSTORE POP DUP1 PUSH1 0x1 PUSH0 PUSH2 0x100 EXP DUP2 SLOAD DUP2 PUSH20 0xFFFFFFFFFFFFFFFFFFFFFFFFFFFFFFFFFFFFFFFF MUL NOT AND SWAP1 DUP4 PUSH20 0xFFFFFFFFFFFFFFFFFFFFFFFFFFFFFFFFFFFFFFFF AND MUL OR SWAP1 SSTORE POP POP PUSH2 0x13F JUMP JUMPDEST PUSH0 DUP1 REVERT JUMPDEST PUSH0 PUSH20 0xFFFFFFFFFFFFFFFFFFFFFFFFFFFFFFFFFFFFFFFF DUP3 AND SWAP1 POP SWAP2 SWAP1 POP JUMP JUMPDEST PUSH0 PUSH2 0xE3 DUP3 PUSH2 0xBA JUMP JUMPDEST SWAP1 POP SWAP2 SWAP1 POP JUMP JUMPDEST PUSH2 0xF3 DUP2 PUSH2 0xD9 JUMP JUMPDEST DUP2 EQ PUSH2 0xFD JUMPI PUSH0 DUP1 REVERT JUMPDEST POP JUMP JUMPDEST PUSH0 DUP2 MLOAD SWAP1 POP PUSH2 0x10E DUP2 PUSH2 0xEA JUMP JUMPDEST SWAP3 SWAP2 POP POP JUMP JUMPDEST PUSH0 PUSH1 0x20 DUP3 DUP5 SUB SLT ISZERO PUSH2 0x129 JUMPI PUSH2 0x128 PUSH2 0xB6 JUMP JUMPDEST JUMPDEST PUSH0 PUSH2 0x136 DUP5 DUP3 DUP6 ADD PUSH2 0x100 JUMP JUMPDEST SWAP2 POP POP SWAP3 SWAP2 POP POP JUMP JUMPDEST PUSH2 0x8B5 DUP1 PUSH2 0x14C PUSH0 CODECOPY PUSH0 RETURN INVALID PUSH1 0x80 PUSH1 0x40 MSTORE PUSH1 0x4 CALLDATASIZE LT PUSH2 0x49 JUMPI PUSH0 CALLDATALOAD PUSH1 0xE0 SHR DUP1 PUSH4 0x12D43A51 EQ PUSH2 0x4D JUMPI DUP1 PUSH4 0x677E88C3 EQ PUSH2 0x77 JUMPI DUP1 PUSH4 0xA3B86230 EQ PUSH2 0x93 JUMPI DUP1 PUSH4 0xCFAD57A2 EQ PUSH2 0xBB JUMPI DUP1 PUSH4 0xFC0C546A EQ PUSH2 0xE3 JUMPI JUMPDEST PUSH0 DUP1 REVERT JUMPDEST CALLVALUE DUP1 ISZERO PUSH2 0x58 JUMPI PUSH0 DUP1 REVERT JUMPDEST POP PUSH2 0x61 PUSH2 0x10D JUMP JUMPDEST PUSH1 0x40 MLOAD PUSH2 0x6E SWAP2 SWAP1 PUSH2 0x3F3 JUMP JUMPDEST PUSH1 0x40 MLOAD DUP1 SWAP2 SUB SWAP1 RETURN JUMPDEST PUSH2 0x91 PUSH1 0x4 DUP1 CALLDATASIZE SUB DUP2 ADD SWAP1 PUSH2 0x8C SWAP2 SWAP1 PUSH2 0x68A JUMP JUMPDEST PUSH2 0x130 JUMP JUMPDEST STOP JUMPDEST CALLVALUE DUP1 ISZERO PUSH2 0x9E JUMPI PUSH0 DUP1 REVERT JUMPDEST POP PUSH2 0xB9 PUSH1 0x4 DUP1 CALLDATASIZE SUB DUP2 ADD SWAP1 PUSH2 0xB4 SWAP2 SWAP1 PUSH2 0x68A JUMP JUMPDEST PUSH2 0x1C1 JUMP JUMPDEST STOP JUMPDEST CALLVALUE DUP1 ISZERO PUSH2 0xC6 JUMPI PUSH0 DUP1 REVERT JUMPDEST POP PUSH2 0xE1 PUSH1 0x4 DUP1 CALLDATASIZE SUB DUP2 ADD SWAP1 PUSH2 0xDC SWAP2 SWAP1 PUSH2 0x700 JUMP JUMPDEST PUSH2 0x252 JUMP JUMPDEST STOP JUMPDEST CALLVALUE DUP1 ISZERO PUSH2 0xEE JUMPI PUSH0 DUP1 REVERT JUMPDEST POP PUSH2 0xF7 PUSH2 0x38F JUMP JUMPDEST PUSH1 0x40 MLOAD PUSH2 0x104 SWAP2 SWAP1 PUSH2 0x786 JUMP JUMPDEST PUSH1 0x40 MLOAD DUP1 SWAP2 SUB SWAP1 RETURN JUMPDEST PUSH0 DUP1 SLOAD SWAP1 PUSH2 0x100 EXP SWAP1 DIV PUSH20 0xFFFFFFFFFFFFFFFFFFFFFFFFFFFFFFFFFFFFFFFF AND DUP2 JUMP JUMPDEST PUSH0 DUP1 SLOAD SWAP1 PUSH2 0x100 EXP SWAP1 DIV PUSH20 0xFFFFFFFFFFFFFFFFFFFFFFFFFFFFFFFFFFFFFFFF AND PUSH20 0xFFFFFFFFFFFFFFFFFFFFFFFFFFFFFFFFFFFFFFFF AND CALLER PUSH20 0xFFFFFFFFFFFFFFFFFFFFFFFFFFFFFFFFFFFFFFFF AND EQ PUSH2 0x1BD JUMPI PUSH1 0x40 MLOAD PUSH32 0x8C379A000000000000000000000000000000000000000000000000000000000 DUP2 MSTORE PUSH1 0x4 ADD PUSH2 0x1B4 SWAP1 PUSH2 0x7F9 JUMP JUMPDEST PUSH1 0x40 MLOAD DUP1 SWAP2 SUB SWAP1 REVERT JUMPDEST POP POP JUMP JUMPDEST PUSH0 DUP1 SLOAD SWAP1 PUSH2 0x100 EXP SWAP1 DIV PUSH20 0xFFFFFFFFFFFFFFFFFFFFFFFFFFFFFFFFFFFFFFFF AND PUSH20 0xFFFFFFFFFFFFFFFFFFFFFFFFFFFFFFFFFFFFFFFF AND CALLER PUSH20 0xFFFFFFFFFFFFFFFFFFFFFFFFFFFFFFFFFFFFFFFF AND EQ PUSH2 0x24E JUMPI PUSH1 0x40 MLOAD PUSH32 0x8C379A000000000000000000000000000000000000000000000000000000000 DUP2 MSTORE PUSH1 0x4 ADD PUSH2 0x245 SWAP1 PUSH2 0x7F9 JUMP JUMPDEST PUSH1 0x40 MLOAD DUP1 SWAP2 SUB SWAP1 REVERT JUMPDEST POP POP JUMP JUMPDEST PUSH0 DUP1 SLOAD SWAP1 PUSH2 0x100 EXP SWAP1 DIV PUSH20 0xFFFFFFFFFFFFFFFFFFFFFFFFFFFFFFFFFFFFFFFF AND PUSH20 0xFFFFFFFFFFFFFFFFFFFFFFFFFFFFFFFFFFFFFFFF AND CALLER PUSH20 0xFFFFFFFFFFFFFFFFFFFFFFFFFFFFFFFFFFFFFFFF AND EQ PUSH2 0x2DF JUMPI PUSH1 0x40 MLOAD PUSH32 0x8C379A000000000000000000000000000000000000000000000000000000000 DUP2 MSTORE PUSH1 0x4 ADD PUSH2 0x2D6 SWAP1 PUSH2 0x7F9 JUMP JUMPDEST PUSH1 0x40 MLOAD DUP1 SWAP2 SUB SWAP1 REVERT JUMPDEST PUSH0 PUSH20 0xFFFFFFFFFFFFFFFFFFFFFFFFFFFFFFFFFFFFFFFF AND DUP2 PUSH20 0xFFFFFFFFFFFFFFFFFFFFFFFFFFFFFFFFFFFFFFFF AND SUB PUSH2 0x34D JUMPI PUSH1 0x40 MLOAD PUSH32 0x8C379A000000000000000000000000000000000000000000000000000000000 DUP2 MSTORE PUSH1 0x4 ADD PUSH2 0x344 SWAP1 PUSH2 0x861 JUMP JUMPDEST PUSH1 0x40 MLOAD DUP1 SWAP2 SUB SWAP1 REVERT JUMPDEST DUP1 PUSH0 DUP1 PUSH2 0x100 EXP DUP2 SLOAD DUP2 PUSH20 0xFFFFFFFFFFFFFFFFFFFFFFFFFFFFFFFFFFFFFFFF MUL NOT AND SWAP1 DUP4 PUSH20 0xFFFFFFFFFFFFFFFFFFFFFFFFFFFFFFFFFFFFFFFF AND MUL OR SWAP1 SSTORE POP POP JUMP JUMPDEST PUSH1 0x1 PUSH0 SWAP1 SLOAD SWAP1 PUSH2 0x100 EXP SWAP1 DIV PUSH20 0xFFFFFFFFFFFFFFFFFFFFFFFFFFFFFFFFFFFFFFFF AND DUP2 JUMP JUMPDEST PUSH0 PUSH20 0xFFFFFFFFFFFFFFFFFFFFFFFFFFFFFFFFFFFFFFFF DUP3 AND SWAP1 POP SWAP2 SWAP1 POP JUMP JUMPDEST PUSH0 PUSH2 0x3DD DUP3 PUSH2 0x3B4 JUMP JUMPDEST SWAP1 POP SWAP2 SWAP1 POP JUMP JUMPDEST PUSH2 0x3ED DUP2 PUSH2 0x3D3 JUMP JUMPDEST DUP3 MSTORE POP POP JUMP JUMPDEST PUSH0 PUSH1 0x20 DUP3 ADD SWAP1 POP PUSH2 0x406 PUSH0 DUP4 ADD DUP5 PUSH2 0x3E4 JUMP JUMPDEST SWAP3 SWAP2 POP POP JUMP JUMPDEST PUSH0 PUSH1 0x40 MLOAD SWAP1 POP SWAP1 JUMP JUMPDEST PUSH0 DUP1 REVERT JUMPDEST PUSH0 DUP1 REVERT JUMPDEST PUSH0 DUP1 REVERT JUMPDEST PUSH0 PUSH1 0x1F NOT PUSH1 0x1F DUP4 ADD AND SWAP1 POP SWAP2 SWAP1 POP JUMP JUMPDEST PUSH32 0x4E487B7100000000000000000000000000000000000000000000000000000000 PUSH0 MSTORE PUSH1 0x41 PUSH1 0x4 MSTORE PUSH1 0x24 PUSH0 REVERT JUMPDEST PUSH2 0x467 DUP3 PUSH2 0x421 JUMP JUMPDEST DUP2 ADD DUP2 DUP2 LT PUSH8 0xFFFFFFFFFFFFFFFF DUP3 GT OR ISZERO PUSH2 0x486 JUMPI PUSH2 0x485 PUSH2 0x431 JUMP JUMPDEST JUMPDEST DUP1 PUSH1 0x40 MSTORE POP POP POP JUMP JUMPDEST PUSH0 PUSH2 0x498 PUSH2 0x40C JUMP JUMPDEST SWAP1 POP PUSH2 0x4A4 DUP3 DUP3 PUSH2 0x45E JUMP JUMPDEST SWAP2 SWAP1 POP JUMP JUMPDEST PUSH0 PUSH8 0xFFFFFFFFFFFFFFFF DUP3 GT ISZERO PUSH2 0x4C3 JUMPI PUSH2 0x4C2 PUSH2 0x431 JUMP JUMPDEST JUMPDEST PUSH1 0x20 DUP3 MUL SWAP1 POP PUSH1 0x20 DUP2 ADD SWAP1 POP SWAP2 SWAP1 POP JUMP JUMPDEST PUSH0 DUP1 REVERT JUMPDEST PUSH2 0x4E1 DUP2 PUSH2 0x3D3 JUMP JUMPDEST DUP2 EQ PUSH2 0x4EB JUMPI PUSH0 DUP1 REVERT JUMPDEST POP JUMP JUMPDEST PUSH0 DUP2 CALLDATALOAD SWAP1 POP PUSH2 0x4FC DUP2 PUSH2 0x4D8 JUMP JUMPDEST SWAP3 SWAP2 POP POP JUMP JUMPDEST PUSH0 PUSH2 0x514 PUSH2 0x50F DUP5 PUSH2 0x4A9 JUMP JUMPDEST PUSH2 0x48F JUMP JUMPDEST SWAP1 POP DUP1 DUP4 DUP3 MSTORE PUSH1 0x20 DUP3 ADD SWAP1 POP PUSH1 0x20 DUP5 MUL DUP4 ADD DUP6 DUP2 GT ISZERO PUSH2 0x537 JUMPI PUSH2 0x536 PUSH2 0x4D4 JUMP JUMPDEST JUMPDEST DUP4 JUMPDEST DUP2 DUP2 LT ISZERO PUSH2 0x560 JUMPI DUP1 PUSH2 0x54C DUP9 DUP3 PUSH2 0x4EE JUMP JUMPDEST DUP5 MSTORE PUSH1 0x20 DUP5 ADD SWAP4 POP POP PUSH1 0x20 DUP2 ADD SWAP1 POP PUSH2 0x539 JUMP JUMPDEST POP POP POP SWAP4 SWAP3 POP POP POP JUMP JUMPDEST PUSH0 DUP3 PUSH1 0x1F DUP4 ADD SLT PUSH2 0x57E JUMPI PUSH2 0x57D PUSH2 0x41D JUMP JUMPDEST JUMPDEST DUP2 CALLDATALOAD PUSH2 0x58E DUP5 DUP3 PUSH1 0x20 DUP7 ADD PUSH2 0x502 JUMP JUMPDEST SWAP2 POP POP SWAP3 SWAP2 POP POP JUMP JUMPDEST PUSH0 PUSH8 0xFFFFFFFFFFFFFFFF DUP3 GT ISZERO PUSH2 0x5B1 JUMPI PUSH2 0x5B0 PUSH2 0x431 JUMP JUMPDEST JUMPDEST PUSH1 0x20 DUP3 MUL SWAP1 POP PUSH1 0x20 DUP2 ADD SWAP1 POP SWAP2 SWAP1 POP JUMP JUMPDEST PUSH0 DUP2 SWAP1 POP SWAP2 SWAP1 POP JUMP JUMPDEST PUSH2 0x5D4 DUP2 PUSH2 0x5C2 JUMP JUMPDEST DUP2 EQ PUSH2 0x5DE JUMPI PUSH0 DUP1 REVERT JUMPDEST POP JUMP JUMPDEST PUSH0 DUP2 CALLDATALOAD SWAP1 POP PUSH2 0x5EF DUP2 PUSH2 0x5CB JUMP JUMPDEST SWAP3 SWAP2 POP POP JUMP JUMPDEST PUSH0 PUSH2 0x607 PUSH2 0x602 DUP5 PUSH2 0x597 JUMP JUMPDEST PUSH2 0x48F JUMP JUMPDEST SWAP1 POP DUP1 DUP4 DUP3 MSTORE PUSH1 0x20 DUP3 ADD SWAP1 POP PUSH1 0x20 DUP5 MUL DUP4 ADD DUP6 DUP2 GT ISZERO PUSH2 0x62A JUMPI PUSH2 0x629 PUSH2 0x4D4 JUMP JUMPDEST JUMPDEST DUP4 JUMPDEST DUP2 DUP2 LT ISZERO PUSH2 0x653 JUMPI DUP1 PUSH2 0x63F DUP9 DUP3 PUSH2 0x5E1 JUMP JUMPDEST DUP5 MSTORE PUSH1 0x20 DUP5 ADD SWAP4 POP POP PUSH1 0x20 DUP2 ADD SWAP1 POP PUSH2 0x62C JUMP JUMPDEST POP POP POP SWAP4 SWAP3 POP POP POP JUMP JUMPDEST PUSH0 DUP3 PUSH1 0x1F DUP4 ADD SLT PUSH2 0x671 JUMPI PUSH2 0x670 PUSH2 0x41D JUMP JUMPDEST JUMPDEST DUP2 CALLDATALOAD PUSH2 0x681 DUP5 DUP3 PUSH1 0x20 DUP7 ADD PUSH2 0x5F5 JUMP JUMPDEST SWAP2 POP POP SWAP3 SWAP2 POP POP JUMP JUMPDEST PUSH0 DUP1 PUSH1 0x40 DUP4 DUP6 SUB SLT ISZERO PUSH2 0x6A0 JUMPI PUSH2 0x69F PUSH2 0x415 JUMP JUMPDEST JUMPDEST PUSH0 DUP4 ADD CALLDATALOAD PUSH8 0xFFFFFFFFFFFFFFFF DUP2 GT ISZERO PUSH2 0x6BD JUMPI PUSH2 0x6BC PUSH2 0x419 JUMP JUMPDEST JUMPDEST PUSH2 0x6C9 DUP6 DUP3 DUP7 ADD PUSH2 0x56A JUMP JUMPDEST SWAP3 POP POP PUSH1 0x20 DUP4 ADD CALLDATALOAD PUSH8 0xFFFFFFFFFFFFFFFF DUP2 GT ISZERO PUSH2 0x6EA JUMPI PUSH2 0x6E9 PUSH2 0x419 JUMP JUMPDEST JUMPDEST PUSH2 0x6F6 DUP6 DUP3 DUP7 ADD PUSH2 0x65D JUMP JUMPDEST SWAP2 POP POP SWAP3 POP SWAP3 SWAP1 POP JUMP JUMPDEST PUSH0 PUSH1 0x20 DUP3 DUP5 SUB SLT ISZERO PUSH2 0x715 JUMPI PUSH2 0x714 PUSH2 0x415 JUMP JUMPDEST JUMPDEST PUSH0 PUSH2 0x722 DUP5 DUP3 DUP6 ADD PUSH2 0x4EE JUMP JUMPDEST SWAP2 POP POP SWAP3 SWAP2 POP POP JUMP JUMPDEST PUSH0 DUP2 SWAP1 POP SWAP2 SWAP1 POP JUMP JUMPDEST PUSH0 PUSH2 0x74E PUSH2 0x749 PUSH2 0x744 DUP5 PUSH2 0x3B4 JUMP JUMPDEST PUSH2 0x72B JUMP JUMPDEST PUSH2 0x3B4 JUMP JUMPDEST SWAP1 POP SWAP2 SWAP1 POP JUMP JUMPDEST PUSH0 PUSH2 0x75F DUP3 PUSH2 0x734 JUMP JUMPDEST SWAP1 POP SWAP2 SWAP1 POP JUMP JUMPDEST PUSH0 PUSH2 0x770 DUP3 PUSH2 0x755 JUMP JUMPDEST SWAP1 POP SWAP2 SWAP1 POP JUMP JUMPDEST PUSH2 0x780 DUP2 PUSH2 0x766 JUMP JUMPDEST DUP3 MSTORE POP POP JUMP JUMPDEST PUSH0 PUSH1 0x20 DUP3 ADD SWAP1 POP PUSH2 0x799 PUSH0 DUP4 ADD DUP5 PUSH2 0x777 JUMP JUMPDEST SWAP3 SWAP2 POP POP JUMP JUMPDEST PUSH0 DUP3 DUP3 MSTORE PUSH1 0x20 DUP3 ADD SWAP1 POP SWAP3 SWAP2 POP POP JUMP JUMPDEST PUSH32 0x41697264726F703A2063616C6C6572206973206E6F7420676F7665726E6F7200 PUSH0 DUP3 ADD MSTORE POP JUMP JUMPDEST PUSH0 PUSH2 0x7E3 PUSH1 0x1F DUP4 PUSH2 0x79F JUMP JUMPDEST SWAP2 POP PUSH2 0x7EE DUP3 PUSH2 0x7AF JUMP JUMPDEST PUSH1 0x20 DUP3 ADD SWAP1 POP SWAP2 SWAP1 POP JUMP JUMPDEST PUSH0 PUSH1 0x20 DUP3 ADD SWAP1 POP DUP2 DUP2 SUB PUSH0 DUP4 ADD MSTORE PUSH2 0x810 DUP2 PUSH2 0x7D7 JUMP JUMPDEST SWAP1 POP SWAP2 SWAP1 POP JUMP JUMPDEST PUSH32 0x41697264726F703A206E657720676F76206973207A65726F2061646472657373 PUSH0 DUP3 ADD MSTORE POP JUMP JUMPDEST PUSH0 PUSH2 0x84B PUSH1 0x20 DUP4 PUSH2 0x79F JUMP JUMPDEST SWAP2 POP PUSH2 0x856 DUP3 PUSH2 0x817 JUMP JUMPDEST PUSH1 0x20 DUP3 ADD SWAP1 POP SWAP2 SWAP1 POP JUMP JUMPDEST PUSH0 PUSH1 0x20 DUP3 ADD SWAP1 POP DUP2 DUP2 SUB PUSH0 DUP4 ADD MSTORE PUSH2 0x878 DUP2 PUSH2 0x83F JUMP JUMPDEST SWAP1 POP SWAP2 SWAP1 POP JUMP INVALID LOG2 PUSH5 0x6970667358 0x22 SLT KECCAK256 0xCF SWAP13 0xC0 0x5D GT PUSH20 0x1822A39083A364FB5B4354F1B51A6DD5D43C5244 DUP6 SWAP8 0xBD MSIZE JUMPDEST PUSH14 0x64736F6C63430008140033000000 "
				},
				"gasEstimates": {
					"creation": {
						"codeDepositCost": "445800",
						"executionCost": "infinite",
						"totalCost": "infinite"
					},
					"external": {
						"airdropBNB(address[],uint256[])": "infinite",
						"airdropERC20(address[],uint256[])": "infinite",
						"gov()": "2483",
						"setGov(address)": "26959",
						"token()": "infinite"
					}
				},
				"methodIdentifiers": {
					"airdropBNB(address[],uint256[])": "677e88c3",
					"airdropERC20(address[],uint256[])": "a3b86230",
					"gov()": "12d43a51",
					"setGov(address)": "cfad57a2",
					"token()": "fc0c546a"
				}
			},
			"storageLayout": {
				"storage": [
					{
						"astId": 210,
						"contract": "contracts/airdrop1.sol:Airdrop",
						"label": "gov",
						"offset": 0,
						"slot": "0",
						"type": "t_address"
					},
					{
						"astId": 213,
						"contract": "contracts/airdrop1.sol:Airdrop",
						"label": "token",
						"offset": 0,
						"slot": "1",
						"type": "t_contract(MyToken)205"
					}
				],
				"types": {
					"t_address": {
						"encoding": "inplace",
						"label": "address",
						"numberOfBytes": "20"
					},
					"t_contract(MyToken)205": {
						"encoding": "inplace",
						"label": "contract MyToken",
						"numberOfBytes": "20"
					}
				}
			},
			"userdoc": {
				"kind": "user",
				"methods": {},
				"version": 1
			}
		}
	}
}